{
  "_format": "hh-sol-artifact-1",
  "contractName": "TradingContract",
  "sourceName": "contracts/TradingContract.sol",
  "abi": [
    {
      "inputs": [
        {
          "internalType": "address",
          "name": "_nftContract",
          "type": "address"
        }
      ],
      "stateMutability": "nonpayable",
      "type": "constructor"
    },
    {
      "anonymous": false,
      "inputs": [
        {
          "indexed": true,
          "internalType": "uint256",
          "name": "tokenId",
          "type": "uint256"
        },
        {
          "indexed": false,
          "internalType": "address",
          "name": "winner",
          "type": "address"
        },
        {
          "indexed": false,
          "internalType": "uint256",
          "name": "amount",
          "type": "uint256"
        }
      ],
      "name": "AuctionEnded",
      "type": "event"
    },
    {
      "anonymous": false,
      "inputs": [
        {
          "indexed": true,
          "internalType": "uint256",
          "name": "tokenId",
          "type": "uint256"
        },
        {
          "indexed": false,
          "internalType": "address",
          "name": "seller",
          "type": "address"
        },
        {
          "indexed": false,
          "internalType": "uint256",
          "name": "startingPrice",
          "type": "uint256"
        },
        {
          "indexed": false,
          "internalType": "uint256",
          "name": "endTime",
          "type": "uint256"
        }
      ],
      "name": "AuctionStarted",
      "type": "event"
    },
    {
      "anonymous": false,
      "inputs": [
        {
          "indexed": true,
          "internalType": "uint256",
          "name": "tokenId",
          "type": "uint256"
        },
        {
          "indexed": false,
          "internalType": "address",
          "name": "bidder",
          "type": "address"
        },
        {
          "indexed": false,
          "internalType": "uint256",
          "name": "amount",
          "type": "uint256"
        }
      ],
      "name": "BidWithdrawn",
      "type": "event"
    },
    {
      "anonymous": false,
      "inputs": [
        {
          "indexed": true,
          "internalType": "uint256",
          "name": "tokenId",
          "type": "uint256"
        },
        {
          "indexed": false,
          "internalType": "address",
          "name": "seller",
          "type": "address"
        }
      ],
      "name": "NFTDelisted",
      "type": "event"
    },
    {
      "anonymous": false,
      "inputs": [
        {
          "indexed": true,
          "internalType": "uint256",
          "name": "tokenId",
          "type": "uint256"
        },
        {
          "indexed": false,
          "internalType": "address",
          "name": "seller",
          "type": "address"
        },
        {
          "indexed": false,
          "internalType": "uint256",
          "name": "price",
          "type": "uint256"
        }
      ],
      "name": "NFTListed",
      "type": "event"
    },
    {
      "anonymous": false,
      "inputs": [
        {
          "indexed": true,
          "internalType": "uint256",
          "name": "tokenId",
          "type": "uint256"
        },
        {
          "indexed": false,
          "internalType": "address",
          "name": "buyer",
          "type": "address"
        },
        {
          "indexed": false,
          "internalType": "uint256",
          "name": "price",
          "type": "uint256"
        }
      ],
      "name": "NFTSold",
      "type": "event"
    },
    {
      "anonymous": false,
      "inputs": [
        {
          "indexed": true,
          "internalType": "uint256",
          "name": "tokenId",
          "type": "uint256"
        },
        {
          "indexed": false,
          "internalType": "address",
          "name": "bidder",
          "type": "address"
        },
        {
          "indexed": false,
          "internalType": "uint256",
          "name": "amount",
          "type": "uint256"
        }
      ],
      "name": "NewBid",
      "type": "event"
    },
    {
      "inputs": [
        {
          "internalType": "uint256",
          "name": "",
          "type": "uint256"
        }
      ],
      "name": "auctions",
      "outputs": [
        {
          "internalType": "address",
          "name": "seller",
          "type": "address"
        },
        {
          "internalType": "uint256",
          "name": "startingPrice",
          "type": "uint256"
        },
        {
          "internalType": "uint256",
          "name": "highestBid",
          "type": "uint256"
        },
        {
          "internalType": "address",
          "name": "highestBidder",
          "type": "address"
        },
        {
          "internalType": "uint256",
          "name": "endTime",
          "type": "uint256"
        },
        {
          "internalType": "bool",
          "name": "isActive",
          "type": "bool"
        }
      ],
      "stateMutability": "view",
      "type": "function"
    },
    {
      "inputs": [
        {
          "internalType": "uint256",
          "name": "tokenId",
          "type": "uint256"
        }
      ],
      "name": "buyNFT",
      "outputs": [],
      "stateMutability": "payable",
      "type": "function"
    },
    {
      "inputs": [
        {
          "internalType": "uint256",
          "name": "tokenId",
          "type": "uint256"
        }
      ],
      "name": "cancelAuction",
      "outputs": [],
      "stateMutability": "nonpayable",
      "type": "function"
    },
    {
      "inputs": [
        {
          "internalType": "uint256",
          "name": "tokenId",
          "type": "uint256"
        }
      ],
      "name": "delistNFT",
      "outputs": [],
      "stateMutability": "nonpayable",
      "type": "function"
    },
    {
      "inputs": [
        {
          "internalType": "uint256",
          "name": "tokenId",
          "type": "uint256"
        }
      ],
      "name": "finalizeAuction",
      "outputs": [],
      "stateMutability": "nonpayable",
      "type": "function"
    },
    {
      "inputs": [
        {
          "internalType": "uint256",
          "name": "tokenId",
          "type": "uint256"
        }
      ],
      "name": "getAuctionDetails",
      "outputs": [
        {
          "components": [
            {
              "internalType": "address",
              "name": "seller",
              "type": "address"
            },
            {
              "internalType": "uint256",
              "name": "startingPrice",
              "type": "uint256"
            },
            {
              "internalType": "uint256",
              "name": "highestBid",
              "type": "uint256"
            },
            {
              "internalType": "address",
              "name": "highestBidder",
              "type": "address"
            },
            {
              "internalType": "uint256",
              "name": "endTime",
              "type": "uint256"
            },
            {
              "internalType": "bool",
              "name": "isActive",
              "type": "bool"
            }
          ],
          "internalType": "struct TradingContract.Auction",
          "name": "",
          "type": "tuple"
        }
      ],
      "stateMutability": "view",
      "type": "function"
    },
    {
      "inputs": [
        {
          "internalType": "uint256",
          "name": "tokenId",
          "type": "uint256"
        },
        {
          "internalType": "uint256",
          "name": "price",
          "type": "uint256"
        }
      ],
      "name": "listNFT",
      "outputs": [],
      "stateMutability": "nonpayable",
      "type": "function"
    },
    {
      "inputs": [
        {
          "internalType": "uint256",
          "name": "",
          "type": "uint256"
        }
      ],
      "name": "listings",
      "outputs": [
        {
          "internalType": "address",
          "name": "seller",
          "type": "address"
        },
        {
          "internalType": "uint256",
          "name": "price",
          "type": "uint256"
        },
        {
          "internalType": "bool",
          "name": "isActive",
          "type": "bool"
        }
      ],
      "stateMutability": "view",
      "type": "function"
    },
    {
      "inputs": [],
      "name": "nftContract",
      "outputs": [
        {
          "internalType": "contract ERC721",
          "name": "",
          "type": "address"
        }
      ],
      "stateMutability": "view",
      "type": "function"
    },
    {
      "inputs": [],
      "name": "owner",
      "outputs": [
        {
          "internalType": "address",
          "name": "",
          "type": "address"
        }
      ],
      "stateMutability": "view",
      "type": "function"
    },
    {
      "inputs": [
        {
          "internalType": "uint256",
          "name": "",
          "type": "uint256"
        },
        {
          "internalType": "address",
          "name": "",
          "type": "address"
        }
      ],
      "name": "pendingReturns",
      "outputs": [
        {
          "internalType": "uint256",
          "name": "",
          "type": "uint256"
        }
      ],
      "stateMutability": "view",
      "type": "function"
    },
    {
      "inputs": [
        {
          "internalType": "uint256",
          "name": "tokenId",
          "type": "uint256"
        }
      ],
      "name": "placeBid",
      "outputs": [],
      "stateMutability": "payable",
      "type": "function"
    },
    {
      "inputs": [
        {
          "internalType": "uint256",
          "name": "tokenId",
          "type": "uint256"
        },
        {
          "internalType": "uint256",
          "name": "startingPrice",
          "type": "uint256"
        },
        {
          "internalType": "uint256",
          "name": "duration",
          "type": "uint256"
        }
      ],
      "name": "startAuction",
      "outputs": [],
      "stateMutability": "nonpayable",
      "type": "function"
    },
    {
      "inputs": [
        {
          "internalType": "uint256",
          "name": "tokenId",
          "type": "uint256"
        }
      ],
      "name": "withdrawBid",
      "outputs": [],
      "stateMutability": "nonpayable",
      "type": "function"
    }
  ],
  "bytecode": "0x608060405234801561001057600080fd5b506040516129183803806129188339818101604052810190610032919061011c565b806000806101000a81548173ffffffffffffffffffffffffffffffffffffffff021916908373ffffffffffffffffffffffffffffffffffffffff16021790555033600160006101000a81548173ffffffffffffffffffffffffffffffffffffffff021916908373ffffffffffffffffffffffffffffffffffffffff16021790555050610149565b600080fd5b600073ffffffffffffffffffffffffffffffffffffffff82169050919050565b60006100e9826100be565b9050919050565b6100f9816100de565b811461010457600080fd5b50565b600081519050610116816100f0565b92915050565b600060208284031215610132576101316100b9565b5b600061014084828501610107565b91505092915050565b6127c0806101586000396000f3fe6080604052600436106100dd5760003560e01c806396b5a7551161007f578063d56d229d11610059578063d56d229d14610291578063de74e57b146102bc578063e8083863146102fb578063f20e5e3514610324576100dd565b806396b5a755146102235780639979ef451461024c578063cb917b9c14610268576100dd565b80638da5cb5b116100bb5780638da5cb5b146101695780638ddac1ef1461019457806391e078bb146101d157806394383f14146101fa576100dd565b80630eaaf4c8146100e257806351ed82881461010b578063571a26a014610127575b600080fd5b3480156100ee57600080fd5b5061010960048036038101906101049190611d95565b610361565b005b61012560048036038101906101209190611d95565b6104d4565b005b34801561013357600080fd5b5061014e60048036038101906101499190611d95565b610792565b60405161016096959493929190611e2d565b60405180910390f35b34801561017557600080fd5b5061017e61081b565b60405161018b9190611e8e565b60405180910390f35b3480156101a057600080fd5b506101bb60048036038101906101b69190611ed5565b610841565b6040516101c89190611f15565b60405180910390f35b3480156101dd57600080fd5b506101f860048036038101906101f39190611f30565b610866565b005b34801561020657600080fd5b50610221600480360381019061021c9190611f83565b610cb0565b005b34801561022f57600080fd5b5061024a60048036038101906102459190611d95565b61105c565b005b61026660048036038101906102619190611d95565b611382565b005b34801561027457600080fd5b5061028f600480360381019061028a9190611d95565b6115c3565b005b34801561029d57600080fd5b506102a66117c5565b6040516102b39190612022565b60405180910390f35b3480156102c857600080fd5b506102e360048036038101906102de9190611d95565b6117e9565b6040516102f29392919061203d565b60405180910390f35b34801561030757600080fd5b50610322600480360381019061031d9190611d95565b611840565b005b34801561033057600080fd5b5061034b60048036038101906103469190611d95565b611be4565b604051610358919061211c565b60405180910390f35b60006004600083815260200190815260200160002060003373ffffffffffffffffffffffffffffffffffffffff1673ffffffffffffffffffffffffffffffffffffffff168152602001908152602001600020549050600081116103f9576040517f08c379a00000000000000000000000000000000000000000000000000000000081526004016103f090612194565b60405180910390fd5b60006004600084815260200190815260200160002060003373ffffffffffffffffffffffffffffffffffffffff1673ffffffffffffffffffffffffffffffffffffffff168152602001908152602001600020819055503373ffffffffffffffffffffffffffffffffffffffff166108fc829081150290604051600060405180830381858888f19350505050158015610495573d6000803e3d6000fd5b50817f8f8619524e8d462cead34604bd2247ede24175801481e4d0b8059ac8aa41c30133836040516104c89291906121b4565b60405180910390a25050565b806002600082815260200190815260200160002060020160009054906101000a900460ff16610538576040517f08c379a000000000000000000000000000000000000000000000000000000000815260040161052f90612229565b60405180910390fd5b6000600260008481526020019081526020016000206040518060600160405290816000820160009054906101000a900473ffffffffffffffffffffffffffffffffffffffff1673ffffffffffffffffffffffffffffffffffffffff1673ffffffffffffffffffffffffffffffffffffffff168152602001600182015481526020016002820160009054906101000a900460ff1615151515815250509050806020015134101561061c576040517f08c379a000000000000000000000000000000000000000000000000000000000815260040161061390612295565b60405180910390fd5b806000015173ffffffffffffffffffffffffffffffffffffffff166108fc349081150290604051600060405180830381858888f19350505050158015610666573d6000803e3d6000fd5b5060008054906101000a900473ffffffffffffffffffffffffffffffffffffffff1673ffffffffffffffffffffffffffffffffffffffff166342842e0e826000015133866040518463ffffffff1660e01b81526004016106c8939291906122b5565b600060405180830381600087803b1580156106e257600080fd5b505af11580156106f6573d6000803e3d6000fd5b5050505060026000848152602001908152602001600020600080820160006101000a81549073ffffffffffffffffffffffffffffffffffffffff021916905560018201600090556002820160006101000a81549060ff02191690555050827f6329e40c0365262ebbff5ca819385c2b9713dcaa050ed07866d72c441395699a33346040516107859291906121b4565b60405180910390a2505050565b60036020528060005260406000206000915090508060000160009054906101000a900473ffffffffffffffffffffffffffffffffffffffff16908060010154908060020154908060030160009054906101000a900473ffffffffffffffffffffffffffffffffffffffff16908060040154908060050160009054906101000a900460ff16905086565b600160009054906101000a900473ffffffffffffffffffffffffffffffffffffffff1681565b6004602052816000526040600020602052806000526040600020600091509150505481565b823373ffffffffffffffffffffffffffffffffffffffff1660008054906101000a900473ffffffffffffffffffffffffffffffffffffffff1673ffffffffffffffffffffffffffffffffffffffff16636352211e836040518263ffffffff1660e01b81526004016108d79190611f15565b602060405180830381865afa1580156108f4573d6000803e3d6000fd5b505050506040513d601f19601f820116820180604052508101906109189190612301565b73ffffffffffffffffffffffffffffffffffffffff161461096e576040517f08c379a00000000000000000000000000000000000000000000000000000000081526004016109659061237a565b60405180910390fd5b3073ffffffffffffffffffffffffffffffffffffffff1660008054906101000a900473ffffffffffffffffffffffffffffffffffffffff1673ffffffffffffffffffffffffffffffffffffffff1663081812fc866040518263ffffffff1660e01b81526004016109de9190611f15565b602060405180830381865afa1580156109fb573d6000803e3d6000fd5b505050506040513d601f19601f82011682018060405250810190610a1f9190612301565b73ffffffffffffffffffffffffffffffffffffffff161480610ad9575060008054906101000a900473ffffffffffffffffffffffffffffffffffffffff1673ffffffffffffffffffffffffffffffffffffffff1663e985e9c533306040518363ffffffff1660e01b8152600401610a9792919061239a565b602060405180830381865afa158015610ab4573d6000803e3d6000fd5b505050506040513d601f19601f82011682018060405250810190610ad891906123ef565b5b610b18576040517f08c379a0000000000000000000000000000000000000000000000000000000008152600401610b0f9061248e565b60405180910390fd5b6040518060c001604052803373ffffffffffffffffffffffffffffffffffffffff16815260200184815260200160008152602001600073ffffffffffffffffffffffffffffffffffffffff1681526020018342610b7591906124dd565b8152602001600115158152506003600086815260200190815260200160002060008201518160000160006101000a81548173ffffffffffffffffffffffffffffffffffffffff021916908373ffffffffffffffffffffffffffffffffffffffff160217905550602082015181600101556040820151816002015560608201518160030160006101000a81548173ffffffffffffffffffffffffffffffffffffffff021916908373ffffffffffffffffffffffffffffffffffffffff1602179055506080820151816004015560a08201518160050160006101000a81548160ff021916908315150217905550905050837fbf6dc7bdf2f23af5a506fe03ee1221f47d023a2227fbc949c6b812ae44534e6d33858542610c9391906124dd565b604051610ca293929190612511565b60405180910390a250505050565b813373ffffffffffffffffffffffffffffffffffffffff1660008054906101000a900473ffffffffffffffffffffffffffffffffffffffff1673ffffffffffffffffffffffffffffffffffffffff16636352211e836040518263ffffffff1660e01b8152600401610d219190611f15565b602060405180830381865afa158015610d3e573d6000803e3d6000fd5b505050506040513d601f19601f82011682018060405250810190610d629190612301565b73ffffffffffffffffffffffffffffffffffffffff1614610db8576040517f08c379a0000000000000000000000000000000000000000000000000000000008152600401610daf9061237a565b60405180910390fd5b3073ffffffffffffffffffffffffffffffffffffffff1660008054906101000a900473ffffffffffffffffffffffffffffffffffffffff1673ffffffffffffffffffffffffffffffffffffffff1663081812fc856040518263ffffffff1660e01b8152600401610e289190611f15565b602060405180830381865afa158015610e45573d6000803e3d6000fd5b505050506040513d601f19601f82011682018060405250810190610e699190612301565b73ffffffffffffffffffffffffffffffffffffffff161480610f23575060008054906101000a900473ffffffffffffffffffffffffffffffffffffffff1673ffffffffffffffffffffffffffffffffffffffff1663e985e9c533306040518363ffffffff1660e01b8152600401610ee192919061239a565b602060405180830381865afa158015610efe573d6000803e3d6000fd5b505050506040513d601f19601f82011682018060405250810190610f2291906123ef565b5b610f62576040517f08c379a0000000000000000000000000000000000000000000000000000000008152600401610f599061248e565b60405180910390fd5b60405180606001604052803373ffffffffffffffffffffffffffffffffffffffff168152602001838152602001600115158152506002600085815260200190815260200160002060008201518160000160006101000a81548173ffffffffffffffffffffffffffffffffffffffff021916908373ffffffffffffffffffffffffffffffffffffffff1602179055506020820151816001015560408201518160020160006101000a81548160ff021916908315150217905550905050827f5f9c03de076f5063cd3ebcfe8ef7aa8af378e4b35a83c77ba9777e97083879a2338460405161104f9291906121b4565b60405180910390a2505050565b803373ffffffffffffffffffffffffffffffffffffffff1660008054906101000a900473ffffffffffffffffffffffffffffffffffffffff1673ffffffffffffffffffffffffffffffffffffffff16636352211e836040518263ffffffff1660e01b81526004016110cd9190611f15565b602060405180830381865afa1580156110ea573d6000803e3d6000fd5b505050506040513d601f19601f8201168201806040525081019061110e9190612301565b73ffffffffffffffffffffffffffffffffffffffff1614611164576040517f08c379a000000000000000000000000000000000000000000000000000000000815260040161115b9061237a565b60405180910390fd5b816003600082815260200190815260200160002060050160009054906101000a900460ff166111c8576040517f08c379a00000000000000000000000000000000000000000000000000000000081526004016111bf90612594565b60405180910390fd5b60036000828152602001908152602001600020600401544210611220576040517f08c379a000000000000000000000000000000000000000000000000000000000815260040161121790612600565b60405180910390fd5b60006003600085815260200190815260200160002090506000816002015411156112b4578060030160009054906101000a900473ffffffffffffffffffffffffffffffffffffffff1673ffffffffffffffffffffffffffffffffffffffff166108fc82600201549081150290604051600060405180830381858888f193505050501580156112b2573d6000803e3d6000fd5b505b60036000858152602001908152602001600020600080820160006101000a81549073ffffffffffffffffffffffffffffffffffffffff0219169055600182016000905560028201600090556003820160006101000a81549073ffffffffffffffffffffffffffffffffffffffff021916905560048201600090556005820160006101000a81549060ff02191690555050837fef1499b350e05776e60cd2ffcac001569a28e9d574e1f3adc1b3ab264f8ccffd336040516113749190611e8e565b60405180910390a250505050565b806003600082815260200190815260200160002060050160009054906101000a900460ff166113e6576040517f08c379a00000000000000000000000000000000000000000000000000000000081526004016113dd90612594565b60405180910390fd5b6003600082815260200190815260200160002060040154421061143e576040517f08c379a000000000000000000000000000000000000000000000000000000000815260040161143590612600565b60405180910390fd5b60006003600084815260200190815260200160002090508060020154341161149b576040517f08c379a000000000000000000000000000000000000000000000000000000000815260040161149290612692565b60405180910390fd5b6000816002015411156115385780600201546004600085815260200190815260200160002060008360030160009054906101000a900473ffffffffffffffffffffffffffffffffffffffff1673ffffffffffffffffffffffffffffffffffffffff1673ffffffffffffffffffffffffffffffffffffffff168152602001908152602001600020600082825461153091906124dd565b925050819055505b348160020181905550338160030160006101000a81548173ffffffffffffffffffffffffffffffffffffffff021916908373ffffffffffffffffffffffffffffffffffffffff160217905550827f558a0d5d5468d74b0db24c74eb348b42271c2ebb4c9e953ced38aaed95fa436133346040516115b69291906121b4565b60405180910390a2505050565b803373ffffffffffffffffffffffffffffffffffffffff1660008054906101000a900473ffffffffffffffffffffffffffffffffffffffff1673ffffffffffffffffffffffffffffffffffffffff16636352211e836040518263ffffffff1660e01b81526004016116349190611f15565b602060405180830381865afa158015611651573d6000803e3d6000fd5b505050506040513d601f19601f820116820180604052508101906116759190612301565b73ffffffffffffffffffffffffffffffffffffffff16146116cb576040517f08c379a00000000000000000000000000000000000000000000000000000000081526004016116c29061237a565b60405180910390fd5b816002600082815260200190815260200160002060020160009054906101000a900460ff1661172f576040517f08c379a000000000000000000000000000000000000000000000000000000000815260040161172690612229565b60405180910390fd5b60026000848152602001908152602001600020600080820160006101000a81549073ffffffffffffffffffffffffffffffffffffffff021916905560018201600090556002820160006101000a81549060ff02191690555050827fef1499b350e05776e60cd2ffcac001569a28e9d574e1f3adc1b3ab264f8ccffd336040516117b89190611e8e565b60405180910390a2505050565b60008054906101000a900473ffffffffffffffffffffffffffffffffffffffff1681565b60026020528060005260406000206000915090508060000160009054906101000a900473ffffffffffffffffffffffffffffffffffffffff16908060010154908060020160009054906101000a900460ff16905083565b806003600082815260200190815260200160002060050160009054906101000a900460ff166118a4576040517f08c379a000000000000000000000000000000000000000000000000000000000815260040161189b90612594565b60405180910390fd5b60036000828152602001908152602001600020600401544210156118fd576040517f08c379a00000000000000000000000000000000000000000000000000000000081526004016118f4906126fe565b60405180910390fd5b6000600360008481526020019081526020016000209050600073ffffffffffffffffffffffffffffffffffffffff168160030160009054906101000a900473ffffffffffffffffffffffffffffffffffffffff1673ffffffffffffffffffffffffffffffffffffffff16036119a7576040517f08c379a000000000000000000000000000000000000000000000000000000000815260040161199e9061276a565b60405180910390fd5b60008054906101000a900473ffffffffffffffffffffffffffffffffffffffff1673ffffffffffffffffffffffffffffffffffffffff166342842e0e8260000160009054906101000a900473ffffffffffffffffffffffffffffffffffffffff168360030160009054906101000a900473ffffffffffffffffffffffffffffffffffffffff16866040518463ffffffff1660e01b8152600401611a4c939291906122b5565b600060405180830381600087803b158015611a6657600080fd5b505af1158015611a7a573d6000803e3d6000fd5b505050508060000160009054906101000a900473ffffffffffffffffffffffffffffffffffffffff1673ffffffffffffffffffffffffffffffffffffffff166108fc82600201549081150290604051600060405180830381858888f19350505050158015611aec573d6000803e3d6000fd5b5060036000848152602001908152602001600020600080820160006101000a81549073ffffffffffffffffffffffffffffffffffffffff0219169055600182016000905560028201600090556003820160006101000a81549073ffffffffffffffffffffffffffffffffffffffff021916905560048201600090556005820160006101000a81549060ff02191690555050827fd2aa34a4fdbbc6dff6a3e56f46e0f3ae2a31d7785ff3487aa5c95c642acea5018260030160009054906101000a900473ffffffffffffffffffffffffffffffffffffffff168360020154604051611bd79291906121b4565b60405180910390a2505050565b611bec611cf6565b600360008381526020019081526020016000206040518060c00160405290816000820160009054906101000a900473ffffffffffffffffffffffffffffffffffffffff1673ffffffffffffffffffffffffffffffffffffffff1673ffffffffffffffffffffffffffffffffffffffff16815260200160018201548152602001600282015481526020016003820160009054906101000a900473ffffffffffffffffffffffffffffffffffffffff1673ffffffffffffffffffffffffffffffffffffffff1673ffffffffffffffffffffffffffffffffffffffff168152602001600482015481526020016005820160009054906101000a900460ff1615151515815250509050919050565b6040518060c00160405280600073ffffffffffffffffffffffffffffffffffffffff1681526020016000815260200160008152602001600073ffffffffffffffffffffffffffffffffffffffff168152602001600081526020016000151581525090565b600080fd5b6000819050919050565b611d7281611d5f565b8114611d7d57600080fd5b50565b600081359050611d8f81611d69565b92915050565b600060208284031215611dab57611daa611d5a565b5b6000611db984828501611d80565b91505092915050565b600073ffffffffffffffffffffffffffffffffffffffff82169050919050565b6000611ded82611dc2565b9050919050565b611dfd81611de2565b82525050565b611e0c81611d5f565b82525050565b60008115159050919050565b611e2781611e12565b82525050565b600060c082019050611e426000830189611df4565b611e4f6020830188611e03565b611e5c6040830187611e03565b611e696060830186611df4565b611e766080830185611e03565b611e8360a0830184611e1e565b979650505050505050565b6000602082019050611ea36000830184611df4565b92915050565b611eb281611de2565b8114611ebd57600080fd5b50565b600081359050611ecf81611ea9565b92915050565b60008060408385031215611eec57611eeb611d5a565b5b6000611efa85828601611d80565b9250506020611f0b85828601611ec0565b9150509250929050565b6000602082019050611f2a6000830184611e03565b92915050565b600080600060608486031215611f4957611f48611d5a565b5b6000611f5786828701611d80565b9350506020611f6886828701611d80565b9250506040611f7986828701611d80565b9150509250925092565b60008060408385031215611f9a57611f99611d5a565b5b6000611fa885828601611d80565b9250506020611fb985828601611d80565b9150509250929050565b6000819050919050565b6000611fe8611fe3611fde84611dc2565b611fc3565b611dc2565b9050919050565b6000611ffa82611fcd565b9050919050565b600061200c82611fef565b9050919050565b61201c81612001565b82525050565b60006020820190506120376000830184612013565b92915050565b60006060820190506120526000830186611df4565b61205f6020830185611e03565b61206c6040830184611e1e565b949350505050565b61207d81611de2565b82525050565b61208c81611d5f565b82525050565b61209b81611e12565b82525050565b60c0820160008201516120b76000850182612074565b5060208201516120ca6020850182612083565b5060408201516120dd6040850182612083565b5060608201516120f06060850182612074565b5060808201516121036080850182612083565b5060a082015161211660a0850182612092565b50505050565b600060c08201905061213160008301846120a1565b92915050565b600082825260208201905092915050565b7f4e6f2066756e647320746f207769746864726177000000000000000000000000600082015250565b600061217e601483612137565b915061218982612148565b602082019050919050565b600060208201905081810360008301526121ad81612171565b9050919050565b60006040820190506121c96000830185611df4565b6121d66020830184611e03565b9392505050565b7f4e4654206973206e6f74206c697374656420666f722073616c65000000000000600082015250565b6000612213601a83612137565b915061221e826121dd565b602082019050919050565b6000602082019050818103600083015261224281612206565b9050919050565b7f496e73756666696369656e742066756e64730000000000000000000000000000600082015250565b600061227f601283612137565b915061228a82612249565b602082019050919050565b600060208201905081810360008301526122ae81612272565b9050919050565b60006060820190506122ca6000830186611df4565b6122d76020830185611df4565b6122e46040830184611e03565b949350505050565b6000815190506122fb81611ea9565b92915050565b60006020828403121561231757612316611d5a565b5b6000612325848285016122ec565b91505092915050565b7f4e6f7420746f6b656e206f776e65720000000000000000000000000000000000600082015250565b6000612364600f83612137565b915061236f8261232e565b602082019050919050565b6000602082019050818103600083015261239381612357565b9050919050565b60006040820190506123af6000830185611df4565b6123bc6020830184611df4565b9392505050565b6123cc81611e12565b81146123d757600080fd5b50565b6000815190506123e9816123c3565b92915050565b60006020828403121561240557612404611d5a565b5b6000612413848285016123da565b91505092915050565b7f4d61726b6574706c616365206e6f7420617070726f76656420746f206d616e6160008201527f67652074686973204e4654000000000000000000000000000000000000000000602082015250565b6000612478602b83612137565b91506124838261241c565b604082019050919050565b600060208201905081810360008301526124a78161246b565b9050919050565b7f4e487b7100000000000000000000000000000000000000000000000000000000600052601160045260246000fd5b60006124e882611d5f565b91506124f383611d5f565b925082820190508082111561250b5761250a6124ae565b5b92915050565b60006060820190506125266000830186611df4565b6125336020830185611e03565b6125406040830184611e03565b949350505050565b7f41756374696f6e206973206e6f74206163746976650000000000000000000000600082015250565b600061257e601583612137565b915061258982612548565b602082019050919050565b600060208201905081810360008301526125ad81612571565b9050919050565b7f41756374696f6e2068617320656e646564000000000000000000000000000000600082015250565b60006125ea601183612137565b91506125f5826125b4565b602082019050919050565b60006020820190508181036000830152612619816125dd565b9050919050565b7f426964206d75737420626520686967686572207468616e2063757272656e742060008201527f6869676865737400000000000000000000000000000000000000000000000000602082015250565b600061267c602783612137565b915061268782612620565b604082019050919050565b600060208201905081810360008301526126ab8161266f565b9050919050565b7f41756374696f6e206973207374696c6c206f6e676f696e670000000000000000600082015250565b60006126e8601883612137565b91506126f3826126b2565b602082019050919050565b60006020820190508181036000830152612717816126db565b9050919050565b7f4e6f206269647320706c61636564000000000000000000000000000000000000600082015250565b6000612754600e83612137565b915061275f8261271e565b602082019050919050565b6000602082019050818103600083015261278381612747565b905091905056fea264697066735822122041136f4f314738a40d8c385a3f07f8baaf0ac29f82e5680d3532051d63dd44c464736f6c634300081c0033",
  "linkReferences": {},
  "deployedLinkReferences": {}
}