{
  "_format": "hh-sol-artifact-1",
  "contractName": "TradingContract",
  "sourceName": "contracts/TradingContract.sol",
  "abi": [
    {
      "inputs": [
        {
          "internalType": "address",
          "name": "_nftContract",
          "type": "address"
        }
      ],
      "stateMutability": "nonpayable",
      "type": "constructor"
    },
    {
      "inputs": [],
      "name": "auction",
      "outputs": [
        {
          "internalType": "contract AuctionMarketplace",
          "name": "",
          "type": "address"
        }
      ],
      "stateMutability": "view",
      "type": "function"
    },
    {
      "inputs": [],
      "name": "dutchAuction",
      "outputs": [
        {
          "internalType": "contract DutchAuctionMarketplace",
          "name": "",
          "type": "address"
        }
      ],
      "stateMutability": "view",
      "type": "function"
    },
    {
      "inputs": [],
      "name": "fixedPrice",
      "outputs": [
        {
          "internalType": "contract FixedPriceMarketplace",
          "name": "",
          "type": "address"
        }
      ],
      "stateMutability": "view",
      "type": "function"
    },
    {
      "inputs": [],
      "name": "nftContract",
      "outputs": [
        {
          "internalType": "contract ERC721",
          "name": "",
          "type": "address"
        }
      ],
      "stateMutability": "view",
      "type": "function"
    },
    {
      "inputs": [],
      "name": "offerManager",
      "outputs": [
        {
          "internalType": "contract OfferManager",
          "name": "",
          "type": "address"
        }
      ],
      "stateMutability": "view",
      "type": "function"
    },
    {
      "inputs": [],
      "name": "owner",
      "outputs": [
        {
          "internalType": "address",
          "name": "",
          "type": "address"
        }
      ],
      "stateMutability": "view",
      "type": "function"
    }
  ],
  "bytecode": "0x608060405234801561001057600080fd5b5060405161703d38038061703d83398181016040528101906100329190610320565b806000806101000a81548173ffffffffffffffffffffffffffffffffffffffff021916908373ffffffffffffffffffffffffffffffffffffffff16021790555033600160006101000a81548173ffffffffffffffffffffffffffffffffffffffff021916908373ffffffffffffffffffffffffffffffffffffffff160217905550806040516100c090610289565b6100ca919061035c565b604051809103906000f0801580156100e6573d6000803e3d6000fd5b50600260006101000a81548173ffffffffffffffffffffffffffffffffffffffff021916908373ffffffffffffffffffffffffffffffffffffffff1602179055508060405161013490610296565b61013e919061035c565b604051809103906000f08015801561015a573d6000803e3d6000fd5b50600360006101000a81548173ffffffffffffffffffffffffffffffffffffffff021916908373ffffffffffffffffffffffffffffffffffffffff160217905550806040516101a8906102a3565b6101b2919061035c565b604051809103906000f0801580156101ce573d6000803e3d6000fd5b50600460006101000a81548173ffffffffffffffffffffffffffffffffffffffff021916908373ffffffffffffffffffffffffffffffffffffffff1602179055508060405161021c906102b0565b610226919061035c565b604051809103906000f080158015610242573d6000803e3d6000fd5b50600560006101000a81548173ffffffffffffffffffffffffffffffffffffffff021916908373ffffffffffffffffffffffffffffffffffffffff16021790555050610377565b611fac8061077f83390190565b6117b58061272b83390190565b61134680613ee083390190565b611e178061522683390190565b600080fd5b600073ffffffffffffffffffffffffffffffffffffffff82169050919050565b60006102ed826102c2565b9050919050565b6102fd816102e2565b811461030857600080fd5b50565b60008151905061031a816102f4565b92915050565b600060208284031215610336576103356102bd565b5b60006103448482850161030b565b91505092915050565b610356816102e2565b82525050565b6000602082019050610371600083018461034d565b92915050565b6103f9806103866000396000f3fe608060405234801561001057600080fd5b50600436106100625760003560e01c80631efba6c2146100675780637d9f6db5146100855780638da5cb5b146100a35780639da0d7d4146100c1578063d56d229d146100df578063e981d43e146100fd575b600080fd5b61006f61011b565b60405161007c919061027c565b60405180910390f35b61008d610141565b60405161009a91906102b8565b60405180910390f35b6100ab610167565b6040516100b891906102f4565b60405180910390f35b6100c961018d565b6040516100d69190610330565b60405180910390f35b6100e76101b3565b6040516100f4919061036c565b60405180910390f35b6101056101d7565b60405161011291906103a8565b60405180910390f35b600460009054906101000a900473ffffffffffffffffffffffffffffffffffffffff1681565b600260009054906101000a900473ffffffffffffffffffffffffffffffffffffffff1681565b600160009054906101000a900473ffffffffffffffffffffffffffffffffffffffff1681565b600360009054906101000a900473ffffffffffffffffffffffffffffffffffffffff1681565b60008054906101000a900473ffffffffffffffffffffffffffffffffffffffff1681565b600560009054906101000a900473ffffffffffffffffffffffffffffffffffffffff1681565b600073ffffffffffffffffffffffffffffffffffffffff82169050919050565b6000819050919050565b600061024261023d610238846101fd565b61021d565b6101fd565b9050919050565b600061025482610227565b9050919050565b600061026682610249565b9050919050565b6102768161025b565b82525050565b6000602082019050610291600083018461026d565b92915050565b60006102a282610249565b9050919050565b6102b281610297565b82525050565b60006020820190506102cd60008301846102a9565b92915050565b60006102de826101fd565b9050919050565b6102ee816102d3565b82525050565b600060208201905061030960008301846102e5565b92915050565b600061031a82610249565b9050919050565b61032a8161030f565b82525050565b60006020820190506103456000830184610321565b92915050565b600061035682610249565b9050919050565b6103668161034b565b82525050565b6000602082019050610381600083018461035d565b92915050565b600061039282610249565b9050919050565b6103a281610387565b82525050565b60006020820190506103bd6000830184610399565b9291505056fea2646970667358221220831f473df3d6c1087f8cede144cd892b3cfd0a572cce41d48ba1b29800bff81864736f6c634300081c0033608060405234801561001057600080fd5b50604051611fac380380611fac833981810160405281019061003291906100db565b806000806101000a81548173ffffffffffffffffffffffffffffffffffffffff021916908373ffffffffffffffffffffffffffffffffffffffff16021790555050610108565b600080fd5b600073ffffffffffffffffffffffffffffffffffffffff82169050919050565b60006100a88261007d565b9050919050565b6100b88161009d565b81146100c357600080fd5b50565b6000815190506100d5816100af565b92915050565b6000602082840312156100f1576100f0610078565b5b60006100ff848285016100c6565b91505092915050565b611e95806101176000396000f3fe6080604052600436106100865760003560e01c806391e078bb1161005957806391e078bb1461017157806396b5a7551461019a5780639979ef45146101c3578063d56d229d146101df578063e80838631461020a57610086565b80630eaaf4c81461008b5780635629939a146100b4578063571a26a0146100f15780638ddac1ef14610134575b600080fd5b34801561009757600080fd5b506100b260048036038101906100ad91906113e1565b610233565b005b3480156100c057600080fd5b506100db60048036038101906100d6919061146c565b61040c565b6040516100e891906114c7565b60405180910390f35b3480156100fd57600080fd5b50610118600480360381019061011391906113e1565b610469565b60405161012b9796959493929190611500565b60405180910390f35b34801561014057600080fd5b5061015b6004803603810190610156919061146c565b6104f8565b604051610168919061156f565b60405180910390f35b34801561017d57600080fd5b506101986004803603810190610193919061158a565b61051d565b005b3480156101a657600080fd5b506101c160048036038101906101bc91906113e1565b610935565b005b6101dd60048036038101906101d891906113e1565b610c39565b005b3480156101eb57600080fd5b506101f4610e9c565b604051610201919061163c565b60405180910390f35b34801561021657600080fd5b50610231600480360381019061022c91906113e1565b610ec0565b005b60006002600083815260200190815260200160002060003373ffffffffffffffffffffffffffffffffffffffff1673ffffffffffffffffffffffffffffffffffffffff168152602001908152602001600020549050600081116102cb576040517f08c379a00000000000000000000000000000000000000000000000000000000081526004016102c2906116b4565b60405180910390fd5b60006002600084815260200190815260200160002060003373ffffffffffffffffffffffffffffffffffffffff1673ffffffffffffffffffffffffffffffffffffffff1681526020019081526020016000208190555060003373ffffffffffffffffffffffffffffffffffffffff168260405161034790611705565b60006040518083038185875af1925050503d8060008114610384576040519150601f19603f3d011682016040523d82523d6000602084013e610389565b606091505b50509050806103cd576040517f08c379a00000000000000000000000000000000000000000000000000000000081526004016103c490611766565b60405180910390fd5b827f8f8619524e8d462cead34604bd2247ede24175801481e4d0b8059ac8aa41c30133846040516103ff929190611786565b60405180910390a2505050565b6000806002600085815260200190815260200160002060008473ffffffffffffffffffffffffffffffffffffffff1673ffffffffffffffffffffffffffffffffffffffff1681526020019081526020016000205411905092915050565b60016020528060005260406000206000915090508060000160009054906101000a900473ffffffffffffffffffffffffffffffffffffffff16908060010154908060020154908060030160009054906101000a900473ffffffffffffffffffffffffffffffffffffffff16908060040154908060050154908060060160009054906101000a900460ff16905087565b6002602052816000526040600020602052806000526040600020600091509150505481565b823373ffffffffffffffffffffffffffffffffffffffff1660008054906101000a900473ffffffffffffffffffffffffffffffffffffffff1673ffffffffffffffffffffffffffffffffffffffff16636352211e836040518263ffffffff1660e01b815260040161058e919061156f565b602060405180830381865afa1580156105ab573d6000803e3d6000fd5b505050506040513d601f19601f820116820180604052508101906105cf91906117c4565b73ffffffffffffffffffffffffffffffffffffffff1614610625576040517f08c379a000000000000000000000000000000000000000000000000000000000815260040161061c9061183d565b60405180910390fd5b60008054906101000a900473ffffffffffffffffffffffffffffffffffffffff1673ffffffffffffffffffffffffffffffffffffffff16630920984c85306040518363ffffffff1660e01b815260040161068092919061185d565b602060405180830381865afa15801561069d573d6000803e3d6000fd5b505050506040513d601f19601f820116820180604052508101906106c191906118b2565b80610764575060008054906101000a900473ffffffffffffffffffffffffffffffffffffffff1673ffffffffffffffffffffffffffffffffffffffff1663e985e9c533306040518363ffffffff1660e01b81526004016107229291906118df565b602060405180830381865afa15801561073f573d6000803e3d6000fd5b505050506040513d601f19601f8201168201806040525081019061076391906118b2565b5b6107a3576040517f08c379a000000000000000000000000000000000000000000000000000000000815260040161079a9061197a565b60405180910390fd5b6040518060e001604052803373ffffffffffffffffffffffffffffffffffffffff16815260200184815260200160008152602001600073ffffffffffffffffffffffffffffffffffffffff168152602001838152602001428152602001600115158152506001600086815260200190815260200160002060008201518160000160006101000a81548173ffffffffffffffffffffffffffffffffffffffff021916908373ffffffffffffffffffffffffffffffffffffffff160217905550602082015181600101556040820151816002015560608201518160030160006101000a81548173ffffffffffffffffffffffffffffffffffffffff021916908373ffffffffffffffffffffffffffffffffffffffff1602179055506080820151816004015560a0820151816005015560c08201518160060160006101000a81548160ff021916908315150217905550905050837fbf6dc7bdf2f23af5a506fe03ee1221f47d023a2227fbc949c6b812ae44534e6d3385856040516109279392919061199a565b60405180910390a250505050565b803373ffffffffffffffffffffffffffffffffffffffff1660008054906101000a900473ffffffffffffffffffffffffffffffffffffffff1673ffffffffffffffffffffffffffffffffffffffff16636352211e836040518263ffffffff1660e01b81526004016109a6919061156f565b602060405180830381865afa1580156109c3573d6000803e3d6000fd5b505050506040513d601f19601f820116820180604052508101906109e791906117c4565b73ffffffffffffffffffffffffffffffffffffffff1614610a3d576040517f08c379a0000000000000000000000000000000000000000000000000000000008152600401610a349061183d565b60405180910390fd5b816001600082815260200190815260200160002060060160009054906101000a900460ff16610aa1576040517f08c379a0000000000000000000000000000000000000000000000000000000008152600401610a9890611a1d565b60405180910390fd5b6000600160008581526020019081526020016000209050600081600201541115610b9b5760008160030160009054906101000a900473ffffffffffffffffffffffffffffffffffffffff1673ffffffffffffffffffffffffffffffffffffffff168260020154604051610b1390611705565b60006040518083038185875af1925050503d8060008114610b50576040519150601f19603f3d011682016040523d82523d6000602084013e610b55565b606091505b5050905080610b99576040517f08c379a0000000000000000000000000000000000000000000000000000000008152600401610b9090611a89565b60405180910390fd5b505b60016000858152602001908152602001600020600080820160006101000a81549073ffffffffffffffffffffffffffffffffffffffff0219169055600182016000905560028201600090556003820160006101000a81549073ffffffffffffffffffffffffffffffffffffffff0219169055600482016000905560058201600090556006820160006101000a81549060ff0219169055505050505050565b806001600082815260200190815260200160002060060160009054906101000a900460ff16610c9d576040517f08c379a0000000000000000000000000000000000000000000000000000000008152600401610c9490611a1d565b60405180910390fd5b600060016000848152602001908152602001600020905080600401544210610cfa576040517f08c379a0000000000000000000000000000000000000000000000000000000008152600401610cf190611af5565b60405180910390fd5b80600201543411610d40576040517f08c379a0000000000000000000000000000000000000000000000000000000008152600401610d3790611b61565b60405180910390fd5b600081600201541115610ddd5780600201546002600085815260200190815260200160002060008360030160009054906101000a900473ffffffffffffffffffffffffffffffffffffffff1673ffffffffffffffffffffffffffffffffffffffff1673ffffffffffffffffffffffffffffffffffffffff1681526020019081526020016000206000828254610dd59190611bb0565b925050819055505b348160020181905550338160030160006101000a81548173ffffffffffffffffffffffffffffffffffffffff021916908373ffffffffffffffffffffffffffffffffffffffff1602179055506078428260040154610e3b9190611be4565b11610e5d576078816004016000828254610e559190611bb0565b925050819055505b827f558a0d5d5468d74b0db24c74eb348b42271c2ebb4c9e953ced38aaed95fa43613334604051610e8f929190611786565b60405180910390a2505050565b60008054906101000a900473ffffffffffffffffffffffffffffffffffffffff1681565b806001600082815260200190815260200160002060060160009054906101000a900460ff16610f24576040517f08c379a0000000000000000000000000000000000000000000000000000000008152600401610f1b90611a1d565b60405180910390fd5b6001600082815260200190815260200160002060040154421015610f7d576040517f08c379a0000000000000000000000000000000000000000000000000000000008152600401610f7490611c64565b60405180910390fd5b6000600160008481526020019081526020016000209050600073ffffffffffffffffffffffffffffffffffffffff168160030160009054906101000a900473ffffffffffffffffffffffffffffffffffffffff1673ffffffffffffffffffffffffffffffffffffffff1603611027576040517f08c379a000000000000000000000000000000000000000000000000000000000815260040161101e90611cd0565b60405180910390fd5b60006064826002015461103a9190611d1f565b9050600081836002015461104e9190611be4565b905060008054906101000a900473ffffffffffffffffffffffffffffffffffffffff1673ffffffffffffffffffffffffffffffffffffffff166342842e0e8460000160009054906101000a900473ffffffffffffffffffffffffffffffffffffffff168560030160009054906101000a900473ffffffffffffffffffffffffffffffffffffffff16886040518463ffffffff1660e01b81526004016110f593929190611d50565b600060405180830381600087803b15801561110f57600080fd5b505af1158015611123573d6000803e3d6000fd5b5050505060008360000160009054906101000a900473ffffffffffffffffffffffffffffffffffffffff1673ffffffffffffffffffffffffffffffffffffffff168260405161117190611705565b60006040518083038185875af1925050503d80600081146111ae576040519150601f19603f3d011682016040523d82523d6000602084013e6111b3565b606091505b50509050806111f7576040517f08c379a00000000000000000000000000000000000000000000000000000000081526004016111ee90611dd3565b60405180910390fd5b60003373ffffffffffffffffffffffffffffffffffffffff168460405161121d90611705565b60006040518083038185875af1925050503d806000811461125a576040519150601f19603f3d011682016040523d82523d6000602084013e61125f565b606091505b50509050806112a3576040517f08c379a000000000000000000000000000000000000000000000000000000000815260040161129a90611e3f565b60405180910390fd5b867fd2aa34a4fdbbc6dff6a3e56f46e0f3ae2a31d7785ff3487aa5c95c642acea5018660030160009054906101000a900473ffffffffffffffffffffffffffffffffffffffff1687600201546040516112fd929190611786565b60405180910390a260016000888152602001908152602001600020600080820160006101000a81549073ffffffffffffffffffffffffffffffffffffffff0219169055600182016000905560028201600090556003820160006101000a81549073ffffffffffffffffffffffffffffffffffffffff0219169055600482016000905560058201600090556006820160006101000a81549060ff0219169055505050505050505050565b600080fd5b6000819050919050565b6113be816113ab565b81146113c957600080fd5b50565b6000813590506113db816113b5565b92915050565b6000602082840312156113f7576113f66113a6565b5b6000611405848285016113cc565b91505092915050565b600073ffffffffffffffffffffffffffffffffffffffff82169050919050565b60006114398261140e565b9050919050565b6114498161142e565b811461145457600080fd5b50565b60008135905061146681611440565b92915050565b60008060408385031215611483576114826113a6565b5b6000611491858286016113cc565b92505060206114a285828601611457565b9150509250929050565b60008115159050919050565b6114c1816114ac565b82525050565b60006020820190506114dc60008301846114b8565b92915050565b6114eb8161142e565b82525050565b6114fa816113ab565b82525050565b600060e082019050611515600083018a6114e2565b61152260208301896114f1565b61152f60408301886114f1565b61153c60608301876114e2565b61154960808301866114f1565b61155660a08301856114f1565b61156360c08301846114b8565b98975050505050505050565b600060208201905061158460008301846114f1565b92915050565b6000806000606084860312156115a3576115a26113a6565b5b60006115b1868287016113cc565b93505060206115c2868287016113cc565b92505060406115d3868287016113cc565b9150509250925092565b6000819050919050565b60006116026115fd6115f88461140e565b6115dd565b61140e565b9050919050565b6000611614826115e7565b9050919050565b600061162682611609565b9050919050565b6116368161161b565b82525050565b6000602082019050611651600083018461162d565b92915050565b600082825260208201905092915050565b7f4e6f2066756e647320746f207769746864726177000000000000000000000000600082015250565b600061169e601483611657565b91506116a982611668565b602082019050919050565b600060208201905081810360008301526116cd81611691565b9050919050565b600081905092915050565b50565b60006116ef6000836116d4565b91506116fa826116df565b600082019050919050565b6000611710826116e2565b9150819050919050565b7f5769746864726177206661696c65640000000000000000000000000000000000600082015250565b6000611750600f83611657565b915061175b8261171a565b602082019050919050565b6000602082019050818103600083015261177f81611743565b9050919050565b600060408201905061179b60008301856114e2565b6117a860208301846114f1565b9392505050565b6000815190506117be81611440565b92915050565b6000602082840312156117da576117d96113a6565b5b60006117e8848285016117af565b91505092915050565b7f4e6f7420746f6b656e206f776e65720000000000000000000000000000000000600082015250565b6000611827600f83611657565b9150611832826117f1565b602082019050919050565b600060208201905081810360008301526118568161181a565b9050919050565b600060408201905061187260008301856114f1565b61187f60208301846114e2565b9392505050565b61188f816114ac565b811461189a57600080fd5b50565b6000815190506118ac81611886565b92915050565b6000602082840312156118c8576118c76113a6565b5b60006118d68482850161189d565b91505092915050565b60006040820190506118f460008301856114e2565b61190160208301846114e2565b9392505050565b7f4d61726b6574706c616365206e6f7420617070726f76656420746f206d616e6160008201527f67652074686973204e4654000000000000000000000000000000000000000000602082015250565b6000611964602b83611657565b915061196f82611908565b604082019050919050565b6000602082019050818103600083015261199381611957565b9050919050565b60006060820190506119af60008301866114e2565b6119bc60208301856114f1565b6119c960408301846114f1565b949350505050565b7f41756374696f6e206973206e6f74206163746976650000000000000000000000600082015250565b6000611a07601583611657565b9150611a12826119d1565b602082019050919050565b60006020820190508181036000830152611a36816119fa565b9050919050565b7f526566756e64206661696c656400000000000000000000000000000000000000600082015250565b6000611a73600d83611657565b9150611a7e82611a3d565b602082019050919050565b60006020820190508181036000830152611aa281611a66565b9050919050565b7f41756374696f6e20656e64656400000000000000000000000000000000000000600082015250565b6000611adf600d83611657565b9150611aea82611aa9565b602082019050919050565b60006020820190508181036000830152611b0e81611ad2565b9050919050565b7f42696420746f6f206c6f77000000000000000000000000000000000000000000600082015250565b6000611b4b600b83611657565b9150611b5682611b15565b602082019050919050565b60006020820190508181036000830152611b7a81611b3e565b9050919050565b7f4e487b7100000000000000000000000000000000000000000000000000000000600052601160045260246000fd5b6000611bbb826113ab565b9150611bc6836113ab565b9250828201905080821115611bde57611bdd611b81565b5b92915050565b6000611bef826113ab565b9150611bfa836113ab565b9250828203905081811115611c1257611c11611b81565b5b92915050565b7f41756374696f6e206973207374696c6c206f6e676f696e670000000000000000600082015250565b6000611c4e601883611657565b9150611c5982611c18565b602082019050919050565b60006020820190508181036000830152611c7d81611c41565b9050919050565b7f4e6f206269647320706c61636564000000000000000000000000000000000000600082015250565b6000611cba600e83611657565b9150611cc582611c84565b602082019050919050565b60006020820190508181036000830152611ce981611cad565b9050919050565b7f4e487b7100000000000000000000000000000000000000000000000000000000600052601260045260246000fd5b6000611d2a826113ab565b9150611d35836113ab565b925082611d4557611d44611cf0565b5b828204905092915050565b6000606082019050611d6560008301866114e2565b611d7260208301856114e2565b611d7f60408301846114f1565b949350505050565b7f53656c6c6572207061796d656e74206661696c65640000000000000000000000600082015250565b6000611dbd601583611657565b9150611dc882611d87565b602082019050919050565b60006020820190508181036000830152611dec81611db0565b9050919050565b7f46696e616c697a657220726577617264206661696c6564000000000000000000600082015250565b6000611e29601783611657565b9150611e3482611df3565b602082019050919050565b60006020820190508181036000830152611e5881611e1c565b905091905056fea26469706673582212203ab9bed0b210d379108d1757a63f8858c52fc824ae1877d44a142cb6041c32d764736f6c634300081c0033608060405234801561001057600080fd5b506040516117b53803806117b5833981810160405281019061003291906100db565b806000806101000a81548173ffffffffffffffffffffffffffffffffffffffff021916908373ffffffffffffffffffffffffffffffffffffffff16021790555050610108565b600080fd5b600073ffffffffffffffffffffffffffffffffffffffff82169050919050565b60006100a88261007d565b9050919050565b6100b88161009d565b81146100c357600080fd5b50565b6000815190506100d5816100af565b92915050565b6000602082840312156100f1576100f0610078565b5b60006100ff848285016100c6565b91505092915050565b61169e806101176000396000f3fe6080604052600436106100555760003560e01c80632f44dee81461005a578063caabdd3d14610097578063d56d229d146100b3578063ddee8433146100de578063ecfc12a314610107578063f2ab2fc014610130575b600080fd5b34801561006657600080fd5b50610081600480360381019061007c9190610cfc565b610172565b60405161008e9190610d38565b60405180910390f35b6100b160048036038101906100ac9190610cfc565b610300565b005b3480156100bf57600080fd5b506100c8610656565b6040516100d59190610dd2565b60405180910390f35b3480156100ea57600080fd5b5061010560048036038101906101009190610cfc565b61067a565b005b34801561011357600080fd5b5061012e60048036038101906101299190610ded565b61080c565b005b34801561013c57600080fd5b5061015760048036038101906101529190610cfc565b610c58565b60405161016996959493929190610e90565b60405180910390f35b600080600160008481526020019081526020016000206040518060c00160405290816000820160009054906101000a900473ffffffffffffffffffffffffffffffffffffffff1673ffffffffffffffffffffffffffffffffffffffff1673ffffffffffffffffffffffffffffffffffffffff168152602001600182015481526020016002820154815260200160038201548152602001600482015481526020016005820160009054906101000a900460ff16151515158152505090508060a00151610272576040517f08c379a000000000000000000000000000000000000000000000000000000000815260040161026990610f4e565b60405180910390fd5b8060800151421061028a5780604001519150506102fb565b600081606001514261029c9190610f9d565b90506000826060015183608001516102b49190610f9d565b90506000836040015184602001516102cc9190610f9d565b90508183826102db9190610fd1565b6102e59190611042565b84602001516102f49190610f9d565b9450505050505b919050565b60006001600083815260200190815260200160002090508060050160009054906101000a900460ff16610368576040517f08c379a000000000000000000000000000000000000000000000000000000000815260040161035f906110bf565b60405180910390fd5b80600401544211156103af576040517f08c379a00000000000000000000000000000000000000000000000000000000081526004016103a69061112b565b60405180910390fd5b60008160030154426103c19190610f9d565b90506000826003015483600401546103d99190610f9d565b90506000836002015484600101546103f19190610f9d565b905060008284836104029190610fd1565b61040c9190611042565b856001015461041b9190610f9d565b90508460040154421061043057846002015490505b80341015610473576040517f08c379a000000000000000000000000000000000000000000000000000000000815260040161046a90611197565b60405180910390fd5b60008560050160006101000a81548160ff02191690831515021790555060008054906101000a900473ffffffffffffffffffffffffffffffffffffffff1673ffffffffffffffffffffffffffffffffffffffff166342842e0e8660000160009054906101000a900473ffffffffffffffffffffffffffffffffffffffff1633896040518463ffffffff1660e01b8152600401610511939291906111b7565b600060405180830381600087803b15801561052b57600080fd5b505af115801561053f573d6000803e3d6000fd5b5050505060008560000160009054906101000a900473ffffffffffffffffffffffffffffffffffffffff1673ffffffffffffffffffffffffffffffffffffffff163460405161058d9061121f565b60006040518083038185875af1925050503d80600081146105ca576040519150601f19603f3d011682016040523d82523d6000602084013e6105cf565b606091505b5050905080610613576040517f08c379a000000000000000000000000000000000000000000000000000000000815260040161060a90611280565b60405180910390fd5b867f3a9978b6624f6cb440b3a1e29c588ca8aab0251c3b4d7f9202a1c1fb01ab2c4e33346040516106459291906112a0565b60405180910390a250505050505050565b60008054906101000a900473ffffffffffffffffffffffffffffffffffffffff1681565b803373ffffffffffffffffffffffffffffffffffffffff1660008054906101000a900473ffffffffffffffffffffffffffffffffffffffff1673ffffffffffffffffffffffffffffffffffffffff16636352211e836040518263ffffffff1660e01b81526004016106eb9190610d38565b602060405180830381865afa158015610708573d6000803e3d6000fd5b505050506040513d601f19601f8201168201806040525081019061072c91906112f5565b73ffffffffffffffffffffffffffffffffffffffff1614610782576040517f08c379a00000000000000000000000000000000000000000000000000000000081526004016107799061136e565b60405180910390fd5b60006001600084815260200190815260200160002090508060050160009054906101000a900460ff166107ea576040517f08c379a00000000000000000000000000000000000000000000000000000000081526004016107e1906110bf565b60405180910390fd5b60008160050160006101000a81548160ff021916908315150217905550505050565b833373ffffffffffffffffffffffffffffffffffffffff1660008054906101000a900473ffffffffffffffffffffffffffffffffffffffff1673ffffffffffffffffffffffffffffffffffffffff16636352211e836040518263ffffffff1660e01b815260040161087d9190610d38565b602060405180830381865afa15801561089a573d6000803e3d6000fd5b505050506040513d601f19601f820116820180604052508101906108be91906112f5565b73ffffffffffffffffffffffffffffffffffffffff1614610914576040517f08c379a000000000000000000000000000000000000000000000000000000000815260040161090b9061136e565b60405180910390fd5b60008054906101000a900473ffffffffffffffffffffffffffffffffffffffff1673ffffffffffffffffffffffffffffffffffffffff16630920984c86306040518363ffffffff1660e01b815260040161096f92919061138e565b602060405180830381865afa15801561098c573d6000803e3d6000fd5b505050506040513d601f19601f820116820180604052508101906109b091906113e3565b80610a53575060008054906101000a900473ffffffffffffffffffffffffffffffffffffffff1673ffffffffffffffffffffffffffffffffffffffff1663e985e9c533306040518363ffffffff1660e01b8152600401610a11929190611410565b602060405180830381865afa158015610a2e573d6000803e3d6000fd5b505050506040513d601f19601f82011682018060405250810190610a5291906113e3565b5b610a92576040517f08c379a0000000000000000000000000000000000000000000000000000000008152600401610a89906114ab565b60405180910390fd5b828411610ad4576040517f08c379a0000000000000000000000000000000000000000000000000000000008152600401610acb9061153d565b60405180910390fd5b60008211610b17576040517f08c379a0000000000000000000000000000000000000000000000000000000008152600401610b0e906115cf565b60405180910390fd5b60008242610b2591906115ef565b90506040518060c001604052803373ffffffffffffffffffffffffffffffffffffffff168152602001868152602001858152602001428152602001828152602001600115158152506001600088815260200190815260200160002060008201518160000160006101000a81548173ffffffffffffffffffffffffffffffffffffffff021916908373ffffffffffffffffffffffffffffffffffffffff1602179055506020820151816001015560408201518160020155606082015181600301556080820151816004015560a08201518160050160006101000a81548160ff021916908315150217905550905050857f268ac48f716356a00742974050591a9f3d88ed4669568f578935c957cdb5d52033878785604051610c489493929190611623565b60405180910390a2505050505050565b60016020528060005260406000206000915090508060000160009054906101000a900473ffffffffffffffffffffffffffffffffffffffff16908060010154908060020154908060030154908060040154908060050160009054906101000a900460ff16905086565b600080fd5b6000819050919050565b610cd981610cc6565b8114610ce457600080fd5b50565b600081359050610cf681610cd0565b92915050565b600060208284031215610d1257610d11610cc1565b5b6000610d2084828501610ce7565b91505092915050565b610d3281610cc6565b82525050565b6000602082019050610d4d6000830184610d29565b92915050565b600073ffffffffffffffffffffffffffffffffffffffff82169050919050565b6000819050919050565b6000610d98610d93610d8e84610d53565b610d73565b610d53565b9050919050565b6000610daa82610d7d565b9050919050565b6000610dbc82610d9f565b9050919050565b610dcc81610db1565b82525050565b6000602082019050610de76000830184610dc3565b92915050565b60008060008060808587031215610e0757610e06610cc1565b5b6000610e1587828801610ce7565b9450506020610e2687828801610ce7565b9350506040610e3787828801610ce7565b9250506060610e4887828801610ce7565b91505092959194509250565b6000610e5f82610d53565b9050919050565b610e6f81610e54565b82525050565b60008115159050919050565b610e8a81610e75565b82525050565b600060c082019050610ea56000830189610e66565b610eb26020830188610d29565b610ebf6040830187610d29565b610ecc6060830186610d29565b610ed96080830185610d29565b610ee660a0830184610e81565b979650505050505050565b600082825260208201905092915050565b7f41756374696f6e206e6f74206163746976650000000000000000000000000000600082015250565b6000610f38601283610ef1565b9150610f4382610f02565b602082019050919050565b60006020820190508181036000830152610f6781610f2b565b9050919050565b7f4e487b7100000000000000000000000000000000000000000000000000000000600052601160045260246000fd5b6000610fa882610cc6565b9150610fb383610cc6565b9250828203905081811115610fcb57610fca610f6e565b5b92915050565b6000610fdc82610cc6565b9150610fe783610cc6565b9250828202610ff581610cc6565b9150828204841483151761100c5761100b610f6e565b5b5092915050565b7f4e487b7100000000000000000000000000000000000000000000000000000000600052601260045260246000fd5b600061104d82610cc6565b915061105883610cc6565b92508261106857611067611013565b5b828204905092915050565b7f44757463682061756374696f6e206e6f74206163746976650000000000000000600082015250565b60006110a9601883610ef1565b91506110b482611073565b602082019050919050565b600060208201905081810360008301526110d88161109c565b9050919050565b7f41756374696f6e20657870697265640000000000000000000000000000000000600082015250565b6000611115600f83610ef1565b9150611120826110df565b602082019050919050565b6000602082019050818103600083015261114481611108565b9050919050565b7f496e73756666696369656e742066756e64730000000000000000000000000000600082015250565b6000611181601283610ef1565b915061118c8261114b565b602082019050919050565b600060208201905081810360008301526111b081611174565b9050919050565b60006060820190506111cc6000830186610e66565b6111d96020830185610e66565b6111e66040830184610d29565b949350505050565b600081905092915050565b50565b60006112096000836111ee565b9150611214826111f9565b600082019050919050565b600061122a826111fc565b9150819050919050565b7f5061796d656e74206661696c6564000000000000000000000000000000000000600082015250565b600061126a600e83610ef1565b915061127582611234565b602082019050919050565b600060208201905081810360008301526112998161125d565b9050919050565b60006040820190506112b56000830185610e66565b6112c26020830184610d29565b9392505050565b6112d281610e54565b81146112dd57600080fd5b50565b6000815190506112ef816112c9565b92915050565b60006020828403121561130b5761130a610cc1565b5b6000611319848285016112e0565b91505092915050565b7f4e6f7420746f6b656e206f776e65720000000000000000000000000000000000600082015250565b6000611358600f83610ef1565b915061136382611322565b602082019050919050565b600060208201905081810360008301526113878161134b565b9050919050565b60006040820190506113a36000830185610d29565b6113b06020830184610e66565b9392505050565b6113c081610e75565b81146113cb57600080fd5b50565b6000815190506113dd816113b7565b92915050565b6000602082840312156113f9576113f8610cc1565b5b6000611407848285016113ce565b91505092915050565b60006040820190506114256000830185610e66565b6114326020830184610e66565b9392505050565b7f4d61726b6574706c616365206e6f7420617070726f76656420746f206d616e6160008201527f67652074686973204e4654000000000000000000000000000000000000000000602082015250565b6000611495602b83610ef1565b91506114a082611439565b604082019050919050565b600060208201905081810360008301526114c481611488565b9050919050565b7f5374617274207072696365206d7573742062652067726561746572207468616e60008201527f20656e6420707269636500000000000000000000000000000000000000000000602082015250565b6000611527602a83610ef1565b9150611532826114cb565b604082019050919050565b600060208201905081810360008301526115568161151a565b9050919050565b7f4475726174696f6e206d7573742062652067726561746572207468616e207a6560008201527f726f000000000000000000000000000000000000000000000000000000000000602082015250565b60006115b9602283610ef1565b91506115c48261155d565b604082019050919050565b600060208201905081810360008301526115e8816115ac565b9050919050565b60006115fa82610cc6565b915061160583610cc6565b925082820190508082111561161d5761161c610f6e565b5b92915050565b60006080820190506116386000830187610e66565b6116456020830186610d29565b6116526040830185610d29565b61165f6060830184610d29565b9594505050505056fea2646970667358221220cfa3e5fe77c6cc0f5608ed389d75dd5b240316cc6d43745cf459a81f5cc9be9964736f6c634300081c0033608060405234801561001057600080fd5b50604051611346380380611346833981810160405281019061003291906100db565b806000806101000a81548173ffffffffffffffffffffffffffffffffffffffff021916908373ffffffffffffffffffffffffffffffffffffffff16021790555050610108565b600080fd5b600073ffffffffffffffffffffffffffffffffffffffff82169050919050565b60006100a88261007d565b9050919050565b6100b88161009d565b81146100c357600080fd5b50565b6000815190506100d5816100af565b92915050565b6000602082840312156100f1576100f0610078565b5b60006100ff848285016100c6565b91505092915050565b61122f806101176000396000f3fe60806040526004361061004a5760003560e01c806351ed82881461004f578063b0136c8d1461006b578063cb917b9c14610094578063d56d229d146100bd578063de74e57b146100e8575b600080fd5b61006960048036038101906100649190610b44565b610128565b005b34801561007757600080fd5b50610092600480360381019061008d9190610b71565b6104ab565b005b3480156100a057600080fd5b506100bb60048036038101906100b69190610b44565b61087e565b005b3480156100c957600080fd5b506100d2610a88565b6040516100df9190610c43565b60405180910390f35b3480156100f457600080fd5b5061010f600480360381019061010a9190610b44565b610aac565b60405161011f9493929190610ca9565b60405180910390f35b806001600082815260200190815260200160002060030160009054906101000a900460ff1661018c576040517f08c379a000000000000000000000000000000000000000000000000000000000815260040161018390610d4b565b60405180910390fd5b6000600160008481526020019081526020016000206040518060800160405290816000820160009054906101000a900473ffffffffffffffffffffffffffffffffffffffff1673ffffffffffffffffffffffffffffffffffffffff1673ffffffffffffffffffffffffffffffffffffffff16815260200160018201548152602001600282015481526020016003820160009054906101000a900460ff1615151515815250509050806020015134101561027a576040517f08c379a000000000000000000000000000000000000000000000000000000000815260040161027190610db7565b60405180910390fd5b80604001514211156102c1576040517f08c379a00000000000000000000000000000000000000000000000000000000081526004016102b890610e23565b60405180910390fd5b6000816000015173ffffffffffffffffffffffffffffffffffffffff16346040516102eb90610e74565b60006040518083038185875af1925050503d8060008114610328576040519150601f19603f3d011682016040523d82523d6000602084013e61032d565b606091505b5050905080610371576040517f08c379a000000000000000000000000000000000000000000000000000000000815260040161036890610ed5565b60405180910390fd5b60008054906101000a900473ffffffffffffffffffffffffffffffffffffffff1673ffffffffffffffffffffffffffffffffffffffff166342842e0e836000015133876040518463ffffffff1660e01b81526004016103d293929190610ef5565b600060405180830381600087803b1580156103ec57600080fd5b505af1158015610400573d6000803e3d6000fd5b5050505060016000858152602001908152602001600020600080820160006101000a81549073ffffffffffffffffffffffffffffffffffffffff0219169055600182016000905560028201600090556003820160006101000a81549060ff02191690555050837f8562eb94748e30bb0071e932744ce902b460c683474fcb3bfd567ffa16b1afb28360000151333460405161049d93929190610ef5565b60405180910390a250505050565b823373ffffffffffffffffffffffffffffffffffffffff1660008054906101000a900473ffffffffffffffffffffffffffffffffffffffff1673ffffffffffffffffffffffffffffffffffffffff16636352211e836040518263ffffffff1660e01b815260040161051c9190610f2c565b602060405180830381865afa158015610539573d6000803e3d6000fd5b505050506040513d601f19601f8201168201806040525081019061055d9190610f73565b73ffffffffffffffffffffffffffffffffffffffff16146105b3576040517f08c379a00000000000000000000000000000000000000000000000000000000081526004016105aa90610fec565b60405180910390fd5b60008054906101000a900473ffffffffffffffffffffffffffffffffffffffff1673ffffffffffffffffffffffffffffffffffffffff16630920984c85306040518363ffffffff1660e01b815260040161060e92919061100c565b602060405180830381865afa15801561062b573d6000803e3d6000fd5b505050506040513d601f19601f8201168201806040525081019061064f9190611061565b806106f2575060008054906101000a900473ffffffffffffffffffffffffffffffffffffffff1673ffffffffffffffffffffffffffffffffffffffff1663e985e9c533306040518363ffffffff1660e01b81526004016106b092919061108e565b602060405180830381865afa1580156106cd573d6000803e3d6000fd5b505050506040513d601f19601f820116820180604052508101906106f19190611061565b5b610731576040517f08c379a000000000000000000000000000000000000000000000000000000000815260040161072890611129565b60405180910390fd5b428211610773576040517f08c379a000000000000000000000000000000000000000000000000000000000815260040161076a90611195565b60405180910390fd5b60405180608001604052803373ffffffffffffffffffffffffffffffffffffffff168152602001848152602001838152602001600115158152506001600086815260200190815260200160002060008201518160000160006101000a81548173ffffffffffffffffffffffffffffffffffffffff021916908373ffffffffffffffffffffffffffffffffffffffff160217905550602082015181600101556040820151816002015560608201518160030160006101000a81548160ff021916908315150217905550905050837f5f9c03de076f5063cd3ebcfe8ef7aa8af378e4b35a83c77ba9777e97083879a233856040516108709291906111b5565b60405180910390a250505050565b803373ffffffffffffffffffffffffffffffffffffffff1660008054906101000a900473ffffffffffffffffffffffffffffffffffffffff1673ffffffffffffffffffffffffffffffffffffffff16636352211e836040518263ffffffff1660e01b81526004016108ef9190610f2c565b602060405180830381865afa15801561090c573d6000803e3d6000fd5b505050506040513d601f19601f820116820180604052508101906109309190610f73565b73ffffffffffffffffffffffffffffffffffffffff1614610986576040517f08c379a000000000000000000000000000000000000000000000000000000000815260040161097d90610fec565b60405180910390fd5b816001600082815260200190815260200160002060030160009054906101000a900460ff166109ea576040517f08c379a00000000000000000000000000000000000000000000000000000000081526004016109e190610d4b565b60405180910390fd5b60016000848152602001908152602001600020600080820160006101000a81549073ffffffffffffffffffffffffffffffffffffffff0219169055600182016000905560028201600090556003820160006101000a81549060ff02191690555050827fef1499b350e05776e60cd2ffcac001569a28e9d574e1f3adc1b3ab264f8ccffd33604051610a7b91906111de565b60405180910390a2505050565b60008054906101000a900473ffffffffffffffffffffffffffffffffffffffff1681565b60016020528060005260406000206000915090508060000160009054906101000a900473ffffffffffffffffffffffffffffffffffffffff16908060010154908060020154908060030160009054906101000a900460ff16905084565b600080fd5b6000819050919050565b610b2181610b0e565b8114610b2c57600080fd5b50565b600081359050610b3e81610b18565b92915050565b600060208284031215610b5a57610b59610b09565b5b6000610b6884828501610b2f565b91505092915050565b600080600060608486031215610b8a57610b89610b09565b5b6000610b9886828701610b2f565b9350506020610ba986828701610b2f565b9250506040610bba86828701610b2f565b9150509250925092565b600073ffffffffffffffffffffffffffffffffffffffff82169050919050565b6000819050919050565b6000610c09610c04610bff84610bc4565b610be4565b610bc4565b9050919050565b6000610c1b82610bee565b9050919050565b6000610c2d82610c10565b9050919050565b610c3d81610c22565b82525050565b6000602082019050610c586000830184610c34565b92915050565b6000610c6982610bc4565b9050919050565b610c7981610c5e565b82525050565b610c8881610b0e565b82525050565b60008115159050919050565b610ca381610c8e565b82525050565b6000608082019050610cbe6000830187610c70565b610ccb6020830186610c7f565b610cd86040830185610c7f565b610ce56060830184610c9a565b95945050505050565b600082825260208201905092915050565b7f4e4654206973206e6f74206c697374656420666f722073616c65000000000000600082015250565b6000610d35601a83610cee565b9150610d4082610cff565b602082019050919050565b60006020820190508181036000830152610d6481610d28565b9050919050565b7f496e73756666696369656e742066756e64730000000000000000000000000000600082015250565b6000610da1601283610cee565b9150610dac82610d6b565b602082019050919050565b60006020820190508181036000830152610dd081610d94565b9050919050565b7f4c697374696e6720686173206578706972656400000000000000000000000000600082015250565b6000610e0d601383610cee565b9150610e1882610dd7565b602082019050919050565b60006020820190508181036000830152610e3c81610e00565b9050919050565b600081905092915050565b50565b6000610e5e600083610e43565b9150610e6982610e4e565b600082019050919050565b6000610e7f82610e51565b9150819050919050565b7f5061796d656e74206661696c6564000000000000000000000000000000000000600082015250565b6000610ebf600e83610cee565b9150610eca82610e89565b602082019050919050565b60006020820190508181036000830152610eee81610eb2565b9050919050565b6000606082019050610f0a6000830186610c70565b610f176020830185610c70565b610f246040830184610c7f565b949350505050565b6000602082019050610f416000830184610c7f565b92915050565b610f5081610c5e565b8114610f5b57600080fd5b50565b600081519050610f6d81610f47565b92915050565b600060208284031215610f8957610f88610b09565b5b6000610f9784828501610f5e565b91505092915050565b7f4e6f7420746f6b656e206f776e65720000000000000000000000000000000000600082015250565b6000610fd6600f83610cee565b9150610fe182610fa0565b602082019050919050565b6000602082019050818103600083015261100581610fc9565b9050919050565b60006040820190506110216000830185610c7f565b61102e6020830184610c70565b9392505050565b61103e81610c8e565b811461104957600080fd5b50565b60008151905061105b81611035565b92915050565b60006020828403121561107757611076610b09565b5b60006110858482850161104c565b91505092915050565b60006040820190506110a36000830185610c70565b6110b06020830184610c70565b9392505050565b7f4d61726b6574706c616365206e6f7420617070726f76656420746f206d616e6160008201527f67652074686973204e4654000000000000000000000000000000000000000000602082015250565b6000611113602b83610cee565b915061111e826110b7565b604082019050919050565b6000602082019050818103600083015261114281611106565b9050919050565b7f45787069726174696f6e206d75737420626520696e2074686520667574757265600082015250565b600061117f602083610cee565b915061118a82611149565b602082019050919050565b600060208201905081810360008301526111ae81611172565b9050919050565b60006040820190506111ca6000830185610c70565b6111d76020830184610c7f565b9392505050565b60006020820190506111f36000830184610c70565b9291505056fea2646970667358221220aac83fc765943d39e5b58a8f63164c62ec379aa5b8a03c62c5e082eb01d1fbbb64736f6c634300081c0033608060405234801561001057600080fd5b50604051611e17380380611e17833981810160405281019061003291906100db565b806000806101000a81548173ffffffffffffffffffffffffffffffffffffffff021916908373ffffffffffffffffffffffffffffffffffffffff16021790555050610108565b600080fd5b600073ffffffffffffffffffffffffffffffffffffffff82169050919050565b60006100a88261007d565b9050919050565b6100b88161009d565b81146100c357600080fd5b50565b6000815190506100d5816100af565b92915050565b6000602082840312156100f1576100f0610078565b5b60006100ff848285016100c6565b91505092915050565b611d00806101176000396000f3fe60806040526004361061007b5760003560e01c8063d56d229d1161004e578063d56d229d1461012b578063dfa49e6f14610156578063ebdfbce514610193578063ef706adf146101d25761007b565b806304e47ba61461008057806305b7cdd3146100a95780633079dccf146100c5578063918d407d14610102575b600080fd5b34801561008c57600080fd5b506100a760048036038101906100a29190611342565b6101fb565b005b6100c360048036038101906100be919061136f565b61042f565b005b3480156100d157600080fd5b506100ec60048036038101906100e7919061136f565b6106f8565b6040516100f991906113f0565b60405180910390f35b34801561010e57600080fd5b5061012960048036038101906101249190611437565b610746565b005b34801561013757600080fd5b50610140610bc8565b60405161014d91906114d6565b60405180910390f35b34801561016257600080fd5b5061017d60048036038101906101789190611342565b610bec565b60405161018a9190611600565b60405180910390f35b34801561019f57600080fd5b506101ba60048036038101906101b59190611437565b610e09565b6040516101c993929190611631565b60405180910390f35b3480156101de57600080fd5b506101f960048036038101906101f49190611342565b610e60565b005b600060026000838152602001908152602001600020905060005b818054905081101561040b57600082828154811061023657610235611668565b5b9060005260206000200160009054906101000a900473ffffffffffffffffffffffffffffffffffffffff16905060006001600086815260200190815260200160002060008373ffffffffffffffffffffffffffffffffffffffff1673ffffffffffffffffffffffffffffffffffffffff16815260200190815260200160002060010154905060008111156103fc576001600086815260200190815260200160002060008373ffffffffffffffffffffffffffffffffffffffff1673ffffffffffffffffffffffffffffffffffffffff168152602001908152602001600020600080820160006101000a81549073ffffffffffffffffffffffffffffffffffffffff021916905560018201600090556002820160009055505060008273ffffffffffffffffffffffffffffffffffffffff1682604051610374906116c8565b60006040518083038185875af1925050503d80600081146103b1576040519150601f19603f3d011682016040523d82523d6000602084013e6103b6565b606091505b50509050806103fa576040517f08c379a00000000000000000000000000000000000000000000000000000000081526004016103f19061173a565b60405180910390fd5b505b50508080600101915050610215565b5060026000838152602001908152602001600020600061042b9190611292565b5050565b60003411610472576040517f08c379a0000000000000000000000000000000000000000000000000000000008152600401610469906117cc565b60405180910390fd5b4281116104b4576040517f08c379a00000000000000000000000000000000000000000000000000000000081526004016104ab90611838565b60405180910390fd5b60006001600084815260200190815260200160002060003373ffffffffffffffffffffffffffffffffffffffff1673ffffffffffffffffffffffffffffffffffffffff1681526020019081526020016000209050600081600101541461054f576040517f08c379a0000000000000000000000000000000000000000000000000000000008152600401610546906118a4565b60405180910390fd5b60405180606001604052803373ffffffffffffffffffffffffffffffffffffffff168152602001348152602001838152506001600085815260200190815260200160002060003373ffffffffffffffffffffffffffffffffffffffff1673ffffffffffffffffffffffffffffffffffffffff16815260200190815260200160002060008201518160000160006101000a81548173ffffffffffffffffffffffffffffffffffffffff021916908373ffffffffffffffffffffffffffffffffffffffff160217905550602082015181600101556040820151816002015590505060026000848152602001908152602001600020339080600181540180825580915050600190039060005260206000200160009091909190916101000a81548173ffffffffffffffffffffffffffffffffffffffff021916908373ffffffffffffffffffffffffffffffffffffffff1602179055503373ffffffffffffffffffffffffffffffffffffffff16837fd7df0c72641d362ea57ecc9cab99c77f936e36bb826f096258c3404196b26d6a34856040516106eb9291906118c4565b60405180910390a3505050565b6002602052816000526040600020818154811061071457600080fd5b906000526020600020016000915091509054906101000a900473ffffffffffffffffffffffffffffffffffffffff1681565b813373ffffffffffffffffffffffffffffffffffffffff1660008054906101000a900473ffffffffffffffffffffffffffffffffffffffff1673ffffffffffffffffffffffffffffffffffffffff16636352211e836040518263ffffffff1660e01b81526004016107b791906118ed565b602060405180830381865afa1580156107d4573d6000803e3d6000fd5b505050506040513d601f19601f820116820180604052508101906107f8919061191d565b73ffffffffffffffffffffffffffffffffffffffff161461084e576040517f08c379a000000000000000000000000000000000000000000000000000000000815260040161084590611996565b60405180910390fd5b60006001600085815260200190815260200160002060008473ffffffffffffffffffffffffffffffffffffffff1673ffffffffffffffffffffffffffffffffffffffff1681526020019081526020016000206040518060600160405290816000820160009054906101000a900473ffffffffffffffffffffffffffffffffffffffff1673ffffffffffffffffffffffffffffffffffffffff1673ffffffffffffffffffffffffffffffffffffffff168152602001600182015481526020016002820154815250509050600081602001511161095e576040517f08c379a000000000000000000000000000000000000000000000000000000000815260040161095590611a02565b60405180910390fd5b80604001514211156109a5576040517f08c379a000000000000000000000000000000000000000000000000000000000815260040161099c90611a6e565b60405180910390fd5b6001600085815260200190815260200160002060008473ffffffffffffffffffffffffffffffffffffffff1673ffffffffffffffffffffffffffffffffffffffff168152602001908152602001600020600080820160006101000a81549073ffffffffffffffffffffffffffffffffffffffff021916905560018201600090556002820160009055505060003373ffffffffffffffffffffffffffffffffffffffff168260200151604051610a59906116c8565b60006040518083038185875af1925050503d8060008114610a96576040519150601f19603f3d011682016040523d82523d6000602084013e610a9b565b606091505b5050905080610adf576040517f08c379a0000000000000000000000000000000000000000000000000000000008152600401610ad690611ada565b60405180910390fd5b60008054906101000a900473ffffffffffffffffffffffffffffffffffffffff1673ffffffffffffffffffffffffffffffffffffffff166342842e0e3386886040518463ffffffff1660e01b8152600401610b3c93929190611afa565b600060405180830381600087803b158015610b5657600080fd5b505af1158015610b6a573d6000803e3d6000fd5b505050508373ffffffffffffffffffffffffffffffffffffffff16857fea555ab99331ceac5051c58f17cc7b411b30241b0e28cb93a7d3a24c77a7a9a98460200151604051610bb991906118ed565b60405180910390a35050505050565b60008054906101000a900473ffffffffffffffffffffffffffffffffffffffff1681565b6060600060026000848152602001908152602001600020805480602002602001604051908101604052809291908181526020018280548015610c8357602002820191906000526020600020905b8160009054906101000a900473ffffffffffffffffffffffffffffffffffffffff1673ffffffffffffffffffffffffffffffffffffffff1681526020019060010190808311610c39575b5050505050905060008151905060008167ffffffffffffffff811115610cac57610cab611b31565b5b604051908082528060200260200182016040528015610ce557816020015b610cd26112b3565b815260200190600190039081610cca5790505b50905060005b82811015610dfd57600160008781526020019081526020016000206000858381518110610d1b57610d1a611668565b5b602002602001015173ffffffffffffffffffffffffffffffffffffffff1673ffffffffffffffffffffffffffffffffffffffff1681526020019081526020016000206040518060600160405290816000820160009054906101000a900473ffffffffffffffffffffffffffffffffffffffff1673ffffffffffffffffffffffffffffffffffffffff1673ffffffffffffffffffffffffffffffffffffffff16815260200160018201548152602001600282015481525050828281518110610de557610de4611668565b5b60200260200101819052508080600101915050610ceb565b50809350505050919050565b6001602052816000526040600020602052806000526040600020600091509150508060000160009054906101000a900473ffffffffffffffffffffffffffffffffffffffff16908060010154908060020154905083565b60006001600083815260200190815260200160002060003373ffffffffffffffffffffffffffffffffffffffff1673ffffffffffffffffffffffffffffffffffffffff1681526020019081526020016000206040518060600160405290816000820160009054906101000a900473ffffffffffffffffffffffffffffffffffffffff1673ffffffffffffffffffffffffffffffffffffffff1673ffffffffffffffffffffffffffffffffffffffff1681526020016001820154815260200160028201548152505090506000816020015111610f70576040517f08c379a0000000000000000000000000000000000000000000000000000000008152600401610f6790611bac565b60405180910390fd5b6000816020015190506001600084815260200190815260200160002060003373ffffffffffffffffffffffffffffffffffffffff1673ffffffffffffffffffffffffffffffffffffffff168152602001908152602001600020600080820160006101000a81549073ffffffffffffffffffffffffffffffffffffffff0219169055600182016000905560028201600090555050600060026000858152602001908152602001600020905060005b818054905081101561119a573373ffffffffffffffffffffffffffffffffffffffff1682828154811061105357611052611668565b5b9060005260206000200160009054906101000a900473ffffffffffffffffffffffffffffffffffffffff1673ffffffffffffffffffffffffffffffffffffffff160361118d5781600183805490506110ab9190611bfb565b815481106110bc576110bb611668565b5b9060005260206000200160009054906101000a900473ffffffffffffffffffffffffffffffffffffffff168282815481106110fa576110f9611668565b5b9060005260206000200160006101000a81548173ffffffffffffffffffffffffffffffffffffffff021916908373ffffffffffffffffffffffffffffffffffffffff1602179055508180548061115357611152611c2f565b5b6001900381819060005260206000200160006101000a81549073ffffffffffffffffffffffffffffffffffffffff0219169055905561119a565b808060010191505061101d565b5060003373ffffffffffffffffffffffffffffffffffffffff16836040516111c1906116c8565b60006040518083038185875af1925050503d80600081146111fe576040519150601f19603f3d011682016040523d82523d6000602084013e611203565b606091505b5050905080611247576040517f08c379a000000000000000000000000000000000000000000000000000000000815260040161123e90611caa565b60405180910390fd5b3373ffffffffffffffffffffffffffffffffffffffff16857f1f51377b3e685a0e2419f9bb4ba7c07ec54936353ba3d0fb3c6538dab676622260405160405180910390a35050505050565b50805460008255906000526020600020908101906112b091906112ea565b50565b6040518060600160405280600073ffffffffffffffffffffffffffffffffffffffff16815260200160008152602001600081525090565b5b808211156113035760008160009055506001016112eb565b5090565b600080fd5b6000819050919050565b61131f8161130c565b811461132a57600080fd5b50565b60008135905061133c81611316565b92915050565b60006020828403121561135857611357611307565b5b60006113668482850161132d565b91505092915050565b6000806040838503121561138657611385611307565b5b60006113948582860161132d565b92505060206113a58582860161132d565b9150509250929050565b600073ffffffffffffffffffffffffffffffffffffffff82169050919050565b60006113da826113af565b9050919050565b6113ea816113cf565b82525050565b600060208201905061140560008301846113e1565b92915050565b611414816113cf565b811461141f57600080fd5b50565b6000813590506114318161140b565b92915050565b6000806040838503121561144e5761144d611307565b5b600061145c8582860161132d565b925050602061146d85828601611422565b9150509250929050565b6000819050919050565b600061149c611497611492846113af565b611477565b6113af565b9050919050565b60006114ae82611481565b9050919050565b60006114c0826114a3565b9050919050565b6114d0816114b5565b82525050565b60006020820190506114eb60008301846114c7565b92915050565b600081519050919050565b600082825260208201905092915050565b6000819050602082019050919050565b611526816113cf565b82525050565b6115358161130c565b82525050565b606082016000820151611551600085018261151d565b506020820151611564602085018261152c565b506040820151611577604085018261152c565b50505050565b6000611589838361153b565b60608301905092915050565b6000602082019050919050565b60006115ad826114f1565b6115b781856114fc565b93506115c28361150d565b8060005b838110156115f35781516115da888261157d565b97506115e583611595565b9250506001810190506115c6565b5085935050505092915050565b6000602082019050818103600083015261161a81846115a2565b905092915050565b61162b8161130c565b82525050565b600060608201905061164660008301866113e1565b6116536020830185611622565b6116606040830184611622565b949350505050565b7f4e487b7100000000000000000000000000000000000000000000000000000000600052603260045260246000fd5b600081905092915050565b50565b60006116b2600083611697565b91506116bd826116a2565b600082019050919050565b60006116d3826116a5565b9150819050919050565b600082825260208201905092915050565b7f4f6666657220726566756e64206661696c656400000000000000000000000000600082015250565b60006117246013836116dd565b915061172f826116ee565b602082019050919050565b6000602082019050818103600083015261175381611717565b9050919050565b7f4f6666657220616d6f756e74206d75737420626520677265617465722074686160008201527f6e207a65726f0000000000000000000000000000000000000000000000000000602082015250565b60006117b66026836116dd565b91506117c18261175a565b604082019050919050565b600060208201905081810360008301526117e5816117a9565b9050919050565b7f45787069726174696f6e206d75737420626520696e2074686520667574757265600082015250565b60006118226020836116dd565b915061182d826117ec565b602082019050919050565b6000602082019050818103600083015261185181611815565b9050919050565b7f596f7520616c7265616479206861766520616e20616374697665206f66666572600082015250565b600061188e6020836116dd565b915061189982611858565b602082019050919050565b600060208201905081810360008301526118bd81611881565b9050919050565b60006040820190506118d96000830185611622565b6118e66020830184611622565b9392505050565b60006020820190506119026000830184611622565b92915050565b6000815190506119178161140b565b92915050565b60006020828403121561193357611932611307565b5b600061194184828501611908565b91505092915050565b7f4e6f7420746f6b656e206f776e65720000000000000000000000000000000000600082015250565b6000611980600f836116dd565b915061198b8261194a565b602082019050919050565b600060208201905081810360008301526119af81611973565b9050919050565b7f4e6f2076616c6964206f66666572000000000000000000000000000000000000600082015250565b60006119ec600e836116dd565b91506119f7826119b6565b602082019050919050565b60006020820190508181036000830152611a1b816119df565b9050919050565b7f4f66666572206578706972656400000000000000000000000000000000000000600082015250565b6000611a58600d836116dd565b9150611a6382611a22565b602082019050919050565b60006020820190508181036000830152611a8781611a4b565b9050919050565b7f5061796d656e74206661696c6564000000000000000000000000000000000000600082015250565b6000611ac4600e836116dd565b9150611acf82611a8e565b602082019050919050565b60006020820190508181036000830152611af381611ab7565b9050919050565b6000606082019050611b0f60008301866113e1565b611b1c60208301856113e1565b611b296040830184611622565b949350505050565b7f4e487b7100000000000000000000000000000000000000000000000000000000600052604160045260246000fd5b7f4e6f206f6666657220746f2063616e63656c0000000000000000000000000000600082015250565b6000611b966012836116dd565b9150611ba182611b60565b602082019050919050565b60006020820190508181036000830152611bc581611b89565b9050919050565b7f4e487b7100000000000000000000000000000000000000000000000000000000600052601160045260246000fd5b6000611c068261130c565b9150611c118361130c565b9250828203905081811115611c2957611c28611bcc565b5b92915050565b7f4e487b7100000000000000000000000000000000000000000000000000000000600052603160045260246000fd5b7f526566756e64206661696c656400000000000000000000000000000000000000600082015250565b6000611c94600d836116dd565b9150611c9f82611c5e565b602082019050919050565b60006020820190508181036000830152611cc381611c87565b905091905056fea264697066735822122032e49224a96464036093e5379436499eaaf7df6badf0c000c69afe3585b79a4764736f6c634300081c0033",
  "linkReferences": {},
  "deployedLinkReferences": {}
}