{
  "_format": "hh-sol-artifact-1",
  "contractName": "TradingContract",
  "sourceName": "contracts/TradingContract.sol",
  "abi": [
    {
      "inputs": [
        {
          "internalType": "address",
          "name": "_nftContract",
          "type": "address"
        }
      ],
      "stateMutability": "nonpayable",
      "type": "constructor"
    },
    {
      "anonymous": false,
      "inputs": [
        {
          "indexed": true,
          "internalType": "uint256",
          "name": "tokenId",
          "type": "uint256"
        },
        {
          "indexed": false,
          "internalType": "address",
          "name": "winner",
          "type": "address"
        },
        {
          "indexed": false,
          "internalType": "uint256",
          "name": "amount",
          "type": "uint256"
        }
      ],
      "name": "AuctionEnded",
      "type": "event"
    },
    {
      "anonymous": false,
      "inputs": [
        {
          "indexed": true,
          "internalType": "uint256",
          "name": "tokenId",
          "type": "uint256"
        },
        {
          "indexed": false,
          "internalType": "address",
          "name": "seller",
          "type": "address"
        },
        {
          "indexed": false,
          "internalType": "uint256",
          "name": "startingPrice",
          "type": "uint256"
        },
        {
          "indexed": false,
          "internalType": "uint256",
          "name": "endTime",
          "type": "uint256"
        }
      ],
      "name": "AuctionStarted",
      "type": "event"
    },
    {
      "anonymous": false,
      "inputs": [
        {
          "indexed": true,
          "internalType": "uint256",
          "name": "tokenId",
          "type": "uint256"
        },
        {
          "indexed": false,
          "internalType": "address",
          "name": "bidder",
          "type": "address"
        },
        {
          "indexed": false,
          "internalType": "uint256",
          "name": "amount",
          "type": "uint256"
        }
      ],
      "name": "BidWithdrawn",
      "type": "event"
    },
    {
      "anonymous": false,
      "inputs": [
        {
          "indexed": true,
          "internalType": "uint256",
          "name": "tokenId",
          "type": "uint256"
        },
        {
          "indexed": false,
          "internalType": "address",
          "name": "buyer",
          "type": "address"
        },
        {
          "indexed": false,
          "internalType": "uint256",
          "name": "amount",
          "type": "uint256"
        }
      ],
      "name": "DutchAuctionEnded",
      "type": "event"
    },
    {
      "anonymous": false,
      "inputs": [
        {
          "indexed": true,
          "internalType": "uint256",
          "name": "tokenId",
          "type": "uint256"
        },
        {
          "indexed": false,
          "internalType": "address",
          "name": "seller",
          "type": "address"
        },
        {
          "indexed": false,
          "internalType": "uint256",
          "name": "startPrice",
          "type": "uint256"
        },
        {
          "indexed": false,
          "internalType": "uint256",
          "name": "endPrice",
          "type": "uint256"
        },
        {
          "indexed": false,
          "internalType": "uint256",
          "name": "endTime",
          "type": "uint256"
        }
      ],
      "name": "DutchAuctionStarted",
      "type": "event"
    },
    {
      "anonymous": false,
      "inputs": [
        {
          "indexed": true,
          "internalType": "uint256",
          "name": "tokenId",
          "type": "uint256"
        },
        {
          "indexed": false,
          "internalType": "address",
          "name": "seller",
          "type": "address"
        }
      ],
      "name": "NFTDelisted",
      "type": "event"
    },
    {
      "anonymous": false,
      "inputs": [
        {
          "indexed": true,
          "internalType": "uint256",
          "name": "tokenId",
          "type": "uint256"
        },
        {
          "indexed": false,
          "internalType": "address",
          "name": "seller",
          "type": "address"
        },
        {
          "indexed": false,
          "internalType": "uint256",
          "name": "price",
          "type": "uint256"
        }
      ],
      "name": "NFTListed",
      "type": "event"
    },
    {
      "anonymous": false,
      "inputs": [
        {
          "indexed": true,
          "internalType": "uint256",
          "name": "tokenId",
          "type": "uint256"
        },
        {
          "indexed": false,
          "internalType": "address",
          "name": "seller",
          "type": "address"
        },
        {
          "indexed": false,
          "internalType": "address",
          "name": "buyer",
          "type": "address"
        },
        {
          "indexed": false,
          "internalType": "uint256",
          "name": "price",
          "type": "uint256"
        }
      ],
      "name": "NFTSold",
      "type": "event"
    },
    {
      "anonymous": false,
      "inputs": [
        {
          "indexed": true,
          "internalType": "uint256",
          "name": "tokenId",
          "type": "uint256"
        },
        {
          "indexed": false,
          "internalType": "address",
          "name": "bidder",
          "type": "address"
        },
        {
          "indexed": false,
          "internalType": "uint256",
          "name": "amount",
          "type": "uint256"
        }
      ],
      "name": "NewBid",
      "type": "event"
    },
    {
      "anonymous": false,
      "inputs": [
        {
          "indexed": true,
          "internalType": "uint256",
          "name": "tokenId",
          "type": "uint256"
        },
        {
          "indexed": true,
          "internalType": "address",
          "name": "offerer",
          "type": "address"
        },
        {
          "indexed": false,
          "internalType": "uint256",
          "name": "amount",
          "type": "uint256"
        }
      ],
      "name": "OfferAccepted",
      "type": "event"
    },
    {
      "anonymous": false,
      "inputs": [
        {
          "indexed": true,
          "internalType": "uint256",
          "name": "tokenId",
          "type": "uint256"
        },
        {
          "indexed": true,
          "internalType": "address",
          "name": "offerer",
          "type": "address"
        }
      ],
      "name": "OfferCancelled",
      "type": "event"
    },
    {
      "anonymous": false,
      "inputs": [
        {
          "indexed": true,
          "internalType": "uint256",
          "name": "tokenId",
          "type": "uint256"
        },
        {
          "indexed": true,
          "internalType": "address",
          "name": "offerer",
          "type": "address"
        },
        {
          "indexed": false,
          "internalType": "uint256",
          "name": "amount",
          "type": "uint256"
        },
        {
          "indexed": false,
          "internalType": "uint256",
          "name": "expiration",
          "type": "uint256"
        }
      ],
      "name": "OfferMade",
      "type": "event"
    },
    {
      "inputs": [
        {
          "internalType": "uint256",
          "name": "tokenId",
          "type": "uint256"
        },
        {
          "internalType": "address",
          "name": "offerer",
          "type": "address"
        }
      ],
      "name": "acceptOffer",
      "outputs": [],
      "stateMutability": "nonpayable",
      "type": "function"
    },
    {
      "inputs": [
        {
          "internalType": "uint256",
          "name": "",
          "type": "uint256"
        }
      ],
      "name": "auctions",
      "outputs": [
        {
          "internalType": "address",
          "name": "seller",
          "type": "address"
        },
        {
          "internalType": "uint256",
          "name": "startingPrice",
          "type": "uint256"
        },
        {
          "internalType": "uint256",
          "name": "highestBid",
          "type": "uint256"
        },
        {
          "internalType": "address",
          "name": "highestBidder",
          "type": "address"
        },
        {
          "internalType": "uint256",
          "name": "startTimestamp",
          "type": "uint256"
        },
        {
          "internalType": "uint256",
          "name": "endTimestamp",
          "type": "uint256"
        },
        {
          "internalType": "bool",
          "name": "isActive",
          "type": "bool"
        }
      ],
      "stateMutability": "view",
      "type": "function"
    },
    {
      "inputs": [
        {
          "internalType": "uint256",
          "name": "tokenId",
          "type": "uint256"
        }
      ],
      "name": "buyFromDutchAuction",
      "outputs": [],
      "stateMutability": "payable",
      "type": "function"
    },
    {
      "inputs": [
        {
          "internalType": "uint256",
          "name": "tokenId",
          "type": "uint256"
        }
      ],
      "name": "buyNFT",
      "outputs": [],
      "stateMutability": "payable",
      "type": "function"
    },
    {
      "inputs": [
        {
          "internalType": "uint256",
          "name": "tokenId",
          "type": "uint256"
        }
      ],
      "name": "cancelAuction",
      "outputs": [],
      "stateMutability": "nonpayable",
      "type": "function"
    },
    {
      "inputs": [
        {
          "internalType": "uint256",
          "name": "tokenId",
          "type": "uint256"
        }
      ],
      "name": "cancelDutchAuction",
      "outputs": [],
      "stateMutability": "nonpayable",
      "type": "function"
    },
    {
      "inputs": [
        {
          "internalType": "uint256",
          "name": "tokenId",
          "type": "uint256"
        }
      ],
      "name": "cancelOffer",
      "outputs": [],
      "stateMutability": "nonpayable",
      "type": "function"
    },
    {
      "inputs": [
        {
          "internalType": "uint256",
          "name": "tokenId",
          "type": "uint256"
        }
      ],
      "name": "delistNFT",
      "outputs": [],
      "stateMutability": "nonpayable",
      "type": "function"
    },
    {
      "inputs": [
        {
          "internalType": "uint256",
          "name": "",
          "type": "uint256"
        }
      ],
      "name": "dutchAuctions",
      "outputs": [
        {
          "internalType": "address",
          "name": "seller",
          "type": "address"
        },
        {
          "internalType": "uint256",
          "name": "startPrice",
          "type": "uint256"
        },
        {
          "internalType": "uint256",
          "name": "endPrice",
          "type": "uint256"
        },
        {
          "internalType": "uint256",
          "name": "startTimestamp",
          "type": "uint256"
        },
        {
          "internalType": "uint256",
          "name": "endTimestamp",
          "type": "uint256"
        },
        {
          "internalType": "bool",
          "name": "isActive",
          "type": "bool"
        }
      ],
      "stateMutability": "view",
      "type": "function"
    },
    {
      "inputs": [
        {
          "internalType": "uint256",
          "name": "tokenId",
          "type": "uint256"
        }
      ],
      "name": "finalizeAuction",
      "outputs": [],
      "stateMutability": "nonpayable",
      "type": "function"
    },
    {
      "inputs": [
        {
          "internalType": "uint256",
          "name": "tokenId",
          "type": "uint256"
        }
      ],
      "name": "getCurrentDutchPrice",
      "outputs": [
        {
          "internalType": "uint256",
          "name": "",
          "type": "uint256"
        }
      ],
      "stateMutability": "view",
      "type": "function"
    },
    {
      "inputs": [
        {
          "internalType": "uint256",
          "name": "tokenId",
          "type": "uint256"
        }
      ],
      "name": "getOffers",
      "outputs": [
        {
          "components": [
            {
              "internalType": "address",
              "name": "offerer",
              "type": "address"
            },
            {
              "internalType": "uint256",
              "name": "amount",
              "type": "uint256"
            },
            {
              "internalType": "uint256",
              "name": "expiration",
              "type": "uint256"
            }
          ],
          "internalType": "struct TradingContract.Offer[]",
          "name": "",
          "type": "tuple[]"
        }
      ],
      "stateMutability": "view",
      "type": "function"
    },
    {
      "inputs": [
        {
          "internalType": "uint256",
          "name": "tokenId",
          "type": "uint256"
        },
        {
          "internalType": "address",
          "name": "user",
          "type": "address"
        }
      ],
      "name": "hasPendingReturns",
      "outputs": [
        {
          "internalType": "bool",
          "name": "",
          "type": "bool"
        }
      ],
      "stateMutability": "view",
      "type": "function"
    },
    {
      "inputs": [
        {
          "internalType": "uint256",
          "name": "tokenId",
          "type": "uint256"
        },
        {
          "internalType": "uint256",
          "name": "price",
          "type": "uint256"
        },
        {
          "internalType": "uint256",
          "name": "expiration",
          "type": "uint256"
        }
      ],
      "name": "listNFT",
      "outputs": [],
      "stateMutability": "nonpayable",
      "type": "function"
    },
    {
      "inputs": [
        {
          "internalType": "uint256",
          "name": "",
          "type": "uint256"
        }
      ],
      "name": "listings",
      "outputs": [
        {
          "internalType": "address",
          "name": "seller",
          "type": "address"
        },
        {
          "internalType": "uint256",
          "name": "price",
          "type": "uint256"
        },
        {
          "internalType": "uint256",
          "name": "expiration",
          "type": "uint256"
        },
        {
          "internalType": "bool",
          "name": "isActive",
          "type": "bool"
        }
      ],
      "stateMutability": "view",
      "type": "function"
    },
    {
      "inputs": [
        {
          "internalType": "uint256",
          "name": "tokenId",
          "type": "uint256"
        },
        {
          "internalType": "uint256",
          "name": "expiration",
          "type": "uint256"
        }
      ],
      "name": "makeOffer",
      "outputs": [],
      "stateMutability": "payable",
      "type": "function"
    },
    {
      "inputs": [],
      "name": "nftContract",
      "outputs": [
        {
          "internalType": "contract ERC721",
          "name": "",
          "type": "address"
        }
      ],
      "stateMutability": "view",
      "type": "function"
    },
    {
      "inputs": [
        {
          "internalType": "uint256",
          "name": "",
          "type": "uint256"
        },
        {
          "internalType": "uint256",
          "name": "",
          "type": "uint256"
        }
      ],
      "name": "offerers",
      "outputs": [
        {
          "internalType": "address",
          "name": "",
          "type": "address"
        }
      ],
      "stateMutability": "view",
      "type": "function"
    },
    {
      "inputs": [
        {
          "internalType": "uint256",
          "name": "",
          "type": "uint256"
        },
        {
          "internalType": "address",
          "name": "",
          "type": "address"
        }
      ],
      "name": "offers",
      "outputs": [
        {
          "internalType": "address",
          "name": "offerer",
          "type": "address"
        },
        {
          "internalType": "uint256",
          "name": "amount",
          "type": "uint256"
        },
        {
          "internalType": "uint256",
          "name": "expiration",
          "type": "uint256"
        }
      ],
      "stateMutability": "view",
      "type": "function"
    },
    {
      "inputs": [],
      "name": "owner",
      "outputs": [
        {
          "internalType": "address",
          "name": "",
          "type": "address"
        }
      ],
      "stateMutability": "view",
      "type": "function"
    },
    {
      "inputs": [
        {
          "internalType": "uint256",
          "name": "",
          "type": "uint256"
        },
        {
          "internalType": "address",
          "name": "",
          "type": "address"
        }
      ],
      "name": "pendingReturns",
      "outputs": [
        {
          "internalType": "uint256",
          "name": "",
          "type": "uint256"
        }
      ],
      "stateMutability": "view",
      "type": "function"
    },
    {
      "inputs": [
        {
          "internalType": "uint256",
          "name": "tokenId",
          "type": "uint256"
        }
      ],
      "name": "placeBid",
      "outputs": [],
      "stateMutability": "payable",
      "type": "function"
    },
    {
      "inputs": [
        {
          "internalType": "uint256",
          "name": "tokenId",
          "type": "uint256"
        },
        {
          "internalType": "uint256",
          "name": "startingPrice",
          "type": "uint256"
        },
        {
          "internalType": "uint256",
          "name": "endTimeStamp",
          "type": "uint256"
        }
      ],
      "name": "startAuction",
      "outputs": [],
      "stateMutability": "nonpayable",
      "type": "function"
    },
    {
      "inputs": [
        {
          "internalType": "uint256",
          "name": "tokenId",
          "type": "uint256"
        },
        {
          "internalType": "uint256",
          "name": "startPrice",
          "type": "uint256"
        },
        {
          "internalType": "uint256",
          "name": "endPrice",
          "type": "uint256"
        },
        {
          "internalType": "uint256",
          "name": "duration",
          "type": "uint256"
        }
      ],
      "name": "startDutchAuction",
      "outputs": [],
      "stateMutability": "nonpayable",
      "type": "function"
    },
    {
      "inputs": [
        {
          "internalType": "uint256",
          "name": "tokenId",
          "type": "uint256"
        }
      ],
      "name": "withdrawBid",
      "outputs": [],
      "stateMutability": "nonpayable",
      "type": "function"
    }
  ],
  "bytecode": "0x608060405234801561001057600080fd5b506040516153d73803806153d78339818101604052810190610032919061011c565b806000806101000a81548173ffffffffffffffffffffffffffffffffffffffff021916908373ffffffffffffffffffffffffffffffffffffffff16021790555033600160006101000a81548173ffffffffffffffffffffffffffffffffffffffff021916908373ffffffffffffffffffffffffffffffffffffffff16021790555050610149565b600080fd5b600073ffffffffffffffffffffffffffffffffffffffff82169050919050565b60006100e9826100be565b9050919050565b6100f9816100de565b811461010457600080fd5b50565b600081519050610116816100f0565b92915050565b600060208284031215610132576101316100b9565b5b600061014084828501610107565b91505092915050565b61527f806101586000396000f3fe6080604052600436106101665760003560e01c80639979ef45116100d1578063de74e57b1161008a578063ebdfbce511610064578063ebdfbce51461052d578063ecfc12a31461056c578063ef706adf14610595578063f2ab2fc0146105be57610166565b8063de74e57b14610487578063dfa49e6f146104c7578063e80838631461050457610166565b80639979ef45146103a9578063b0136c8d146103c5578063caabdd3d146103ee578063cb917b9c1461040a578063d56d229d14610433578063ddee84331461045e57610166565b8063571a26a011610123578063571a26a0146102835780638da5cb5b146102c65780638ddac1ef146102f1578063918d407d1461032e57806391e078bb1461035757806396b5a7551461038057610166565b806305b7cdd31461016b5780630eaaf4c8146101875780632f44dee8146101b05780633079dccf146101ed57806351ed82881461022a5780635629939a14610246575b600080fd5b61018560048036038101906101809190613d4c565b610600565b005b34801561019357600080fd5b506101ae60048036038101906101a99190613d8c565b6108c9565b005b3480156101bc57600080fd5b506101d760048036038101906101d29190613d8c565b610a3c565b6040516101e49190613dc8565b60405180910390f35b3480156101f957600080fd5b50610214600480360381019061020f9190613d4c565b610bca565b6040516102219190613e24565b60405180910390f35b610244600480360381019061023f9190613d8c565b610c18565b005b34801561025257600080fd5b5061026d60048036038101906102689190613e6b565b610f3e565b60405161027a9190613ec6565b60405180910390f35b34801561028f57600080fd5b506102aa60048036038101906102a59190613d8c565b610f9b565b6040516102bd9796959493929190613ee1565b60405180910390f35b3480156102d257600080fd5b506102db61102a565b6040516102e89190613e24565b60405180910390f35b3480156102fd57600080fd5b5061031860048036038101906103139190613e6b565b611050565b6040516103259190613dc8565b60405180910390f35b34801561033a57600080fd5b5061035560048036038101906103509190613e6b565b611075565b005b34801561036357600080fd5b5061037e60048036038101906103799190613f50565b6114fb565b005b34801561038c57600080fd5b506103a760048036038101906103a29190613d8c565b6119d0565b005b6103c360048036038101906103be9190613d8c565b611ca6565b005b3480156103d157600080fd5b506103ec60048036038101906103e79190613f50565b611f2e565b005b61040860048036038101906104039190613d8c565b6123be565b005b34801561041657600080fd5b50610431600480360381019061042c9190613d8c565b6126a4565b005b34801561043f57600080fd5b506104486128ae565b6040516104559190614002565b60405180910390f35b34801561046a57600080fd5b5061048560048036038101906104809190613d8c565b6128d2565b005b34801561049357600080fd5b506104ae60048036038101906104a99190613d8c565b612a9c565b6040516104be949392919061401d565b60405180910390f35b3480156104d357600080fd5b506104ee60048036038101906104e99190613d8c565b612af9565b6040516104fb9190614171565b60405180910390f35b34801561051057600080fd5b5061052b60048036038101906105269190613d8c565b612d16565b005b34801561053957600080fd5b50610554600480360381019061054f9190613e6b565b613139565b60405161056393929190614193565b60405180910390f35b34801561057857600080fd5b50610593600480360381019061058e91906141ca565b613190565b005b3480156105a157600080fd5b506105bc60048036038101906105b79190613d8c565b613699565b005b3480156105ca57600080fd5b506105e560048036038101906105e09190613d8c565b613a65565b6040516105f796959493929190614231565b60405180910390f35b60003411610643576040517f08c379a000000000000000000000000000000000000000000000000000000000815260040161063a90614315565b60405180910390fd5b428111610685576040517f08c379a000000000000000000000000000000000000000000000000000000000815260040161067c90614381565b60405180910390fd5b60006006600084815260200190815260200160002060003373ffffffffffffffffffffffffffffffffffffffff1673ffffffffffffffffffffffffffffffffffffffff16815260200190815260200160002090506000816001015414610720576040517f08c379a0000000000000000000000000000000000000000000000000000000008152600401610717906143ed565b60405180910390fd5b60405180606001604052803373ffffffffffffffffffffffffffffffffffffffff168152602001348152602001838152506006600085815260200190815260200160002060003373ffffffffffffffffffffffffffffffffffffffff1673ffffffffffffffffffffffffffffffffffffffff16815260200190815260200160002060008201518160000160006101000a81548173ffffffffffffffffffffffffffffffffffffffff021916908373ffffffffffffffffffffffffffffffffffffffff160217905550602082015181600101556040820151816002015590505060076000848152602001908152602001600020339080600181540180825580915050600190039060005260206000200160009091909190916101000a81548173ffffffffffffffffffffffffffffffffffffffff021916908373ffffffffffffffffffffffffffffffffffffffff1602179055503373ffffffffffffffffffffffffffffffffffffffff16837fd7df0c72641d362ea57ecc9cab99c77f936e36bb826f096258c3404196b26d6a34856040516108bc92919061440d565b60405180910390a3505050565b60006005600083815260200190815260200160002060003373ffffffffffffffffffffffffffffffffffffffff1673ffffffffffffffffffffffffffffffffffffffff16815260200190815260200160002054905060008111610961576040517f08c379a000000000000000000000000000000000000000000000000000000000815260040161095890614482565b60405180910390fd5b60006005600084815260200190815260200160002060003373ffffffffffffffffffffffffffffffffffffffff1673ffffffffffffffffffffffffffffffffffffffff168152602001908152602001600020819055503373ffffffffffffffffffffffffffffffffffffffff166108fc829081150290604051600060405180830381858888f193505050501580156109fd573d6000803e3d6000fd5b50817f8f8619524e8d462cead34604bd2247ede24175801481e4d0b8059ac8aa41c3013383604051610a309291906144a2565b60405180910390a25050565b600080600460008481526020019081526020016000206040518060c00160405290816000820160009054906101000a900473ffffffffffffffffffffffffffffffffffffffff1673ffffffffffffffffffffffffffffffffffffffff1673ffffffffffffffffffffffffffffffffffffffff168152602001600182015481526020016002820154815260200160038201548152602001600482015481526020016005820160009054906101000a900460ff16151515158152505090508060a00151610b3c576040517f08c379a0000000000000000000000000000000000000000000000000000000008152600401610b3390614517565b60405180910390fd5b80608001514210610b54578060400151915050610bc5565b6000816060015142610b669190614566565b9050600082606001518360800151610b7e9190614566565b9050600083604001518460200151610b969190614566565b9050818382610ba5919061459a565b610baf919061460b565b8460200151610bbe9190614566565b9450505050505b919050565b60076020528160005260406000208181548110610be657600080fd5b906000526020600020016000915091509054906101000a900473ffffffffffffffffffffffffffffffffffffffff1681565b806002600082815260200190815260200160002060030160009054906101000a900460ff16610c7c576040517f08c379a0000000000000000000000000000000000000000000000000000000008152600401610c7390614688565b60405180910390fd5b6000600260008481526020019081526020016000206040518060800160405290816000820160009054906101000a900473ffffffffffffffffffffffffffffffffffffffff1673ffffffffffffffffffffffffffffffffffffffff1673ffffffffffffffffffffffffffffffffffffffff16815260200160018201548152602001600282015481526020016003820160009054906101000a900460ff16151515158152505090508060200151341015610d6a576040517f08c379a0000000000000000000000000000000000000000000000000000000008152600401610d61906146f4565b60405180910390fd5b8060400151421115610db1576040517f08c379a0000000000000000000000000000000000000000000000000000000008152600401610da890614760565b60405180910390fd5b806000015173ffffffffffffffffffffffffffffffffffffffff166108fc349081150290604051600060405180830381858888f19350505050158015610dfb573d6000803e3d6000fd5b5060008054906101000a900473ffffffffffffffffffffffffffffffffffffffff1673ffffffffffffffffffffffffffffffffffffffff166342842e0e826000015133866040518463ffffffff1660e01b8152600401610e5d93929190614780565b600060405180830381600087803b158015610e7757600080fd5b505af1158015610e8b573d6000803e3d6000fd5b5050505060026000848152602001908152602001600020600080820160006101000a81549073ffffffffffffffffffffffffffffffffffffffff0219169055600182016000905560028201600090556003820160006101000a81549060ff02191690555050610ef983613ace565b827f8562eb94748e30bb0071e932744ce902b460c683474fcb3bfd567ffa16b1afb282600001513334604051610f3193929190614780565b60405180910390a2505050565b6000806005600085815260200190815260200160002060008473ffffffffffffffffffffffffffffffffffffffff1673ffffffffffffffffffffffffffffffffffffffff1681526020019081526020016000205411905092915050565b60036020528060005260406000206000915090508060000160009054906101000a900473ffffffffffffffffffffffffffffffffffffffff16908060010154908060020154908060030160009054906101000a900473ffffffffffffffffffffffffffffffffffffffff16908060040154908060050154908060060160009054906101000a900460ff16905087565b600160009054906101000a900473ffffffffffffffffffffffffffffffffffffffff1681565b6005602052816000526040600020602052806000526040600020600091509150505481565b813373ffffffffffffffffffffffffffffffffffffffff1660008054906101000a900473ffffffffffffffffffffffffffffffffffffffff1673ffffffffffffffffffffffffffffffffffffffff16636352211e836040518263ffffffff1660e01b81526004016110e69190613dc8565b602060405180830381865afa158015611103573d6000803e3d6000fd5b505050506040513d601f19601f8201168201806040525081019061112791906147cc565b73ffffffffffffffffffffffffffffffffffffffff161461117d576040517f08c379a000000000000000000000000000000000000000000000000000000000815260040161117490614845565b60405180910390fd5b60006006600085815260200190815260200160002060008473ffffffffffffffffffffffffffffffffffffffff1673ffffffffffffffffffffffffffffffffffffffff1681526020019081526020016000206040518060600160405290816000820160009054906101000a900473ffffffffffffffffffffffffffffffffffffffff1673ffffffffffffffffffffffffffffffffffffffff1673ffffffffffffffffffffffffffffffffffffffff168152602001600182015481526020016002820154815250509050600081602001511161128d576040517f08c379a0000000000000000000000000000000000000000000000000000000008152600401611284906148b1565b60405180910390fd5b80604001514211156112d4576040517f08c379a00000000000000000000000000000000000000000000000000000000081526004016112cb9061491d565b60405180910390fd5b6006600085815260200190815260200160002060008473ffffffffffffffffffffffffffffffffffffffff1673ffffffffffffffffffffffffffffffffffffffff168152602001908152602001600020600080820160006101000a81549073ffffffffffffffffffffffffffffffffffffffff02191690556001820160009055600282016000905550503373ffffffffffffffffffffffffffffffffffffffff166108fc82602001519081150290604051600060405180830381858888f193505050501580156113a8573d6000803e3d6000fd5b5060008054906101000a900473ffffffffffffffffffffffffffffffffffffffff1673ffffffffffffffffffffffffffffffffffffffff166342842e0e3385876040518463ffffffff1660e01b815260040161140693929190614780565b600060405180830381600087803b15801561142057600080fd5b505af1158015611434573d6000803e3d6000fd5b5050505060026000858152602001908152602001600020600080820160006101000a81549073ffffffffffffffffffffffffffffffffffffffff0219169055600182016000905560028201600090556003820160006101000a81549060ff021916905550506114a284613ace565b8273ffffffffffffffffffffffffffffffffffffffff16847fea555ab99331ceac5051c58f17cc7b411b30241b0e28cb93a7d3a24c77a7a9a983602001516040516114ed9190613dc8565b60405180910390a350505050565b823373ffffffffffffffffffffffffffffffffffffffff1660008054906101000a900473ffffffffffffffffffffffffffffffffffffffff1673ffffffffffffffffffffffffffffffffffffffff16636352211e836040518263ffffffff1660e01b815260040161156c9190613dc8565b602060405180830381865afa158015611589573d6000803e3d6000fd5b505050506040513d601f19601f820116820180604052508101906115ad91906147cc565b73ffffffffffffffffffffffffffffffffffffffff1614611603576040517f08c379a00000000000000000000000000000000000000000000000000000000081526004016115fa90614845565b60405180910390fd5b3073ffffffffffffffffffffffffffffffffffffffff1660008054906101000a900473ffffffffffffffffffffffffffffffffffffffff1673ffffffffffffffffffffffffffffffffffffffff1663081812fc866040518263ffffffff1660e01b81526004016116739190613dc8565b602060405180830381865afa158015611690573d6000803e3d6000fd5b505050506040513d601f19601f820116820180604052508101906116b491906147cc565b73ffffffffffffffffffffffffffffffffffffffff16148061176e575060008054906101000a900473ffffffffffffffffffffffffffffffffffffffff1673ffffffffffffffffffffffffffffffffffffffff1663e985e9c533306040518363ffffffff1660e01b815260040161172c92919061493d565b602060405180830381865afa158015611749573d6000803e3d6000fd5b505050506040513d601f19601f8201168201806040525081019061176d9190614992565b5b6117ad576040517f08c379a00000000000000000000000000000000000000000000000000000000081526004016117a490614a31565b60405180910390fd5b6002600085815260200190815260200160002060030160009054906101000a900460ff161580156117ff57506004600085815260200190815260200160002060050160009054906101000a900460ff16155b61183e576040517f08c379a000000000000000000000000000000000000000000000000000000000815260040161183590614ac3565b60405180910390fd5b6040518060e001604052803373ffffffffffffffffffffffffffffffffffffffff16815260200184815260200160008152602001600073ffffffffffffffffffffffffffffffffffffffff168152602001428152602001838152602001600115158152506003600086815260200190815260200160002060008201518160000160006101000a81548173ffffffffffffffffffffffffffffffffffffffff021916908373ffffffffffffffffffffffffffffffffffffffff160217905550602082015181600101556040820151816002015560608201518160030160006101000a81548173ffffffffffffffffffffffffffffffffffffffff021916908373ffffffffffffffffffffffffffffffffffffffff1602179055506080820151816004015560a0820151816005015560c08201518160060160006101000a81548160ff021916908315150217905550905050837fbf6dc7bdf2f23af5a506fe03ee1221f47d023a2227fbc949c6b812ae44534e6d3385856040516119c293929190614193565b60405180910390a250505050565b803373ffffffffffffffffffffffffffffffffffffffff1660008054906101000a900473ffffffffffffffffffffffffffffffffffffffff1673ffffffffffffffffffffffffffffffffffffffff16636352211e836040518263ffffffff1660e01b8152600401611a419190613dc8565b602060405180830381865afa158015611a5e573d6000803e3d6000fd5b505050506040513d601f19601f82011682018060405250810190611a8291906147cc565b73ffffffffffffffffffffffffffffffffffffffff1614611ad8576040517f08c379a0000000000000000000000000000000000000000000000000000000008152600401611acf90614845565b60405180910390fd5b816003600082815260200190815260200160002060060160009054906101000a900460ff16611b3c576040517f08c379a0000000000000000000000000000000000000000000000000000000008152600401611b3390614b2f565b60405180910390fd5b6000600360008581526020019081526020016000209050600081600201541115611bd0578060030160009054906101000a900473ffffffffffffffffffffffffffffffffffffffff1673ffffffffffffffffffffffffffffffffffffffff166108fc82600201549081150290604051600060405180830381858888f19350505050158015611bce573d6000803e3d6000fd5b505b60036000858152602001908152602001600020600080820160006101000a81549073ffffffffffffffffffffffffffffffffffffffff0219169055600182016000905560028201600090556003820160006101000a81549073ffffffffffffffffffffffffffffffffffffffff0219169055600482016000905560058201600090556006820160006101000a81549060ff02191690555050837fef1499b350e05776e60cd2ffcac001569a28e9d574e1f3adc1b3ab264f8ccffd33604051611c989190613e24565b60405180910390a250505050565b806003600082815260200190815260200160002060060160009054906101000a900460ff16611d0a576040517f08c379a0000000000000000000000000000000000000000000000000000000008152600401611d0190614b2f565b60405180910390fd5b60036000838152602001908152602001600020600501544210611d62576040517f08c379a0000000000000000000000000000000000000000000000000000000008152600401611d5990614b9b565b60405180910390fd5b60006003600084815260200190815260200160002090508060010154341015611dc0576040517f08c379a0000000000000000000000000000000000000000000000000000000008152600401611db790614c2d565b60405180910390fd5b80600201543411611e06576040517f08c379a0000000000000000000000000000000000000000000000000000000008152600401611dfd90614cbf565b60405180910390fd5b600081600201541115611ea35780600201546005600085815260200190815260200160002060008360030160009054906101000a900473ffffffffffffffffffffffffffffffffffffffff1673ffffffffffffffffffffffffffffffffffffffff1673ffffffffffffffffffffffffffffffffffffffff1681526020019081526020016000206000828254611e9b9190614cdf565b925050819055505b348160020181905550338160030160006101000a81548173ffffffffffffffffffffffffffffffffffffffff021916908373ffffffffffffffffffffffffffffffffffffffff160217905550827f558a0d5d5468d74b0db24c74eb348b42271c2ebb4c9e953ced38aaed95fa43613334604051611f219291906144a2565b60405180910390a2505050565b823373ffffffffffffffffffffffffffffffffffffffff1660008054906101000a900473ffffffffffffffffffffffffffffffffffffffff1673ffffffffffffffffffffffffffffffffffffffff16636352211e836040518263ffffffff1660e01b8152600401611f9f9190613dc8565b602060405180830381865afa158015611fbc573d6000803e3d6000fd5b505050506040513d601f19601f82011682018060405250810190611fe091906147cc565b73ffffffffffffffffffffffffffffffffffffffff1614612036576040517f08c379a000000000000000000000000000000000000000000000000000000000815260040161202d90614845565b60405180910390fd5b3073ffffffffffffffffffffffffffffffffffffffff1660008054906101000a900473ffffffffffffffffffffffffffffffffffffffff1673ffffffffffffffffffffffffffffffffffffffff1663081812fc866040518263ffffffff1660e01b81526004016120a69190613dc8565b602060405180830381865afa1580156120c3573d6000803e3d6000fd5b505050506040513d601f19601f820116820180604052508101906120e791906147cc565b73ffffffffffffffffffffffffffffffffffffffff1614806121a1575060008054906101000a900473ffffffffffffffffffffffffffffffffffffffff1673ffffffffffffffffffffffffffffffffffffffff1663e985e9c533306040518363ffffffff1660e01b815260040161215f92919061493d565b602060405180830381865afa15801561217c573d6000803e3d6000fd5b505050506040513d601f19601f820116820180604052508101906121a09190614992565b5b6121e0576040517f08c379a00000000000000000000000000000000000000000000000000000000081526004016121d790614a31565b60405180910390fd5b428211612222576040517f08c379a000000000000000000000000000000000000000000000000000000000815260040161221990614381565b60405180910390fd5b6003600085815260200190815260200160002060060160009054906101000a900460ff1615801561227457506004600085815260200190815260200160002060050160009054906101000a900460ff16155b6122b3576040517f08c379a00000000000000000000000000000000000000000000000000000000081526004016122aa90614d85565b60405180910390fd5b60405180608001604052803373ffffffffffffffffffffffffffffffffffffffff168152602001848152602001838152602001600115158152506002600086815260200190815260200160002060008201518160000160006101000a81548173ffffffffffffffffffffffffffffffffffffffff021916908373ffffffffffffffffffffffffffffffffffffffff160217905550602082015181600101556040820151816002015560608201518160030160006101000a81548160ff021916908315150217905550905050837f5f9c03de076f5063cd3ebcfe8ef7aa8af378e4b35a83c77ba9777e97083879a233856040516123b09291906144a2565b60405180910390a250505050565b60006004600083815260200190815260200160002090508060050160009054906101000a900460ff16612426576040517f08c379a000000000000000000000000000000000000000000000000000000000815260040161241d90614df1565b60405180910390fd5b806004015442111561246d576040517f08c379a000000000000000000000000000000000000000000000000000000000815260040161246490614e5d565b60405180910390fd5b600081600301544261247f9190614566565b90506000826003015483600401546124979190614566565b90506000836002015484600101546124af9190614566565b905060008284836124c0919061459a565b6124ca919061460b565b85600101546124d99190614566565b90508034101561251e576040517f08c379a0000000000000000000000000000000000000000000000000000000008152600401612515906146f4565b60405180910390fd5b60008560050160006101000a81548160ff02191690831515021790555060008054906101000a900473ffffffffffffffffffffffffffffffffffffffff1673ffffffffffffffffffffffffffffffffffffffff166342842e0e8660000160009054906101000a900473ffffffffffffffffffffffffffffffffffffffff1633896040518463ffffffff1660e01b81526004016125bc93929190614780565b600060405180830381600087803b1580156125d657600080fd5b505af11580156125ea573d6000803e3d6000fd5b505050508460000160009054906101000a900473ffffffffffffffffffffffffffffffffffffffff1673ffffffffffffffffffffffffffffffffffffffff166108fc349081150290604051600060405180830381858888f19350505050158015612658573d6000803e3d6000fd5b5061266286613ace565b857f3a9978b6624f6cb440b3a1e29c588ca8aab0251c3b4d7f9202a1c1fb01ab2c4e33346040516126949291906144a2565b60405180910390a2505050505050565b803373ffffffffffffffffffffffffffffffffffffffff1660008054906101000a900473ffffffffffffffffffffffffffffffffffffffff1673ffffffffffffffffffffffffffffffffffffffff16636352211e836040518263ffffffff1660e01b81526004016127159190613dc8565b602060405180830381865afa158015612732573d6000803e3d6000fd5b505050506040513d601f19601f8201168201806040525081019061275691906147cc565b73ffffffffffffffffffffffffffffffffffffffff16146127ac576040517f08c379a00000000000000000000000000000000000000000000000000000000081526004016127a390614845565b60405180910390fd5b816002600082815260200190815260200160002060030160009054906101000a900460ff16612810576040517f08c379a000000000000000000000000000000000000000000000000000000000815260040161280790614688565b60405180910390fd5b60026000848152602001908152602001600020600080820160006101000a81549073ffffffffffffffffffffffffffffffffffffffff0219169055600182016000905560028201600090556003820160006101000a81549060ff02191690555050827fef1499b350e05776e60cd2ffcac001569a28e9d574e1f3adc1b3ab264f8ccffd336040516128a19190613e24565b60405180910390a2505050565b60008054906101000a900473ffffffffffffffffffffffffffffffffffffffff1681565b803373ffffffffffffffffffffffffffffffffffffffff1660008054906101000a900473ffffffffffffffffffffffffffffffffffffffff1673ffffffffffffffffffffffffffffffffffffffff16636352211e836040518263ffffffff1660e01b81526004016129439190613dc8565b602060405180830381865afa158015612960573d6000803e3d6000fd5b505050506040513d601f19601f8201168201806040525081019061298491906147cc565b73ffffffffffffffffffffffffffffffffffffffff16146129da576040517f08c379a00000000000000000000000000000000000000000000000000000000081526004016129d190614845565b60405180910390fd5b60006004600084815260200190815260200160002090508060050160009054906101000a900460ff16612a42576040517f08c379a0000000000000000000000000000000000000000000000000000000008152600401612a3990614df1565b60405180910390fd5b60008160050160006101000a81548160ff021916908315150217905550827fef1499b350e05776e60cd2ffcac001569a28e9d574e1f3adc1b3ab264f8ccffd33604051612a8f9190613e24565b60405180910390a2505050565b60026020528060005260406000206000915090508060000160009054906101000a900473ffffffffffffffffffffffffffffffffffffffff16908060010154908060020154908060030160009054906101000a900460ff16905084565b6060600060076000848152602001908152602001600020805480602002602001604051908101604052809291908181526020018280548015612b9057602002820191906000526020600020905b8160009054906101000a900473ffffffffffffffffffffffffffffffffffffffff1673ffffffffffffffffffffffffffffffffffffffff1681526020019060010190808311612b46575b5050505050905060008151905060008167ffffffffffffffff811115612bb957612bb8614e7d565b5b604051908082528060200260200182016040528015612bf257816020015b612bdf613c9c565b815260200190600190039081612bd75790505b50905060005b82811015612d0a57600660008781526020019081526020016000206000858381518110612c2857612c27614eac565b5b602002602001015173ffffffffffffffffffffffffffffffffffffffff1673ffffffffffffffffffffffffffffffffffffffff1681526020019081526020016000206040518060600160405290816000820160009054906101000a900473ffffffffffffffffffffffffffffffffffffffff1673ffffffffffffffffffffffffffffffffffffffff1673ffffffffffffffffffffffffffffffffffffffff16815260200160018201548152602001600282015481525050828281518110612cf257612cf1614eac565b5b60200260200101819052508080600101915050612bf8565b50809350505050919050565b806003600082815260200190815260200160002060060160009054906101000a900460ff16612d7a576040517f08c379a0000000000000000000000000000000000000000000000000000000008152600401612d7190614b2f565b60405180910390fd5b6003600082815260200190815260200160002060050154421015612dd3576040517f08c379a0000000000000000000000000000000000000000000000000000000008152600401612dca90614f27565b60405180910390fd5b6000600360008481526020019081526020016000209050600073ffffffffffffffffffffffffffffffffffffffff168160030160009054906101000a900473ffffffffffffffffffffffffffffffffffffffff1673ffffffffffffffffffffffffffffffffffffffff1603612e7d576040517f08c379a0000000000000000000000000000000000000000000000000000000008152600401612e7490614f93565b60405180910390fd5b600060648260020154612e90919061460b565b90506000818360020154612ea49190614566565b905060008054906101000a900473ffffffffffffffffffffffffffffffffffffffff1673ffffffffffffffffffffffffffffffffffffffff166342842e0e8460000160009054906101000a900473ffffffffffffffffffffffffffffffffffffffff168560030160009054906101000a900473ffffffffffffffffffffffffffffffffffffffff16886040518463ffffffff1660e01b8152600401612f4b93929190614780565b600060405180830381600087803b158015612f6557600080fd5b505af1158015612f79573d6000803e3d6000fd5b505050508260000160009054906101000a900473ffffffffffffffffffffffffffffffffffffffff1673ffffffffffffffffffffffffffffffffffffffff166108fc829081150290604051600060405180830381858888f19350505050158015612fe7573d6000803e3d6000fd5b503373ffffffffffffffffffffffffffffffffffffffff166108fc839081150290604051600060405180830381858888f1935050505015801561302e573d6000803e3d6000fd5b5061303885613ace565b847fd2aa34a4fdbbc6dff6a3e56f46e0f3ae2a31d7785ff3487aa5c95c642acea5018460030160009054906101000a900473ffffffffffffffffffffffffffffffffffffffff1685600201546040516130929291906144a2565b60405180910390a260036000868152602001908152602001600020600080820160006101000a81549073ffffffffffffffffffffffffffffffffffffffff0219169055600182016000905560028201600090556003820160006101000a81549073ffffffffffffffffffffffffffffffffffffffff0219169055600482016000905560058201600090556006820160006101000a81549060ff021916905550505050505050565b6006602052816000526040600020602052806000526040600020600091509150508060000160009054906101000a900473ffffffffffffffffffffffffffffffffffffffff16908060010154908060020154905083565b833373ffffffffffffffffffffffffffffffffffffffff1660008054906101000a900473ffffffffffffffffffffffffffffffffffffffff1673ffffffffffffffffffffffffffffffffffffffff16636352211e836040518263ffffffff1660e01b81526004016132019190613dc8565b602060405180830381865afa15801561321e573d6000803e3d6000fd5b505050506040513d601f19601f8201168201806040525081019061324291906147cc565b73ffffffffffffffffffffffffffffffffffffffff1614613298576040517f08c379a000000000000000000000000000000000000000000000000000000000815260040161328f90614845565b60405180910390fd5b3073ffffffffffffffffffffffffffffffffffffffff1660008054906101000a900473ffffffffffffffffffffffffffffffffffffffff1673ffffffffffffffffffffffffffffffffffffffff1663081812fc876040518263ffffffff1660e01b81526004016133089190613dc8565b602060405180830381865afa158015613325573d6000803e3d6000fd5b505050506040513d601f19601f8201168201806040525081019061334991906147cc565b73ffffffffffffffffffffffffffffffffffffffff161480613403575060008054906101000a900473ffffffffffffffffffffffffffffffffffffffff1673ffffffffffffffffffffffffffffffffffffffff1663e985e9c533306040518363ffffffff1660e01b81526004016133c192919061493d565b602060405180830381865afa1580156133de573d6000803e3d6000fd5b505050506040513d601f19601f820116820180604052508101906134029190614992565b5b613442576040517f08c379a000000000000000000000000000000000000000000000000000000000815260040161343990614a31565b60405180910390fd5b828411613484576040517f08c379a000000000000000000000000000000000000000000000000000000000815260040161347b90615025565b60405180910390fd5b600082116134c7576040517f08c379a00000000000000000000000000000000000000000000000000000000081526004016134be906150b7565b60405180910390fd5b6002600086815260200190815260200160002060030160009054906101000a900460ff1615801561351957506003600086815260200190815260200160002060060160009054906101000a900460ff16155b613558576040517f08c379a000000000000000000000000000000000000000000000000000000000815260040161354f90615149565b60405180910390fd5b600082426135669190614cdf565b90506040518060c001604052803373ffffffffffffffffffffffffffffffffffffffff168152602001868152602001858152602001428152602001828152602001600115158152506004600088815260200190815260200160002060008201518160000160006101000a81548173ffffffffffffffffffffffffffffffffffffffff021916908373ffffffffffffffffffffffffffffffffffffffff1602179055506020820151816001015560408201518160020155606082015181600301556080820151816004015560a08201518160050160006101000a81548160ff021916908315150217905550905050857f268ac48f716356a00742974050591a9f3d88ed4669568f578935c957cdb5d520338787856040516136899493929190615169565b60405180910390a2505050505050565b60006006600083815260200190815260200160002060003373ffffffffffffffffffffffffffffffffffffffff1673ffffffffffffffffffffffffffffffffffffffff1681526020019081526020016000206040518060600160405290816000820160009054906101000a900473ffffffffffffffffffffffffffffffffffffffff1673ffffffffffffffffffffffffffffffffffffffff1673ffffffffffffffffffffffffffffffffffffffff16815260200160018201548152602001600282015481525050905060008160200151116137a9576040517f08c379a00000000000000000000000000000000000000000000000000000000081526004016137a0906151fa565b60405180910390fd5b6000816020015190506006600084815260200190815260200160002060003373ffffffffffffffffffffffffffffffffffffffff1673ffffffffffffffffffffffffffffffffffffffff168152602001908152602001600020600080820160006101000a81549073ffffffffffffffffffffffffffffffffffffffff0219169055600182016000905560028201600090555050600060076000858152602001908152602001600020905060005b81805490508110156139d3573373ffffffffffffffffffffffffffffffffffffffff1682828154811061388c5761388b614eac565b5b9060005260206000200160009054906101000a900473ffffffffffffffffffffffffffffffffffffffff1673ffffffffffffffffffffffffffffffffffffffff16036139c65781600183805490506138e49190614566565b815481106138f5576138f4614eac565b5b9060005260206000200160009054906101000a900473ffffffffffffffffffffffffffffffffffffffff1682828154811061393357613932614eac565b5b9060005260206000200160006101000a81548173ffffffffffffffffffffffffffffffffffffffff021916908373ffffffffffffffffffffffffffffffffffffffff1602179055508180548061398c5761398b61521a565b5b6001900381819060005260206000200160006101000a81549073ffffffffffffffffffffffffffffffffffffffff021916905590556139d3565b8080600101915050613856565b503373ffffffffffffffffffffffffffffffffffffffff166108fc839081150290604051600060405180830381858888f19350505050158015613a1a573d6000803e3d6000fd5b503373ffffffffffffffffffffffffffffffffffffffff16847f1f51377b3e685a0e2419f9bb4ba7c07ec54936353ba3d0fb3c6538dab676622260405160405180910390a350505050565b60046020528060005260406000206000915090508060000160009054906101000a900473ffffffffffffffffffffffffffffffffffffffff16908060010154908060020154908060030154908060040154908060050160009054906101000a900460ff16905086565b600060076000838152602001908152602001600020905060005b8180549050811015613c78576000828281548110613b0957613b08614eac565b5b9060005260206000200160009054906101000a900473ffffffffffffffffffffffffffffffffffffffff16905060006006600086815260200190815260200160002060008373ffffffffffffffffffffffffffffffffffffffff1673ffffffffffffffffffffffffffffffffffffffff1681526020019081526020016000206001015490506000811115613c69576006600086815260200190815260200160002060008373ffffffffffffffffffffffffffffffffffffffff1673ffffffffffffffffffffffffffffffffffffffff168152602001908152602001600020600080820160006101000a81549073ffffffffffffffffffffffffffffffffffffffff02191690556001820160009055600282016000905550508173ffffffffffffffffffffffffffffffffffffffff166108fc829081150290604051600060405180830381858888f19350505050158015613c67573d6000803e3d6000fd5b505b50508080600101915050613ae8565b50600760008381526020019081526020016000206000613c989190613cd3565b5050565b6040518060600160405280600073ffffffffffffffffffffffffffffffffffffffff16815260200160008152602001600081525090565b5080546000825590600052602060002090810190613cf19190613cf4565b50565b5b80821115613d0d576000816000905550600101613cf5565b5090565b600080fd5b6000819050919050565b613d2981613d16565b8114613d3457600080fd5b50565b600081359050613d4681613d20565b92915050565b60008060408385031215613d6357613d62613d11565b5b6000613d7185828601613d37565b9250506020613d8285828601613d37565b9150509250929050565b600060208284031215613da257613da1613d11565b5b6000613db084828501613d37565b91505092915050565b613dc281613d16565b82525050565b6000602082019050613ddd6000830184613db9565b92915050565b600073ffffffffffffffffffffffffffffffffffffffff82169050919050565b6000613e0e82613de3565b9050919050565b613e1e81613e03565b82525050565b6000602082019050613e396000830184613e15565b92915050565b613e4881613e03565b8114613e5357600080fd5b50565b600081359050613e6581613e3f565b92915050565b60008060408385031215613e8257613e81613d11565b5b6000613e9085828601613d37565b9250506020613ea185828601613e56565b9150509250929050565b60008115159050919050565b613ec081613eab565b82525050565b6000602082019050613edb6000830184613eb7565b92915050565b600060e082019050613ef6600083018a613e15565b613f036020830189613db9565b613f106040830188613db9565b613f1d6060830187613e15565b613f2a6080830186613db9565b613f3760a0830185613db9565b613f4460c0830184613eb7565b98975050505050505050565b600080600060608486031215613f6957613f68613d11565b5b6000613f7786828701613d37565b9350506020613f8886828701613d37565b9250506040613f9986828701613d37565b9150509250925092565b6000819050919050565b6000613fc8613fc3613fbe84613de3565b613fa3565b613de3565b9050919050565b6000613fda82613fad565b9050919050565b6000613fec82613fcf565b9050919050565b613ffc81613fe1565b82525050565b60006020820190506140176000830184613ff3565b92915050565b60006080820190506140326000830187613e15565b61403f6020830186613db9565b61404c6040830185613db9565b6140596060830184613eb7565b95945050505050565b600081519050919050565b600082825260208201905092915050565b6000819050602082019050919050565b61409781613e03565b82525050565b6140a681613d16565b82525050565b6060820160008201516140c2600085018261408e565b5060208201516140d5602085018261409d565b5060408201516140e8604085018261409d565b50505050565b60006140fa83836140ac565b60608301905092915050565b6000602082019050919050565b600061411e82614062565b614128818561406d565b93506141338361407e565b8060005b8381101561416457815161414b88826140ee565b975061415683614106565b925050600181019050614137565b5085935050505092915050565b6000602082019050818103600083015261418b8184614113565b905092915050565b60006060820190506141a86000830186613e15565b6141b56020830185613db9565b6141c26040830184613db9565b949350505050565b600080600080608085870312156141e4576141e3613d11565b5b60006141f287828801613d37565b945050602061420387828801613d37565b935050604061421487828801613d37565b925050606061422587828801613d37565b91505092959194509250565b600060c0820190506142466000830189613e15565b6142536020830188613db9565b6142606040830187613db9565b61426d6060830186613db9565b61427a6080830185613db9565b61428760a0830184613eb7565b979650505050505050565b600082825260208201905092915050565b7f4f6666657220616d6f756e74206d75737420626520677265617465722074686160008201527f6e207a65726f0000000000000000000000000000000000000000000000000000602082015250565b60006142ff602683614292565b915061430a826142a3565b604082019050919050565b6000602082019050818103600083015261432e816142f2565b9050919050565b7f45787069726174696f6e206d75737420626520696e2074686520667574757265600082015250565b600061436b602083614292565b915061437682614335565b602082019050919050565b6000602082019050818103600083015261439a8161435e565b9050919050565b7f596f7520616c7265616479206861766520616e20616374697665206f66666572600082015250565b60006143d7602083614292565b91506143e2826143a1565b602082019050919050565b60006020820190508181036000830152614406816143ca565b9050919050565b60006040820190506144226000830185613db9565b61442f6020830184613db9565b9392505050565b7f4e6f2066756e647320746f207769746864726177000000000000000000000000600082015250565b600061446c601483614292565b915061447782614436565b602082019050919050565b6000602082019050818103600083015261449b8161445f565b9050919050565b60006040820190506144b76000830185613e15565b6144c46020830184613db9565b9392505050565b7f41756374696f6e206e6f74206163746976650000000000000000000000000000600082015250565b6000614501601283614292565b915061450c826144cb565b602082019050919050565b60006020820190508181036000830152614530816144f4565b9050919050565b7f4e487b7100000000000000000000000000000000000000000000000000000000600052601160045260246000fd5b600061457182613d16565b915061457c83613d16565b925082820390508181111561459457614593614537565b5b92915050565b60006145a582613d16565b91506145b083613d16565b92508282026145be81613d16565b915082820484148315176145d5576145d4614537565b5b5092915050565b7f4e487b7100000000000000000000000000000000000000000000000000000000600052601260045260246000fd5b600061461682613d16565b915061462183613d16565b925082614631576146306145dc565b5b828204905092915050565b7f4e4654206973206e6f74206c697374656420666f722073616c65000000000000600082015250565b6000614672601a83614292565b915061467d8261463c565b602082019050919050565b600060208201905081810360008301526146a181614665565b9050919050565b7f496e73756666696369656e742066756e64730000000000000000000000000000600082015250565b60006146de601283614292565b91506146e9826146a8565b602082019050919050565b6000602082019050818103600083015261470d816146d1565b9050919050565b7f4c697374696e6720686173206578706972656400000000000000000000000000600082015250565b600061474a601383614292565b915061475582614714565b602082019050919050565b600060208201905081810360008301526147798161473d565b9050919050565b60006060820190506147956000830186613e15565b6147a26020830185613e15565b6147af6040830184613db9565b949350505050565b6000815190506147c681613e3f565b92915050565b6000602082840312156147e2576147e1613d11565b5b60006147f0848285016147b7565b91505092915050565b7f4e6f7420746f6b656e206f776e65720000000000000000000000000000000000600082015250565b600061482f600f83614292565b915061483a826147f9565b602082019050919050565b6000602082019050818103600083015261485e81614822565b9050919050565b7f4e6f2076616c6964206f66666572000000000000000000000000000000000000600082015250565b600061489b600e83614292565b91506148a682614865565b602082019050919050565b600060208201905081810360008301526148ca8161488e565b9050919050565b7f4f66666572206578706972656400000000000000000000000000000000000000600082015250565b6000614907600d83614292565b9150614912826148d1565b602082019050919050565b60006020820190508181036000830152614936816148fa565b9050919050565b60006040820190506149526000830185613e15565b61495f6020830184613e15565b9392505050565b61496f81613eab565b811461497a57600080fd5b50565b60008151905061498c81614966565b92915050565b6000602082840312156149a8576149a7613d11565b5b60006149b68482850161497d565b91505092915050565b7f4d61726b6574706c616365206e6f7420617070726f76656420746f206d616e6160008201527f67652074686973204e4654000000000000000000000000000000000000000000602082015250565b6000614a1b602b83614292565b9150614a26826149bf565b604082019050919050565b60006020820190508181036000830152614a4a81614a0e565b9050919050565b7f43616e6e6f742073746172742061756374696f6e3a204e4654206973206c697360008201527f746564206f7220696e2044757463682061756374696f6e000000000000000000602082015250565b6000614aad603783614292565b9150614ab882614a51565b604082019050919050565b60006020820190508181036000830152614adc81614aa0565b9050919050565b7f41756374696f6e206973206e6f74206163746976650000000000000000000000600082015250565b6000614b19601583614292565b9150614b2482614ae3565b602082019050919050565b60006020820190508181036000830152614b4881614b0c565b9050919050565b7f41756374696f6e2068617320656e646564000000000000000000000000000000600082015250565b6000614b85601183614292565b9150614b9082614b4f565b602082019050919050565b60006020820190508181036000830152614bb481614b78565b9050919050565b7f426964206d75737420626520686967686572206f7220657175616c207468616e60008201527f2063757272656e74206869676865737400000000000000000000000000000000602082015250565b6000614c17603083614292565b9150614c2282614bbb565b604082019050919050565b60006020820190508181036000830152614c4681614c0a565b9050919050565b7f426964206d75737420626520686967686572207468616e2063757272656e742060008201527f6869676865737400000000000000000000000000000000000000000000000000602082015250565b6000614ca9602783614292565b9150614cb482614c4d565b604082019050919050565b60006020820190508181036000830152614cd881614c9c565b9050919050565b6000614cea82613d16565b9150614cf583613d16565b9250828201905080821115614d0d57614d0c614537565b5b92915050565b7f43616e6e6f74206c69737420647572696e6720616e206163746976652061756360008201527f74696f6e00000000000000000000000000000000000000000000000000000000602082015250565b6000614d6f602483614292565b9150614d7a82614d13565b604082019050919050565b60006020820190508181036000830152614d9e81614d62565b9050919050565b7f44757463682061756374696f6e206e6f74206163746976650000000000000000600082015250565b6000614ddb601883614292565b9150614de682614da5565b602082019050919050565b60006020820190508181036000830152614e0a81614dce565b9050919050565b7f41756374696f6e20657870697265640000000000000000000000000000000000600082015250565b6000614e47600f83614292565b9150614e5282614e11565b602082019050919050565b60006020820190508181036000830152614e7681614e3a565b9050919050565b7f4e487b7100000000000000000000000000000000000000000000000000000000600052604160045260246000fd5b7f4e487b7100000000000000000000000000000000000000000000000000000000600052603260045260246000fd5b7f41756374696f6e206973207374696c6c206f6e676f696e670000000000000000600082015250565b6000614f11601883614292565b9150614f1c82614edb565b602082019050919050565b60006020820190508181036000830152614f4081614f04565b9050919050565b7f4e6f206269647320706c61636564000000000000000000000000000000000000600082015250565b6000614f7d600e83614292565b9150614f8882614f47565b602082019050919050565b60006020820190508181036000830152614fac81614f70565b9050919050565b7f5374617274207072696365206d7573742062652067726561746572207468616e60008201527f20656e6420707269636500000000000000000000000000000000000000000000602082015250565b600061500f602a83614292565b915061501a82614fb3565b604082019050919050565b6000602082019050818103600083015261503e81615002565b9050919050565b7f4475726174696f6e206d7573742062652067726561746572207468616e207a6560008201527f726f000000000000000000000000000000000000000000000000000000000000602082015250565b60006150a1602283614292565b91506150ac82615045565b604082019050919050565b600060208201905081810360008301526150d081615094565b9050919050565b7f43616e6e6f742073746172742044757463682061756374696f6e3a204e46542060008201527f6973206c6973746564206f7220696e20726567756c61722061756374696f6e00602082015250565b6000615133603f83614292565b915061513e826150d7565b604082019050919050565b6000602082019050818103600083015261516281615126565b9050919050565b600060808201905061517e6000830187613e15565b61518b6020830186613db9565b6151986040830185613db9565b6151a56060830184613db9565b95945050505050565b7f4e6f206f6666657220746f2063616e63656c0000000000000000000000000000600082015250565b60006151e4601283614292565b91506151ef826151ae565b602082019050919050565b60006020820190508181036000830152615213816151d7565b9050919050565b7f4e487b7100000000000000000000000000000000000000000000000000000000600052603160045260246000fdfea264697066735822122099eef7d327c14be1b8b91092c28aa55eecfd5a881197e4257d996348a149fd8464736f6c634300081c0033",
  "linkReferences": {},
  "deployedLinkReferences": {}
}