{
  "_format": "hh-sol-artifact-1",
  "contractName": "TradingContract",
  "sourceName": "contracts/TradingContract.sol",
  "abi": [
    {
      "inputs": [
        {
          "internalType": "address",
          "name": "_nftContract",
          "type": "address"
        }
      ],
      "stateMutability": "nonpayable",
      "type": "constructor"
    },
    {
      "inputs": [],
      "name": "EnforcedPause",
      "type": "error"
    },
    {
      "inputs": [],
      "name": "ExpectedPause",
      "type": "error"
    },
    {
      "inputs": [
        {
          "internalType": "address",
          "name": "owner",
          "type": "address"
        }
      ],
      "name": "OwnableInvalidOwner",
      "type": "error"
    },
    {
      "inputs": [
        {
          "internalType": "address",
          "name": "account",
          "type": "address"
        }
      ],
      "name": "OwnableUnauthorizedAccount",
      "type": "error"
    },
    {
      "inputs": [],
      "name": "ReentrancyGuardReentrantCall",
      "type": "error"
    },
    {
      "anonymous": false,
      "inputs": [
        {
          "indexed": true,
          "internalType": "uint256",
          "name": "tokenId",
          "type": "uint256"
        },
        {
          "indexed": false,
          "internalType": "address",
          "name": "winner",
          "type": "address"
        },
        {
          "indexed": false,
          "internalType": "uint256",
          "name": "amount",
          "type": "uint256"
        }
      ],
      "name": "AuctionEnded",
      "type": "event"
    },
    {
      "anonymous": false,
      "inputs": [
        {
          "indexed": true,
          "internalType": "uint256",
          "name": "tokenId",
          "type": "uint256"
        },
        {
          "indexed": false,
          "internalType": "address",
          "name": "seller",
          "type": "address"
        },
        {
          "indexed": false,
          "internalType": "uint256",
          "name": "startingPrice",
          "type": "uint256"
        },
        {
          "indexed": false,
          "internalType": "uint256",
          "name": "endTime",
          "type": "uint256"
        }
      ],
      "name": "AuctionStarted",
      "type": "event"
    },
    {
      "anonymous": false,
      "inputs": [
        {
          "indexed": true,
          "internalType": "uint256",
          "name": "tokenId",
          "type": "uint256"
        },
        {
          "indexed": false,
          "internalType": "address",
          "name": "bidder",
          "type": "address"
        },
        {
          "indexed": false,
          "internalType": "uint256",
          "name": "amount",
          "type": "uint256"
        }
      ],
      "name": "BidWithdrawn",
      "type": "event"
    },
    {
      "anonymous": false,
      "inputs": [
        {
          "indexed": true,
          "internalType": "uint256",
          "name": "tokenId",
          "type": "uint256"
        },
        {
          "indexed": false,
          "internalType": "address",
          "name": "buyer",
          "type": "address"
        },
        {
          "indexed": false,
          "internalType": "uint256",
          "name": "amount",
          "type": "uint256"
        }
      ],
      "name": "DutchAuctionEnded",
      "type": "event"
    },
    {
      "anonymous": false,
      "inputs": [
        {
          "indexed": true,
          "internalType": "uint256",
          "name": "tokenId",
          "type": "uint256"
        },
        {
          "indexed": false,
          "internalType": "address",
          "name": "seller",
          "type": "address"
        },
        {
          "indexed": false,
          "internalType": "uint256",
          "name": "startPrice",
          "type": "uint256"
        },
        {
          "indexed": false,
          "internalType": "uint256",
          "name": "endPrice",
          "type": "uint256"
        },
        {
          "indexed": false,
          "internalType": "uint256",
          "name": "endTime",
          "type": "uint256"
        }
      ],
      "name": "DutchAuctionStarted",
      "type": "event"
    },
    {
      "anonymous": false,
      "inputs": [
        {
          "indexed": true,
          "internalType": "uint256",
          "name": "tokenId",
          "type": "uint256"
        },
        {
          "indexed": false,
          "internalType": "address",
          "name": "seller",
          "type": "address"
        }
      ],
      "name": "NFTDelisted",
      "type": "event"
    },
    {
      "anonymous": false,
      "inputs": [
        {
          "indexed": true,
          "internalType": "uint256",
          "name": "tokenId",
          "type": "uint256"
        },
        {
          "indexed": false,
          "internalType": "address",
          "name": "seller",
          "type": "address"
        },
        {
          "indexed": false,
          "internalType": "uint256",
          "name": "price",
          "type": "uint256"
        }
      ],
      "name": "NFTListed",
      "type": "event"
    },
    {
      "anonymous": false,
      "inputs": [
        {
          "indexed": true,
          "internalType": "uint256",
          "name": "tokenId",
          "type": "uint256"
        },
        {
          "indexed": false,
          "internalType": "address",
          "name": "seller",
          "type": "address"
        },
        {
          "indexed": false,
          "internalType": "address",
          "name": "buyer",
          "type": "address"
        },
        {
          "indexed": false,
          "internalType": "uint256",
          "name": "price",
          "type": "uint256"
        }
      ],
      "name": "NFTSold",
      "type": "event"
    },
    {
      "anonymous": false,
      "inputs": [
        {
          "indexed": true,
          "internalType": "uint256",
          "name": "tokenId",
          "type": "uint256"
        },
        {
          "indexed": false,
          "internalType": "address",
          "name": "bidder",
          "type": "address"
        },
        {
          "indexed": false,
          "internalType": "uint256",
          "name": "amount",
          "type": "uint256"
        }
      ],
      "name": "NewBid",
      "type": "event"
    },
    {
      "anonymous": false,
      "inputs": [
        {
          "indexed": true,
          "internalType": "uint256",
          "name": "tokenId",
          "type": "uint256"
        },
        {
          "indexed": true,
          "internalType": "address",
          "name": "offerer",
          "type": "address"
        },
        {
          "indexed": false,
          "internalType": "uint256",
          "name": "amount",
          "type": "uint256"
        }
      ],
      "name": "OfferAccepted",
      "type": "event"
    },
    {
      "anonymous": false,
      "inputs": [
        {
          "indexed": true,
          "internalType": "uint256",
          "name": "tokenId",
          "type": "uint256"
        },
        {
          "indexed": true,
          "internalType": "address",
          "name": "offerer",
          "type": "address"
        }
      ],
      "name": "OfferCancelled",
      "type": "event"
    },
    {
      "anonymous": false,
      "inputs": [
        {
          "indexed": true,
          "internalType": "uint256",
          "name": "tokenId",
          "type": "uint256"
        },
        {
          "indexed": true,
          "internalType": "address",
          "name": "offerer",
          "type": "address"
        },
        {
          "indexed": false,
          "internalType": "uint256",
          "name": "amount",
          "type": "uint256"
        },
        {
          "indexed": false,
          "internalType": "uint256",
          "name": "expiration",
          "type": "uint256"
        }
      ],
      "name": "OfferMade",
      "type": "event"
    },
    {
      "anonymous": false,
      "inputs": [
        {
          "indexed": true,
          "internalType": "address",
          "name": "previousOwner",
          "type": "address"
        },
        {
          "indexed": true,
          "internalType": "address",
          "name": "newOwner",
          "type": "address"
        }
      ],
      "name": "OwnershipTransferred",
      "type": "event"
    },
    {
      "anonymous": false,
      "inputs": [
        {
          "indexed": false,
          "internalType": "address",
          "name": "account",
          "type": "address"
        }
      ],
      "name": "Paused",
      "type": "event"
    },
    {
      "anonymous": false,
      "inputs": [
        {
          "indexed": false,
          "internalType": "address",
          "name": "account",
          "type": "address"
        }
      ],
      "name": "Unpaused",
      "type": "event"
    },
    {
      "inputs": [
        {
          "internalType": "uint256",
          "name": "tokenId",
          "type": "uint256"
        },
        {
          "internalType": "address",
          "name": "offerer",
          "type": "address"
        }
      ],
      "name": "acceptOffer",
      "outputs": [],
      "stateMutability": "nonpayable",
      "type": "function"
    },
    {
      "inputs": [
        {
          "internalType": "uint256",
          "name": "",
          "type": "uint256"
        }
      ],
      "name": "auctions",
      "outputs": [
        {
          "internalType": "address",
          "name": "seller",
          "type": "address"
        },
        {
          "internalType": "uint256",
          "name": "startingPrice",
          "type": "uint256"
        },
        {
          "internalType": "uint256",
          "name": "highestBid",
          "type": "uint256"
        },
        {
          "internalType": "address",
          "name": "highestBidder",
          "type": "address"
        },
        {
          "internalType": "uint256",
          "name": "startTimestamp",
          "type": "uint256"
        },
        {
          "internalType": "uint256",
          "name": "endTimestamp",
          "type": "uint256"
        },
        {
          "internalType": "bool",
          "name": "isActive",
          "type": "bool"
        }
      ],
      "stateMutability": "view",
      "type": "function"
    },
    {
      "inputs": [
        {
          "internalType": "uint256",
          "name": "tokenId",
          "type": "uint256"
        },
        {
          "internalType": "uint256",
          "name": "clientTimestamp",
          "type": "uint256"
        }
      ],
      "name": "buyFromDutchAuction",
      "outputs": [],
      "stateMutability": "payable",
      "type": "function"
    },
    {
      "inputs": [
        {
          "internalType": "uint256",
          "name": "tokenId",
          "type": "uint256"
        }
      ],
      "name": "buyNFT",
      "outputs": [],
      "stateMutability": "payable",
      "type": "function"
    },
    {
      "inputs": [
        {
          "internalType": "uint256",
          "name": "tokenId",
          "type": "uint256"
        }
      ],
      "name": "cancelAuction",
      "outputs": [],
      "stateMutability": "nonpayable",
      "type": "function"
    },
    {
      "inputs": [
        {
          "internalType": "uint256",
          "name": "tokenId",
          "type": "uint256"
        }
      ],
      "name": "cancelDutchAuction",
      "outputs": [],
      "stateMutability": "nonpayable",
      "type": "function"
    },
    {
      "inputs": [
        {
          "internalType": "uint256",
          "name": "tokenId",
          "type": "uint256"
        }
      ],
      "name": "cancelOffer",
      "outputs": [],
      "stateMutability": "nonpayable",
      "type": "function"
    },
    {
      "inputs": [
        {
          "internalType": "uint256",
          "name": "tokenId",
          "type": "uint256"
        }
      ],
      "name": "delistNFT",
      "outputs": [],
      "stateMutability": "nonpayable",
      "type": "function"
    },
    {
      "inputs": [
        {
          "internalType": "uint256",
          "name": "",
          "type": "uint256"
        }
      ],
      "name": "dutchAuctions",
      "outputs": [
        {
          "internalType": "address",
          "name": "seller",
          "type": "address"
        },
        {
          "internalType": "uint256",
          "name": "startPrice",
          "type": "uint256"
        },
        {
          "internalType": "uint256",
          "name": "endPrice",
          "type": "uint256"
        },
        {
          "internalType": "uint256",
          "name": "startTimestamp",
          "type": "uint256"
        },
        {
          "internalType": "uint256",
          "name": "endTimestamp",
          "type": "uint256"
        },
        {
          "internalType": "bool",
          "name": "isActive",
          "type": "bool"
        }
      ],
      "stateMutability": "view",
      "type": "function"
    },
    {
      "inputs": [
        {
          "internalType": "uint256",
          "name": "tokenId",
          "type": "uint256"
        }
      ],
      "name": "finalizeAuction",
      "outputs": [],
      "stateMutability": "nonpayable",
      "type": "function"
    },
    {
      "inputs": [
        {
          "internalType": "uint256",
          "name": "tokenId",
          "type": "uint256"
        }
      ],
      "name": "getCurrentDutchPrice",
      "outputs": [
        {
          "internalType": "uint256",
          "name": "",
          "type": "uint256"
        }
      ],
      "stateMutability": "view",
      "type": "function"
    },
    {
      "inputs": [
        {
          "internalType": "uint256",
          "name": "tokenId",
          "type": "uint256"
        }
      ],
      "name": "getOffers",
      "outputs": [
        {
          "components": [
            {
              "internalType": "address",
              "name": "offerer",
              "type": "address"
            },
            {
              "internalType": "uint256",
              "name": "amount",
              "type": "uint256"
            },
            {
              "internalType": "uint256",
              "name": "expiration",
              "type": "uint256"
            }
          ],
          "internalType": "struct TradingContract.Offer[]",
          "name": "",
          "type": "tuple[]"
        }
      ],
      "stateMutability": "view",
      "type": "function"
    },
    {
      "inputs": [
        {
          "internalType": "uint256",
          "name": "tokenId",
          "type": "uint256"
        },
        {
          "internalType": "address",
          "name": "user",
          "type": "address"
        }
      ],
      "name": "hasPendingReturns",
      "outputs": [
        {
          "internalType": "bool",
          "name": "",
          "type": "bool"
        }
      ],
      "stateMutability": "view",
      "type": "function"
    },
    {
      "inputs": [
        {
          "internalType": "uint256",
          "name": "tokenId",
          "type": "uint256"
        },
        {
          "internalType": "uint256",
          "name": "price",
          "type": "uint256"
        },
        {
          "internalType": "uint256",
          "name": "expiration",
          "type": "uint256"
        }
      ],
      "name": "listNFT",
      "outputs": [],
      "stateMutability": "nonpayable",
      "type": "function"
    },
    {
      "inputs": [
        {
          "internalType": "uint256",
          "name": "",
          "type": "uint256"
        }
      ],
      "name": "listings",
      "outputs": [
        {
          "internalType": "address",
          "name": "seller",
          "type": "address"
        },
        {
          "internalType": "uint256",
          "name": "price",
          "type": "uint256"
        },
        {
          "internalType": "uint256",
          "name": "expiration",
          "type": "uint256"
        },
        {
          "internalType": "bool",
          "name": "isActive",
          "type": "bool"
        }
      ],
      "stateMutability": "view",
      "type": "function"
    },
    {
      "inputs": [
        {
          "internalType": "uint256",
          "name": "tokenId",
          "type": "uint256"
        },
        {
          "internalType": "uint256",
          "name": "expiration",
          "type": "uint256"
        }
      ],
      "name": "makeOffer",
      "outputs": [],
      "stateMutability": "payable",
      "type": "function"
    },
    {
      "inputs": [],
      "name": "nftContract",
      "outputs": [
        {
          "internalType": "contract ERC721",
          "name": "",
          "type": "address"
        }
      ],
      "stateMutability": "view",
      "type": "function"
    },
    {
      "inputs": [
        {
          "internalType": "uint256",
          "name": "",
          "type": "uint256"
        },
        {
          "internalType": "uint256",
          "name": "",
          "type": "uint256"
        }
      ],
      "name": "offerers",
      "outputs": [
        {
          "internalType": "address",
          "name": "",
          "type": "address"
        }
      ],
      "stateMutability": "view",
      "type": "function"
    },
    {
      "inputs": [
        {
          "internalType": "uint256",
          "name": "",
          "type": "uint256"
        },
        {
          "internalType": "address",
          "name": "",
          "type": "address"
        }
      ],
      "name": "offers",
      "outputs": [
        {
          "internalType": "address",
          "name": "offerer",
          "type": "address"
        },
        {
          "internalType": "uint256",
          "name": "amount",
          "type": "uint256"
        },
        {
          "internalType": "uint256",
          "name": "expiration",
          "type": "uint256"
        }
      ],
      "stateMutability": "view",
      "type": "function"
    },
    {
      "inputs": [],
      "name": "owner",
      "outputs": [
        {
          "internalType": "address",
          "name": "",
          "type": "address"
        }
      ],
      "stateMutability": "view",
      "type": "function"
    },
    {
      "inputs": [],
      "name": "pause",
      "outputs": [],
      "stateMutability": "nonpayable",
      "type": "function"
    },
    {
      "inputs": [],
      "name": "paused",
      "outputs": [
        {
          "internalType": "bool",
          "name": "",
          "type": "bool"
        }
      ],
      "stateMutability": "view",
      "type": "function"
    },
    {
      "inputs": [
        {
          "internalType": "uint256",
          "name": "",
          "type": "uint256"
        },
        {
          "internalType": "address",
          "name": "",
          "type": "address"
        }
      ],
      "name": "pendingReturns",
      "outputs": [
        {
          "internalType": "uint256",
          "name": "",
          "type": "uint256"
        }
      ],
      "stateMutability": "view",
      "type": "function"
    },
    {
      "inputs": [
        {
          "internalType": "uint256",
          "name": "tokenId",
          "type": "uint256"
        }
      ],
      "name": "placeBid",
      "outputs": [],
      "stateMutability": "payable",
      "type": "function"
    },
    {
      "inputs": [],
      "name": "renounceOwnership",
      "outputs": [],
      "stateMutability": "nonpayable",
      "type": "function"
    },
    {
      "inputs": [
        {
          "internalType": "uint256",
          "name": "tokenId",
          "type": "uint256"
        },
        {
          "internalType": "uint256",
          "name": "startingPrice",
          "type": "uint256"
        },
        {
          "internalType": "uint256",
          "name": "endTimeStamp",
          "type": "uint256"
        }
      ],
      "name": "startAuction",
      "outputs": [],
      "stateMutability": "nonpayable",
      "type": "function"
    },
    {
      "inputs": [
        {
          "internalType": "uint256",
          "name": "tokenId",
          "type": "uint256"
        },
        {
          "internalType": "uint256",
          "name": "startPrice",
          "type": "uint256"
        },
        {
          "internalType": "uint256",
          "name": "endPrice",
          "type": "uint256"
        },
        {
          "internalType": "uint256",
          "name": "duration",
          "type": "uint256"
        }
      ],
      "name": "startDutchAuction",
      "outputs": [],
      "stateMutability": "nonpayable",
      "type": "function"
    },
    {
      "inputs": [
        {
          "internalType": "address",
          "name": "newOwner",
          "type": "address"
        }
      ],
      "name": "transferOwnership",
      "outputs": [],
      "stateMutability": "nonpayable",
      "type": "function"
    },
    {
      "inputs": [],
      "name": "unpause",
      "outputs": [],
      "stateMutability": "nonpayable",
      "type": "function"
    },
    {
      "inputs": [
        {
          "internalType": "uint256",
          "name": "tokenId",
          "type": "uint256"
        }
      ],
      "name": "withdrawBid",
      "outputs": [],
      "stateMutability": "nonpayable",
      "type": "function"
    }
  ],
  "bytecode": "0x608060405234801561001057600080fd5b50604051615b40380380615b408339818101604052810190610032919061022a565b336001600081905550600073ffffffffffffffffffffffffffffffffffffffff168173ffffffffffffffffffffffffffffffffffffffff16036100ad5760006040517f1e4fbdf70000000000000000000000000000000000000000000000000000000081526004016100a49190610266565b60405180910390fd5b6100bc8161010460201b60201c565b5080600260006101000a81548173ffffffffffffffffffffffffffffffffffffffff021916908373ffffffffffffffffffffffffffffffffffffffff16021790555050610281565b600060018054906101000a900473ffffffffffffffffffffffffffffffffffffffff169050816001806101000a81548173ffffffffffffffffffffffffffffffffffffffff021916908373ffffffffffffffffffffffffffffffffffffffff1602179055508173ffffffffffffffffffffffffffffffffffffffff168173ffffffffffffffffffffffffffffffffffffffff167f8be0079c531659141344cd1fd0a4f28419497f9722a3daafe3b4186f6b6457e060405160405180910390a35050565b600080fd5b600073ffffffffffffffffffffffffffffffffffffffff82169050919050565b60006101f7826101cc565b9050919050565b610207816101ec565b811461021257600080fd5b50565b600081519050610224816101fe565b92915050565b6000602082840312156102405761023f6101c7565b5b600061024e84828501610215565b91505092915050565b610260816101ec565b82525050565b600060208201905061027b6000830184610257565b92915050565b6158b0806102906000396000f3fe6080604052600436106101cd5760003560e01c806396b5a755116100f7578063dfa49e6f11610095578063ef706adf11610064578063ef706adf14610650578063f2ab2fc014610679578063f2fde38b146106bb578063fbf2da80146106e4576101cd565b8063dfa49e6f14610582578063e8083863146105bf578063ebdfbce5146105e8578063ecfc12a314610627576101cd565b8063cb917b9c116100d1578063cb917b9c146104c5578063d56d229d146104ee578063ddee843314610519578063de74e57b14610542576101cd565b806396b5a755146104575780639979ef4514610480578063b0136c8d1461049c576101cd565b8063571a26a01161016f5780638da5cb5b1161013e5780638da5cb5b1461039d5780638ddac1ef146103c8578063918d407d1461040557806391e078bb1461042e576101cd565b8063571a26a0146103015780635c975abb14610344578063715018a61461036f5780638456cb5914610386576101cd565b80633079dccf116101ab5780633079dccf146102545780633f4ba83a1461029157806351ed8288146102a85780635629939a146102c4576101cd565b806305b7cdd3146101d25780630eaaf4c8146101ee5780632f44dee814610217575b600080fd5b6101ec60048036038101906101e7919061439c565b610700565b005b3480156101fa57600080fd5b50610215600480360381019061021091906143dc565b6109e1565b005b34801561022357600080fd5b5061023e600480360381019061023991906143dc565b610b6c565b60405161024b9190614418565b60405180910390f35b34801561026057600080fd5b5061027b6004803603810190610276919061439c565b610cfa565b6040516102889190614474565b60405180910390f35b34801561029d57600080fd5b506102a6610d48565b005b6102c260048036038101906102bd91906143dc565b610d5a565b005b3480156102d057600080fd5b506102eb60048036038101906102e691906144bb565b61109a565b6040516102f89190614516565b60405180910390f35b34801561030d57600080fd5b50610328600480360381019061032391906143dc565b6110f7565b60405161033b9796959493929190614531565b60405180910390f35b34801561035057600080fd5b50610359611186565b6040516103669190614516565b60405180910390f35b34801561037b57600080fd5b50610384611195565b005b34801561039257600080fd5b5061039b6111a9565b005b3480156103a957600080fd5b506103b26111bb565b6040516103bf9190614474565b60405180910390f35b3480156103d457600080fd5b506103ef60048036038101906103ea91906144bb565b6111e3565b6040516103fc9190614418565b60405180910390f35b34801561041157600080fd5b5061042c600480360381019061042791906144bb565b611208565b005b34801561043a57600080fd5b50610455600480360381019061045091906145a0565b6116aa565b005b34801561046357600080fd5b5061047e600480360381019061047991906143dc565b611b9d565b005b61049a600480360381019061049591906143dc565b611e8d565b005b3480156104a857600080fd5b506104c360048036038101906104be91906145a0565b6120f0565b005b3480156104d157600080fd5b506104ec60048036038101906104e791906143dc565b61259e565b005b3480156104fa57600080fd5b506105036127c2565b6040516105109190614652565b60405180910390f35b34801561052557600080fd5b50610540600480360381019061053b91906143dc565b6127e8565b005b34801561054e57600080fd5b50610569600480360381019061056491906143dc565b6129cc565b604051610579949392919061466d565b60405180910390f35b34801561058e57600080fd5b506105a960048036038101906105a491906143dc565b612a29565b6040516105b691906147c1565b60405180910390f35b3480156105cb57600080fd5b506105e660048036038101906105e191906143dc565b612c46565b005b3480156105f457600080fd5b5061060f600480360381019061060a91906144bb565b613083565b60405161061e939291906147e3565b60405180910390f35b34801561063357600080fd5b5061064e6004803603810190610649919061481a565b6130da565b005b34801561065c57600080fd5b50610677600480360381019061067291906143dc565b613601565b005b34801561068557600080fd5b506106a0600480360381019061069b91906143dc565b6139e5565b6040516106b296959493929190614881565b60405180910390f35b3480156106c757600080fd5b506106e260048036038101906106dd91906148e2565b613a4e565b005b6106fe60048036038101906106f9919061439c565b613ad4565b005b610708613e1f565b610710613e65565b60003411610753576040517f08c379a000000000000000000000000000000000000000000000000000000000815260040161074a90614992565b60405180910390fd5b428111610795576040517f08c379a000000000000000000000000000000000000000000000000000000000815260040161078c906149fe565b60405180910390fd5b60006007600084815260200190815260200160002060003373ffffffffffffffffffffffffffffffffffffffff1673ffffffffffffffffffffffffffffffffffffffff16815260200190815260200160002090506000816001015414610830576040517f08c379a000000000000000000000000000000000000000000000000000000000815260040161082790614a6a565b60405180910390fd5b60405180606001604052803373ffffffffffffffffffffffffffffffffffffffff168152602001348152602001838152506007600085815260200190815260200160002060003373ffffffffffffffffffffffffffffffffffffffff1673ffffffffffffffffffffffffffffffffffffffff16815260200190815260200160002060008201518160000160006101000a81548173ffffffffffffffffffffffffffffffffffffffff021916908373ffffffffffffffffffffffffffffffffffffffff160217905550602082015181600101556040820151816002015590505060086000848152602001908152602001600020339080600181540180825580915050600190039060005260206000200160009091909190916101000a81548173ffffffffffffffffffffffffffffffffffffffff021916908373ffffffffffffffffffffffffffffffffffffffff1602179055503373ffffffffffffffffffffffffffffffffffffffff16837fd7df0c72641d362ea57ecc9cab99c77f936e36bb826f096258c3404196b26d6a34856040516109cc929190614a8a565b60405180910390a3506109dd613ea6565b5050565b6109e9613e1f565b6109f1613e65565b60006006600083815260200190815260200160002060003373ffffffffffffffffffffffffffffffffffffffff1673ffffffffffffffffffffffffffffffffffffffff16815260200190815260200160002054905060008111610a89576040517f08c379a0000000000000000000000000000000000000000000000000000000008152600401610a8090614aff565b60405180910390fd5b60006006600084815260200190815260200160002060003373ffffffffffffffffffffffffffffffffffffffff1673ffffffffffffffffffffffffffffffffffffffff168152602001908152602001600020819055503373ffffffffffffffffffffffffffffffffffffffff166108fc829081150290604051600060405180830381858888f19350505050158015610b25573d6000803e3d6000fd5b50817f8f8619524e8d462cead34604bd2247ede24175801481e4d0b8059ac8aa41c3013383604051610b58929190614b1f565b60405180910390a250610b69613ea6565b50565b600080600560008481526020019081526020016000206040518060c00160405290816000820160009054906101000a900473ffffffffffffffffffffffffffffffffffffffff1673ffffffffffffffffffffffffffffffffffffffff1673ffffffffffffffffffffffffffffffffffffffff168152602001600182015481526020016002820154815260200160038201548152602001600482015481526020016005820160009054906101000a900460ff16151515158152505090508060a00151610c6c576040517f08c379a0000000000000000000000000000000000000000000000000000000008152600401610c6390614b94565b60405180910390fd5b80608001514210610c84578060400151915050610cf5565b6000816060015142610c969190614be3565b9050600082606001518360800151610cae9190614be3565b9050600083604001518460200151610cc69190614be3565b9050818382610cd59190614c17565b610cdf9190614c88565b8460200151610cee9190614be3565b9450505050505b919050565b60086020528160005260406000208181548110610d1657600080fd5b906000526020600020016000915091509054906101000a900473ffffffffffffffffffffffffffffffffffffffff1681565b610d50613eb0565b610d58613f37565b565b806003600082815260200190815260200160002060030160009054906101000a900460ff16610dbe576040517f08c379a0000000000000000000000000000000000000000000000000000000008152600401610db590614d05565b60405180910390fd5b610dc6613e1f565b610dce613e65565b6000600360008481526020019081526020016000206040518060800160405290816000820160009054906101000a900473ffffffffffffffffffffffffffffffffffffffff1673ffffffffffffffffffffffffffffffffffffffff1673ffffffffffffffffffffffffffffffffffffffff16815260200160018201548152602001600282015481526020016003820160009054906101000a900460ff16151515158152505090508060200151341015610ebc576040517f08c379a0000000000000000000000000000000000000000000000000000000008152600401610eb390614d71565b60405180910390fd5b8060400151421115610f03576040517f08c379a0000000000000000000000000000000000000000000000000000000008152600401610efa90614ddd565b60405180910390fd5b806000015173ffffffffffffffffffffffffffffffffffffffff166108fc349081150290604051600060405180830381858888f19350505050158015610f4d573d6000803e3d6000fd5b50600260009054906101000a900473ffffffffffffffffffffffffffffffffffffffff1673ffffffffffffffffffffffffffffffffffffffff166342842e0e826000015133866040518463ffffffff1660e01b8152600401610fb193929190614dfd565b600060405180830381600087803b158015610fcb57600080fd5b505af1158015610fdf573d6000803e3d6000fd5b5050505060036000848152602001908152602001600020600080820160006101000a81549073ffffffffffffffffffffffffffffffffffffffff0219169055600182016000905560028201600090556003820160006101000a81549060ff0219169055505061104d83613f9a565b827f8562eb94748e30bb0071e932744ce902b460c683474fcb3bfd567ffa16b1afb28260000151333460405161108593929190614dfd565b60405180910390a250611096613ea6565b5050565b6000806006600085815260200190815260200160002060008473ffffffffffffffffffffffffffffffffffffffff1673ffffffffffffffffffffffffffffffffffffffff1681526020019081526020016000205411905092915050565b60046020528060005260406000206000915090508060000160009054906101000a900473ffffffffffffffffffffffffffffffffffffffff16908060010154908060020154908060030160009054906101000a900473ffffffffffffffffffffffffffffffffffffffff16908060040154908060050154908060060160009054906101000a900460ff16905087565b6000611190614168565b905090565b61119d613eb0565b6111a7600061417f565b565b6111b1613eb0565b6111b9614242565b565b600060018054906101000a900473ffffffffffffffffffffffffffffffffffffffff16905090565b6006602052816000526040600020602052806000526040600020600091509150505481565b813373ffffffffffffffffffffffffffffffffffffffff16600260009054906101000a900473ffffffffffffffffffffffffffffffffffffffff1673ffffffffffffffffffffffffffffffffffffffff16636352211e836040518263ffffffff1660e01b815260040161127b9190614418565b602060405180830381865afa158015611298573d6000803e3d6000fd5b505050506040513d601f19601f820116820180604052508101906112bc9190614e49565b73ffffffffffffffffffffffffffffffffffffffff1614611312576040517f08c379a000000000000000000000000000000000000000000000000000000000815260040161130990614ec2565b60405180910390fd5b61131a613e1f565b611322613e65565b60006007600085815260200190815260200160002060008473ffffffffffffffffffffffffffffffffffffffff1673ffffffffffffffffffffffffffffffffffffffff1681526020019081526020016000206040518060600160405290816000820160009054906101000a900473ffffffffffffffffffffffffffffffffffffffff1673ffffffffffffffffffffffffffffffffffffffff1673ffffffffffffffffffffffffffffffffffffffff1681526020016001820154815260200160028201548152505090506000816020015111611432576040517f08c379a000000000000000000000000000000000000000000000000000000000815260040161142990614f2e565b60405180910390fd5b8060400151421115611479576040517f08c379a000000000000000000000000000000000000000000000000000000000815260040161147090614f9a565b60405180910390fd5b6007600085815260200190815260200160002060008473ffffffffffffffffffffffffffffffffffffffff1673ffffffffffffffffffffffffffffffffffffffff168152602001908152602001600020600080820160006101000a81549073ffffffffffffffffffffffffffffffffffffffff02191690556001820160009055600282016000905550503373ffffffffffffffffffffffffffffffffffffffff166108fc82602001519081150290604051600060405180830381858888f1935050505015801561154d573d6000803e3d6000fd5b50600260009054906101000a900473ffffffffffffffffffffffffffffffffffffffff1673ffffffffffffffffffffffffffffffffffffffff166342842e0e3385876040518463ffffffff1660e01b81526004016115ad93929190614dfd565b600060405180830381600087803b1580156115c757600080fd5b505af11580156115db573d6000803e3d6000fd5b5050505060036000858152602001908152602001600020600080820160006101000a81549073ffffffffffffffffffffffffffffffffffffffff0219169055600182016000905560028201600090556003820160006101000a81549060ff0219169055505061164984613f9a565b8273ffffffffffffffffffffffffffffffffffffffff16847fea555ab99331ceac5051c58f17cc7b411b30241b0e28cb93a7d3a24c77a7a9a983602001516040516116949190614418565b60405180910390a3506116a5613ea6565b505050565b823373ffffffffffffffffffffffffffffffffffffffff16600260009054906101000a900473ffffffffffffffffffffffffffffffffffffffff1673ffffffffffffffffffffffffffffffffffffffff16636352211e836040518263ffffffff1660e01b815260040161171d9190614418565b602060405180830381865afa15801561173a573d6000803e3d6000fd5b505050506040513d601f19601f8201168201806040525081019061175e9190614e49565b73ffffffffffffffffffffffffffffffffffffffff16146117b4576040517f08c379a00000000000000000000000000000000000000000000000000000000081526004016117ab90614ec2565b60405180910390fd5b6117bc613e1f565b6117c4613e65565b3073ffffffffffffffffffffffffffffffffffffffff16600260009054906101000a900473ffffffffffffffffffffffffffffffffffffffff1673ffffffffffffffffffffffffffffffffffffffff1663081812fc866040518263ffffffff1660e01b81526004016118369190614418565b602060405180830381865afa158015611853573d6000803e3d6000fd5b505050506040513d601f19601f820116820180604052508101906118779190614e49565b73ffffffffffffffffffffffffffffffffffffffff1614806119335750600260009054906101000a900473ffffffffffffffffffffffffffffffffffffffff1673ffffffffffffffffffffffffffffffffffffffff1663e985e9c533306040518363ffffffff1660e01b81526004016118f1929190614fba565b602060405180830381865afa15801561190e573d6000803e3d6000fd5b505050506040513d601f19601f82011682018060405250810190611932919061500f565b5b611972576040517f08c379a0000000000000000000000000000000000000000000000000000000008152600401611969906150ae565b60405180910390fd5b6003600085815260200190815260200160002060030160009054906101000a900460ff161580156119c457506005600085815260200190815260200160002060050160009054906101000a900460ff16155b611a03576040517f08c379a00000000000000000000000000000000000000000000000000000000081526004016119fa90615140565b60405180910390fd5b6040518060e001604052803373ffffffffffffffffffffffffffffffffffffffff16815260200184815260200160008152602001600073ffffffffffffffffffffffffffffffffffffffff168152602001428152602001838152602001600115158152506004600086815260200190815260200160002060008201518160000160006101000a81548173ffffffffffffffffffffffffffffffffffffffff021916908373ffffffffffffffffffffffffffffffffffffffff160217905550602082015181600101556040820151816002015560608201518160030160006101000a81548173ffffffffffffffffffffffffffffffffffffffff021916908373ffffffffffffffffffffffffffffffffffffffff1602179055506080820151816004015560a0820151816005015560c08201518160060160006101000a81548160ff021916908315150217905550905050837fbf6dc7bdf2f23af5a506fe03ee1221f47d023a2227fbc949c6b812ae44534e6d338585604051611b87939291906147e3565b60405180910390a2611b97613ea6565b50505050565b803373ffffffffffffffffffffffffffffffffffffffff16600260009054906101000a900473ffffffffffffffffffffffffffffffffffffffff1673ffffffffffffffffffffffffffffffffffffffff16636352211e836040518263ffffffff1660e01b8152600401611c109190614418565b602060405180830381865afa158015611c2d573d6000803e3d6000fd5b505050506040513d601f19601f82011682018060405250810190611c519190614e49565b73ffffffffffffffffffffffffffffffffffffffff1614611ca7576040517f08c379a0000000000000000000000000000000000000000000000000000000008152600401611c9e90614ec2565b60405180910390fd5b816004600082815260200190815260200160002060060160009054906101000a900460ff16611d0b576040517f08c379a0000000000000000000000000000000000000000000000000000000008152600401611d02906151ac565b60405180910390fd5b611d13613e1f565b611d1b613e65565b6000600460008581526020019081526020016000209050600081600201541115611daf578060030160009054906101000a900473ffffffffffffffffffffffffffffffffffffffff1673ffffffffffffffffffffffffffffffffffffffff166108fc82600201549081150290604051600060405180830381858888f19350505050158015611dad573d6000803e3d6000fd5b505b60046000858152602001908152602001600020600080820160006101000a81549073ffffffffffffffffffffffffffffffffffffffff0219169055600182016000905560028201600090556003820160006101000a81549073ffffffffffffffffffffffffffffffffffffffff0219169055600482016000905560058201600090556006820160006101000a81549060ff02191690555050837fef1499b350e05776e60cd2ffcac001569a28e9d574e1f3adc1b3ab264f8ccffd33604051611e779190614474565b60405180910390a250611e88613ea6565b505050565b806004600082815260200190815260200160002060060160009054906101000a900460ff16611ef1576040517f08c379a0000000000000000000000000000000000000000000000000000000008152600401611ee8906151ac565b60405180910390fd5b600060046000848152602001908152602001600020905080600501544210611f4e576040517f08c379a0000000000000000000000000000000000000000000000000000000008152600401611f4590615218565b60405180910390fd5b80600201543411611f94576040517f08c379a0000000000000000000000000000000000000000000000000000000008152600401611f8b90615284565b60405180910390fd5b6000816002015411156120315780600201546006600085815260200190815260200160002060008360030160009054906101000a900473ffffffffffffffffffffffffffffffffffffffff1673ffffffffffffffffffffffffffffffffffffffff1673ffffffffffffffffffffffffffffffffffffffff168152602001908152602001600020600082825461202991906152a4565b925050819055505b348160020181905550338160030160006101000a81548173ffffffffffffffffffffffffffffffffffffffff021916908373ffffffffffffffffffffffffffffffffffffffff160217905550607842826005015461208f9190614be3565b116120b15760788160050160008282546120a991906152a4565b925050819055505b827f558a0d5d5468d74b0db24c74eb348b42271c2ebb4c9e953ced38aaed95fa436133346040516120e3929190614b1f565b60405180910390a2505050565b823373ffffffffffffffffffffffffffffffffffffffff16600260009054906101000a900473ffffffffffffffffffffffffffffffffffffffff1673ffffffffffffffffffffffffffffffffffffffff16636352211e836040518263ffffffff1660e01b81526004016121639190614418565b602060405180830381865afa158015612180573d6000803e3d6000fd5b505050506040513d601f19601f820116820180604052508101906121a49190614e49565b73ffffffffffffffffffffffffffffffffffffffff16146121fa576040517f08c379a00000000000000000000000000000000000000000000000000000000081526004016121f190614ec2565b60405180910390fd5b612202613e1f565b61220a613e65565b3073ffffffffffffffffffffffffffffffffffffffff16600260009054906101000a900473ffffffffffffffffffffffffffffffffffffffff1673ffffffffffffffffffffffffffffffffffffffff1663081812fc866040518263ffffffff1660e01b815260040161227c9190614418565b602060405180830381865afa158015612299573d6000803e3d6000fd5b505050506040513d601f19601f820116820180604052508101906122bd9190614e49565b73ffffffffffffffffffffffffffffffffffffffff1614806123795750600260009054906101000a900473ffffffffffffffffffffffffffffffffffffffff1673ffffffffffffffffffffffffffffffffffffffff1663e985e9c533306040518363ffffffff1660e01b8152600401612337929190614fba565b602060405180830381865afa158015612354573d6000803e3d6000fd5b505050506040513d601f19601f82011682018060405250810190612378919061500f565b5b6123b8576040517f08c379a00000000000000000000000000000000000000000000000000000000081526004016123af906150ae565b60405180910390fd5b4282116123fa576040517f08c379a00000000000000000000000000000000000000000000000000000000081526004016123f1906149fe565b60405180910390fd5b6004600085815260200190815260200160002060060160009054906101000a900460ff1615801561244c57506005600085815260200190815260200160002060050160009054906101000a900460ff16155b61248b576040517f08c379a00000000000000000000000000000000000000000000000000000000081526004016124829061534a565b60405180910390fd5b60405180608001604052803373ffffffffffffffffffffffffffffffffffffffff168152602001848152602001838152602001600115158152506003600086815260200190815260200160002060008201518160000160006101000a81548173ffffffffffffffffffffffffffffffffffffffff021916908373ffffffffffffffffffffffffffffffffffffffff160217905550602082015181600101556040820151816002015560608201518160030160006101000a81548160ff021916908315150217905550905050837f5f9c03de076f5063cd3ebcfe8ef7aa8af378e4b35a83c77ba9777e97083879a23385604051612588929190614b1f565b60405180910390a2612598613ea6565b50505050565b803373ffffffffffffffffffffffffffffffffffffffff16600260009054906101000a900473ffffffffffffffffffffffffffffffffffffffff1673ffffffffffffffffffffffffffffffffffffffff16636352211e836040518263ffffffff1660e01b81526004016126119190614418565b602060405180830381865afa15801561262e573d6000803e3d6000fd5b505050506040513d601f19601f820116820180604052508101906126529190614e49565b73ffffffffffffffffffffffffffffffffffffffff16146126a8576040517f08c379a000000000000000000000000000000000000000000000000000000000815260040161269f90614ec2565b60405180910390fd5b816003600082815260200190815260200160002060030160009054906101000a900460ff1661270c576040517f08c379a000000000000000000000000000000000000000000000000000000000815260040161270390614d05565b60405180910390fd5b612714613e1f565b61271c613e65565b60036000848152602001908152602001600020600080820160006101000a81549073ffffffffffffffffffffffffffffffffffffffff0219169055600182016000905560028201600090556003820160006101000a81549060ff02191690555050827fef1499b350e05776e60cd2ffcac001569a28e9d574e1f3adc1b3ab264f8ccffd336040516127ad9190614474565b60405180910390a26127bd613ea6565b505050565b600260009054906101000a900473ffffffffffffffffffffffffffffffffffffffff1681565b803373ffffffffffffffffffffffffffffffffffffffff16600260009054906101000a900473ffffffffffffffffffffffffffffffffffffffff1673ffffffffffffffffffffffffffffffffffffffff16636352211e836040518263ffffffff1660e01b815260040161285b9190614418565b602060405180830381865afa158015612878573d6000803e3d6000fd5b505050506040513d601f19601f8201168201806040525081019061289c9190614e49565b73ffffffffffffffffffffffffffffffffffffffff16146128f2576040517f08c379a00000000000000000000000000000000000000000000000000000000081526004016128e990614ec2565b60405180910390fd5b6128fa613e1f565b612902613e65565b60006005600084815260200190815260200160002090508060050160009054906101000a900460ff1661296a576040517f08c379a0000000000000000000000000000000000000000000000000000000008152600401612961906153b6565b60405180910390fd5b60008160050160006101000a81548160ff021916908315150217905550827fef1499b350e05776e60cd2ffcac001569a28e9d574e1f3adc1b3ab264f8ccffd336040516129b79190614474565b60405180910390a2506129c8613ea6565b5050565b60036020528060005260406000206000915090508060000160009054906101000a900473ffffffffffffffffffffffffffffffffffffffff16908060010154908060020154908060030160009054906101000a900460ff16905084565b6060600060086000848152602001908152602001600020805480602002602001604051908101604052809291908181526020018280548015612ac057602002820191906000526020600020905b8160009054906101000a900473ffffffffffffffffffffffffffffffffffffffff1673ffffffffffffffffffffffffffffffffffffffff1681526020019060010190808311612a76575b5050505050905060008151905060008167ffffffffffffffff811115612ae957612ae86153d6565b5b604051908082528060200260200182016040528015612b2257816020015b612b0f6142ec565b815260200190600190039081612b075790505b50905060005b82811015612c3a57600760008781526020019081526020016000206000858381518110612b5857612b57615405565b5b602002602001015173ffffffffffffffffffffffffffffffffffffffff1673ffffffffffffffffffffffffffffffffffffffff1681526020019081526020016000206040518060600160405290816000820160009054906101000a900473ffffffffffffffffffffffffffffffffffffffff1673ffffffffffffffffffffffffffffffffffffffff1673ffffffffffffffffffffffffffffffffffffffff16815260200160018201548152602001600282015481525050828281518110612c2257612c21615405565b5b60200260200101819052508080600101915050612b28565b50809350505050919050565b806004600082815260200190815260200160002060060160009054906101000a900460ff16612caa576040517f08c379a0000000000000000000000000000000000000000000000000000000008152600401612ca1906151ac565b60405180910390fd5b6004600082815260200190815260200160002060050154421015612d03576040517f08c379a0000000000000000000000000000000000000000000000000000000008152600401612cfa90615480565b60405180910390fd5b612d0b613e1f565b612d13613e65565b6000600460008481526020019081526020016000209050600073ffffffffffffffffffffffffffffffffffffffff168160030160009054906101000a900473ffffffffffffffffffffffffffffffffffffffff1673ffffffffffffffffffffffffffffffffffffffff1603612dbd576040517f08c379a0000000000000000000000000000000000000000000000000000000008152600401612db4906154ec565b60405180910390fd5b600060648260020154612dd09190614c88565b90506000818360020154612de49190614be3565b9050600260009054906101000a900473ffffffffffffffffffffffffffffffffffffffff1673ffffffffffffffffffffffffffffffffffffffff166342842e0e8460000160009054906101000a900473ffffffffffffffffffffffffffffffffffffffff168560030160009054906101000a900473ffffffffffffffffffffffffffffffffffffffff16886040518463ffffffff1660e01b8152600401612e8d93929190614dfd565b600060405180830381600087803b158015612ea757600080fd5b505af1158015612ebb573d6000803e3d6000fd5b505050508260000160009054906101000a900473ffffffffffffffffffffffffffffffffffffffff1673ffffffffffffffffffffffffffffffffffffffff166108fc829081150290604051600060405180830381858888f19350505050158015612f29573d6000803e3d6000fd5b503373ffffffffffffffffffffffffffffffffffffffff166108fc839081150290604051600060405180830381858888f19350505050158015612f70573d6000803e3d6000fd5b50612f7a85613f9a565b847fd2aa34a4fdbbc6dff6a3e56f46e0f3ae2a31d7785ff3487aa5c95c642acea5018460030160009054906101000a900473ffffffffffffffffffffffffffffffffffffffff168560020154604051612fd4929190614b1f565b60405180910390a260046000868152602001908152602001600020600080820160006101000a81549073ffffffffffffffffffffffffffffffffffffffff0219169055600182016000905560028201600090556003820160006101000a81549073ffffffffffffffffffffffffffffffffffffffff0219169055600482016000905560058201600090556006820160006101000a81549060ff0219169055505050505061307f613ea6565b5050565b6007602052816000526040600020602052806000526040600020600091509150508060000160009054906101000a900473ffffffffffffffffffffffffffffffffffffffff16908060010154908060020154905083565b833373ffffffffffffffffffffffffffffffffffffffff16600260009054906101000a900473ffffffffffffffffffffffffffffffffffffffff1673ffffffffffffffffffffffffffffffffffffffff16636352211e836040518263ffffffff1660e01b815260040161314d9190614418565b602060405180830381865afa15801561316a573d6000803e3d6000fd5b505050506040513d601f19601f8201168201806040525081019061318e9190614e49565b73ffffffffffffffffffffffffffffffffffffffff16146131e4576040517f08c379a00000000000000000000000000000000000000000000000000000000081526004016131db90614ec2565b60405180910390fd5b6131ec613e1f565b6131f4613e65565b3073ffffffffffffffffffffffffffffffffffffffff16600260009054906101000a900473ffffffffffffffffffffffffffffffffffffffff1673ffffffffffffffffffffffffffffffffffffffff1663081812fc876040518263ffffffff1660e01b81526004016132669190614418565b602060405180830381865afa158015613283573d6000803e3d6000fd5b505050506040513d601f19601f820116820180604052508101906132a79190614e49565b73ffffffffffffffffffffffffffffffffffffffff1614806133635750600260009054906101000a900473ffffffffffffffffffffffffffffffffffffffff1673ffffffffffffffffffffffffffffffffffffffff1663e985e9c533306040518363ffffffff1660e01b8152600401613321929190614fba565b602060405180830381865afa15801561333e573d6000803e3d6000fd5b505050506040513d601f19601f82011682018060405250810190613362919061500f565b5b6133a2576040517f08c379a0000000000000000000000000000000000000000000000000000000008152600401613399906150ae565b60405180910390fd5b8284116133e4576040517f08c379a00000000000000000000000000000000000000000000000000000000081526004016133db9061557e565b60405180910390fd5b60008211613427576040517f08c379a000000000000000000000000000000000000000000000000000000000815260040161341e90615610565b60405180910390fd5b6003600086815260200190815260200160002060030160009054906101000a900460ff1615801561347957506004600086815260200190815260200160002060060160009054906101000a900460ff16155b6134b8576040517f08c379a00000000000000000000000000000000000000000000000000000000081526004016134af906156a2565b60405180910390fd5b600082426134c691906152a4565b90506040518060c001604052803373ffffffffffffffffffffffffffffffffffffffff168152602001868152602001858152602001428152602001828152602001600115158152506005600088815260200190815260200160002060008201518160000160006101000a81548173ffffffffffffffffffffffffffffffffffffffff021916908373ffffffffffffffffffffffffffffffffffffffff1602179055506020820151816001015560408201518160020155606082015181600301556080820151816004015560a08201518160050160006101000a81548160ff021916908315150217905550905050857f268ac48f716356a00742974050591a9f3d88ed4669568f578935c957cdb5d520338787856040516135e994939291906156c2565b60405180910390a2506135fa613ea6565b5050505050565b613609613e1f565b613611613e65565b60006007600083815260200190815260200160002060003373ffffffffffffffffffffffffffffffffffffffff1673ffffffffffffffffffffffffffffffffffffffff1681526020019081526020016000206040518060600160405290816000820160009054906101000a900473ffffffffffffffffffffffffffffffffffffffff1673ffffffffffffffffffffffffffffffffffffffff1673ffffffffffffffffffffffffffffffffffffffff1681526020016001820154815260200160028201548152505090506000816020015111613721576040517f08c379a000000000000000000000000000000000000000000000000000000000815260040161371890615753565b60405180910390fd5b6000816020015190506007600084815260200190815260200160002060003373ffffffffffffffffffffffffffffffffffffffff1673ffffffffffffffffffffffffffffffffffffffff168152602001908152602001600020600080820160006101000a81549073ffffffffffffffffffffffffffffffffffffffff0219169055600182016000905560028201600090555050600060086000858152602001908152602001600020905060005b818054905081101561394b573373ffffffffffffffffffffffffffffffffffffffff1682828154811061380457613803615405565b5b9060005260206000200160009054906101000a900473ffffffffffffffffffffffffffffffffffffffff1673ffffffffffffffffffffffffffffffffffffffff160361393e57816001838054905061385c9190614be3565b8154811061386d5761386c615405565b5b9060005260206000200160009054906101000a900473ffffffffffffffffffffffffffffffffffffffff168282815481106138ab576138aa615405565b5b9060005260206000200160006101000a81548173ffffffffffffffffffffffffffffffffffffffff021916908373ffffffffffffffffffffffffffffffffffffffff1602179055508180548061390457613903615773565b5b6001900381819060005260206000200160006101000a81549073ffffffffffffffffffffffffffffffffffffffff0219169055905561394b565b80806001019150506137ce565b503373ffffffffffffffffffffffffffffffffffffffff166108fc839081150290604051600060405180830381858888f19350505050158015613992573d6000803e3d6000fd5b503373ffffffffffffffffffffffffffffffffffffffff16847f1f51377b3e685a0e2419f9bb4ba7c07ec54936353ba3d0fb3c6538dab676622260405160405180910390a35050506139e2613ea6565b50565b60056020528060005260406000206000915090508060000160009054906101000a900473ffffffffffffffffffffffffffffffffffffffff16908060010154908060020154908060030154908060040154908060050160009054906101000a900460ff16905086565b613a56613eb0565b600073ffffffffffffffffffffffffffffffffffffffff168173ffffffffffffffffffffffffffffffffffffffff1603613ac85760006040517f1e4fbdf7000000000000000000000000000000000000000000000000000000008152600401613abf9190614474565b60405180910390fd5b613ad18161417f565b50565b60006005600084815260200190815260200160002090508060050160009054906101000a900460ff16613b3c576040517f08c379a0000000000000000000000000000000000000000000000000000000008152600401613b33906153b6565b60405180910390fd5b603c42613b4991906152a4565b821115613b8b576040517f08c379a0000000000000000000000000000000000000000000000000000000008152600401613b82906157ee565b60405180910390fd5b8060040154821115613bd2576040517f08c379a0000000000000000000000000000000000000000000000000000000008152600401613bc99061585a565b60405180910390fd5b6000816003015483613be49190614be3565b9050600082600301548360040154613bfc9190614be3565b9050600083600201548460010154613c149190614be3565b90506000828483613c259190614c17565b613c2f9190614c88565b8560010154613c3e9190614be3565b905084600401548610613c5357846002015490505b80341015613c96576040517f08c379a0000000000000000000000000000000000000000000000000000000008152600401613c8d90614d71565b60405180910390fd5b60008560050160006101000a81548160ff021916908315150217905550600260009054906101000a900473ffffffffffffffffffffffffffffffffffffffff1673ffffffffffffffffffffffffffffffffffffffff166342842e0e8660000160009054906101000a900473ffffffffffffffffffffffffffffffffffffffff16338a6040518463ffffffff1660e01b8152600401613d3693929190614dfd565b600060405180830381600087803b158015613d5057600080fd5b505af1158015613d64573d6000803e3d6000fd5b505050508460000160009054906101000a900473ffffffffffffffffffffffffffffffffffffffff1673ffffffffffffffffffffffffffffffffffffffff166108fc349081150290604051600060405180830381858888f19350505050158015613dd2573d6000803e3d6000fd5b50613ddc87613f9a565b867f3a9978b6624f6cb440b3a1e29c588ca8aab0251c3b4d7f9202a1c1fb01ab2c4e3334604051613e0e929190614b1f565b60405180910390a250505050505050565b600260005403613e5b576040517f3ee5aeb500000000000000000000000000000000000000000000000000000000815260040160405180910390fd5b6002600081905550565b613e6d611186565b15613ea4576040517fd93c066500000000000000000000000000000000000000000000000000000000815260040160405180910390fd5b565b6001600081905550565b613eb86142a4565b73ffffffffffffffffffffffffffffffffffffffff16613ed66111bb565b73ffffffffffffffffffffffffffffffffffffffff1614613f3557613ef96142a4565b6040517f118cdaa7000000000000000000000000000000000000000000000000000000008152600401613f2c9190614474565b60405180910390fd5b565b613f3f6142ac565b6000600160006101000a81548160ff0219169083151502179055507f5db9ee0a495bf2e6ff9c91a7834c1ba4fdd244a5e8aa4e537bd38aeae4b073aa613f836142a4565b604051613f909190614474565b60405180910390a1565b600060086000838152602001908152602001600020905060005b8180549050811015614144576000828281548110613fd557613fd4615405565b5b9060005260206000200160009054906101000a900473ffffffffffffffffffffffffffffffffffffffff16905060006007600086815260200190815260200160002060008373ffffffffffffffffffffffffffffffffffffffff1673ffffffffffffffffffffffffffffffffffffffff1681526020019081526020016000206001015490506000811115614135576007600086815260200190815260200160002060008373ffffffffffffffffffffffffffffffffffffffff1673ffffffffffffffffffffffffffffffffffffffff168152602001908152602001600020600080820160006101000a81549073ffffffffffffffffffffffffffffffffffffffff02191690556001820160009055600282016000905550508173ffffffffffffffffffffffffffffffffffffffff166108fc829081150290604051600060405180830381858888f19350505050158015614133573d6000803e3d6000fd5b505b50508080600101915050613fb4565b506008600083815260200190815260200160002060006141649190614323565b5050565b6000600160009054906101000a900460ff16905090565b600060018054906101000a900473ffffffffffffffffffffffffffffffffffffffff169050816001806101000a81548173ffffffffffffffffffffffffffffffffffffffff021916908373ffffffffffffffffffffffffffffffffffffffff1602179055508173ffffffffffffffffffffffffffffffffffffffff168173ffffffffffffffffffffffffffffffffffffffff167f8be0079c531659141344cd1fd0a4f28419497f9722a3daafe3b4186f6b6457e060405160405180910390a35050565b61424a613e65565b60018060006101000a81548160ff0219169083151502179055507f62e78cea01bee320cd4e420270b5ea74000d11b0c9f74754ebdbfc544b05a25861428d6142a4565b60405161429a9190614474565b60405180910390a1565b600033905090565b6142b4611186565b6142ea576040517f8dfc202b00000000000000000000000000000000000000000000000000000000815260040160405180910390fd5b565b6040518060600160405280600073ffffffffffffffffffffffffffffffffffffffff16815260200160008152602001600081525090565b50805460008255906000526020600020908101906143419190614344565b50565b5b8082111561435d576000816000905550600101614345565b5090565b600080fd5b6000819050919050565b61437981614366565b811461438457600080fd5b50565b60008135905061439681614370565b92915050565b600080604083850312156143b3576143b2614361565b5b60006143c185828601614387565b92505060206143d285828601614387565b9150509250929050565b6000602082840312156143f2576143f1614361565b5b600061440084828501614387565b91505092915050565b61441281614366565b82525050565b600060208201905061442d6000830184614409565b92915050565b600073ffffffffffffffffffffffffffffffffffffffff82169050919050565b600061445e82614433565b9050919050565b61446e81614453565b82525050565b60006020820190506144896000830184614465565b92915050565b61449881614453565b81146144a357600080fd5b50565b6000813590506144b58161448f565b92915050565b600080604083850312156144d2576144d1614361565b5b60006144e085828601614387565b92505060206144f1858286016144a6565b9150509250929050565b60008115159050919050565b614510816144fb565b82525050565b600060208201905061452b6000830184614507565b92915050565b600060e082019050614546600083018a614465565b6145536020830189614409565b6145606040830188614409565b61456d6060830187614465565b61457a6080830186614409565b61458760a0830185614409565b61459460c0830184614507565b98975050505050505050565b6000806000606084860312156145b9576145b8614361565b5b60006145c786828701614387565b93505060206145d886828701614387565b92505060406145e986828701614387565b9150509250925092565b6000819050919050565b600061461861461361460e84614433565b6145f3565b614433565b9050919050565b600061462a826145fd565b9050919050565b600061463c8261461f565b9050919050565b61464c81614631565b82525050565b60006020820190506146676000830184614643565b92915050565b60006080820190506146826000830187614465565b61468f6020830186614409565b61469c6040830185614409565b6146a96060830184614507565b95945050505050565b600081519050919050565b600082825260208201905092915050565b6000819050602082019050919050565b6146e781614453565b82525050565b6146f681614366565b82525050565b60608201600082015161471260008501826146de565b50602082015161472560208501826146ed565b50604082015161473860408501826146ed565b50505050565b600061474a83836146fc565b60608301905092915050565b6000602082019050919050565b600061476e826146b2565b61477881856146bd565b9350614783836146ce565b8060005b838110156147b457815161479b888261473e565b97506147a683614756565b925050600181019050614787565b5085935050505092915050565b600060208201905081810360008301526147db8184614763565b905092915050565b60006060820190506147f86000830186614465565b6148056020830185614409565b6148126040830184614409565b949350505050565b6000806000806080858703121561483457614833614361565b5b600061484287828801614387565b945050602061485387828801614387565b935050604061486487828801614387565b925050606061487587828801614387565b91505092959194509250565b600060c0820190506148966000830189614465565b6148a36020830188614409565b6148b06040830187614409565b6148bd6060830186614409565b6148ca6080830185614409565b6148d760a0830184614507565b979650505050505050565b6000602082840312156148f8576148f7614361565b5b6000614906848285016144a6565b91505092915050565b600082825260208201905092915050565b7f4f6666657220616d6f756e74206d75737420626520677265617465722074686160008201527f6e207a65726f0000000000000000000000000000000000000000000000000000602082015250565b600061497c60268361490f565b915061498782614920565b604082019050919050565b600060208201905081810360008301526149ab8161496f565b9050919050565b7f45787069726174696f6e206d75737420626520696e2074686520667574757265600082015250565b60006149e860208361490f565b91506149f3826149b2565b602082019050919050565b60006020820190508181036000830152614a17816149db565b9050919050565b7f596f7520616c7265616479206861766520616e20616374697665206f66666572600082015250565b6000614a5460208361490f565b9150614a5f82614a1e565b602082019050919050565b60006020820190508181036000830152614a8381614a47565b9050919050565b6000604082019050614a9f6000830185614409565b614aac6020830184614409565b9392505050565b7f4e6f2066756e647320746f207769746864726177000000000000000000000000600082015250565b6000614ae960148361490f565b9150614af482614ab3565b602082019050919050565b60006020820190508181036000830152614b1881614adc565b9050919050565b6000604082019050614b346000830185614465565b614b416020830184614409565b9392505050565b7f41756374696f6e206e6f74206163746976650000000000000000000000000000600082015250565b6000614b7e60128361490f565b9150614b8982614b48565b602082019050919050565b60006020820190508181036000830152614bad81614b71565b9050919050565b7f4e487b7100000000000000000000000000000000000000000000000000000000600052601160045260246000fd5b6000614bee82614366565b9150614bf983614366565b9250828203905081811115614c1157614c10614bb4565b5b92915050565b6000614c2282614366565b9150614c2d83614366565b9250828202614c3b81614366565b91508282048414831517614c5257614c51614bb4565b5b5092915050565b7f4e487b7100000000000000000000000000000000000000000000000000000000600052601260045260246000fd5b6000614c9382614366565b9150614c9e83614366565b925082614cae57614cad614c59565b5b828204905092915050565b7f4e4654206973206e6f74206c697374656420666f722073616c65000000000000600082015250565b6000614cef601a8361490f565b9150614cfa82614cb9565b602082019050919050565b60006020820190508181036000830152614d1e81614ce2565b9050919050565b7f496e73756666696369656e742066756e64730000000000000000000000000000600082015250565b6000614d5b60128361490f565b9150614d6682614d25565b602082019050919050565b60006020820190508181036000830152614d8a81614d4e565b9050919050565b7f4c697374696e6720686173206578706972656400000000000000000000000000600082015250565b6000614dc760138361490f565b9150614dd282614d91565b602082019050919050565b60006020820190508181036000830152614df681614dba565b9050919050565b6000606082019050614e126000830186614465565b614e1f6020830185614465565b614e2c6040830184614409565b949350505050565b600081519050614e438161448f565b92915050565b600060208284031215614e5f57614e5e614361565b5b6000614e6d84828501614e34565b91505092915050565b7f4e6f7420746f6b656e206f776e65720000000000000000000000000000000000600082015250565b6000614eac600f8361490f565b9150614eb782614e76565b602082019050919050565b60006020820190508181036000830152614edb81614e9f565b9050919050565b7f4e6f2076616c6964206f66666572000000000000000000000000000000000000600082015250565b6000614f18600e8361490f565b9150614f2382614ee2565b602082019050919050565b60006020820190508181036000830152614f4781614f0b565b9050919050565b7f4f66666572206578706972656400000000000000000000000000000000000000600082015250565b6000614f84600d8361490f565b9150614f8f82614f4e565b602082019050919050565b60006020820190508181036000830152614fb381614f77565b9050919050565b6000604082019050614fcf6000830185614465565b614fdc6020830184614465565b9392505050565b614fec816144fb565b8114614ff757600080fd5b50565b60008151905061500981614fe3565b92915050565b60006020828403121561502557615024614361565b5b600061503384828501614ffa565b91505092915050565b7f4d61726b6574706c616365206e6f7420617070726f76656420746f206d616e6160008201527f67652074686973204e4654000000000000000000000000000000000000000000602082015250565b6000615098602b8361490f565b91506150a38261503c565b604082019050919050565b600060208201905081810360008301526150c78161508b565b9050919050565b7f43616e6e6f742073746172742061756374696f6e3a204e4654206973206c697360008201527f746564206f7220696e2044757463682061756374696f6e000000000000000000602082015250565b600061512a60378361490f565b9150615135826150ce565b604082019050919050565b600060208201905081810360008301526151598161511d565b9050919050565b7f41756374696f6e206973206e6f74206163746976650000000000000000000000600082015250565b600061519660158361490f565b91506151a182615160565b602082019050919050565b600060208201905081810360008301526151c581615189565b9050919050565b7f41756374696f6e20656e64656400000000000000000000000000000000000000600082015250565b6000615202600d8361490f565b915061520d826151cc565b602082019050919050565b60006020820190508181036000830152615231816151f5565b9050919050565b7f42696420746f6f206c6f77000000000000000000000000000000000000000000600082015250565b600061526e600b8361490f565b915061527982615238565b602082019050919050565b6000602082019050818103600083015261529d81615261565b9050919050565b60006152af82614366565b91506152ba83614366565b92508282019050808211156152d2576152d1614bb4565b5b92915050565b7f43616e6e6f74206c69737420647572696e6720616e206163746976652061756360008201527f74696f6e00000000000000000000000000000000000000000000000000000000602082015250565b600061533460248361490f565b915061533f826152d8565b604082019050919050565b6000602082019050818103600083015261536381615327565b9050919050565b7f44757463682061756374696f6e206e6f74206163746976650000000000000000600082015250565b60006153a060188361490f565b91506153ab8261536a565b602082019050919050565b600060208201905081810360008301526153cf81615393565b9050919050565b7f4e487b7100000000000000000000000000000000000000000000000000000000600052604160045260246000fd5b7f4e487b7100000000000000000000000000000000000000000000000000000000600052603260045260246000fd5b7f41756374696f6e206973207374696c6c206f6e676f696e670000000000000000600082015250565b600061546a60188361490f565b915061547582615434565b602082019050919050565b600060208201905081810360008301526154998161545d565b9050919050565b7f4e6f206269647320706c61636564000000000000000000000000000000000000600082015250565b60006154d6600e8361490f565b91506154e1826154a0565b602082019050919050565b60006020820190508181036000830152615505816154c9565b9050919050565b7f5374617274207072696365206d7573742062652067726561746572207468616e60008201527f20656e6420707269636500000000000000000000000000000000000000000000602082015250565b6000615568602a8361490f565b91506155738261550c565b604082019050919050565b600060208201905081810360008301526155978161555b565b9050919050565b7f4475726174696f6e206d7573742062652067726561746572207468616e207a6560008201527f726f000000000000000000000000000000000000000000000000000000000000602082015250565b60006155fa60228361490f565b91506156058261559e565b604082019050919050565b60006020820190508181036000830152615629816155ed565b9050919050565b7f43616e6e6f742073746172742044757463682061756374696f6e3a204e46542060008201527f6973206c6973746564206f7220696e20726567756c61722061756374696f6e00602082015250565b600061568c603f8361490f565b915061569782615630565b604082019050919050565b600060208201905081810360008301526156bb8161567f565b9050919050565b60006080820190506156d76000830187614465565b6156e46020830186614409565b6156f16040830185614409565b6156fe6060830184614409565b95945050505050565b7f4e6f206f6666657220746f2063616e63656c0000000000000000000000000000600082015250565b600061573d60128361490f565b915061574882615707565b602082019050919050565b6000602082019050818103600083015261576c81615730565b9050919050565b7f4e487b7100000000000000000000000000000000000000000000000000000000600052603160045260246000fd5b7f54696d657374616d7020746f6f2066617220696e207468652066757475726500600082015250565b60006157d8601f8361490f565b91506157e3826157a2565b602082019050919050565b60006020820190508181036000830152615807816157cb565b9050919050565b7f41756374696f6e20657870697265640000000000000000000000000000000000600082015250565b6000615844600f8361490f565b915061584f8261580e565b602082019050919050565b6000602082019050818103600083015261587381615837565b905091905056fea26469706673582212208c5679dd9b07237d8e2a4f5df88c8dce7b373490d352db7ab36ed43f1c57c83764736f6c634300081c0033",
  "linkReferences": {},
  "deployedLinkReferences": {}
}