{
  "_format": "hh-sol-artifact-1",
  "contractName": "TradingContract",
  "sourceName": "contracts/TradingContract.sol",
  "abi": [
    {
      "inputs": [
        {
          "internalType": "address",
          "name": "_nftContract",
          "type": "address"
        }
      ],
      "stateMutability": "nonpayable",
      "type": "constructor"
    },
    {
      "inputs": [],
      "name": "EnforcedPause",
      "type": "error"
    },
    {
      "inputs": [],
      "name": "ExpectedPause",
      "type": "error"
    },
    {
      "inputs": [
        {
          "internalType": "address",
          "name": "owner",
          "type": "address"
        }
      ],
      "name": "OwnableInvalidOwner",
      "type": "error"
    },
    {
      "inputs": [
        {
          "internalType": "address",
          "name": "account",
          "type": "address"
        }
      ],
      "name": "OwnableUnauthorizedAccount",
      "type": "error"
    },
    {
      "inputs": [],
      "name": "ReentrancyGuardReentrantCall",
      "type": "error"
    },
    {
      "anonymous": false,
      "inputs": [
        {
          "indexed": true,
          "internalType": "uint256",
          "name": "tokenId",
          "type": "uint256"
        },
        {
          "indexed": false,
          "internalType": "address",
          "name": "winner",
          "type": "address"
        },
        {
          "indexed": false,
          "internalType": "uint256",
          "name": "amount",
          "type": "uint256"
        }
      ],
      "name": "AuctionEnded",
      "type": "event"
    },
    {
      "anonymous": false,
      "inputs": [
        {
          "indexed": true,
          "internalType": "uint256",
          "name": "tokenId",
          "type": "uint256"
        },
        {
          "indexed": false,
          "internalType": "address",
          "name": "seller",
          "type": "address"
        },
        {
          "indexed": false,
          "internalType": "uint256",
          "name": "startingPrice",
          "type": "uint256"
        },
        {
          "indexed": false,
          "internalType": "uint256",
          "name": "endTime",
          "type": "uint256"
        }
      ],
      "name": "AuctionStarted",
      "type": "event"
    },
    {
      "anonymous": false,
      "inputs": [
        {
          "indexed": true,
          "internalType": "uint256",
          "name": "tokenId",
          "type": "uint256"
        },
        {
          "indexed": false,
          "internalType": "address",
          "name": "bidder",
          "type": "address"
        },
        {
          "indexed": false,
          "internalType": "uint256",
          "name": "amount",
          "type": "uint256"
        }
      ],
      "name": "BidWithdrawn",
      "type": "event"
    },
    {
      "anonymous": false,
      "inputs": [
        {
          "indexed": true,
          "internalType": "uint256",
          "name": "tokenId",
          "type": "uint256"
        },
        {
          "indexed": false,
          "internalType": "address",
          "name": "buyer",
          "type": "address"
        },
        {
          "indexed": false,
          "internalType": "uint256",
          "name": "amount",
          "type": "uint256"
        }
      ],
      "name": "DutchAuctionEnded",
      "type": "event"
    },
    {
      "anonymous": false,
      "inputs": [
        {
          "indexed": true,
          "internalType": "uint256",
          "name": "tokenId",
          "type": "uint256"
        },
        {
          "indexed": false,
          "internalType": "address",
          "name": "seller",
          "type": "address"
        },
        {
          "indexed": false,
          "internalType": "uint256",
          "name": "startPrice",
          "type": "uint256"
        },
        {
          "indexed": false,
          "internalType": "uint256",
          "name": "endPrice",
          "type": "uint256"
        },
        {
          "indexed": false,
          "internalType": "uint256",
          "name": "endTime",
          "type": "uint256"
        }
      ],
      "name": "DutchAuctionStarted",
      "type": "event"
    },
    {
      "anonymous": false,
      "inputs": [
        {
          "indexed": true,
          "internalType": "uint256",
          "name": "tokenId",
          "type": "uint256"
        },
        {
          "indexed": false,
          "internalType": "address",
          "name": "seller",
          "type": "address"
        }
      ],
      "name": "NFTDelisted",
      "type": "event"
    },
    {
      "anonymous": false,
      "inputs": [
        {
          "indexed": true,
          "internalType": "uint256",
          "name": "tokenId",
          "type": "uint256"
        },
        {
          "indexed": false,
          "internalType": "address",
          "name": "seller",
          "type": "address"
        },
        {
          "indexed": false,
          "internalType": "uint256",
          "name": "price",
          "type": "uint256"
        }
      ],
      "name": "NFTListed",
      "type": "event"
    },
    {
      "anonymous": false,
      "inputs": [
        {
          "indexed": true,
          "internalType": "uint256",
          "name": "tokenId",
          "type": "uint256"
        },
        {
          "indexed": false,
          "internalType": "address",
          "name": "seller",
          "type": "address"
        },
        {
          "indexed": false,
          "internalType": "address",
          "name": "buyer",
          "type": "address"
        },
        {
          "indexed": false,
          "internalType": "uint256",
          "name": "price",
          "type": "uint256"
        }
      ],
      "name": "NFTSold",
      "type": "event"
    },
    {
      "anonymous": false,
      "inputs": [
        {
          "indexed": true,
          "internalType": "uint256",
          "name": "tokenId",
          "type": "uint256"
        },
        {
          "indexed": false,
          "internalType": "address",
          "name": "bidder",
          "type": "address"
        },
        {
          "indexed": false,
          "internalType": "uint256",
          "name": "amount",
          "type": "uint256"
        }
      ],
      "name": "NewBid",
      "type": "event"
    },
    {
      "anonymous": false,
      "inputs": [
        {
          "indexed": true,
          "internalType": "uint256",
          "name": "tokenId",
          "type": "uint256"
        },
        {
          "indexed": true,
          "internalType": "address",
          "name": "offerer",
          "type": "address"
        },
        {
          "indexed": false,
          "internalType": "uint256",
          "name": "amount",
          "type": "uint256"
        }
      ],
      "name": "OfferAccepted",
      "type": "event"
    },
    {
      "anonymous": false,
      "inputs": [
        {
          "indexed": true,
          "internalType": "uint256",
          "name": "tokenId",
          "type": "uint256"
        },
        {
          "indexed": true,
          "internalType": "address",
          "name": "offerer",
          "type": "address"
        }
      ],
      "name": "OfferCancelled",
      "type": "event"
    },
    {
      "anonymous": false,
      "inputs": [
        {
          "indexed": true,
          "internalType": "uint256",
          "name": "tokenId",
          "type": "uint256"
        },
        {
          "indexed": true,
          "internalType": "address",
          "name": "offerer",
          "type": "address"
        },
        {
          "indexed": false,
          "internalType": "uint256",
          "name": "amount",
          "type": "uint256"
        },
        {
          "indexed": false,
          "internalType": "uint256",
          "name": "expiration",
          "type": "uint256"
        }
      ],
      "name": "OfferMade",
      "type": "event"
    },
    {
      "anonymous": false,
      "inputs": [
        {
          "indexed": true,
          "internalType": "address",
          "name": "previousOwner",
          "type": "address"
        },
        {
          "indexed": true,
          "internalType": "address",
          "name": "newOwner",
          "type": "address"
        }
      ],
      "name": "OwnershipTransferred",
      "type": "event"
    },
    {
      "anonymous": false,
      "inputs": [
        {
          "indexed": false,
          "internalType": "address",
          "name": "account",
          "type": "address"
        }
      ],
      "name": "Paused",
      "type": "event"
    },
    {
      "anonymous": false,
      "inputs": [
        {
          "indexed": false,
          "internalType": "address",
          "name": "account",
          "type": "address"
        }
      ],
      "name": "Unpaused",
      "type": "event"
    },
    {
      "inputs": [
        {
          "internalType": "uint256",
          "name": "tokenId",
          "type": "uint256"
        },
        {
          "internalType": "address",
          "name": "offerer",
          "type": "address"
        }
      ],
      "name": "acceptOffer",
      "outputs": [],
      "stateMutability": "nonpayable",
      "type": "function"
    },
    {
      "inputs": [
        {
          "internalType": "uint256",
          "name": "",
          "type": "uint256"
        }
      ],
      "name": "auctions",
      "outputs": [
        {
          "internalType": "address",
          "name": "seller",
          "type": "address"
        },
        {
          "internalType": "uint256",
          "name": "startingPrice",
          "type": "uint256"
        },
        {
          "internalType": "uint256",
          "name": "highestBid",
          "type": "uint256"
        },
        {
          "internalType": "address",
          "name": "highestBidder",
          "type": "address"
        },
        {
          "internalType": "uint256",
          "name": "startTimestamp",
          "type": "uint256"
        },
        {
          "internalType": "uint256",
          "name": "endTimestamp",
          "type": "uint256"
        },
        {
          "internalType": "bool",
          "name": "isActive",
          "type": "bool"
        }
      ],
      "stateMutability": "view",
      "type": "function"
    },
    {
      "inputs": [
        {
          "internalType": "uint256",
          "name": "tokenId",
          "type": "uint256"
        },
        {
          "internalType": "uint256",
          "name": "clientTimestamp",
          "type": "uint256"
        }
      ],
      "name": "buyFromDutchAuction",
      "outputs": [],
      "stateMutability": "payable",
      "type": "function"
    },
    {
      "inputs": [
        {
          "internalType": "uint256",
          "name": "tokenId",
          "type": "uint256"
        }
      ],
      "name": "buyNFT",
      "outputs": [],
      "stateMutability": "payable",
      "type": "function"
    },
    {
      "inputs": [
        {
          "internalType": "uint256",
          "name": "tokenId",
          "type": "uint256"
        }
      ],
      "name": "cancelAuction",
      "outputs": [],
      "stateMutability": "nonpayable",
      "type": "function"
    },
    {
      "inputs": [
        {
          "internalType": "uint256",
          "name": "tokenId",
          "type": "uint256"
        }
      ],
      "name": "cancelDutchAuction",
      "outputs": [],
      "stateMutability": "nonpayable",
      "type": "function"
    },
    {
      "inputs": [
        {
          "internalType": "uint256",
          "name": "tokenId",
          "type": "uint256"
        }
      ],
      "name": "cancelOffer",
      "outputs": [],
      "stateMutability": "nonpayable",
      "type": "function"
    },
    {
      "inputs": [
        {
          "internalType": "uint256",
          "name": "tokenId",
          "type": "uint256"
        }
      ],
      "name": "delistNFT",
      "outputs": [],
      "stateMutability": "nonpayable",
      "type": "function"
    },
    {
      "inputs": [
        {
          "internalType": "uint256",
          "name": "",
          "type": "uint256"
        }
      ],
      "name": "dutchAuctions",
      "outputs": [
        {
          "internalType": "address",
          "name": "seller",
          "type": "address"
        },
        {
          "internalType": "uint256",
          "name": "startPrice",
          "type": "uint256"
        },
        {
          "internalType": "uint256",
          "name": "endPrice",
          "type": "uint256"
        },
        {
          "internalType": "uint256",
          "name": "startTimestamp",
          "type": "uint256"
        },
        {
          "internalType": "uint256",
          "name": "endTimestamp",
          "type": "uint256"
        },
        {
          "internalType": "bool",
          "name": "isActive",
          "type": "bool"
        }
      ],
      "stateMutability": "view",
      "type": "function"
    },
    {
      "inputs": [
        {
          "internalType": "uint256",
          "name": "tokenId",
          "type": "uint256"
        }
      ],
      "name": "finalizeAuction",
      "outputs": [],
      "stateMutability": "nonpayable",
      "type": "function"
    },
    {
      "inputs": [
        {
          "internalType": "uint256",
          "name": "tokenId",
          "type": "uint256"
        }
      ],
      "name": "getOffers",
      "outputs": [
        {
          "components": [
            {
              "internalType": "address",
              "name": "offerer",
              "type": "address"
            },
            {
              "internalType": "uint256",
              "name": "amount",
              "type": "uint256"
            },
            {
              "internalType": "uint256",
              "name": "expiration",
              "type": "uint256"
            }
          ],
          "internalType": "struct TradingContract.Offer[]",
          "name": "",
          "type": "tuple[]"
        }
      ],
      "stateMutability": "view",
      "type": "function"
    },
    {
      "inputs": [
        {
          "internalType": "uint256",
          "name": "tokenId",
          "type": "uint256"
        },
        {
          "internalType": "address",
          "name": "user",
          "type": "address"
        }
      ],
      "name": "hasPendingReturns",
      "outputs": [
        {
          "internalType": "bool",
          "name": "",
          "type": "bool"
        }
      ],
      "stateMutability": "view",
      "type": "function"
    },
    {
      "inputs": [
        {
          "internalType": "uint256",
          "name": "tokenId",
          "type": "uint256"
        },
        {
          "internalType": "uint256",
          "name": "price",
          "type": "uint256"
        },
        {
          "internalType": "uint256",
          "name": "expiration",
          "type": "uint256"
        }
      ],
      "name": "listNFT",
      "outputs": [],
      "stateMutability": "nonpayable",
      "type": "function"
    },
    {
      "inputs": [
        {
          "internalType": "uint256",
          "name": "",
          "type": "uint256"
        }
      ],
      "name": "listings",
      "outputs": [
        {
          "internalType": "address",
          "name": "seller",
          "type": "address"
        },
        {
          "internalType": "uint256",
          "name": "price",
          "type": "uint256"
        },
        {
          "internalType": "uint256",
          "name": "expiration",
          "type": "uint256"
        },
        {
          "internalType": "bool",
          "name": "isActive",
          "type": "bool"
        }
      ],
      "stateMutability": "view",
      "type": "function"
    },
    {
      "inputs": [
        {
          "internalType": "uint256",
          "name": "tokenId",
          "type": "uint256"
        },
        {
          "internalType": "uint256",
          "name": "expiration",
          "type": "uint256"
        }
      ],
      "name": "makeOffer",
      "outputs": [],
      "stateMutability": "payable",
      "type": "function"
    },
    {
      "inputs": [],
      "name": "nftContract",
      "outputs": [
        {
          "internalType": "contract ERC721",
          "name": "",
          "type": "address"
        }
      ],
      "stateMutability": "view",
      "type": "function"
    },
    {
      "inputs": [
        {
          "internalType": "uint256",
          "name": "",
          "type": "uint256"
        },
        {
          "internalType": "uint256",
          "name": "",
          "type": "uint256"
        }
      ],
      "name": "offerers",
      "outputs": [
        {
          "internalType": "address",
          "name": "",
          "type": "address"
        }
      ],
      "stateMutability": "view",
      "type": "function"
    },
    {
      "inputs": [
        {
          "internalType": "uint256",
          "name": "",
          "type": "uint256"
        },
        {
          "internalType": "address",
          "name": "",
          "type": "address"
        }
      ],
      "name": "offers",
      "outputs": [
        {
          "internalType": "address",
          "name": "offerer",
          "type": "address"
        },
        {
          "internalType": "uint256",
          "name": "amount",
          "type": "uint256"
        },
        {
          "internalType": "uint256",
          "name": "expiration",
          "type": "uint256"
        }
      ],
      "stateMutability": "view",
      "type": "function"
    },
    {
      "inputs": [],
      "name": "owner",
      "outputs": [
        {
          "internalType": "address",
          "name": "",
          "type": "address"
        }
      ],
      "stateMutability": "view",
      "type": "function"
    },
    {
      "inputs": [],
      "name": "pause",
      "outputs": [],
      "stateMutability": "nonpayable",
      "type": "function"
    },
    {
      "inputs": [],
      "name": "paused",
      "outputs": [
        {
          "internalType": "bool",
          "name": "",
          "type": "bool"
        }
      ],
      "stateMutability": "view",
      "type": "function"
    },
    {
      "inputs": [
        {
          "internalType": "uint256",
          "name": "",
          "type": "uint256"
        },
        {
          "internalType": "address",
          "name": "",
          "type": "address"
        }
      ],
      "name": "pendingReturns",
      "outputs": [
        {
          "internalType": "uint256",
          "name": "",
          "type": "uint256"
        }
      ],
      "stateMutability": "view",
      "type": "function"
    },
    {
      "inputs": [
        {
          "internalType": "uint256",
          "name": "tokenId",
          "type": "uint256"
        }
      ],
      "name": "placeBid",
      "outputs": [],
      "stateMutability": "payable",
      "type": "function"
    },
    {
      "inputs": [],
      "name": "renounceOwnership",
      "outputs": [],
      "stateMutability": "nonpayable",
      "type": "function"
    },
    {
      "inputs": [
        {
          "internalType": "uint256",
          "name": "tokenId",
          "type": "uint256"
        },
        {
          "internalType": "uint256",
          "name": "startingPrice",
          "type": "uint256"
        },
        {
          "internalType": "uint256",
          "name": "endTimeStamp",
          "type": "uint256"
        }
      ],
      "name": "startAuction",
      "outputs": [],
      "stateMutability": "nonpayable",
      "type": "function"
    },
    {
      "inputs": [
        {
          "internalType": "uint256",
          "name": "tokenId",
          "type": "uint256"
        },
        {
          "internalType": "uint256",
          "name": "startPrice",
          "type": "uint256"
        },
        {
          "internalType": "uint256",
          "name": "endPrice",
          "type": "uint256"
        },
        {
          "internalType": "uint256",
          "name": "duration",
          "type": "uint256"
        }
      ],
      "name": "startDutchAuction",
      "outputs": [],
      "stateMutability": "nonpayable",
      "type": "function"
    },
    {
      "inputs": [
        {
          "internalType": "address",
          "name": "newOwner",
          "type": "address"
        }
      ],
      "name": "transferOwnership",
      "outputs": [],
      "stateMutability": "nonpayable",
      "type": "function"
    },
    {
      "inputs": [],
      "name": "unpause",
      "outputs": [],
      "stateMutability": "nonpayable",
      "type": "function"
    },
    {
      "inputs": [
        {
          "internalType": "uint256",
          "name": "tokenId",
          "type": "uint256"
        }
      ],
      "name": "withdrawBid",
      "outputs": [],
      "stateMutability": "nonpayable",
      "type": "function"
    }
  ],
  "bytecode": "0x608060405234801561001057600080fd5b50604051615fa0380380615fa08339818101604052810190610032919061022a565b336001600081905550600073ffffffffffffffffffffffffffffffffffffffff168173ffffffffffffffffffffffffffffffffffffffff16036100ad5760006040517f1e4fbdf70000000000000000000000000000000000000000000000000000000081526004016100a49190610266565b60405180910390fd5b6100bc8161010460201b60201c565b5080600260006101000a81548173ffffffffffffffffffffffffffffffffffffffff021916908373ffffffffffffffffffffffffffffffffffffffff16021790555050610281565b600060018054906101000a900473ffffffffffffffffffffffffffffffffffffffff169050816001806101000a81548173ffffffffffffffffffffffffffffffffffffffff021916908373ffffffffffffffffffffffffffffffffffffffff1602179055508173ffffffffffffffffffffffffffffffffffffffff168173ffffffffffffffffffffffffffffffffffffffff167f8be0079c531659141344cd1fd0a4f28419497f9722a3daafe3b4186f6b6457e060405160405180910390a35050565b600080fd5b600073ffffffffffffffffffffffffffffffffffffffff82169050919050565b60006101f7826101cc565b9050919050565b610207816101ec565b811461021257600080fd5b50565b600081519050610224816101fe565b92915050565b6000602082840312156102405761023f6101c7565b5b600061024e84828501610215565b91505092915050565b610260816101ec565b82525050565b600060208201905061027b6000830184610257565b92915050565b615d10806102906000396000f3fe6080604052600436106101c25760003560e01c806396b5a755116100f7578063dfa49e6f11610095578063ef706adf11610064578063ef706adf14610608578063f2ab2fc014610631578063f2fde38b14610673578063fbf2da801461069c576101c2565b8063dfa49e6f1461053a578063e808386314610577578063ebdfbce5146105a0578063ecfc12a3146105df576101c2565b8063cb917b9c116100d1578063cb917b9c1461047d578063d56d229d146104a6578063ddee8433146104d1578063de74e57b146104fa576101c2565b806396b5a7551461040f5780639979ef4514610438578063b0136c8d14610454576101c2565b80635c975abb116101645780638da5cb5b1161013e5780638da5cb5b146103555780638ddac1ef14610380578063918d407d146103bd57806391e078bb146103e6576101c2565b80635c975abb146102fc578063715018a6146103275780638456cb591461033e576101c2565b80633f4ba83a116101a05780633f4ba83a1461024957806351ed8288146102605780635629939a1461027c578063571a26a0146102b9576101c2565b806305b7cdd3146101c75780630eaaf4c8146101e35780633079dccf1461020c575b600080fd5b6101e160048036038101906101dc919061474a565b6106b8565b005b3480156101ef57600080fd5b5061020a6004803603810190610205919061478a565b610999565b005b34801561021857600080fd5b50610233600480360381019061022e919061474a565b610b8a565b60405161024091906147f8565b60405180910390f35b34801561025557600080fd5b5061025e610bd8565b005b61027a6004803603810190610275919061478a565b610bea565b005b34801561028857600080fd5b506102a3600480360381019061029e919061483f565b611061565b6040516102b0919061489a565b60405180910390f35b3480156102c557600080fd5b506102e060048036038101906102db919061478a565b6110be565b6040516102f397969594939291906148c4565b60405180910390f35b34801561030857600080fd5b5061031161114d565b60405161031e919061489a565b60405180910390f35b34801561033357600080fd5b5061033c61115c565b005b34801561034a57600080fd5b50610353611170565b005b34801561036157600080fd5b5061036a611182565b60405161037791906147f8565b60405180910390f35b34801561038c57600080fd5b506103a760048036038101906103a2919061483f565b6111aa565b6040516103b49190614933565b60405180910390f35b3480156103c957600080fd5b506103e460048036038101906103df919061483f565b6111cf565b005b3480156103f257600080fd5b5061040d6004803603810190610408919061494e565b6116d7565b005b34801561041b57600080fd5b506104366004803603810190610431919061478a565b611bca565b005b610452600480360381019061044d919061478a565b611f20565b005b34801561046057600080fd5b5061047b6004803603810190610476919061494e565b612183565b005b34801561048957600080fd5b506104a4600480360381019061049f919061478a565b612631565b005b3480156104b257600080fd5b506104bb612855565b6040516104c89190614a00565b60405180910390f35b3480156104dd57600080fd5b506104f860048036038101906104f3919061478a565b61287b565b005b34801561050657600080fd5b50610521600480360381019061051c919061478a565b612a5f565b6040516105319493929190614a1b565b60405180910390f35b34801561054657600080fd5b50610561600480360381019061055c919061478a565b612abc565b60405161056e9190614b6f565b60405180910390f35b34801561058357600080fd5b5061059e6004803603810190610599919061478a565b612cd9565b005b3480156105ac57600080fd5b506105c760048036038101906105c2919061483f565b6131e2565b6040516105d693929190614b91565b60405180910390f35b3480156105eb57600080fd5b5061060660048036038101906106019190614bc8565b613239565b005b34801561061457600080fd5b5061062f600480360381019061062a919061478a565b613760565b005b34801561063d57600080fd5b506106586004803603810190610653919061478a565b613baa565b60405161066a96959493929190614c2f565b60405180910390f35b34801561067f57600080fd5b5061069a60048036038101906106959190614c90565b613c13565b005b6106b660048036038101906106b1919061474a565b613c99565b005b6106c0614167565b6106c86141ad565b6000341161070b576040517f08c379a000000000000000000000000000000000000000000000000000000000815260040161070290614d40565b60405180910390fd5b42811161074d576040517f08c379a000000000000000000000000000000000000000000000000000000000815260040161074490614dac565b60405180910390fd5b60006007600084815260200190815260200160002060003373ffffffffffffffffffffffffffffffffffffffff1673ffffffffffffffffffffffffffffffffffffffff168152602001908152602001600020905060008160010154146107e8576040517f08c379a00000000000000000000000000000000000000000000000000000000081526004016107df90614e18565b60405180910390fd5b60405180606001604052803373ffffffffffffffffffffffffffffffffffffffff168152602001348152602001838152506007600085815260200190815260200160002060003373ffffffffffffffffffffffffffffffffffffffff1673ffffffffffffffffffffffffffffffffffffffff16815260200190815260200160002060008201518160000160006101000a81548173ffffffffffffffffffffffffffffffffffffffff021916908373ffffffffffffffffffffffffffffffffffffffff160217905550602082015181600101556040820151816002015590505060086000848152602001908152602001600020339080600181540180825580915050600190039060005260206000200160009091909190916101000a81548173ffffffffffffffffffffffffffffffffffffffff021916908373ffffffffffffffffffffffffffffffffffffffff1602179055503373ffffffffffffffffffffffffffffffffffffffff16837fd7df0c72641d362ea57ecc9cab99c77f936e36bb826f096258c3404196b26d6a3485604051610984929190614e38565b60405180910390a3506109956141ee565b5050565b6109a1614167565b6109a96141ad565b60006006600083815260200190815260200160002060003373ffffffffffffffffffffffffffffffffffffffff1673ffffffffffffffffffffffffffffffffffffffff16815260200190815260200160002054905060008111610a41576040517f08c379a0000000000000000000000000000000000000000000000000000000008152600401610a3890614ead565b60405180910390fd5b60006006600084815260200190815260200160002060003373ffffffffffffffffffffffffffffffffffffffff1673ffffffffffffffffffffffffffffffffffffffff1681526020019081526020016000208190555060003373ffffffffffffffffffffffffffffffffffffffff1682604051610abd90614efe565b60006040518083038185875af1925050503d8060008114610afa576040519150601f19603f3d011682016040523d82523d6000602084013e610aff565b606091505b5050905080610b43576040517f08c379a0000000000000000000000000000000000000000000000000000000008152600401610b3a90614f5f565b60405180910390fd5b827f8f8619524e8d462cead34604bd2247ede24175801481e4d0b8059ac8aa41c3013384604051610b75929190614f7f565b60405180910390a25050610b876141ee565b50565b60086020528160005260406000208181548110610ba657600080fd5b906000526020600020016000915091509054906101000a900473ffffffffffffffffffffffffffffffffffffffff1681565b610be06141f8565b610be861427f565b565b806003600082815260200190815260200160002060030160009054906101000a900460ff16610c4e576040517f08c379a0000000000000000000000000000000000000000000000000000000008152600401610c4590614ff4565b60405180910390fd5b610c56614167565b610c5e6141ad565b6000600360008481526020019081526020016000206040518060800160405290816000820160009054906101000a900473ffffffffffffffffffffffffffffffffffffffff1673ffffffffffffffffffffffffffffffffffffffff1673ffffffffffffffffffffffffffffffffffffffff16815260200160018201548152602001600282015481526020016003820160009054906101000a900460ff16151515158152505090508060200151341015610d4c576040517f08c379a0000000000000000000000000000000000000000000000000000000008152600401610d4390615060565b60405180910390fd5b8060400151421115610d93576040517f08c379a0000000000000000000000000000000000000000000000000000000008152600401610d8a906150cc565b60405180910390fd5b60036000848152602001908152602001600020600080820160006101000a81549073ffffffffffffffffffffffffffffffffffffffff0219169055600182016000905560028201600090556003820160006101000a81549060ff02191690555050610dfd836142e2565b600260009054906101000a900473ffffffffffffffffffffffffffffffffffffffff1673ffffffffffffffffffffffffffffffffffffffff166342842e0e826000015133866040518463ffffffff1660e01b8152600401610e60939291906150ec565b600060405180830381600087803b158015610e7a57600080fd5b505af1158015610e8e573d6000803e3d6000fd5b505050506000816000015173ffffffffffffffffffffffffffffffffffffffff168260200151604051610ec090614efe565b60006040518083038185875af1925050503d8060008114610efd576040519150601f19603f3d011682016040523d82523d6000602084013e610f02565b606091505b5050905080610f46576040517f08c379a0000000000000000000000000000000000000000000000000000000008152600401610f3d90614f5f565b60405180910390fd5b816020015134111561100f5760003373ffffffffffffffffffffffffffffffffffffffff16836020015134610f7b9190615152565b604051610f8790614efe565b60006040518083038185875af1925050503d8060008114610fc4576040519150601f19603f3d011682016040523d82523d6000602084013e610fc9565b606091505b505090508061100d576040517f08c379a000000000000000000000000000000000000000000000000000000000815260040161100490614f5f565b60405180910390fd5b505b837f8562eb94748e30bb0071e932744ce902b460c683474fcb3bfd567ffa16b1afb2836000015133856020015160405161104b939291906150ec565b60405180910390a2505061105d6141ee565b5050565b6000806006600085815260200190815260200160002060008473ffffffffffffffffffffffffffffffffffffffff1673ffffffffffffffffffffffffffffffffffffffff1681526020019081526020016000205411905092915050565b60046020528060005260406000206000915090508060000160009054906101000a900473ffffffffffffffffffffffffffffffffffffffff16908060010154908060020154908060030160009054906101000a900473ffffffffffffffffffffffffffffffffffffffff16908060040154908060050154908060060160009054906101000a900460ff16905087565b6000611157614516565b905090565b6111646141f8565b61116e600061452d565b565b6111786141f8565b6111806145f0565b565b600060018054906101000a900473ffffffffffffffffffffffffffffffffffffffff16905090565b6006602052816000526040600020602052806000526040600020600091509150505481565b813373ffffffffffffffffffffffffffffffffffffffff16600260009054906101000a900473ffffffffffffffffffffffffffffffffffffffff1673ffffffffffffffffffffffffffffffffffffffff16636352211e836040518263ffffffff1660e01b81526004016112429190614933565b602060405180830381865afa15801561125f573d6000803e3d6000fd5b505050506040513d601f19601f82011682018060405250810190611283919061519b565b73ffffffffffffffffffffffffffffffffffffffff16146112d9576040517f08c379a00000000000000000000000000000000000000000000000000000000081526004016112d090615214565b60405180910390fd5b6112e1614167565b6112e96141ad565b60006007600085815260200190815260200160002060008473ffffffffffffffffffffffffffffffffffffffff1673ffffffffffffffffffffffffffffffffffffffff1681526020019081526020016000206040518060600160405290816000820160009054906101000a900473ffffffffffffffffffffffffffffffffffffffff1673ffffffffffffffffffffffffffffffffffffffff1673ffffffffffffffffffffffffffffffffffffffff16815260200160018201548152602001600282015481525050905060008160200151116113f9576040517f08c379a00000000000000000000000000000000000000000000000000000000081526004016113f090615280565b60405180910390fd5b8060400151421115611440576040517f08c379a0000000000000000000000000000000000000000000000000000000008152600401611437906152ec565b60405180910390fd5b6007600085815260200190815260200160002060008473ffffffffffffffffffffffffffffffffffffffff1673ffffffffffffffffffffffffffffffffffffffff168152602001908152602001600020600080820160006101000a81549073ffffffffffffffffffffffffffffffffffffffff021916905560018201600090556002820160009055505060003373ffffffffffffffffffffffffffffffffffffffff1682602001516040516114f490614efe565b60006040518083038185875af1925050503d8060008114611531576040519150601f19603f3d011682016040523d82523d6000602084013e611536565b606091505b505090508061157a576040517f08c379a000000000000000000000000000000000000000000000000000000000815260040161157190614f5f565b60405180910390fd5b60036000868152602001908152602001600020600080820160006101000a81549073ffffffffffffffffffffffffffffffffffffffff0219169055600182016000905560028201600090556003820160006101000a81549060ff021916905550506115e4856142e2565b600260009054906101000a900473ffffffffffffffffffffffffffffffffffffffff1673ffffffffffffffffffffffffffffffffffffffff166342842e0e3386886040518463ffffffff1660e01b8152600401611643939291906150ec565b600060405180830381600087803b15801561165d57600080fd5b505af1158015611671573d6000803e3d6000fd5b505050508373ffffffffffffffffffffffffffffffffffffffff16857fea555ab99331ceac5051c58f17cc7b411b30241b0e28cb93a7d3a24c77a7a9a984602001516040516116c09190614933565b60405180910390a350506116d26141ee565b505050565b823373ffffffffffffffffffffffffffffffffffffffff16600260009054906101000a900473ffffffffffffffffffffffffffffffffffffffff1673ffffffffffffffffffffffffffffffffffffffff16636352211e836040518263ffffffff1660e01b815260040161174a9190614933565b602060405180830381865afa158015611767573d6000803e3d6000fd5b505050506040513d601f19601f8201168201806040525081019061178b919061519b565b73ffffffffffffffffffffffffffffffffffffffff16146117e1576040517f08c379a00000000000000000000000000000000000000000000000000000000081526004016117d890615214565b60405180910390fd5b6117e9614167565b6117f16141ad565b3073ffffffffffffffffffffffffffffffffffffffff16600260009054906101000a900473ffffffffffffffffffffffffffffffffffffffff1673ffffffffffffffffffffffffffffffffffffffff1663081812fc866040518263ffffffff1660e01b81526004016118639190614933565b602060405180830381865afa158015611880573d6000803e3d6000fd5b505050506040513d601f19601f820116820180604052508101906118a4919061519b565b73ffffffffffffffffffffffffffffffffffffffff1614806119605750600260009054906101000a900473ffffffffffffffffffffffffffffffffffffffff1673ffffffffffffffffffffffffffffffffffffffff1663e985e9c533306040518363ffffffff1660e01b815260040161191e92919061530c565b602060405180830381865afa15801561193b573d6000803e3d6000fd5b505050506040513d601f19601f8201168201806040525081019061195f9190615361565b5b61199f576040517f08c379a000000000000000000000000000000000000000000000000000000000815260040161199690615400565b60405180910390fd5b6003600085815260200190815260200160002060030160009054906101000a900460ff161580156119f157506005600085815260200190815260200160002060050160009054906101000a900460ff16155b611a30576040517f08c379a0000000000000000000000000000000000000000000000000000000008152600401611a2790615492565b60405180910390fd5b6040518060e001604052803373ffffffffffffffffffffffffffffffffffffffff16815260200184815260200160008152602001600073ffffffffffffffffffffffffffffffffffffffff168152602001428152602001838152602001600115158152506004600086815260200190815260200160002060008201518160000160006101000a81548173ffffffffffffffffffffffffffffffffffffffff021916908373ffffffffffffffffffffffffffffffffffffffff160217905550602082015181600101556040820151816002015560608201518160030160006101000a81548173ffffffffffffffffffffffffffffffffffffffff021916908373ffffffffffffffffffffffffffffffffffffffff1602179055506080820151816004015560a0820151816005015560c08201518160060160006101000a81548160ff021916908315150217905550905050837fbf6dc7bdf2f23af5a506fe03ee1221f47d023a2227fbc949c6b812ae44534e6d338585604051611bb493929190614b91565b60405180910390a2611bc46141ee565b50505050565b803373ffffffffffffffffffffffffffffffffffffffff16600260009054906101000a900473ffffffffffffffffffffffffffffffffffffffff1673ffffffffffffffffffffffffffffffffffffffff16636352211e836040518263ffffffff1660e01b8152600401611c3d9190614933565b602060405180830381865afa158015611c5a573d6000803e3d6000fd5b505050506040513d601f19601f82011682018060405250810190611c7e919061519b565b73ffffffffffffffffffffffffffffffffffffffff1614611cd4576040517f08c379a0000000000000000000000000000000000000000000000000000000008152600401611ccb90615214565b60405180910390fd5b816004600082815260200190815260200160002060060160009054906101000a900460ff16611d38576040517f08c379a0000000000000000000000000000000000000000000000000000000008152600401611d2f906154fe565b60405180910390fd5b611d40614167565b611d486141ad565b6000600460008581526020019081526020016000209050600081600201541115611e425760008160030160009054906101000a900473ffffffffffffffffffffffffffffffffffffffff1673ffffffffffffffffffffffffffffffffffffffff168260020154604051611dba90614efe565b60006040518083038185875af1925050503d8060008114611df7576040519150601f19603f3d011682016040523d82523d6000602084013e611dfc565b606091505b5050905080611e40576040517f08c379a0000000000000000000000000000000000000000000000000000000008152600401611e3790614f5f565b60405180910390fd5b505b60046000858152602001908152602001600020600080820160006101000a81549073ffffffffffffffffffffffffffffffffffffffff0219169055600182016000905560028201600090556003820160006101000a81549073ffffffffffffffffffffffffffffffffffffffff0219169055600482016000905560058201600090556006820160006101000a81549060ff02191690555050837fef1499b350e05776e60cd2ffcac001569a28e9d574e1f3adc1b3ab264f8ccffd33604051611f0a91906147f8565b60405180910390a250611f1b6141ee565b505050565b806004600082815260200190815260200160002060060160009054906101000a900460ff16611f84576040517f08c379a0000000000000000000000000000000000000000000000000000000008152600401611f7b906154fe565b60405180910390fd5b600060046000848152602001908152602001600020905080600501544210611fe1576040517f08c379a0000000000000000000000000000000000000000000000000000000008152600401611fd89061556a565b60405180910390fd5b80600201543411612027576040517f08c379a000000000000000000000000000000000000000000000000000000000815260040161201e906155d6565b60405180910390fd5b6000816002015411156120c45780600201546006600085815260200190815260200160002060008360030160009054906101000a900473ffffffffffffffffffffffffffffffffffffffff1673ffffffffffffffffffffffffffffffffffffffff1673ffffffffffffffffffffffffffffffffffffffff16815260200190815260200160002060008282546120bc91906155f6565b925050819055505b348160020181905550338160030160006101000a81548173ffffffffffffffffffffffffffffffffffffffff021916908373ffffffffffffffffffffffffffffffffffffffff16021790555060784282600501546121229190615152565b1161214457607881600501600082825461213c91906155f6565b925050819055505b827f558a0d5d5468d74b0db24c74eb348b42271c2ebb4c9e953ced38aaed95fa43613334604051612176929190614f7f565b60405180910390a2505050565b823373ffffffffffffffffffffffffffffffffffffffff16600260009054906101000a900473ffffffffffffffffffffffffffffffffffffffff1673ffffffffffffffffffffffffffffffffffffffff16636352211e836040518263ffffffff1660e01b81526004016121f69190614933565b602060405180830381865afa158015612213573d6000803e3d6000fd5b505050506040513d601f19601f82011682018060405250810190612237919061519b565b73ffffffffffffffffffffffffffffffffffffffff161461228d576040517f08c379a000000000000000000000000000000000000000000000000000000000815260040161228490615214565b60405180910390fd5b612295614167565b61229d6141ad565b3073ffffffffffffffffffffffffffffffffffffffff16600260009054906101000a900473ffffffffffffffffffffffffffffffffffffffff1673ffffffffffffffffffffffffffffffffffffffff1663081812fc866040518263ffffffff1660e01b815260040161230f9190614933565b602060405180830381865afa15801561232c573d6000803e3d6000fd5b505050506040513d601f19601f82011682018060405250810190612350919061519b565b73ffffffffffffffffffffffffffffffffffffffff16148061240c5750600260009054906101000a900473ffffffffffffffffffffffffffffffffffffffff1673ffffffffffffffffffffffffffffffffffffffff1663e985e9c533306040518363ffffffff1660e01b81526004016123ca92919061530c565b602060405180830381865afa1580156123e7573d6000803e3d6000fd5b505050506040513d601f19601f8201168201806040525081019061240b9190615361565b5b61244b576040517f08c379a000000000000000000000000000000000000000000000000000000000815260040161244290615400565b60405180910390fd5b42821161248d576040517f08c379a000000000000000000000000000000000000000000000000000000000815260040161248490614dac565b60405180910390fd5b6004600085815260200190815260200160002060060160009054906101000a900460ff161580156124df57506005600085815260200190815260200160002060050160009054906101000a900460ff16155b61251e576040517f08c379a00000000000000000000000000000000000000000000000000000000081526004016125159061569c565b60405180910390fd5b60405180608001604052803373ffffffffffffffffffffffffffffffffffffffff168152602001848152602001838152602001600115158152506003600086815260200190815260200160002060008201518160000160006101000a81548173ffffffffffffffffffffffffffffffffffffffff021916908373ffffffffffffffffffffffffffffffffffffffff160217905550602082015181600101556040820151816002015560608201518160030160006101000a81548160ff021916908315150217905550905050837f5f9c03de076f5063cd3ebcfe8ef7aa8af378e4b35a83c77ba9777e97083879a2338560405161261b929190614f7f565b60405180910390a261262b6141ee565b50505050565b803373ffffffffffffffffffffffffffffffffffffffff16600260009054906101000a900473ffffffffffffffffffffffffffffffffffffffff1673ffffffffffffffffffffffffffffffffffffffff16636352211e836040518263ffffffff1660e01b81526004016126a49190614933565b602060405180830381865afa1580156126c1573d6000803e3d6000fd5b505050506040513d601f19601f820116820180604052508101906126e5919061519b565b73ffffffffffffffffffffffffffffffffffffffff161461273b576040517f08c379a000000000000000000000000000000000000000000000000000000000815260040161273290615214565b60405180910390fd5b816003600082815260200190815260200160002060030160009054906101000a900460ff1661279f576040517f08c379a000000000000000000000000000000000000000000000000000000000815260040161279690614ff4565b60405180910390fd5b6127a7614167565b6127af6141ad565b60036000848152602001908152602001600020600080820160006101000a81549073ffffffffffffffffffffffffffffffffffffffff0219169055600182016000905560028201600090556003820160006101000a81549060ff02191690555050827fef1499b350e05776e60cd2ffcac001569a28e9d574e1f3adc1b3ab264f8ccffd3360405161284091906147f8565b60405180910390a26128506141ee565b505050565b600260009054906101000a900473ffffffffffffffffffffffffffffffffffffffff1681565b803373ffffffffffffffffffffffffffffffffffffffff16600260009054906101000a900473ffffffffffffffffffffffffffffffffffffffff1673ffffffffffffffffffffffffffffffffffffffff16636352211e836040518263ffffffff1660e01b81526004016128ee9190614933565b602060405180830381865afa15801561290b573d6000803e3d6000fd5b505050506040513d601f19601f8201168201806040525081019061292f919061519b565b73ffffffffffffffffffffffffffffffffffffffff1614612985576040517f08c379a000000000000000000000000000000000000000000000000000000000815260040161297c90615214565b60405180910390fd5b61298d614167565b6129956141ad565b60006005600084815260200190815260200160002090508060050160009054906101000a900460ff166129fd576040517f08c379a00000000000000000000000000000000000000000000000000000000081526004016129f490615708565b60405180910390fd5b60008160050160006101000a81548160ff021916908315150217905550827fef1499b350e05776e60cd2ffcac001569a28e9d574e1f3adc1b3ab264f8ccffd33604051612a4a91906147f8565b60405180910390a250612a5b6141ee565b5050565b60036020528060005260406000206000915090508060000160009054906101000a900473ffffffffffffffffffffffffffffffffffffffff16908060010154908060020154908060030160009054906101000a900460ff16905084565b6060600060086000848152602001908152602001600020805480602002602001604051908101604052809291908181526020018280548015612b5357602002820191906000526020600020905b8160009054906101000a900473ffffffffffffffffffffffffffffffffffffffff1673ffffffffffffffffffffffffffffffffffffffff1681526020019060010190808311612b09575b5050505050905060008151905060008167ffffffffffffffff811115612b7c57612b7b615728565b5b604051908082528060200260200182016040528015612bb557816020015b612ba261469a565b815260200190600190039081612b9a5790505b50905060005b82811015612ccd57600760008781526020019081526020016000206000858381518110612beb57612bea615757565b5b602002602001015173ffffffffffffffffffffffffffffffffffffffff1673ffffffffffffffffffffffffffffffffffffffff1681526020019081526020016000206040518060600160405290816000820160009054906101000a900473ffffffffffffffffffffffffffffffffffffffff1673ffffffffffffffffffffffffffffffffffffffff1673ffffffffffffffffffffffffffffffffffffffff16815260200160018201548152602001600282015481525050828281518110612cb557612cb4615757565b5b60200260200101819052508080600101915050612bbb565b50809350505050919050565b806004600082815260200190815260200160002060060160009054906101000a900460ff16612d3d576040517f08c379a0000000000000000000000000000000000000000000000000000000008152600401612d34906154fe565b60405180910390fd5b6004600082815260200190815260200160002060050154421015612d96576040517f08c379a0000000000000000000000000000000000000000000000000000000008152600401612d8d906157d2565b60405180910390fd5b612d9e614167565b612da66141ad565b6000600460008481526020019081526020016000209050600073ffffffffffffffffffffffffffffffffffffffff168160030160009054906101000a900473ffffffffffffffffffffffffffffffffffffffff1673ffffffffffffffffffffffffffffffffffffffff1603612e50576040517f08c379a0000000000000000000000000000000000000000000000000000000008152600401612e479061583e565b60405180910390fd5b600060648260020154612e63919061588d565b90506000818360020154612e779190615152565b9050600260009054906101000a900473ffffffffffffffffffffffffffffffffffffffff1673ffffffffffffffffffffffffffffffffffffffff166342842e0e8460000160009054906101000a900473ffffffffffffffffffffffffffffffffffffffff168560030160009054906101000a900473ffffffffffffffffffffffffffffffffffffffff16886040518463ffffffff1660e01b8152600401612f20939291906150ec565b600060405180830381600087803b158015612f3a57600080fd5b505af1158015612f4e573d6000803e3d6000fd5b5050505060008360000160009054906101000a900473ffffffffffffffffffffffffffffffffffffffff1673ffffffffffffffffffffffffffffffffffffffff1682604051612f9c90614efe565b60006040518083038185875af1925050503d8060008114612fd9576040519150601f19603f3d011682016040523d82523d6000602084013e612fde565b606091505b5050905080613022576040517f08c379a000000000000000000000000000000000000000000000000000000000815260040161301990614f5f565b60405180910390fd5b60003373ffffffffffffffffffffffffffffffffffffffff168460405161304890614efe565b60006040518083038185875af1925050503d8060008114613085576040519150601f19603f3d011682016040523d82523d6000602084013e61308a565b606091505b50509050806130ce576040517f08c379a00000000000000000000000000000000000000000000000000000000081526004016130c590614f5f565b60405180910390fd5b6130d7876142e2565b867fd2aa34a4fdbbc6dff6a3e56f46e0f3ae2a31d7785ff3487aa5c95c642acea5018660030160009054906101000a900473ffffffffffffffffffffffffffffffffffffffff168760020154604051613131929190614f7f565b60405180910390a260046000888152602001908152602001600020600080820160006101000a81549073ffffffffffffffffffffffffffffffffffffffff0219169055600182016000905560028201600090556003820160006101000a81549073ffffffffffffffffffffffffffffffffffffffff0219169055600482016000905560058201600090556006820160006101000a81549060ff0219169055505050505050506131de6141ee565b5050565b6007602052816000526040600020602052806000526040600020600091509150508060000160009054906101000a900473ffffffffffffffffffffffffffffffffffffffff16908060010154908060020154905083565b833373ffffffffffffffffffffffffffffffffffffffff16600260009054906101000a900473ffffffffffffffffffffffffffffffffffffffff1673ffffffffffffffffffffffffffffffffffffffff16636352211e836040518263ffffffff1660e01b81526004016132ac9190614933565b602060405180830381865afa1580156132c9573d6000803e3d6000fd5b505050506040513d601f19601f820116820180604052508101906132ed919061519b565b73ffffffffffffffffffffffffffffffffffffffff1614613343576040517f08c379a000000000000000000000000000000000000000000000000000000000815260040161333a90615214565b60405180910390fd5b61334b614167565b6133536141ad565b3073ffffffffffffffffffffffffffffffffffffffff16600260009054906101000a900473ffffffffffffffffffffffffffffffffffffffff1673ffffffffffffffffffffffffffffffffffffffff1663081812fc876040518263ffffffff1660e01b81526004016133c59190614933565b602060405180830381865afa1580156133e2573d6000803e3d6000fd5b505050506040513d601f19601f82011682018060405250810190613406919061519b565b73ffffffffffffffffffffffffffffffffffffffff1614806134c25750600260009054906101000a900473ffffffffffffffffffffffffffffffffffffffff1673ffffffffffffffffffffffffffffffffffffffff1663e985e9c533306040518363ffffffff1660e01b815260040161348092919061530c565b602060405180830381865afa15801561349d573d6000803e3d6000fd5b505050506040513d601f19601f820116820180604052508101906134c19190615361565b5b613501576040517f08c379a00000000000000000000000000000000000000000000000000000000081526004016134f890615400565b60405180910390fd5b828411613543576040517f08c379a000000000000000000000000000000000000000000000000000000000815260040161353a90615930565b60405180910390fd5b60008211613586576040517f08c379a000000000000000000000000000000000000000000000000000000000815260040161357d906159c2565b60405180910390fd5b6003600086815260200190815260200160002060030160009054906101000a900460ff161580156135d857506004600086815260200190815260200160002060060160009054906101000a900460ff16155b613617576040517f08c379a000000000000000000000000000000000000000000000000000000000815260040161360e90615a54565b60405180910390fd5b6000824261362591906155f6565b90506040518060c001604052803373ffffffffffffffffffffffffffffffffffffffff168152602001868152602001858152602001428152602001828152602001600115158152506005600088815260200190815260200160002060008201518160000160006101000a81548173ffffffffffffffffffffffffffffffffffffffff021916908373ffffffffffffffffffffffffffffffffffffffff1602179055506020820151816001015560408201518160020155606082015181600301556080820151816004015560a08201518160050160006101000a81548160ff021916908315150217905550905050857f268ac48f716356a00742974050591a9f3d88ed4669568f578935c957cdb5d520338787856040516137489493929190615a74565b60405180910390a2506137596141ee565b5050505050565b613768614167565b6137706141ad565b60006007600083815260200190815260200160002060003373ffffffffffffffffffffffffffffffffffffffff1673ffffffffffffffffffffffffffffffffffffffff1681526020019081526020016000206040518060600160405290816000820160009054906101000a900473ffffffffffffffffffffffffffffffffffffffff1673ffffffffffffffffffffffffffffffffffffffff1673ffffffffffffffffffffffffffffffffffffffff1681526020016001820154815260200160028201548152505090506000816020015111613880576040517f08c379a000000000000000000000000000000000000000000000000000000000815260040161387790615b05565b60405180910390fd5b6000816020015190506007600084815260200190815260200160002060003373ffffffffffffffffffffffffffffffffffffffff1673ffffffffffffffffffffffffffffffffffffffff168152602001908152602001600020600080820160006101000a81549073ffffffffffffffffffffffffffffffffffffffff0219169055600182016000905560028201600090555050600060086000858152602001908152602001600020905060005b8180549050811015613aaa573373ffffffffffffffffffffffffffffffffffffffff1682828154811061396357613962615757565b5b9060005260206000200160009054906101000a900473ffffffffffffffffffffffffffffffffffffffff1673ffffffffffffffffffffffffffffffffffffffff1603613a9d5781600183805490506139bb9190615152565b815481106139cc576139cb615757565b5b9060005260206000200160009054906101000a900473ffffffffffffffffffffffffffffffffffffffff16828281548110613a0a57613a09615757565b5b9060005260206000200160006101000a81548173ffffffffffffffffffffffffffffffffffffffff021916908373ffffffffffffffffffffffffffffffffffffffff16021790555081805480613a6357613a62615b25565b5b6001900381819060005260206000200160006101000a81549073ffffffffffffffffffffffffffffffffffffffff02191690559055613aaa565b808060010191505061392d565b5060003373ffffffffffffffffffffffffffffffffffffffff1683604051613ad190614efe565b60006040518083038185875af1925050503d8060008114613b0e576040519150601f19603f3d011682016040523d82523d6000602084013e613b13565b606091505b5050905080613b57576040517f08c379a0000000000000000000000000000000000000000000000000000000008152600401613b4e90614f5f565b60405180910390fd5b3373ffffffffffffffffffffffffffffffffffffffff16857f1f51377b3e685a0e2419f9bb4ba7c07ec54936353ba3d0fb3c6538dab676622260405160405180910390a350505050613ba76141ee565b50565b60056020528060005260406000206000915090508060000160009054906101000a900473ffffffffffffffffffffffffffffffffffffffff16908060010154908060020154908060030154908060040154908060050160009054906101000a900460ff16905086565b613c1b6141f8565b600073ffffffffffffffffffffffffffffffffffffffff168173ffffffffffffffffffffffffffffffffffffffff1603613c8d5760006040517f1e4fbdf7000000000000000000000000000000000000000000000000000000008152600401613c8491906147f8565b60405180910390fd5b613c968161452d565b50565b60006005600084815260200190815260200160002090508060050160009054906101000a900460ff16613d01576040517f08c379a0000000000000000000000000000000000000000000000000000000008152600401613cf890615708565b60405180910390fd5b603c42613d0e91906155f6565b821115613d50576040517f08c379a0000000000000000000000000000000000000000000000000000000008152600401613d4790615ba0565b60405180910390fd5b8060040154821115613d97576040517f08c379a0000000000000000000000000000000000000000000000000000000008152600401613d8e90615c0c565b60405180910390fd5b8060030154821015613dde576040517f08c379a0000000000000000000000000000000000000000000000000000000008152600401613dd590615c78565b60405180910390fd5b6000816003015483613df09190615152565b9050600082600301548360040154613e089190615152565b9050600083600201548460010154613e209190615152565b90506000808314613e315782613e34565b60015b90506000818584613e459190615c98565b613e4f919061588d565b8660010154613e5e9190615152565b905085600401548710613e7357856002015490505b80341015613eb6576040517f08c379a0000000000000000000000000000000000000000000000000000000008152600401613ead90615060565b60405180910390fd5b60008660050160006101000a81548160ff021916908315150217905550600260009054906101000a900473ffffffffffffffffffffffffffffffffffffffff1673ffffffffffffffffffffffffffffffffffffffff166342842e0e8760000160009054906101000a900473ffffffffffffffffffffffffffffffffffffffff16338b6040518463ffffffff1660e01b8152600401613f56939291906150ec565b600060405180830381600087803b158015613f7057600080fd5b505af1158015613f84573d6000803e3d6000fd5b5050505060008660000160009054906101000a900473ffffffffffffffffffffffffffffffffffffffff1673ffffffffffffffffffffffffffffffffffffffff1682604051613fd290614efe565b60006040518083038185875af1925050503d806000811461400f576040519150601f19603f3d011682016040523d82523d6000602084013e614014565b606091505b5050905080614058576040517f08c379a000000000000000000000000000000000000000000000000000000000815260040161404f90614f5f565b60405180910390fd5b813411156141195760003373ffffffffffffffffffffffffffffffffffffffff1683346140859190615152565b60405161409190614efe565b60006040518083038185875af1925050503d80600081146140ce576040519150601f19603f3d011682016040523d82523d6000602084013e6140d3565b606091505b5050905080614117576040517f08c379a000000000000000000000000000000000000000000000000000000000815260040161410e90614f5f565b60405180910390fd5b505b614122896142e2565b887f3a9978b6624f6cb440b3a1e29c588ca8aab0251c3b4d7f9202a1c1fb01ab2c4e3384604051614154929190614f7f565b60405180910390a2505050505050505050565b6002600054036141a3576040517f3ee5aeb500000000000000000000000000000000000000000000000000000000815260040160405180910390fd5b6002600081905550565b6141b561114d565b156141ec576040517fd93c066500000000000000000000000000000000000000000000000000000000815260040160405180910390fd5b565b6001600081905550565b614200614652565b73ffffffffffffffffffffffffffffffffffffffff1661421e611182565b73ffffffffffffffffffffffffffffffffffffffff161461427d57614241614652565b6040517f118cdaa700000000000000000000000000000000000000000000000000000000815260040161427491906147f8565b60405180910390fd5b565b61428761465a565b6000600160006101000a81548160ff0219169083151502179055507f5db9ee0a495bf2e6ff9c91a7834c1ba4fdd244a5e8aa4e537bd38aeae4b073aa6142cb614652565b6040516142d891906147f8565b60405180910390a1565b600060086000838152602001908152602001600020905060005b81805490508110156144f257600082828154811061431d5761431c615757565b5b9060005260206000200160009054906101000a900473ffffffffffffffffffffffffffffffffffffffff16905060006007600086815260200190815260200160002060008373ffffffffffffffffffffffffffffffffffffffff1673ffffffffffffffffffffffffffffffffffffffff16815260200190815260200160002060010154905060008111156144e3576007600086815260200190815260200160002060008373ffffffffffffffffffffffffffffffffffffffff1673ffffffffffffffffffffffffffffffffffffffff168152602001908152602001600020600080820160006101000a81549073ffffffffffffffffffffffffffffffffffffffff021916905560018201600090556002820160009055505060008273ffffffffffffffffffffffffffffffffffffffff168260405161445b90614efe565b60006040518083038185875af1925050503d8060008114614498576040519150601f19603f3d011682016040523d82523d6000602084013e61449d565b606091505b50509050806144e1576040517f08c379a00000000000000000000000000000000000000000000000000000000081526004016144d890614f5f565b60405180910390fd5b505b505080806001019150506142fc565b5060086000838152602001908152602001600020600061451291906146d1565b5050565b6000600160009054906101000a900460ff16905090565b600060018054906101000a900473ffffffffffffffffffffffffffffffffffffffff169050816001806101000a81548173ffffffffffffffffffffffffffffffffffffffff021916908373ffffffffffffffffffffffffffffffffffffffff1602179055508173ffffffffffffffffffffffffffffffffffffffff168173ffffffffffffffffffffffffffffffffffffffff167f8be0079c531659141344cd1fd0a4f28419497f9722a3daafe3b4186f6b6457e060405160405180910390a35050565b6145f86141ad565b60018060006101000a81548160ff0219169083151502179055507f62e78cea01bee320cd4e420270b5ea74000d11b0c9f74754ebdbfc544b05a25861463b614652565b60405161464891906147f8565b60405180910390a1565b600033905090565b61466261114d565b614698576040517f8dfc202b00000000000000000000000000000000000000000000000000000000815260040160405180910390fd5b565b6040518060600160405280600073ffffffffffffffffffffffffffffffffffffffff16815260200160008152602001600081525090565b50805460008255906000526020600020908101906146ef91906146f2565b50565b5b8082111561470b5760008160009055506001016146f3565b5090565b600080fd5b6000819050919050565b61472781614714565b811461473257600080fd5b50565b6000813590506147448161471e565b92915050565b600080604083850312156147615761476061470f565b5b600061476f85828601614735565b925050602061478085828601614735565b9150509250929050565b6000602082840312156147a05761479f61470f565b5b60006147ae84828501614735565b91505092915050565b600073ffffffffffffffffffffffffffffffffffffffff82169050919050565b60006147e2826147b7565b9050919050565b6147f2816147d7565b82525050565b600060208201905061480d60008301846147e9565b92915050565b61481c816147d7565b811461482757600080fd5b50565b60008135905061483981614813565b92915050565b600080604083850312156148565761485561470f565b5b600061486485828601614735565b92505060206148758582860161482a565b9150509250929050565b60008115159050919050565b6148948161487f565b82525050565b60006020820190506148af600083018461488b565b92915050565b6148be81614714565b82525050565b600060e0820190506148d9600083018a6147e9565b6148e660208301896148b5565b6148f360408301886148b5565b61490060608301876147e9565b61490d60808301866148b5565b61491a60a08301856148b5565b61492760c083018461488b565b98975050505050505050565b600060208201905061494860008301846148b5565b92915050565b6000806000606084860312156149675761496661470f565b5b600061497586828701614735565b935050602061498686828701614735565b925050604061499786828701614735565b9150509250925092565b6000819050919050565b60006149c66149c16149bc846147b7565b6149a1565b6147b7565b9050919050565b60006149d8826149ab565b9050919050565b60006149ea826149cd565b9050919050565b6149fa816149df565b82525050565b6000602082019050614a1560008301846149f1565b92915050565b6000608082019050614a3060008301876147e9565b614a3d60208301866148b5565b614a4a60408301856148b5565b614a57606083018461488b565b95945050505050565b600081519050919050565b600082825260208201905092915050565b6000819050602082019050919050565b614a95816147d7565b82525050565b614aa481614714565b82525050565b606082016000820151614ac06000850182614a8c565b506020820151614ad36020850182614a9b565b506040820151614ae66040850182614a9b565b50505050565b6000614af88383614aaa565b60608301905092915050565b6000602082019050919050565b6000614b1c82614a60565b614b268185614a6b565b9350614b3183614a7c565b8060005b83811015614b62578151614b498882614aec565b9750614b5483614b04565b925050600181019050614b35565b5085935050505092915050565b60006020820190508181036000830152614b898184614b11565b905092915050565b6000606082019050614ba660008301866147e9565b614bb360208301856148b5565b614bc060408301846148b5565b949350505050565b60008060008060808587031215614be257614be161470f565b5b6000614bf087828801614735565b9450506020614c0187828801614735565b9350506040614c1287828801614735565b9250506060614c2387828801614735565b91505092959194509250565b600060c082019050614c4460008301896147e9565b614c5160208301886148b5565b614c5e60408301876148b5565b614c6b60608301866148b5565b614c7860808301856148b5565b614c8560a083018461488b565b979650505050505050565b600060208284031215614ca657614ca561470f565b5b6000614cb48482850161482a565b91505092915050565b600082825260208201905092915050565b7f4f6666657220616d6f756e74206d75737420626520677265617465722074686160008201527f6e207a65726f0000000000000000000000000000000000000000000000000000602082015250565b6000614d2a602683614cbd565b9150614d3582614cce565b604082019050919050565b60006020820190508181036000830152614d5981614d1d565b9050919050565b7f45787069726174696f6e206d75737420626520696e2074686520667574757265600082015250565b6000614d96602083614cbd565b9150614da182614d60565b602082019050919050565b60006020820190508181036000830152614dc581614d89565b9050919050565b7f596f7520616c7265616479206861766520616e20616374697665206f66666572600082015250565b6000614e02602083614cbd565b9150614e0d82614dcc565b602082019050919050565b60006020820190508181036000830152614e3181614df5565b9050919050565b6000604082019050614e4d60008301856148b5565b614e5a60208301846148b5565b9392505050565b7f4e6f2066756e647320746f207769746864726177000000000000000000000000600082015250565b6000614e97601483614cbd565b9150614ea282614e61565b602082019050919050565b60006020820190508181036000830152614ec681614e8a565b9050919050565b600081905092915050565b50565b6000614ee8600083614ecd565b9150614ef382614ed8565b600082019050919050565b6000614f0982614edb565b9150819050919050565b7f455448207472616e73666572206661696c656400000000000000000000000000600082015250565b6000614f49601383614cbd565b9150614f5482614f13565b602082019050919050565b60006020820190508181036000830152614f7881614f3c565b9050919050565b6000604082019050614f9460008301856147e9565b614fa160208301846148b5565b9392505050565b7f4e4654206973206e6f74206c697374656420666f722073616c65000000000000600082015250565b6000614fde601a83614cbd565b9150614fe982614fa8565b602082019050919050565b6000602082019050818103600083015261500d81614fd1565b9050919050565b7f496e73756666696369656e742066756e64730000000000000000000000000000600082015250565b600061504a601283614cbd565b915061505582615014565b602082019050919050565b600060208201905081810360008301526150798161503d565b9050919050565b7f4c697374696e6720686173206578706972656400000000000000000000000000600082015250565b60006150b6601383614cbd565b91506150c182615080565b602082019050919050565b600060208201905081810360008301526150e5816150a9565b9050919050565b600060608201905061510160008301866147e9565b61510e60208301856147e9565b61511b60408301846148b5565b949350505050565b7f4e487b7100000000000000000000000000000000000000000000000000000000600052601160045260246000fd5b600061515d82614714565b915061516883614714565b92508282039050818111156151805761517f615123565b5b92915050565b60008151905061519581614813565b92915050565b6000602082840312156151b1576151b061470f565b5b60006151bf84828501615186565b91505092915050565b7f4e6f7420746f6b656e206f776e65720000000000000000000000000000000000600082015250565b60006151fe600f83614cbd565b9150615209826151c8565b602082019050919050565b6000602082019050818103600083015261522d816151f1565b9050919050565b7f4e6f2076616c6964206f66666572000000000000000000000000000000000000600082015250565b600061526a600e83614cbd565b915061527582615234565b602082019050919050565b600060208201905081810360008301526152998161525d565b9050919050565b7f4f66666572206578706972656400000000000000000000000000000000000000600082015250565b60006152d6600d83614cbd565b91506152e1826152a0565b602082019050919050565b60006020820190508181036000830152615305816152c9565b9050919050565b600060408201905061532160008301856147e9565b61532e60208301846147e9565b9392505050565b61533e8161487f565b811461534957600080fd5b50565b60008151905061535b81615335565b92915050565b6000602082840312156153775761537661470f565b5b60006153858482850161534c565b91505092915050565b7f4d61726b6574706c616365206e6f7420617070726f76656420746f206d616e6160008201527f67652074686973204e4654000000000000000000000000000000000000000000602082015250565b60006153ea602b83614cbd565b91506153f58261538e565b604082019050919050565b60006020820190508181036000830152615419816153dd565b9050919050565b7f43616e6e6f742073746172742061756374696f6e3a204e4654206973206c697360008201527f746564206f7220696e2044757463682061756374696f6e000000000000000000602082015250565b600061547c603783614cbd565b915061548782615420565b604082019050919050565b600060208201905081810360008301526154ab8161546f565b9050919050565b7f41756374696f6e206973206e6f74206163746976650000000000000000000000600082015250565b60006154e8601583614cbd565b91506154f3826154b2565b602082019050919050565b60006020820190508181036000830152615517816154db565b9050919050565b7f41756374696f6e20656e64656400000000000000000000000000000000000000600082015250565b6000615554600d83614cbd565b915061555f8261551e565b602082019050919050565b6000602082019050818103600083015261558381615547565b9050919050565b7f42696420746f6f206c6f77000000000000000000000000000000000000000000600082015250565b60006155c0600b83614cbd565b91506155cb8261558a565b602082019050919050565b600060208201905081810360008301526155ef816155b3565b9050919050565b600061560182614714565b915061560c83614714565b925082820190508082111561562457615623615123565b5b92915050565b7f43616e6e6f74206c69737420647572696e6720616e206163746976652061756360008201527f74696f6e00000000000000000000000000000000000000000000000000000000602082015250565b6000615686602483614cbd565b91506156918261562a565b604082019050919050565b600060208201905081810360008301526156b581615679565b9050919050565b7f44757463682061756374696f6e206e6f74206163746976650000000000000000600082015250565b60006156f2601883614cbd565b91506156fd826156bc565b602082019050919050565b60006020820190508181036000830152615721816156e5565b9050919050565b7f4e487b7100000000000000000000000000000000000000000000000000000000600052604160045260246000fd5b7f4e487b7100000000000000000000000000000000000000000000000000000000600052603260045260246000fd5b7f41756374696f6e206973207374696c6c206f6e676f696e670000000000000000600082015250565b60006157bc601883614cbd565b91506157c782615786565b602082019050919050565b600060208201905081810360008301526157eb816157af565b9050919050565b7f4e6f206269647320706c61636564000000000000000000000000000000000000600082015250565b6000615828600e83614cbd565b9150615833826157f2565b602082019050919050565b600060208201905081810360008301526158578161581b565b9050919050565b7f4e487b7100000000000000000000000000000000000000000000000000000000600052601260045260246000fd5b600061589882614714565b91506158a383614714565b9250826158b3576158b261585e565b5b828204905092915050565b7f5374617274207072696365206d7573742062652067726561746572207468616e60008201527f20656e6420707269636500000000000000000000000000000000000000000000602082015250565b600061591a602a83614cbd565b9150615925826158be565b604082019050919050565b600060208201905081810360008301526159498161590d565b9050919050565b7f4475726174696f6e206d7573742062652067726561746572207468616e207a6560008201527f726f000000000000000000000000000000000000000000000000000000000000602082015250565b60006159ac602283614cbd565b91506159b782615950565b604082019050919050565b600060208201905081810360008301526159db8161599f565b9050919050565b7f43616e6e6f742073746172742044757463682061756374696f6e3a204e46542060008201527f6973206c6973746564206f7220696e20726567756c61722061756374696f6e00602082015250565b6000615a3e603f83614cbd565b9150615a49826159e2565b604082019050919050565b60006020820190508181036000830152615a6d81615a31565b9050919050565b6000608082019050615a8960008301876147e9565b615a9660208301866148b5565b615aa360408301856148b5565b615ab060608301846148b5565b95945050505050565b7f4e6f206f6666657220746f2063616e63656c0000000000000000000000000000600082015250565b6000615aef601283614cbd565b9150615afa82615ab9565b602082019050919050565b60006020820190508181036000830152615b1e81615ae2565b9050919050565b7f4e487b7100000000000000000000000000000000000000000000000000000000600052603160045260246000fd5b7f54696d657374616d7020746f6f2066617220696e207468652066757475726500600082015250565b6000615b8a601f83614cbd565b9150615b9582615b54565b602082019050919050565b60006020820190508181036000830152615bb981615b7d565b9050919050565b7f41756374696f6e20657870697265640000000000000000000000000000000000600082015250565b6000615bf6600f83614cbd565b9150615c0182615bc0565b602082019050919050565b60006020820190508181036000830152615c2581615be9565b9050919050565b7f41756374696f6e206e6f74207374617274656400000000000000000000000000600082015250565b6000615c62601383614cbd565b9150615c6d82615c2c565b602082019050919050565b60006020820190508181036000830152615c9181615c55565b9050919050565b6000615ca382614714565b9150615cae83614714565b9250828202615cbc81614714565b91508282048414831517615cd357615cd2615123565b5b509291505056fea2646970667358221220e822e7c5f8712bc346d3f8faa515e4c12952f77679996b79295c1128df25554f64736f6c634300081c0033",
  "linkReferences": {},
  "deployedLinkReferences": {}
}