{
  "_format": "hh-sol-artifact-1",
  "contractName": "TradingContract",
  "sourceName": "contracts/TradingContract.sol",
  "abi": [
    {
      "inputs": [
        {
          "internalType": "address",
          "name": "_nftContract",
          "type": "address"
        }
      ],
      "stateMutability": "nonpayable",
      "type": "constructor"
    },
    {
      "anonymous": false,
      "inputs": [
        {
          "indexed": true,
          "internalType": "uint256",
          "name": "tokenId",
          "type": "uint256"
        },
        {
          "indexed": false,
          "internalType": "address",
          "name": "winner",
          "type": "address"
        },
        {
          "indexed": false,
          "internalType": "uint256",
          "name": "amount",
          "type": "uint256"
        }
      ],
      "name": "AuctionEnded",
      "type": "event"
    },
    {
      "anonymous": false,
      "inputs": [
        {
          "indexed": true,
          "internalType": "uint256",
          "name": "tokenId",
          "type": "uint256"
        },
        {
          "indexed": false,
          "internalType": "address",
          "name": "seller",
          "type": "address"
        },
        {
          "indexed": false,
          "internalType": "uint256",
          "name": "startingPrice",
          "type": "uint256"
        },
        {
          "indexed": false,
          "internalType": "uint256",
          "name": "endTime",
          "type": "uint256"
        }
      ],
      "name": "AuctionStarted",
      "type": "event"
    },
    {
      "anonymous": false,
      "inputs": [
        {
          "indexed": true,
          "internalType": "uint256",
          "name": "tokenId",
          "type": "uint256"
        },
        {
          "indexed": false,
          "internalType": "address",
          "name": "bidder",
          "type": "address"
        },
        {
          "indexed": false,
          "internalType": "uint256",
          "name": "amount",
          "type": "uint256"
        }
      ],
      "name": "BidWithdrawn",
      "type": "event"
    },
    {
      "anonymous": false,
      "inputs": [
        {
          "indexed": true,
          "internalType": "uint256",
          "name": "tokenId",
          "type": "uint256"
        },
        {
          "indexed": false,
          "internalType": "address",
          "name": "seller",
          "type": "address"
        }
      ],
      "name": "NFTDelisted",
      "type": "event"
    },
    {
      "anonymous": false,
      "inputs": [
        {
          "indexed": true,
          "internalType": "uint256",
          "name": "tokenId",
          "type": "uint256"
        },
        {
          "indexed": false,
          "internalType": "address",
          "name": "seller",
          "type": "address"
        },
        {
          "indexed": false,
          "internalType": "uint256",
          "name": "price",
          "type": "uint256"
        }
      ],
      "name": "NFTListed",
      "type": "event"
    },
    {
      "anonymous": false,
      "inputs": [
        {
          "indexed": true,
          "internalType": "uint256",
          "name": "tokenId",
          "type": "uint256"
        },
        {
          "indexed": false,
          "internalType": "address",
          "name": "buyer",
          "type": "address"
        },
        {
          "indexed": false,
          "internalType": "uint256",
          "name": "price",
          "type": "uint256"
        }
      ],
      "name": "NFTSold",
      "type": "event"
    },
    {
      "anonymous": false,
      "inputs": [
        {
          "indexed": true,
          "internalType": "uint256",
          "name": "tokenId",
          "type": "uint256"
        },
        {
          "indexed": false,
          "internalType": "address",
          "name": "bidder",
          "type": "address"
        },
        {
          "indexed": false,
          "internalType": "uint256",
          "name": "amount",
          "type": "uint256"
        }
      ],
      "name": "NewBid",
      "type": "event"
    },
    {
      "inputs": [
        {
          "internalType": "uint256",
          "name": "",
          "type": "uint256"
        }
      ],
      "name": "auctions",
      "outputs": [
        {
          "internalType": "address",
          "name": "seller",
          "type": "address"
        },
        {
          "internalType": "uint256",
          "name": "startingPrice",
          "type": "uint256"
        },
        {
          "internalType": "uint256",
          "name": "highestBid",
          "type": "uint256"
        },
        {
          "internalType": "address",
          "name": "highestBidder",
          "type": "address"
        },
        {
          "internalType": "uint256",
          "name": "endTime",
          "type": "uint256"
        },
        {
          "internalType": "bool",
          "name": "isActive",
          "type": "bool"
        }
      ],
      "stateMutability": "view",
      "type": "function"
    },
    {
      "inputs": [
        {
          "internalType": "uint256",
          "name": "tokenId",
          "type": "uint256"
        }
      ],
      "name": "buyNFT",
      "outputs": [],
      "stateMutability": "payable",
      "type": "function"
    },
    {
      "inputs": [
        {
          "internalType": "uint256",
          "name": "tokenId",
          "type": "uint256"
        }
      ],
      "name": "cancelAuction",
      "outputs": [],
      "stateMutability": "nonpayable",
      "type": "function"
    },
    {
      "inputs": [
        {
          "internalType": "uint256",
          "name": "tokenId",
          "type": "uint256"
        }
      ],
      "name": "delistNFT",
      "outputs": [],
      "stateMutability": "nonpayable",
      "type": "function"
    },
    {
      "inputs": [
        {
          "internalType": "uint256",
          "name": "tokenId",
          "type": "uint256"
        }
      ],
      "name": "finalizeAuction",
      "outputs": [],
      "stateMutability": "nonpayable",
      "type": "function"
    },
    {
      "inputs": [
        {
          "internalType": "uint256",
          "name": "tokenId",
          "type": "uint256"
        }
      ],
      "name": "getAuctionDetails",
      "outputs": [
        {
          "components": [
            {
              "internalType": "address",
              "name": "seller",
              "type": "address"
            },
            {
              "internalType": "uint256",
              "name": "startingPrice",
              "type": "uint256"
            },
            {
              "internalType": "uint256",
              "name": "highestBid",
              "type": "uint256"
            },
            {
              "internalType": "address",
              "name": "highestBidder",
              "type": "address"
            },
            {
              "internalType": "uint256",
              "name": "endTime",
              "type": "uint256"
            },
            {
              "internalType": "bool",
              "name": "isActive",
              "type": "bool"
            }
          ],
          "internalType": "struct TradingContract.Auction",
          "name": "",
          "type": "tuple"
        }
      ],
      "stateMutability": "view",
      "type": "function"
    },
    {
      "inputs": [
        {
          "internalType": "uint256",
          "name": "tokenId",
          "type": "uint256"
        },
        {
          "internalType": "uint256",
          "name": "price",
          "type": "uint256"
        },
        {
          "internalType": "uint256",
          "name": "expiration",
          "type": "uint256"
        }
      ],
      "name": "listNFT",
      "outputs": [],
      "stateMutability": "nonpayable",
      "type": "function"
    },
    {
      "inputs": [
        {
          "internalType": "uint256",
          "name": "",
          "type": "uint256"
        }
      ],
      "name": "listings",
      "outputs": [
        {
          "internalType": "address",
          "name": "seller",
          "type": "address"
        },
        {
          "internalType": "uint256",
          "name": "price",
          "type": "uint256"
        },
        {
          "internalType": "uint256",
          "name": "expiration",
          "type": "uint256"
        },
        {
          "internalType": "bool",
          "name": "isActive",
          "type": "bool"
        }
      ],
      "stateMutability": "view",
      "type": "function"
    },
    {
      "inputs": [],
      "name": "nftContract",
      "outputs": [
        {
          "internalType": "contract ERC721",
          "name": "",
          "type": "address"
        }
      ],
      "stateMutability": "view",
      "type": "function"
    },
    {
      "inputs": [],
      "name": "owner",
      "outputs": [
        {
          "internalType": "address",
          "name": "",
          "type": "address"
        }
      ],
      "stateMutability": "view",
      "type": "function"
    },
    {
      "inputs": [
        {
          "internalType": "uint256",
          "name": "",
          "type": "uint256"
        },
        {
          "internalType": "address",
          "name": "",
          "type": "address"
        }
      ],
      "name": "pendingReturns",
      "outputs": [
        {
          "internalType": "uint256",
          "name": "",
          "type": "uint256"
        }
      ],
      "stateMutability": "view",
      "type": "function"
    },
    {
      "inputs": [
        {
          "internalType": "uint256",
          "name": "tokenId",
          "type": "uint256"
        }
      ],
      "name": "placeBid",
      "outputs": [],
      "stateMutability": "payable",
      "type": "function"
    },
    {
      "inputs": [
        {
          "internalType": "uint256",
          "name": "tokenId",
          "type": "uint256"
        },
        {
          "internalType": "uint256",
          "name": "startingPrice",
          "type": "uint256"
        },
        {
          "internalType": "uint256",
          "name": "duration",
          "type": "uint256"
        }
      ],
      "name": "startAuction",
      "outputs": [],
      "stateMutability": "nonpayable",
      "type": "function"
    },
    {
      "inputs": [
        {
          "internalType": "uint256",
          "name": "tokenId",
          "type": "uint256"
        }
      ],
      "name": "withdrawBid",
      "outputs": [],
      "stateMutability": "nonpayable",
      "type": "function"
    }
  ],
  "bytecode": "0x608060405234801561001057600080fd5b50604051612a79380380612a798339818101604052810190610032919061011c565b806000806101000a81548173ffffffffffffffffffffffffffffffffffffffff021916908373ffffffffffffffffffffffffffffffffffffffff16021790555033600160006101000a81548173ffffffffffffffffffffffffffffffffffffffff021916908373ffffffffffffffffffffffffffffffffffffffff16021790555050610149565b600080fd5b600073ffffffffffffffffffffffffffffffffffffffff82169050919050565b60006100e9826100be565b9050919050565b6100f9816100de565b811461010457600080fd5b50565b600081519050610116816100f0565b92915050565b600060208284031215610132576101316100b9565b5b600061014084828501610107565b91505092915050565b612921806101586000396000f3fe6080604052600436106100dd5760003560e01c80639979ef451161007f578063d56d229d11610059578063d56d229d14610291578063de74e57b146102bc578063e8083863146102fc578063f20e5e3514610325576100dd565b80639979ef4514610223578063b0136c8d1461023f578063cb917b9c14610268576100dd565b80638da5cb5b116100bb5780638da5cb5b146101695780638ddac1ef1461019457806391e078bb146101d157806396b5a755146101fa576100dd565b80630eaaf4c8146100e257806351ed82881461010b578063571a26a014610127575b600080fd5b3480156100ee57600080fd5b5061010960048036038101906101049190611e50565b610362565b005b61012560048036038101906101209190611e50565b6104d5565b005b34801561013357600080fd5b5061014e60048036038101906101499190611e50565b6107ec565b60405161016096959493929190611ee8565b60405180910390f35b34801561017557600080fd5b5061017e610875565b60405161018b9190611f49565b60405180910390f35b3480156101a057600080fd5b506101bb60048036038101906101b69190611f90565b61089b565b6040516101c89190611fd0565b60405180910390f35b3480156101dd57600080fd5b506101f860048036038101906101f39190611feb565b6108c0565b005b34801561020657600080fd5b50610221600480360381019061021c9190611e50565b610d0a565b005b61023d60048036038101906102389190611e50565b611030565b005b34801561024b57600080fd5b5061026660048036038101906102619190611feb565b611271565b005b34801561027457600080fd5b5061028f600480360381019061028a9190611e50565b611670565b005b34801561029d57600080fd5b506102a661187a565b6040516102b3919061209d565b60405180910390f35b3480156102c857600080fd5b506102e360048036038101906102de9190611e50565b61189e565b6040516102f394939291906120b8565b60405180910390f35b34801561030857600080fd5b50610323600480360381019061031e9190611e50565b6118fb565b005b34801561033157600080fd5b5061034c60048036038101906103479190611e50565b611c9f565b60405161035991906121a5565b60405180910390f35b60006004600083815260200190815260200160002060003373ffffffffffffffffffffffffffffffffffffffff1673ffffffffffffffffffffffffffffffffffffffff168152602001908152602001600020549050600081116103fa576040517f08c379a00000000000000000000000000000000000000000000000000000000081526004016103f19061221d565b60405180910390fd5b60006004600084815260200190815260200160002060003373ffffffffffffffffffffffffffffffffffffffff1673ffffffffffffffffffffffffffffffffffffffff168152602001908152602001600020819055503373ffffffffffffffffffffffffffffffffffffffff166108fc829081150290604051600060405180830381858888f19350505050158015610496573d6000803e3d6000fd5b50817f8f8619524e8d462cead34604bd2247ede24175801481e4d0b8059ac8aa41c30133836040516104c992919061223d565b60405180910390a25050565b806002600082815260200190815260200160002060030160009054906101000a900460ff16610539576040517f08c379a0000000000000000000000000000000000000000000000000000000008152600401610530906122b2565b60405180910390fd5b6000600260008481526020019081526020016000206040518060800160405290816000820160009054906101000a900473ffffffffffffffffffffffffffffffffffffffff1673ffffffffffffffffffffffffffffffffffffffff1673ffffffffffffffffffffffffffffffffffffffff16815260200160018201548152602001600282015481526020016003820160009054906101000a900460ff16151515158152505090508060200151341015610627576040517f08c379a000000000000000000000000000000000000000000000000000000000815260040161061e9061231e565b60405180910390fd5b806040015142111561066e576040517f08c379a00000000000000000000000000000000000000000000000000000000081526004016106659061238a565b60405180910390fd5b806000015173ffffffffffffffffffffffffffffffffffffffff166108fc349081150290604051600060405180830381858888f193505050501580156106b8573d6000803e3d6000fd5b5060008054906101000a900473ffffffffffffffffffffffffffffffffffffffff1673ffffffffffffffffffffffffffffffffffffffff166342842e0e826000015133866040518463ffffffff1660e01b815260040161071a939291906123aa565b600060405180830381600087803b15801561073457600080fd5b505af1158015610748573d6000803e3d6000fd5b5050505060026000848152602001908152602001600020600080820160006101000a81549073ffffffffffffffffffffffffffffffffffffffff0219169055600182016000905560028201600090556003820160006101000a81549060ff02191690555050827f6329e40c0365262ebbff5ca819385c2b9713dcaa050ed07866d72c441395699a33346040516107df92919061223d565b60405180910390a2505050565b60036020528060005260406000206000915090508060000160009054906101000a900473ffffffffffffffffffffffffffffffffffffffff16908060010154908060020154908060030160009054906101000a900473ffffffffffffffffffffffffffffffffffffffff16908060040154908060050160009054906101000a900460ff16905086565b600160009054906101000a900473ffffffffffffffffffffffffffffffffffffffff1681565b6004602052816000526040600020602052806000526040600020600091509150505481565b823373ffffffffffffffffffffffffffffffffffffffff1660008054906101000a900473ffffffffffffffffffffffffffffffffffffffff1673ffffffffffffffffffffffffffffffffffffffff16636352211e836040518263ffffffff1660e01b81526004016109319190611fd0565b602060405180830381865afa15801561094e573d6000803e3d6000fd5b505050506040513d601f19601f8201168201806040525081019061097291906123f6565b73ffffffffffffffffffffffffffffffffffffffff16146109c8576040517f08c379a00000000000000000000000000000000000000000000000000000000081526004016109bf9061246f565b60405180910390fd5b3073ffffffffffffffffffffffffffffffffffffffff1660008054906101000a900473ffffffffffffffffffffffffffffffffffffffff1673ffffffffffffffffffffffffffffffffffffffff1663081812fc866040518263ffffffff1660e01b8152600401610a389190611fd0565b602060405180830381865afa158015610a55573d6000803e3d6000fd5b505050506040513d601f19601f82011682018060405250810190610a7991906123f6565b73ffffffffffffffffffffffffffffffffffffffff161480610b33575060008054906101000a900473ffffffffffffffffffffffffffffffffffffffff1673ffffffffffffffffffffffffffffffffffffffff1663e985e9c533306040518363ffffffff1660e01b8152600401610af192919061248f565b602060405180830381865afa158015610b0e573d6000803e3d6000fd5b505050506040513d601f19601f82011682018060405250810190610b3291906124e4565b5b610b72576040517f08c379a0000000000000000000000000000000000000000000000000000000008152600401610b6990612583565b60405180910390fd5b6040518060c001604052803373ffffffffffffffffffffffffffffffffffffffff16815260200184815260200160008152602001600073ffffffffffffffffffffffffffffffffffffffff1681526020018342610bcf91906125d2565b8152602001600115158152506003600086815260200190815260200160002060008201518160000160006101000a81548173ffffffffffffffffffffffffffffffffffffffff021916908373ffffffffffffffffffffffffffffffffffffffff160217905550602082015181600101556040820151816002015560608201518160030160006101000a81548173ffffffffffffffffffffffffffffffffffffffff021916908373ffffffffffffffffffffffffffffffffffffffff1602179055506080820151816004015560a08201518160050160006101000a81548160ff021916908315150217905550905050837fbf6dc7bdf2f23af5a506fe03ee1221f47d023a2227fbc949c6b812ae44534e6d33858542610ced91906125d2565b604051610cfc93929190612606565b60405180910390a250505050565b803373ffffffffffffffffffffffffffffffffffffffff1660008054906101000a900473ffffffffffffffffffffffffffffffffffffffff1673ffffffffffffffffffffffffffffffffffffffff16636352211e836040518263ffffffff1660e01b8152600401610d7b9190611fd0565b602060405180830381865afa158015610d98573d6000803e3d6000fd5b505050506040513d601f19601f82011682018060405250810190610dbc91906123f6565b73ffffffffffffffffffffffffffffffffffffffff1614610e12576040517f08c379a0000000000000000000000000000000000000000000000000000000008152600401610e099061246f565b60405180910390fd5b816003600082815260200190815260200160002060050160009054906101000a900460ff16610e76576040517f08c379a0000000000000000000000000000000000000000000000000000000008152600401610e6d90612689565b60405180910390fd5b60036000828152602001908152602001600020600401544210610ece576040517f08c379a0000000000000000000000000000000000000000000000000000000008152600401610ec5906126f5565b60405180910390fd5b6000600360008581526020019081526020016000209050600081600201541115610f62578060030160009054906101000a900473ffffffffffffffffffffffffffffffffffffffff1673ffffffffffffffffffffffffffffffffffffffff166108fc82600201549081150290604051600060405180830381858888f19350505050158015610f60573d6000803e3d6000fd5b505b60036000858152602001908152602001600020600080820160006101000a81549073ffffffffffffffffffffffffffffffffffffffff0219169055600182016000905560028201600090556003820160006101000a81549073ffffffffffffffffffffffffffffffffffffffff021916905560048201600090556005820160006101000a81549060ff02191690555050837fef1499b350e05776e60cd2ffcac001569a28e9d574e1f3adc1b3ab264f8ccffd336040516110229190611f49565b60405180910390a250505050565b806003600082815260200190815260200160002060050160009054906101000a900460ff16611094576040517f08c379a000000000000000000000000000000000000000000000000000000000815260040161108b90612689565b60405180910390fd5b600360008281526020019081526020016000206004015442106110ec576040517f08c379a00000000000000000000000000000000000000000000000000000000081526004016110e3906126f5565b60405180910390fd5b600060036000848152602001908152602001600020905080600201543411611149576040517f08c379a000000000000000000000000000000000000000000000000000000000815260040161114090612787565b60405180910390fd5b6000816002015411156111e65780600201546004600085815260200190815260200160002060008360030160009054906101000a900473ffffffffffffffffffffffffffffffffffffffff1673ffffffffffffffffffffffffffffffffffffffff1673ffffffffffffffffffffffffffffffffffffffff16815260200190815260200160002060008282546111de91906125d2565b925050819055505b348160020181905550338160030160006101000a81548173ffffffffffffffffffffffffffffffffffffffff021916908373ffffffffffffffffffffffffffffffffffffffff160217905550827f558a0d5d5468d74b0db24c74eb348b42271c2ebb4c9e953ced38aaed95fa4361333460405161126492919061223d565b60405180910390a2505050565b823373ffffffffffffffffffffffffffffffffffffffff1660008054906101000a900473ffffffffffffffffffffffffffffffffffffffff1673ffffffffffffffffffffffffffffffffffffffff16636352211e836040518263ffffffff1660e01b81526004016112e29190611fd0565b602060405180830381865afa1580156112ff573d6000803e3d6000fd5b505050506040513d601f19601f8201168201806040525081019061132391906123f6565b73ffffffffffffffffffffffffffffffffffffffff1614611379576040517f08c379a00000000000000000000000000000000000000000000000000000000081526004016113709061246f565b60405180910390fd5b3073ffffffffffffffffffffffffffffffffffffffff1660008054906101000a900473ffffffffffffffffffffffffffffffffffffffff1673ffffffffffffffffffffffffffffffffffffffff1663081812fc866040518263ffffffff1660e01b81526004016113e99190611fd0565b602060405180830381865afa158015611406573d6000803e3d6000fd5b505050506040513d601f19601f8201168201806040525081019061142a91906123f6565b73ffffffffffffffffffffffffffffffffffffffff1614806114e4575060008054906101000a900473ffffffffffffffffffffffffffffffffffffffff1673ffffffffffffffffffffffffffffffffffffffff1663e985e9c533306040518363ffffffff1660e01b81526004016114a292919061248f565b602060405180830381865afa1580156114bf573d6000803e3d6000fd5b505050506040513d601f19601f820116820180604052508101906114e391906124e4565b5b611523576040517f08c379a000000000000000000000000000000000000000000000000000000000815260040161151a90612583565b60405180910390fd5b428211611565576040517f08c379a000000000000000000000000000000000000000000000000000000000815260040161155c906127f3565b60405180910390fd5b60405180608001604052803373ffffffffffffffffffffffffffffffffffffffff168152602001848152602001838152602001600115158152506002600086815260200190815260200160002060008201518160000160006101000a81548173ffffffffffffffffffffffffffffffffffffffff021916908373ffffffffffffffffffffffffffffffffffffffff160217905550602082015181600101556040820151816002015560608201518160030160006101000a81548160ff021916908315150217905550905050837f5f9c03de076f5063cd3ebcfe8ef7aa8af378e4b35a83c77ba9777e97083879a2338560405161166292919061223d565b60405180910390a250505050565b803373ffffffffffffffffffffffffffffffffffffffff1660008054906101000a900473ffffffffffffffffffffffffffffffffffffffff1673ffffffffffffffffffffffffffffffffffffffff16636352211e836040518263ffffffff1660e01b81526004016116e19190611fd0565b602060405180830381865afa1580156116fe573d6000803e3d6000fd5b505050506040513d601f19601f8201168201806040525081019061172291906123f6565b73ffffffffffffffffffffffffffffffffffffffff1614611778576040517f08c379a000000000000000000000000000000000000000000000000000000000815260040161176f9061246f565b60405180910390fd5b816002600082815260200190815260200160002060030160009054906101000a900460ff166117dc576040517f08c379a00000000000000000000000000000000000000000000000000000000081526004016117d3906122b2565b60405180910390fd5b60026000848152602001908152602001600020600080820160006101000a81549073ffffffffffffffffffffffffffffffffffffffff0219169055600182016000905560028201600090556003820160006101000a81549060ff02191690555050827fef1499b350e05776e60cd2ffcac001569a28e9d574e1f3adc1b3ab264f8ccffd3360405161186d9190611f49565b60405180910390a2505050565b60008054906101000a900473ffffffffffffffffffffffffffffffffffffffff1681565b60026020528060005260406000206000915090508060000160009054906101000a900473ffffffffffffffffffffffffffffffffffffffff16908060010154908060020154908060030160009054906101000a900460ff16905084565b806003600082815260200190815260200160002060050160009054906101000a900460ff1661195f576040517f08c379a000000000000000000000000000000000000000000000000000000000815260040161195690612689565b60405180910390fd5b60036000828152602001908152602001600020600401544210156119b8576040517f08c379a00000000000000000000000000000000000000000000000000000000081526004016119af9061285f565b60405180910390fd5b6000600360008481526020019081526020016000209050600073ffffffffffffffffffffffffffffffffffffffff168160030160009054906101000a900473ffffffffffffffffffffffffffffffffffffffff1673ffffffffffffffffffffffffffffffffffffffff1603611a62576040517f08c379a0000000000000000000000000000000000000000000000000000000008152600401611a59906128cb565b60405180910390fd5b60008054906101000a900473ffffffffffffffffffffffffffffffffffffffff1673ffffffffffffffffffffffffffffffffffffffff166342842e0e8260000160009054906101000a900473ffffffffffffffffffffffffffffffffffffffff168360030160009054906101000a900473ffffffffffffffffffffffffffffffffffffffff16866040518463ffffffff1660e01b8152600401611b07939291906123aa565b600060405180830381600087803b158015611b2157600080fd5b505af1158015611b35573d6000803e3d6000fd5b505050508060000160009054906101000a900473ffffffffffffffffffffffffffffffffffffffff1673ffffffffffffffffffffffffffffffffffffffff166108fc82600201549081150290604051600060405180830381858888f19350505050158015611ba7573d6000803e3d6000fd5b5060036000848152602001908152602001600020600080820160006101000a81549073ffffffffffffffffffffffffffffffffffffffff0219169055600182016000905560028201600090556003820160006101000a81549073ffffffffffffffffffffffffffffffffffffffff021916905560048201600090556005820160006101000a81549060ff02191690555050827fd2aa34a4fdbbc6dff6a3e56f46e0f3ae2a31d7785ff3487aa5c95c642acea5018260030160009054906101000a900473ffffffffffffffffffffffffffffffffffffffff168360020154604051611c9292919061223d565b60405180910390a2505050565b611ca7611db1565b600360008381526020019081526020016000206040518060c00160405290816000820160009054906101000a900473ffffffffffffffffffffffffffffffffffffffff1673ffffffffffffffffffffffffffffffffffffffff1673ffffffffffffffffffffffffffffffffffffffff16815260200160018201548152602001600282015481526020016003820160009054906101000a900473ffffffffffffffffffffffffffffffffffffffff1673ffffffffffffffffffffffffffffffffffffffff1673ffffffffffffffffffffffffffffffffffffffff168152602001600482015481526020016005820160009054906101000a900460ff1615151515815250509050919050565b6040518060c00160405280600073ffffffffffffffffffffffffffffffffffffffff1681526020016000815260200160008152602001600073ffffffffffffffffffffffffffffffffffffffff168152602001600081526020016000151581525090565b600080fd5b6000819050919050565b611e2d81611e1a565b8114611e3857600080fd5b50565b600081359050611e4a81611e24565b92915050565b600060208284031215611e6657611e65611e15565b5b6000611e7484828501611e3b565b91505092915050565b600073ffffffffffffffffffffffffffffffffffffffff82169050919050565b6000611ea882611e7d565b9050919050565b611eb881611e9d565b82525050565b611ec781611e1a565b82525050565b60008115159050919050565b611ee281611ecd565b82525050565b600060c082019050611efd6000830189611eaf565b611f0a6020830188611ebe565b611f176040830187611ebe565b611f246060830186611eaf565b611f316080830185611ebe565b611f3e60a0830184611ed9565b979650505050505050565b6000602082019050611f5e6000830184611eaf565b92915050565b611f6d81611e9d565b8114611f7857600080fd5b50565b600081359050611f8a81611f64565b92915050565b60008060408385031215611fa757611fa6611e15565b5b6000611fb585828601611e3b565b9250506020611fc685828601611f7b565b9150509250929050565b6000602082019050611fe56000830184611ebe565b92915050565b60008060006060848603121561200457612003611e15565b5b600061201286828701611e3b565b935050602061202386828701611e3b565b925050604061203486828701611e3b565b9150509250925092565b6000819050919050565b600061206361205e61205984611e7d565b61203e565b611e7d565b9050919050565b600061207582612048565b9050919050565b60006120878261206a565b9050919050565b6120978161207c565b82525050565b60006020820190506120b2600083018461208e565b92915050565b60006080820190506120cd6000830187611eaf565b6120da6020830186611ebe565b6120e76040830185611ebe565b6120f46060830184611ed9565b95945050505050565b61210681611e9d565b82525050565b61211581611e1a565b82525050565b61212481611ecd565b82525050565b60c08201600082015161214060008501826120fd565b506020820151612153602085018261210c565b506040820151612166604085018261210c565b50606082015161217960608501826120fd565b50608082015161218c608085018261210c565b5060a082015161219f60a085018261211b565b50505050565b600060c0820190506121ba600083018461212a565b92915050565b600082825260208201905092915050565b7f4e6f2066756e647320746f207769746864726177000000000000000000000000600082015250565b60006122076014836121c0565b9150612212826121d1565b602082019050919050565b60006020820190508181036000830152612236816121fa565b9050919050565b60006040820190506122526000830185611eaf565b61225f6020830184611ebe565b9392505050565b7f4e4654206973206e6f74206c697374656420666f722073616c65000000000000600082015250565b600061229c601a836121c0565b91506122a782612266565b602082019050919050565b600060208201905081810360008301526122cb8161228f565b9050919050565b7f496e73756666696369656e742066756e64730000000000000000000000000000600082015250565b60006123086012836121c0565b9150612313826122d2565b602082019050919050565b60006020820190508181036000830152612337816122fb565b9050919050565b7f4c697374696e6720686173206578706972656400000000000000000000000000600082015250565b60006123746013836121c0565b915061237f8261233e565b602082019050919050565b600060208201905081810360008301526123a381612367565b9050919050565b60006060820190506123bf6000830186611eaf565b6123cc6020830185611eaf565b6123d96040830184611ebe565b949350505050565b6000815190506123f081611f64565b92915050565b60006020828403121561240c5761240b611e15565b5b600061241a848285016123e1565b91505092915050565b7f4e6f7420746f6b656e206f776e65720000000000000000000000000000000000600082015250565b6000612459600f836121c0565b915061246482612423565b602082019050919050565b600060208201905081810360008301526124888161244c565b9050919050565b60006040820190506124a46000830185611eaf565b6124b16020830184611eaf565b9392505050565b6124c181611ecd565b81146124cc57600080fd5b50565b6000815190506124de816124b8565b92915050565b6000602082840312156124fa576124f9611e15565b5b6000612508848285016124cf565b91505092915050565b7f4d61726b6574706c616365206e6f7420617070726f76656420746f206d616e6160008201527f67652074686973204e4654000000000000000000000000000000000000000000602082015250565b600061256d602b836121c0565b915061257882612511565b604082019050919050565b6000602082019050818103600083015261259c81612560565b9050919050565b7f4e487b7100000000000000000000000000000000000000000000000000000000600052601160045260246000fd5b60006125dd82611e1a565b91506125e883611e1a565b9250828201905080821115612600576125ff6125a3565b5b92915050565b600060608201905061261b6000830186611eaf565b6126286020830185611ebe565b6126356040830184611ebe565b949350505050565b7f41756374696f6e206973206e6f74206163746976650000000000000000000000600082015250565b60006126736015836121c0565b915061267e8261263d565b602082019050919050565b600060208201905081810360008301526126a281612666565b9050919050565b7f41756374696f6e2068617320656e646564000000000000000000000000000000600082015250565b60006126df6011836121c0565b91506126ea826126a9565b602082019050919050565b6000602082019050818103600083015261270e816126d2565b9050919050565b7f426964206d75737420626520686967686572207468616e2063757272656e742060008201527f6869676865737400000000000000000000000000000000000000000000000000602082015250565b60006127716027836121c0565b915061277c82612715565b604082019050919050565b600060208201905081810360008301526127a081612764565b9050919050565b7f45787069726174696f6e206d75737420626520696e2074686520667574757265600082015250565b60006127dd6020836121c0565b91506127e8826127a7565b602082019050919050565b6000602082019050818103600083015261280c816127d0565b9050919050565b7f41756374696f6e206973207374696c6c206f6e676f696e670000000000000000600082015250565b60006128496018836121c0565b915061285482612813565b602082019050919050565b600060208201905081810360008301526128788161283c565b9050919050565b7f4e6f206269647320706c61636564000000000000000000000000000000000000600082015250565b60006128b5600e836121c0565b91506128c08261287f565b602082019050919050565b600060208201905081810360008301526128e4816128a8565b905091905056fea26469706673582212200f7361bd27953dcdcd02fa969f67a1966af7272d758c5c604268310f7fedbb2064736f6c634300081c0033",
  "linkReferences": {},
  "deployedLinkReferences": {}
}