{
  "_format": "hh-sol-artifact-1",
  "contractName": "TradingContract",
  "sourceName": "contracts/TradingContract.sol",
  "abi": [
    {
      "inputs": [
        {
          "internalType": "address",
          "name": "_nftContract",
          "type": "address"
        }
      ],
      "stateMutability": "nonpayable",
      "type": "constructor"
    },
    {
      "inputs": [],
      "name": "EnforcedPause",
      "type": "error"
    },
    {
      "inputs": [],
      "name": "ExpectedPause",
      "type": "error"
    },
    {
      "inputs": [
        {
          "internalType": "address",
          "name": "owner",
          "type": "address"
        }
      ],
      "name": "OwnableInvalidOwner",
      "type": "error"
    },
    {
      "inputs": [
        {
          "internalType": "address",
          "name": "account",
          "type": "address"
        }
      ],
      "name": "OwnableUnauthorizedAccount",
      "type": "error"
    },
    {
      "inputs": [],
      "name": "ReentrancyGuardReentrantCall",
      "type": "error"
    },
    {
      "anonymous": false,
      "inputs": [
        {
          "indexed": true,
          "internalType": "uint256",
          "name": "tokenId",
          "type": "uint256"
        },
        {
          "indexed": false,
          "internalType": "address",
          "name": "winner",
          "type": "address"
        },
        {
          "indexed": false,
          "internalType": "uint256",
          "name": "amount",
          "type": "uint256"
        }
      ],
      "name": "AuctionEnded",
      "type": "event"
    },
    {
      "anonymous": false,
      "inputs": [
        {
          "indexed": true,
          "internalType": "uint256",
          "name": "tokenId",
          "type": "uint256"
        },
        {
          "indexed": false,
          "internalType": "address",
          "name": "seller",
          "type": "address"
        },
        {
          "indexed": false,
          "internalType": "uint256",
          "name": "startingPrice",
          "type": "uint256"
        },
        {
          "indexed": false,
          "internalType": "uint256",
          "name": "endTime",
          "type": "uint256"
        }
      ],
      "name": "AuctionStarted",
      "type": "event"
    },
    {
      "anonymous": false,
      "inputs": [
        {
          "indexed": true,
          "internalType": "uint256",
          "name": "tokenId",
          "type": "uint256"
        },
        {
          "indexed": false,
          "internalType": "address",
          "name": "bidder",
          "type": "address"
        },
        {
          "indexed": false,
          "internalType": "uint256",
          "name": "amount",
          "type": "uint256"
        }
      ],
      "name": "BidWithdrawn",
      "type": "event"
    },
    {
      "anonymous": false,
      "inputs": [
        {
          "indexed": true,
          "internalType": "uint256",
          "name": "tokenId",
          "type": "uint256"
        },
        {
          "indexed": false,
          "internalType": "address",
          "name": "buyer",
          "type": "address"
        },
        {
          "indexed": false,
          "internalType": "uint256",
          "name": "amount",
          "type": "uint256"
        }
      ],
      "name": "DutchAuctionEnded",
      "type": "event"
    },
    {
      "anonymous": false,
      "inputs": [
        {
          "indexed": true,
          "internalType": "uint256",
          "name": "tokenId",
          "type": "uint256"
        },
        {
          "indexed": false,
          "internalType": "address",
          "name": "seller",
          "type": "address"
        },
        {
          "indexed": false,
          "internalType": "uint256",
          "name": "startPrice",
          "type": "uint256"
        },
        {
          "indexed": false,
          "internalType": "uint256",
          "name": "endPrice",
          "type": "uint256"
        },
        {
          "indexed": false,
          "internalType": "uint256",
          "name": "endTime",
          "type": "uint256"
        }
      ],
      "name": "DutchAuctionStarted",
      "type": "event"
    },
    {
      "anonymous": false,
      "inputs": [
        {
          "indexed": true,
          "internalType": "uint256",
          "name": "tokenId",
          "type": "uint256"
        },
        {
          "indexed": false,
          "internalType": "address",
          "name": "seller",
          "type": "address"
        }
      ],
      "name": "NFTDelisted",
      "type": "event"
    },
    {
      "anonymous": false,
      "inputs": [
        {
          "indexed": true,
          "internalType": "uint256",
          "name": "tokenId",
          "type": "uint256"
        },
        {
          "indexed": false,
          "internalType": "address",
          "name": "seller",
          "type": "address"
        },
        {
          "indexed": false,
          "internalType": "uint256",
          "name": "price",
          "type": "uint256"
        }
      ],
      "name": "NFTListed",
      "type": "event"
    },
    {
      "anonymous": false,
      "inputs": [
        {
          "indexed": true,
          "internalType": "uint256",
          "name": "tokenId",
          "type": "uint256"
        },
        {
          "indexed": false,
          "internalType": "address",
          "name": "seller",
          "type": "address"
        },
        {
          "indexed": false,
          "internalType": "address",
          "name": "buyer",
          "type": "address"
        },
        {
          "indexed": false,
          "internalType": "uint256",
          "name": "price",
          "type": "uint256"
        }
      ],
      "name": "NFTSold",
      "type": "event"
    },
    {
      "anonymous": false,
      "inputs": [
        {
          "indexed": true,
          "internalType": "uint256",
          "name": "tokenId",
          "type": "uint256"
        },
        {
          "indexed": false,
          "internalType": "address",
          "name": "bidder",
          "type": "address"
        },
        {
          "indexed": false,
          "internalType": "uint256",
          "name": "amount",
          "type": "uint256"
        }
      ],
      "name": "NewBid",
      "type": "event"
    },
    {
      "anonymous": false,
      "inputs": [
        {
          "indexed": true,
          "internalType": "uint256",
          "name": "tokenId",
          "type": "uint256"
        },
        {
          "indexed": true,
          "internalType": "address",
          "name": "offerer",
          "type": "address"
        },
        {
          "indexed": false,
          "internalType": "uint256",
          "name": "amount",
          "type": "uint256"
        }
      ],
      "name": "OfferAccepted",
      "type": "event"
    },
    {
      "anonymous": false,
      "inputs": [
        {
          "indexed": true,
          "internalType": "uint256",
          "name": "tokenId",
          "type": "uint256"
        },
        {
          "indexed": true,
          "internalType": "address",
          "name": "offerer",
          "type": "address"
        }
      ],
      "name": "OfferCancelled",
      "type": "event"
    },
    {
      "anonymous": false,
      "inputs": [
        {
          "indexed": true,
          "internalType": "uint256",
          "name": "tokenId",
          "type": "uint256"
        },
        {
          "indexed": true,
          "internalType": "address",
          "name": "offerer",
          "type": "address"
        },
        {
          "indexed": false,
          "internalType": "uint256",
          "name": "amount",
          "type": "uint256"
        },
        {
          "indexed": false,
          "internalType": "uint256",
          "name": "expiration",
          "type": "uint256"
        }
      ],
      "name": "OfferMade",
      "type": "event"
    },
    {
      "anonymous": false,
      "inputs": [
        {
          "indexed": true,
          "internalType": "address",
          "name": "previousOwner",
          "type": "address"
        },
        {
          "indexed": true,
          "internalType": "address",
          "name": "newOwner",
          "type": "address"
        }
      ],
      "name": "OwnershipTransferred",
      "type": "event"
    },
    {
      "anonymous": false,
      "inputs": [
        {
          "indexed": false,
          "internalType": "address",
          "name": "account",
          "type": "address"
        }
      ],
      "name": "Paused",
      "type": "event"
    },
    {
      "anonymous": false,
      "inputs": [
        {
          "indexed": false,
          "internalType": "address",
          "name": "account",
          "type": "address"
        }
      ],
      "name": "Unpaused",
      "type": "event"
    },
    {
      "inputs": [
        {
          "internalType": "uint256",
          "name": "tokenId",
          "type": "uint256"
        },
        {
          "internalType": "address",
          "name": "offerer",
          "type": "address"
        }
      ],
      "name": "acceptOffer",
      "outputs": [],
      "stateMutability": "nonpayable",
      "type": "function"
    },
    {
      "inputs": [
        {
          "internalType": "uint256",
          "name": "",
          "type": "uint256"
        }
      ],
      "name": "auctions",
      "outputs": [
        {
          "internalType": "address",
          "name": "seller",
          "type": "address"
        },
        {
          "internalType": "uint256",
          "name": "startingPrice",
          "type": "uint256"
        },
        {
          "internalType": "uint256",
          "name": "highestBid",
          "type": "uint256"
        },
        {
          "internalType": "address",
          "name": "highestBidder",
          "type": "address"
        },
        {
          "internalType": "uint256",
          "name": "startTimestamp",
          "type": "uint256"
        },
        {
          "internalType": "uint256",
          "name": "endTimestamp",
          "type": "uint256"
        },
        {
          "internalType": "bool",
          "name": "isActive",
          "type": "bool"
        }
      ],
      "stateMutability": "view",
      "type": "function"
    },
    {
      "inputs": [
        {
          "internalType": "uint256",
          "name": "tokenId",
          "type": "uint256"
        }
      ],
      "name": "buyFromDutchAuction",
      "outputs": [],
      "stateMutability": "payable",
      "type": "function"
    },
    {
      "inputs": [
        {
          "internalType": "uint256",
          "name": "tokenId",
          "type": "uint256"
        }
      ],
      "name": "buyNFT",
      "outputs": [],
      "stateMutability": "payable",
      "type": "function"
    },
    {
      "inputs": [
        {
          "internalType": "uint256",
          "name": "tokenId",
          "type": "uint256"
        }
      ],
      "name": "cancelAuction",
      "outputs": [],
      "stateMutability": "nonpayable",
      "type": "function"
    },
    {
      "inputs": [
        {
          "internalType": "uint256",
          "name": "tokenId",
          "type": "uint256"
        }
      ],
      "name": "cancelDutchAuction",
      "outputs": [],
      "stateMutability": "nonpayable",
      "type": "function"
    },
    {
      "inputs": [
        {
          "internalType": "uint256",
          "name": "tokenId",
          "type": "uint256"
        }
      ],
      "name": "cancelOffer",
      "outputs": [],
      "stateMutability": "nonpayable",
      "type": "function"
    },
    {
      "inputs": [
        {
          "internalType": "uint256",
          "name": "tokenId",
          "type": "uint256"
        }
      ],
      "name": "delistNFT",
      "outputs": [],
      "stateMutability": "nonpayable",
      "type": "function"
    },
    {
      "inputs": [
        {
          "internalType": "uint256",
          "name": "",
          "type": "uint256"
        }
      ],
      "name": "dutchAuctions",
      "outputs": [
        {
          "internalType": "address",
          "name": "seller",
          "type": "address"
        },
        {
          "internalType": "uint256",
          "name": "startPrice",
          "type": "uint256"
        },
        {
          "internalType": "uint256",
          "name": "endPrice",
          "type": "uint256"
        },
        {
          "internalType": "uint256",
          "name": "startTimestamp",
          "type": "uint256"
        },
        {
          "internalType": "uint256",
          "name": "endTimestamp",
          "type": "uint256"
        },
        {
          "internalType": "bool",
          "name": "isActive",
          "type": "bool"
        }
      ],
      "stateMutability": "view",
      "type": "function"
    },
    {
      "inputs": [
        {
          "internalType": "uint256",
          "name": "tokenId",
          "type": "uint256"
        }
      ],
      "name": "finalizeAuction",
      "outputs": [],
      "stateMutability": "nonpayable",
      "type": "function"
    },
    {
      "inputs": [
        {
          "internalType": "uint256",
          "name": "tokenId",
          "type": "uint256"
        }
      ],
      "name": "getCurrentDutchPrice",
      "outputs": [
        {
          "internalType": "uint256",
          "name": "",
          "type": "uint256"
        }
      ],
      "stateMutability": "view",
      "type": "function"
    },
    {
      "inputs": [
        {
          "internalType": "uint256",
          "name": "tokenId",
          "type": "uint256"
        }
      ],
      "name": "getOffers",
      "outputs": [
        {
          "components": [
            {
              "internalType": "address",
              "name": "offerer",
              "type": "address"
            },
            {
              "internalType": "uint256",
              "name": "amount",
              "type": "uint256"
            },
            {
              "internalType": "uint256",
              "name": "expiration",
              "type": "uint256"
            }
          ],
          "internalType": "struct TradingContract.Offer[]",
          "name": "",
          "type": "tuple[]"
        }
      ],
      "stateMutability": "view",
      "type": "function"
    },
    {
      "inputs": [
        {
          "internalType": "uint256",
          "name": "tokenId",
          "type": "uint256"
        },
        {
          "internalType": "address",
          "name": "user",
          "type": "address"
        }
      ],
      "name": "hasPendingReturns",
      "outputs": [
        {
          "internalType": "bool",
          "name": "",
          "type": "bool"
        }
      ],
      "stateMutability": "view",
      "type": "function"
    },
    {
      "inputs": [
        {
          "internalType": "uint256",
          "name": "tokenId",
          "type": "uint256"
        },
        {
          "internalType": "uint256",
          "name": "price",
          "type": "uint256"
        },
        {
          "internalType": "uint256",
          "name": "expiration",
          "type": "uint256"
        }
      ],
      "name": "listNFT",
      "outputs": [],
      "stateMutability": "nonpayable",
      "type": "function"
    },
    {
      "inputs": [
        {
          "internalType": "uint256",
          "name": "",
          "type": "uint256"
        }
      ],
      "name": "listings",
      "outputs": [
        {
          "internalType": "address",
          "name": "seller",
          "type": "address"
        },
        {
          "internalType": "uint256",
          "name": "price",
          "type": "uint256"
        },
        {
          "internalType": "uint256",
          "name": "expiration",
          "type": "uint256"
        },
        {
          "internalType": "bool",
          "name": "isActive",
          "type": "bool"
        }
      ],
      "stateMutability": "view",
      "type": "function"
    },
    {
      "inputs": [
        {
          "internalType": "uint256",
          "name": "tokenId",
          "type": "uint256"
        },
        {
          "internalType": "uint256",
          "name": "expiration",
          "type": "uint256"
        }
      ],
      "name": "makeOffer",
      "outputs": [],
      "stateMutability": "payable",
      "type": "function"
    },
    {
      "inputs": [],
      "name": "nftContract",
      "outputs": [
        {
          "internalType": "contract ERC721",
          "name": "",
          "type": "address"
        }
      ],
      "stateMutability": "view",
      "type": "function"
    },
    {
      "inputs": [
        {
          "internalType": "uint256",
          "name": "",
          "type": "uint256"
        },
        {
          "internalType": "uint256",
          "name": "",
          "type": "uint256"
        }
      ],
      "name": "offerers",
      "outputs": [
        {
          "internalType": "address",
          "name": "",
          "type": "address"
        }
      ],
      "stateMutability": "view",
      "type": "function"
    },
    {
      "inputs": [
        {
          "internalType": "uint256",
          "name": "",
          "type": "uint256"
        },
        {
          "internalType": "address",
          "name": "",
          "type": "address"
        }
      ],
      "name": "offers",
      "outputs": [
        {
          "internalType": "address",
          "name": "offerer",
          "type": "address"
        },
        {
          "internalType": "uint256",
          "name": "amount",
          "type": "uint256"
        },
        {
          "internalType": "uint256",
          "name": "expiration",
          "type": "uint256"
        }
      ],
      "stateMutability": "view",
      "type": "function"
    },
    {
      "inputs": [],
      "name": "owner",
      "outputs": [
        {
          "internalType": "address",
          "name": "",
          "type": "address"
        }
      ],
      "stateMutability": "view",
      "type": "function"
    },
    {
      "inputs": [],
      "name": "pause",
      "outputs": [],
      "stateMutability": "nonpayable",
      "type": "function"
    },
    {
      "inputs": [],
      "name": "paused",
      "outputs": [
        {
          "internalType": "bool",
          "name": "",
          "type": "bool"
        }
      ],
      "stateMutability": "view",
      "type": "function"
    },
    {
      "inputs": [
        {
          "internalType": "uint256",
          "name": "",
          "type": "uint256"
        },
        {
          "internalType": "address",
          "name": "",
          "type": "address"
        }
      ],
      "name": "pendingReturns",
      "outputs": [
        {
          "internalType": "uint256",
          "name": "",
          "type": "uint256"
        }
      ],
      "stateMutability": "view",
      "type": "function"
    },
    {
      "inputs": [
        {
          "internalType": "uint256",
          "name": "tokenId",
          "type": "uint256"
        }
      ],
      "name": "placeBid",
      "outputs": [],
      "stateMutability": "payable",
      "type": "function"
    },
    {
      "inputs": [],
      "name": "renounceOwnership",
      "outputs": [],
      "stateMutability": "nonpayable",
      "type": "function"
    },
    {
      "inputs": [
        {
          "internalType": "uint256",
          "name": "tokenId",
          "type": "uint256"
        },
        {
          "internalType": "uint256",
          "name": "startingPrice",
          "type": "uint256"
        },
        {
          "internalType": "uint256",
          "name": "endTimeStamp",
          "type": "uint256"
        }
      ],
      "name": "startAuction",
      "outputs": [],
      "stateMutability": "nonpayable",
      "type": "function"
    },
    {
      "inputs": [
        {
          "internalType": "uint256",
          "name": "tokenId",
          "type": "uint256"
        },
        {
          "internalType": "uint256",
          "name": "startPrice",
          "type": "uint256"
        },
        {
          "internalType": "uint256",
          "name": "endPrice",
          "type": "uint256"
        },
        {
          "internalType": "uint256",
          "name": "duration",
          "type": "uint256"
        }
      ],
      "name": "startDutchAuction",
      "outputs": [],
      "stateMutability": "nonpayable",
      "type": "function"
    },
    {
      "inputs": [
        {
          "internalType": "address",
          "name": "newOwner",
          "type": "address"
        }
      ],
      "name": "transferOwnership",
      "outputs": [],
      "stateMutability": "nonpayable",
      "type": "function"
    },
    {
      "inputs": [],
      "name": "unpause",
      "outputs": [],
      "stateMutability": "nonpayable",
      "type": "function"
    },
    {
      "inputs": [
        {
          "internalType": "uint256",
          "name": "tokenId",
          "type": "uint256"
        }
      ],
      "name": "withdrawBid",
      "outputs": [],
      "stateMutability": "nonpayable",
      "type": "function"
    }
  ],
  "bytecode": "0x608060405234801561001057600080fd5b50604051615b7e380380615b7e8339818101604052810190610032919061022a565b336001600081905550600073ffffffffffffffffffffffffffffffffffffffff168173ffffffffffffffffffffffffffffffffffffffff16036100ad5760006040517f1e4fbdf70000000000000000000000000000000000000000000000000000000081526004016100a49190610266565b60405180910390fd5b6100bc8161010460201b60201c565b5080600260006101000a81548173ffffffffffffffffffffffffffffffffffffffff021916908373ffffffffffffffffffffffffffffffffffffffff16021790555050610281565b600060018054906101000a900473ffffffffffffffffffffffffffffffffffffffff169050816001806101000a81548173ffffffffffffffffffffffffffffffffffffffff021916908373ffffffffffffffffffffffffffffffffffffffff1602179055508173ffffffffffffffffffffffffffffffffffffffff168173ffffffffffffffffffffffffffffffffffffffff167f8be0079c531659141344cd1fd0a4f28419497f9722a3daafe3b4186f6b6457e060405160405180910390a35050565b600080fd5b600073ffffffffffffffffffffffffffffffffffffffff82169050919050565b60006101f7826101cc565b9050919050565b610207816101ec565b811461021257600080fd5b50565b600081519050610224816101fe565b92915050565b6000602082840312156102405761023f6101c7565b5b600061024e84828501610215565b91505092915050565b610260816101ec565b82525050565b600060208201905061027b6000830184610257565b92915050565b6158ee806102906000396000f3fe6080604052600436106101cd5760003560e01c806396b5a755116100f7578063de74e57b11610095578063ecfc12a311610064578063ecfc12a314610643578063ef706adf1461066c578063f2ab2fc014610695578063f2fde38b146106d7576101cd565b8063de74e57b1461055e578063dfa49e6f1461059e578063e8083863146105db578063ebdfbce514610604576101cd565b8063caabdd3d116100d1578063caabdd3d146104c5578063cb917b9c146104e1578063d56d229d1461050a578063ddee843314610535576101cd565b806396b5a755146104575780639979ef4514610480578063b0136c8d1461049c576101cd565b8063571a26a01161016f5780638da5cb5b1161013e5780638da5cb5b1461039d5780638ddac1ef146103c8578063918d407d1461040557806391e078bb1461042e576101cd565b8063571a26a0146103015780635c975abb14610344578063715018a61461036f5780638456cb5914610386576101cd565b80633079dccf116101ab5780633079dccf146102545780633f4ba83a1461029157806351ed8288146102a85780635629939a146102c4576101cd565b806305b7cdd3146101d25780630eaaf4c8146101ee5780632f44dee814610217575b600080fd5b6101ec60048036038101906101e7919061438e565b610700565b005b3480156101fa57600080fd5b50610215600480360381019061021091906143ce565b6109e1565b005b34801561022357600080fd5b5061023e600480360381019061023991906143ce565b610b6c565b60405161024b919061440a565b60405180910390f35b34801561026057600080fd5b5061027b6004803603810190610276919061438e565b610cfa565b6040516102889190614466565b60405180910390f35b34801561029d57600080fd5b506102a6610d48565b005b6102c260048036038101906102bd91906143ce565b610d5a565b005b3480156102d057600080fd5b506102eb60048036038101906102e691906144ad565b61109a565b6040516102f89190614508565b60405180910390f35b34801561030d57600080fd5b50610328600480360381019061032391906143ce565b6110f7565b60405161033b9796959493929190614523565b60405180910390f35b34801561035057600080fd5b50610359611186565b6040516103669190614508565b60405180910390f35b34801561037b57600080fd5b50610384611195565b005b34801561039257600080fd5b5061039b6111a9565b005b3480156103a957600080fd5b506103b26111bb565b6040516103bf9190614466565b60405180910390f35b3480156103d457600080fd5b506103ef60048036038101906103ea91906144ad565b6111e3565b6040516103fc919061440a565b60405180910390f35b34801561041157600080fd5b5061042c600480360381019061042791906144ad565b611208565b005b34801561043a57600080fd5b5061045560048036038101906104509190614592565b6116aa565b005b34801561046357600080fd5b5061047e600480360381019061047991906143ce565b611b9d565b005b61049a600480360381019061049591906143ce565b611e8d565b005b3480156104a857600080fd5b506104c360048036038101906104be9190614592565b61212d565b005b6104df60048036038101906104da91906143ce565b6125db565b005b3480156104ed57600080fd5b50610508600480360381019061050391906143ce565b6128db565b005b34801561051657600080fd5b5061051f612aff565b60405161052c9190614644565b60405180910390f35b34801561054157600080fd5b5061055c600480360381019061055791906143ce565b612b25565b005b34801561056a57600080fd5b50610585600480360381019061058091906143ce565b612d09565b604051610595949392919061465f565b60405180910390f35b3480156105aa57600080fd5b506105c560048036038101906105c091906143ce565b612d66565b6040516105d291906147b3565b60405180910390f35b3480156105e757600080fd5b5061060260048036038101906105fd91906143ce565b612f83565b005b34801561061057600080fd5b5061062b600480360381019061062691906144ad565b6133c0565b60405161063a939291906147d5565b60405180910390f35b34801561064f57600080fd5b5061066a6004803603810190610665919061480c565b613417565b005b34801561067857600080fd5b50610693600480360381019061068e91906143ce565b61393e565b005b3480156106a157600080fd5b506106bc60048036038101906106b791906143ce565b613d22565b6040516106ce96959493929190614873565b60405180910390f35b3480156106e357600080fd5b506106fe60048036038101906106f991906148d4565b613d8b565b005b610708613e11565b610710613e57565b60003411610753576040517f08c379a000000000000000000000000000000000000000000000000000000000815260040161074a90614984565b60405180910390fd5b428111610795576040517f08c379a000000000000000000000000000000000000000000000000000000000815260040161078c906149f0565b60405180910390fd5b60006007600084815260200190815260200160002060003373ffffffffffffffffffffffffffffffffffffffff1673ffffffffffffffffffffffffffffffffffffffff16815260200190815260200160002090506000816001015414610830576040517f08c379a000000000000000000000000000000000000000000000000000000000815260040161082790614a5c565b60405180910390fd5b60405180606001604052803373ffffffffffffffffffffffffffffffffffffffff168152602001348152602001838152506007600085815260200190815260200160002060003373ffffffffffffffffffffffffffffffffffffffff1673ffffffffffffffffffffffffffffffffffffffff16815260200190815260200160002060008201518160000160006101000a81548173ffffffffffffffffffffffffffffffffffffffff021916908373ffffffffffffffffffffffffffffffffffffffff160217905550602082015181600101556040820151816002015590505060086000848152602001908152602001600020339080600181540180825580915050600190039060005260206000200160009091909190916101000a81548173ffffffffffffffffffffffffffffffffffffffff021916908373ffffffffffffffffffffffffffffffffffffffff1602179055503373ffffffffffffffffffffffffffffffffffffffff16837fd7df0c72641d362ea57ecc9cab99c77f936e36bb826f096258c3404196b26d6a34856040516109cc929190614a7c565b60405180910390a3506109dd613e98565b5050565b6109e9613e11565b6109f1613e57565b60006006600083815260200190815260200160002060003373ffffffffffffffffffffffffffffffffffffffff1673ffffffffffffffffffffffffffffffffffffffff16815260200190815260200160002054905060008111610a89576040517f08c379a0000000000000000000000000000000000000000000000000000000008152600401610a8090614af1565b60405180910390fd5b60006006600084815260200190815260200160002060003373ffffffffffffffffffffffffffffffffffffffff1673ffffffffffffffffffffffffffffffffffffffff168152602001908152602001600020819055503373ffffffffffffffffffffffffffffffffffffffff166108fc829081150290604051600060405180830381858888f19350505050158015610b25573d6000803e3d6000fd5b50817f8f8619524e8d462cead34604bd2247ede24175801481e4d0b8059ac8aa41c3013383604051610b58929190614b11565b60405180910390a250610b69613e98565b50565b600080600560008481526020019081526020016000206040518060c00160405290816000820160009054906101000a900473ffffffffffffffffffffffffffffffffffffffff1673ffffffffffffffffffffffffffffffffffffffff1673ffffffffffffffffffffffffffffffffffffffff168152602001600182015481526020016002820154815260200160038201548152602001600482015481526020016005820160009054906101000a900460ff16151515158152505090508060a00151610c6c576040517f08c379a0000000000000000000000000000000000000000000000000000000008152600401610c6390614b86565b60405180910390fd5b80608001514210610c84578060400151915050610cf5565b6000816060015142610c969190614bd5565b9050600082606001518360800151610cae9190614bd5565b9050600083604001518460200151610cc69190614bd5565b9050818382610cd59190614c09565b610cdf9190614c7a565b8460200151610cee9190614bd5565b9450505050505b919050565b60086020528160005260406000208181548110610d1657600080fd5b906000526020600020016000915091509054906101000a900473ffffffffffffffffffffffffffffffffffffffff1681565b610d50613ea2565b610d58613f29565b565b806003600082815260200190815260200160002060030160009054906101000a900460ff16610dbe576040517f08c379a0000000000000000000000000000000000000000000000000000000008152600401610db590614cf7565b60405180910390fd5b610dc6613e11565b610dce613e57565b6000600360008481526020019081526020016000206040518060800160405290816000820160009054906101000a900473ffffffffffffffffffffffffffffffffffffffff1673ffffffffffffffffffffffffffffffffffffffff1673ffffffffffffffffffffffffffffffffffffffff16815260200160018201548152602001600282015481526020016003820160009054906101000a900460ff16151515158152505090508060200151341015610ebc576040517f08c379a0000000000000000000000000000000000000000000000000000000008152600401610eb390614d63565b60405180910390fd5b8060400151421115610f03576040517f08c379a0000000000000000000000000000000000000000000000000000000008152600401610efa90614dcf565b60405180910390fd5b806000015173ffffffffffffffffffffffffffffffffffffffff166108fc349081150290604051600060405180830381858888f19350505050158015610f4d573d6000803e3d6000fd5b50600260009054906101000a900473ffffffffffffffffffffffffffffffffffffffff1673ffffffffffffffffffffffffffffffffffffffff166342842e0e826000015133866040518463ffffffff1660e01b8152600401610fb193929190614def565b600060405180830381600087803b158015610fcb57600080fd5b505af1158015610fdf573d6000803e3d6000fd5b5050505060036000848152602001908152602001600020600080820160006101000a81549073ffffffffffffffffffffffffffffffffffffffff0219169055600182016000905560028201600090556003820160006101000a81549060ff0219169055505061104d83613f8c565b827f8562eb94748e30bb0071e932744ce902b460c683474fcb3bfd567ffa16b1afb28260000151333460405161108593929190614def565b60405180910390a250611096613e98565b5050565b6000806006600085815260200190815260200160002060008473ffffffffffffffffffffffffffffffffffffffff1673ffffffffffffffffffffffffffffffffffffffff1681526020019081526020016000205411905092915050565b60046020528060005260406000206000915090508060000160009054906101000a900473ffffffffffffffffffffffffffffffffffffffff16908060010154908060020154908060030160009054906101000a900473ffffffffffffffffffffffffffffffffffffffff16908060040154908060050154908060060160009054906101000a900460ff16905087565b600061119061415a565b905090565b61119d613ea2565b6111a76000614171565b565b6111b1613ea2565b6111b9614234565b565b600060018054906101000a900473ffffffffffffffffffffffffffffffffffffffff16905090565b6006602052816000526040600020602052806000526040600020600091509150505481565b813373ffffffffffffffffffffffffffffffffffffffff16600260009054906101000a900473ffffffffffffffffffffffffffffffffffffffff1673ffffffffffffffffffffffffffffffffffffffff16636352211e836040518263ffffffff1660e01b815260040161127b919061440a565b602060405180830381865afa158015611298573d6000803e3d6000fd5b505050506040513d601f19601f820116820180604052508101906112bc9190614e3b565b73ffffffffffffffffffffffffffffffffffffffff1614611312576040517f08c379a000000000000000000000000000000000000000000000000000000000815260040161130990614eb4565b60405180910390fd5b61131a613e11565b611322613e57565b60006007600085815260200190815260200160002060008473ffffffffffffffffffffffffffffffffffffffff1673ffffffffffffffffffffffffffffffffffffffff1681526020019081526020016000206040518060600160405290816000820160009054906101000a900473ffffffffffffffffffffffffffffffffffffffff1673ffffffffffffffffffffffffffffffffffffffff1673ffffffffffffffffffffffffffffffffffffffff1681526020016001820154815260200160028201548152505090506000816020015111611432576040517f08c379a000000000000000000000000000000000000000000000000000000000815260040161142990614f20565b60405180910390fd5b8060400151421115611479576040517f08c379a000000000000000000000000000000000000000000000000000000000815260040161147090614f8c565b60405180910390fd5b6007600085815260200190815260200160002060008473ffffffffffffffffffffffffffffffffffffffff1673ffffffffffffffffffffffffffffffffffffffff168152602001908152602001600020600080820160006101000a81549073ffffffffffffffffffffffffffffffffffffffff02191690556001820160009055600282016000905550503373ffffffffffffffffffffffffffffffffffffffff166108fc82602001519081150290604051600060405180830381858888f1935050505015801561154d573d6000803e3d6000fd5b50600260009054906101000a900473ffffffffffffffffffffffffffffffffffffffff1673ffffffffffffffffffffffffffffffffffffffff166342842e0e3385876040518463ffffffff1660e01b81526004016115ad93929190614def565b600060405180830381600087803b1580156115c757600080fd5b505af11580156115db573d6000803e3d6000fd5b5050505060036000858152602001908152602001600020600080820160006101000a81549073ffffffffffffffffffffffffffffffffffffffff0219169055600182016000905560028201600090556003820160006101000a81549060ff0219169055505061164984613f8c565b8273ffffffffffffffffffffffffffffffffffffffff16847fea555ab99331ceac5051c58f17cc7b411b30241b0e28cb93a7d3a24c77a7a9a98360200151604051611694919061440a565b60405180910390a3506116a5613e98565b505050565b823373ffffffffffffffffffffffffffffffffffffffff16600260009054906101000a900473ffffffffffffffffffffffffffffffffffffffff1673ffffffffffffffffffffffffffffffffffffffff16636352211e836040518263ffffffff1660e01b815260040161171d919061440a565b602060405180830381865afa15801561173a573d6000803e3d6000fd5b505050506040513d601f19601f8201168201806040525081019061175e9190614e3b565b73ffffffffffffffffffffffffffffffffffffffff16146117b4576040517f08c379a00000000000000000000000000000000000000000000000000000000081526004016117ab90614eb4565b60405180910390fd5b6117bc613e11565b6117c4613e57565b3073ffffffffffffffffffffffffffffffffffffffff16600260009054906101000a900473ffffffffffffffffffffffffffffffffffffffff1673ffffffffffffffffffffffffffffffffffffffff1663081812fc866040518263ffffffff1660e01b8152600401611836919061440a565b602060405180830381865afa158015611853573d6000803e3d6000fd5b505050506040513d601f19601f820116820180604052508101906118779190614e3b565b73ffffffffffffffffffffffffffffffffffffffff1614806119335750600260009054906101000a900473ffffffffffffffffffffffffffffffffffffffff1673ffffffffffffffffffffffffffffffffffffffff1663e985e9c533306040518363ffffffff1660e01b81526004016118f1929190614fac565b602060405180830381865afa15801561190e573d6000803e3d6000fd5b505050506040513d601f19601f820116820180604052508101906119329190615001565b5b611972576040517f08c379a0000000000000000000000000000000000000000000000000000000008152600401611969906150a0565b60405180910390fd5b6003600085815260200190815260200160002060030160009054906101000a900460ff161580156119c457506005600085815260200190815260200160002060050160009054906101000a900460ff16155b611a03576040517f08c379a00000000000000000000000000000000000000000000000000000000081526004016119fa90615132565b60405180910390fd5b6040518060e001604052803373ffffffffffffffffffffffffffffffffffffffff16815260200184815260200160008152602001600073ffffffffffffffffffffffffffffffffffffffff168152602001428152602001838152602001600115158152506004600086815260200190815260200160002060008201518160000160006101000a81548173ffffffffffffffffffffffffffffffffffffffff021916908373ffffffffffffffffffffffffffffffffffffffff160217905550602082015181600101556040820151816002015560608201518160030160006101000a81548173ffffffffffffffffffffffffffffffffffffffff021916908373ffffffffffffffffffffffffffffffffffffffff1602179055506080820151816004015560a0820151816005015560c08201518160060160006101000a81548160ff021916908315150217905550905050837fbf6dc7bdf2f23af5a506fe03ee1221f47d023a2227fbc949c6b812ae44534e6d338585604051611b87939291906147d5565b60405180910390a2611b97613e98565b50505050565b803373ffffffffffffffffffffffffffffffffffffffff16600260009054906101000a900473ffffffffffffffffffffffffffffffffffffffff1673ffffffffffffffffffffffffffffffffffffffff16636352211e836040518263ffffffff1660e01b8152600401611c10919061440a565b602060405180830381865afa158015611c2d573d6000803e3d6000fd5b505050506040513d601f19601f82011682018060405250810190611c519190614e3b565b73ffffffffffffffffffffffffffffffffffffffff1614611ca7576040517f08c379a0000000000000000000000000000000000000000000000000000000008152600401611c9e90614eb4565b60405180910390fd5b816004600082815260200190815260200160002060060160009054906101000a900460ff16611d0b576040517f08c379a0000000000000000000000000000000000000000000000000000000008152600401611d029061519e565b60405180910390fd5b611d13613e11565b611d1b613e57565b6000600460008581526020019081526020016000209050600081600201541115611daf578060030160009054906101000a900473ffffffffffffffffffffffffffffffffffffffff1673ffffffffffffffffffffffffffffffffffffffff166108fc82600201549081150290604051600060405180830381858888f19350505050158015611dad573d6000803e3d6000fd5b505b60046000858152602001908152602001600020600080820160006101000a81549073ffffffffffffffffffffffffffffffffffffffff0219169055600182016000905560028201600090556003820160006101000a81549073ffffffffffffffffffffffffffffffffffffffff0219169055600482016000905560058201600090556006820160006101000a81549060ff02191690555050837fef1499b350e05776e60cd2ffcac001569a28e9d574e1f3adc1b3ab264f8ccffd33604051611e779190614466565b60405180910390a250611e88613e98565b505050565b806004600082815260200190815260200160002060060160009054906101000a900460ff16611ef1576040517f08c379a0000000000000000000000000000000000000000000000000000000008152600401611ee89061519e565b60405180910390fd5b611ef9613e11565b611f01613e57565b60046000838152602001908152602001600020600501544210611f59576040517f08c379a0000000000000000000000000000000000000000000000000000000008152600401611f509061520a565b60405180910390fd5b60006004600084815260200190815260200160002090508060010154341015611fb7576040517f08c379a0000000000000000000000000000000000000000000000000000000008152600401611fae9061529c565b60405180910390fd5b80600201543411611ffd576040517f08c379a0000000000000000000000000000000000000000000000000000000008152600401611ff49061532e565b60405180910390fd5b60008160020154111561209a5780600201546006600085815260200190815260200160002060008360030160009054906101000a900473ffffffffffffffffffffffffffffffffffffffff1673ffffffffffffffffffffffffffffffffffffffff1673ffffffffffffffffffffffffffffffffffffffff1681526020019081526020016000206000828254612092919061534e565b925050819055505b348160020181905550338160030160006101000a81548173ffffffffffffffffffffffffffffffffffffffff021916908373ffffffffffffffffffffffffffffffffffffffff160217905550827f558a0d5d5468d74b0db24c74eb348b42271c2ebb4c9e953ced38aaed95fa43613334604051612118929190614b11565b60405180910390a250612129613e98565b5050565b823373ffffffffffffffffffffffffffffffffffffffff16600260009054906101000a900473ffffffffffffffffffffffffffffffffffffffff1673ffffffffffffffffffffffffffffffffffffffff16636352211e836040518263ffffffff1660e01b81526004016121a0919061440a565b602060405180830381865afa1580156121bd573d6000803e3d6000fd5b505050506040513d601f19601f820116820180604052508101906121e19190614e3b565b73ffffffffffffffffffffffffffffffffffffffff1614612237576040517f08c379a000000000000000000000000000000000000000000000000000000000815260040161222e90614eb4565b60405180910390fd5b61223f613e11565b612247613e57565b3073ffffffffffffffffffffffffffffffffffffffff16600260009054906101000a900473ffffffffffffffffffffffffffffffffffffffff1673ffffffffffffffffffffffffffffffffffffffff1663081812fc866040518263ffffffff1660e01b81526004016122b9919061440a565b602060405180830381865afa1580156122d6573d6000803e3d6000fd5b505050506040513d601f19601f820116820180604052508101906122fa9190614e3b565b73ffffffffffffffffffffffffffffffffffffffff1614806123b65750600260009054906101000a900473ffffffffffffffffffffffffffffffffffffffff1673ffffffffffffffffffffffffffffffffffffffff1663e985e9c533306040518363ffffffff1660e01b8152600401612374929190614fac565b602060405180830381865afa158015612391573d6000803e3d6000fd5b505050506040513d601f19601f820116820180604052508101906123b59190615001565b5b6123f5576040517f08c379a00000000000000000000000000000000000000000000000000000000081526004016123ec906150a0565b60405180910390fd5b428211612437576040517f08c379a000000000000000000000000000000000000000000000000000000000815260040161242e906149f0565b60405180910390fd5b6004600085815260200190815260200160002060060160009054906101000a900460ff1615801561248957506005600085815260200190815260200160002060050160009054906101000a900460ff16155b6124c8576040517f08c379a00000000000000000000000000000000000000000000000000000000081526004016124bf906153f4565b60405180910390fd5b60405180608001604052803373ffffffffffffffffffffffffffffffffffffffff168152602001848152602001838152602001600115158152506003600086815260200190815260200160002060008201518160000160006101000a81548173ffffffffffffffffffffffffffffffffffffffff021916908373ffffffffffffffffffffffffffffffffffffffff160217905550602082015181600101556040820151816002015560608201518160030160006101000a81548160ff021916908315150217905550905050837f5f9c03de076f5063cd3ebcfe8ef7aa8af378e4b35a83c77ba9777e97083879a233856040516125c5929190614b11565b60405180910390a26125d5613e98565b50505050565b6125e3613e11565b6125eb613e57565b60006005600083815260200190815260200160002090508060050160009054906101000a900460ff16612653576040517f08c379a000000000000000000000000000000000000000000000000000000000815260040161264a90615460565b60405180910390fd5b806004015442111561269a576040517f08c379a0000000000000000000000000000000000000000000000000000000008152600401612691906154cc565b60405180910390fd5b60008160030154426126ac9190614bd5565b90506000826003015483600401546126c49190614bd5565b90506000836002015484600101546126dc9190614bd5565b905060008284836126ed9190614c09565b6126f79190614c7a565b85600101546127069190614bd5565b90508034101561274b576040517f08c379a000000000000000000000000000000000000000000000000000000000815260040161274290614d63565b60405180910390fd5b60008560050160006101000a81548160ff021916908315150217905550600260009054906101000a900473ffffffffffffffffffffffffffffffffffffffff1673ffffffffffffffffffffffffffffffffffffffff166342842e0e8660000160009054906101000a900473ffffffffffffffffffffffffffffffffffffffff1633896040518463ffffffff1660e01b81526004016127eb93929190614def565b600060405180830381600087803b15801561280557600080fd5b505af1158015612819573d6000803e3d6000fd5b505050508460000160009054906101000a900473ffffffffffffffffffffffffffffffffffffffff1673ffffffffffffffffffffffffffffffffffffffff166108fc349081150290604051600060405180830381858888f19350505050158015612887573d6000803e3d6000fd5b5061289186613f8c565b857f3a9978b6624f6cb440b3a1e29c588ca8aab0251c3b4d7f9202a1c1fb01ab2c4e33346040516128c3929190614b11565b60405180910390a250505050506128d8613e98565b50565b803373ffffffffffffffffffffffffffffffffffffffff16600260009054906101000a900473ffffffffffffffffffffffffffffffffffffffff1673ffffffffffffffffffffffffffffffffffffffff16636352211e836040518263ffffffff1660e01b815260040161294e919061440a565b602060405180830381865afa15801561296b573d6000803e3d6000fd5b505050506040513d601f19601f8201168201806040525081019061298f9190614e3b565b73ffffffffffffffffffffffffffffffffffffffff16146129e5576040517f08c379a00000000000000000000000000000000000000000000000000000000081526004016129dc90614eb4565b60405180910390fd5b816003600082815260200190815260200160002060030160009054906101000a900460ff16612a49576040517f08c379a0000000000000000000000000000000000000000000000000000000008152600401612a4090614cf7565b60405180910390fd5b612a51613e11565b612a59613e57565b60036000848152602001908152602001600020600080820160006101000a81549073ffffffffffffffffffffffffffffffffffffffff0219169055600182016000905560028201600090556003820160006101000a81549060ff02191690555050827fef1499b350e05776e60cd2ffcac001569a28e9d574e1f3adc1b3ab264f8ccffd33604051612aea9190614466565b60405180910390a2612afa613e98565b505050565b600260009054906101000a900473ffffffffffffffffffffffffffffffffffffffff1681565b803373ffffffffffffffffffffffffffffffffffffffff16600260009054906101000a900473ffffffffffffffffffffffffffffffffffffffff1673ffffffffffffffffffffffffffffffffffffffff16636352211e836040518263ffffffff1660e01b8152600401612b98919061440a565b602060405180830381865afa158015612bb5573d6000803e3d6000fd5b505050506040513d601f19601f82011682018060405250810190612bd99190614e3b565b73ffffffffffffffffffffffffffffffffffffffff1614612c2f576040517f08c379a0000000000000000000000000000000000000000000000000000000008152600401612c2690614eb4565b60405180910390fd5b612c37613e11565b612c3f613e57565b60006005600084815260200190815260200160002090508060050160009054906101000a900460ff16612ca7576040517f08c379a0000000000000000000000000000000000000000000000000000000008152600401612c9e90615460565b60405180910390fd5b60008160050160006101000a81548160ff021916908315150217905550827fef1499b350e05776e60cd2ffcac001569a28e9d574e1f3adc1b3ab264f8ccffd33604051612cf49190614466565b60405180910390a250612d05613e98565b5050565b60036020528060005260406000206000915090508060000160009054906101000a900473ffffffffffffffffffffffffffffffffffffffff16908060010154908060020154908060030160009054906101000a900460ff16905084565b6060600060086000848152602001908152602001600020805480602002602001604051908101604052809291908181526020018280548015612dfd57602002820191906000526020600020905b8160009054906101000a900473ffffffffffffffffffffffffffffffffffffffff1673ffffffffffffffffffffffffffffffffffffffff1681526020019060010190808311612db3575b5050505050905060008151905060008167ffffffffffffffff811115612e2657612e256154ec565b5b604051908082528060200260200182016040528015612e5f57816020015b612e4c6142de565b815260200190600190039081612e445790505b50905060005b82811015612f7757600760008781526020019081526020016000206000858381518110612e9557612e9461551b565b5b602002602001015173ffffffffffffffffffffffffffffffffffffffff1673ffffffffffffffffffffffffffffffffffffffff1681526020019081526020016000206040518060600160405290816000820160009054906101000a900473ffffffffffffffffffffffffffffffffffffffff1673ffffffffffffffffffffffffffffffffffffffff1673ffffffffffffffffffffffffffffffffffffffff16815260200160018201548152602001600282015481525050828281518110612f5f57612f5e61551b565b5b60200260200101819052508080600101915050612e65565b50809350505050919050565b806004600082815260200190815260200160002060060160009054906101000a900460ff16612fe7576040517f08c379a0000000000000000000000000000000000000000000000000000000008152600401612fde9061519e565b60405180910390fd5b6004600082815260200190815260200160002060050154421015613040576040517f08c379a000000000000000000000000000000000000000000000000000000000815260040161303790615596565b60405180910390fd5b613048613e11565b613050613e57565b6000600460008481526020019081526020016000209050600073ffffffffffffffffffffffffffffffffffffffff168160030160009054906101000a900473ffffffffffffffffffffffffffffffffffffffff1673ffffffffffffffffffffffffffffffffffffffff16036130fa576040517f08c379a00000000000000000000000000000000000000000000000000000000081526004016130f190615602565b60405180910390fd5b60006064826002015461310d9190614c7a565b905060008183600201546131219190614bd5565b9050600260009054906101000a900473ffffffffffffffffffffffffffffffffffffffff1673ffffffffffffffffffffffffffffffffffffffff166342842e0e8460000160009054906101000a900473ffffffffffffffffffffffffffffffffffffffff168560030160009054906101000a900473ffffffffffffffffffffffffffffffffffffffff16886040518463ffffffff1660e01b81526004016131ca93929190614def565b600060405180830381600087803b1580156131e457600080fd5b505af11580156131f8573d6000803e3d6000fd5b505050508260000160009054906101000a900473ffffffffffffffffffffffffffffffffffffffff1673ffffffffffffffffffffffffffffffffffffffff166108fc829081150290604051600060405180830381858888f19350505050158015613266573d6000803e3d6000fd5b503373ffffffffffffffffffffffffffffffffffffffff166108fc839081150290604051600060405180830381858888f193505050501580156132ad573d6000803e3d6000fd5b506132b785613f8c565b847fd2aa34a4fdbbc6dff6a3e56f46e0f3ae2a31d7785ff3487aa5c95c642acea5018460030160009054906101000a900473ffffffffffffffffffffffffffffffffffffffff168560020154604051613311929190614b11565b60405180910390a260046000868152602001908152602001600020600080820160006101000a81549073ffffffffffffffffffffffffffffffffffffffff0219169055600182016000905560028201600090556003820160006101000a81549073ffffffffffffffffffffffffffffffffffffffff0219169055600482016000905560058201600090556006820160006101000a81549060ff021916905550505050506133bc613e98565b5050565b6007602052816000526040600020602052806000526040600020600091509150508060000160009054906101000a900473ffffffffffffffffffffffffffffffffffffffff16908060010154908060020154905083565b833373ffffffffffffffffffffffffffffffffffffffff16600260009054906101000a900473ffffffffffffffffffffffffffffffffffffffff1673ffffffffffffffffffffffffffffffffffffffff16636352211e836040518263ffffffff1660e01b815260040161348a919061440a565b602060405180830381865afa1580156134a7573d6000803e3d6000fd5b505050506040513d601f19601f820116820180604052508101906134cb9190614e3b565b73ffffffffffffffffffffffffffffffffffffffff1614613521576040517f08c379a000000000000000000000000000000000000000000000000000000000815260040161351890614eb4565b60405180910390fd5b613529613e11565b613531613e57565b3073ffffffffffffffffffffffffffffffffffffffff16600260009054906101000a900473ffffffffffffffffffffffffffffffffffffffff1673ffffffffffffffffffffffffffffffffffffffff1663081812fc876040518263ffffffff1660e01b81526004016135a3919061440a565b602060405180830381865afa1580156135c0573d6000803e3d6000fd5b505050506040513d601f19601f820116820180604052508101906135e49190614e3b565b73ffffffffffffffffffffffffffffffffffffffff1614806136a05750600260009054906101000a900473ffffffffffffffffffffffffffffffffffffffff1673ffffffffffffffffffffffffffffffffffffffff1663e985e9c533306040518363ffffffff1660e01b815260040161365e929190614fac565b602060405180830381865afa15801561367b573d6000803e3d6000fd5b505050506040513d601f19601f8201168201806040525081019061369f9190615001565b5b6136df576040517f08c379a00000000000000000000000000000000000000000000000000000000081526004016136d6906150a0565b60405180910390fd5b828411613721576040517f08c379a000000000000000000000000000000000000000000000000000000000815260040161371890615694565b60405180910390fd5b60008211613764576040517f08c379a000000000000000000000000000000000000000000000000000000000815260040161375b90615726565b60405180910390fd5b6003600086815260200190815260200160002060030160009054906101000a900460ff161580156137b657506004600086815260200190815260200160002060060160009054906101000a900460ff16155b6137f5576040517f08c379a00000000000000000000000000000000000000000000000000000000081526004016137ec906157b8565b60405180910390fd5b60008242613803919061534e565b90506040518060c001604052803373ffffffffffffffffffffffffffffffffffffffff168152602001868152602001858152602001428152602001828152602001600115158152506005600088815260200190815260200160002060008201518160000160006101000a81548173ffffffffffffffffffffffffffffffffffffffff021916908373ffffffffffffffffffffffffffffffffffffffff1602179055506020820151816001015560408201518160020155606082015181600301556080820151816004015560a08201518160050160006101000a81548160ff021916908315150217905550905050857f268ac48f716356a00742974050591a9f3d88ed4669568f578935c957cdb5d5203387878560405161392694939291906157d8565b60405180910390a250613937613e98565b5050505050565b613946613e11565b61394e613e57565b60006007600083815260200190815260200160002060003373ffffffffffffffffffffffffffffffffffffffff1673ffffffffffffffffffffffffffffffffffffffff1681526020019081526020016000206040518060600160405290816000820160009054906101000a900473ffffffffffffffffffffffffffffffffffffffff1673ffffffffffffffffffffffffffffffffffffffff1673ffffffffffffffffffffffffffffffffffffffff1681526020016001820154815260200160028201548152505090506000816020015111613a5e576040517f08c379a0000000000000000000000000000000000000000000000000000000008152600401613a5590615869565b60405180910390fd5b6000816020015190506007600084815260200190815260200160002060003373ffffffffffffffffffffffffffffffffffffffff1673ffffffffffffffffffffffffffffffffffffffff168152602001908152602001600020600080820160006101000a81549073ffffffffffffffffffffffffffffffffffffffff0219169055600182016000905560028201600090555050600060086000858152602001908152602001600020905060005b8180549050811015613c88573373ffffffffffffffffffffffffffffffffffffffff16828281548110613b4157613b4061551b565b5b9060005260206000200160009054906101000a900473ffffffffffffffffffffffffffffffffffffffff1673ffffffffffffffffffffffffffffffffffffffff1603613c7b578160018380549050613b999190614bd5565b81548110613baa57613ba961551b565b5b9060005260206000200160009054906101000a900473ffffffffffffffffffffffffffffffffffffffff16828281548110613be857613be761551b565b5b9060005260206000200160006101000a81548173ffffffffffffffffffffffffffffffffffffffff021916908373ffffffffffffffffffffffffffffffffffffffff16021790555081805480613c4157613c40615889565b5b6001900381819060005260206000200160006101000a81549073ffffffffffffffffffffffffffffffffffffffff02191690559055613c88565b8080600101915050613b0b565b503373ffffffffffffffffffffffffffffffffffffffff166108fc839081150290604051600060405180830381858888f19350505050158015613ccf573d6000803e3d6000fd5b503373ffffffffffffffffffffffffffffffffffffffff16847f1f51377b3e685a0e2419f9bb4ba7c07ec54936353ba3d0fb3c6538dab676622260405160405180910390a3505050613d1f613e98565b50565b60056020528060005260406000206000915090508060000160009054906101000a900473ffffffffffffffffffffffffffffffffffffffff16908060010154908060020154908060030154908060040154908060050160009054906101000a900460ff16905086565b613d93613ea2565b600073ffffffffffffffffffffffffffffffffffffffff168173ffffffffffffffffffffffffffffffffffffffff1603613e055760006040517f1e4fbdf7000000000000000000000000000000000000000000000000000000008152600401613dfc9190614466565b60405180910390fd5b613e0e81614171565b50565b600260005403613e4d576040517f3ee5aeb500000000000000000000000000000000000000000000000000000000815260040160405180910390fd5b6002600081905550565b613e5f611186565b15613e96576040517fd93c066500000000000000000000000000000000000000000000000000000000815260040160405180910390fd5b565b6001600081905550565b613eaa614296565b73ffffffffffffffffffffffffffffffffffffffff16613ec86111bb565b73ffffffffffffffffffffffffffffffffffffffff1614613f2757613eeb614296565b6040517f118cdaa7000000000000000000000000000000000000000000000000000000008152600401613f1e9190614466565b60405180910390fd5b565b613f3161429e565b6000600160006101000a81548160ff0219169083151502179055507f5db9ee0a495bf2e6ff9c91a7834c1ba4fdd244a5e8aa4e537bd38aeae4b073aa613f75614296565b604051613f829190614466565b60405180910390a1565b600060086000838152602001908152602001600020905060005b8180549050811015614136576000828281548110613fc757613fc661551b565b5b9060005260206000200160009054906101000a900473ffffffffffffffffffffffffffffffffffffffff16905060006007600086815260200190815260200160002060008373ffffffffffffffffffffffffffffffffffffffff1673ffffffffffffffffffffffffffffffffffffffff1681526020019081526020016000206001015490506000811115614127576007600086815260200190815260200160002060008373ffffffffffffffffffffffffffffffffffffffff1673ffffffffffffffffffffffffffffffffffffffff168152602001908152602001600020600080820160006101000a81549073ffffffffffffffffffffffffffffffffffffffff02191690556001820160009055600282016000905550508173ffffffffffffffffffffffffffffffffffffffff166108fc829081150290604051600060405180830381858888f19350505050158015614125573d6000803e3d6000fd5b505b50508080600101915050613fa6565b506008600083815260200190815260200160002060006141569190614315565b5050565b6000600160009054906101000a900460ff16905090565b600060018054906101000a900473ffffffffffffffffffffffffffffffffffffffff169050816001806101000a81548173ffffffffffffffffffffffffffffffffffffffff021916908373ffffffffffffffffffffffffffffffffffffffff1602179055508173ffffffffffffffffffffffffffffffffffffffff168173ffffffffffffffffffffffffffffffffffffffff167f8be0079c531659141344cd1fd0a4f28419497f9722a3daafe3b4186f6b6457e060405160405180910390a35050565b61423c613e57565b60018060006101000a81548160ff0219169083151502179055507f62e78cea01bee320cd4e420270b5ea74000d11b0c9f74754ebdbfc544b05a25861427f614296565b60405161428c9190614466565b60405180910390a1565b600033905090565b6142a6611186565b6142dc576040517f8dfc202b00000000000000000000000000000000000000000000000000000000815260040160405180910390fd5b565b6040518060600160405280600073ffffffffffffffffffffffffffffffffffffffff16815260200160008152602001600081525090565b50805460008255906000526020600020908101906143339190614336565b50565b5b8082111561434f576000816000905550600101614337565b5090565b600080fd5b6000819050919050565b61436b81614358565b811461437657600080fd5b50565b60008135905061438881614362565b92915050565b600080604083850312156143a5576143a4614353565b5b60006143b385828601614379565b92505060206143c485828601614379565b9150509250929050565b6000602082840312156143e4576143e3614353565b5b60006143f284828501614379565b91505092915050565b61440481614358565b82525050565b600060208201905061441f60008301846143fb565b92915050565b600073ffffffffffffffffffffffffffffffffffffffff82169050919050565b600061445082614425565b9050919050565b61446081614445565b82525050565b600060208201905061447b6000830184614457565b92915050565b61448a81614445565b811461449557600080fd5b50565b6000813590506144a781614481565b92915050565b600080604083850312156144c4576144c3614353565b5b60006144d285828601614379565b92505060206144e385828601614498565b9150509250929050565b60008115159050919050565b614502816144ed565b82525050565b600060208201905061451d60008301846144f9565b92915050565b600060e082019050614538600083018a614457565b61454560208301896143fb565b61455260408301886143fb565b61455f6060830187614457565b61456c60808301866143fb565b61457960a08301856143fb565b61458660c08301846144f9565b98975050505050505050565b6000806000606084860312156145ab576145aa614353565b5b60006145b986828701614379565b93505060206145ca86828701614379565b92505060406145db86828701614379565b9150509250925092565b6000819050919050565b600061460a61460561460084614425565b6145e5565b614425565b9050919050565b600061461c826145ef565b9050919050565b600061462e82614611565b9050919050565b61463e81614623565b82525050565b60006020820190506146596000830184614635565b92915050565b60006080820190506146746000830187614457565b61468160208301866143fb565b61468e60408301856143fb565b61469b60608301846144f9565b95945050505050565b600081519050919050565b600082825260208201905092915050565b6000819050602082019050919050565b6146d981614445565b82525050565b6146e881614358565b82525050565b60608201600082015161470460008501826146d0565b50602082015161471760208501826146df565b50604082015161472a60408501826146df565b50505050565b600061473c83836146ee565b60608301905092915050565b6000602082019050919050565b6000614760826146a4565b61476a81856146af565b9350614775836146c0565b8060005b838110156147a657815161478d8882614730565b975061479883614748565b925050600181019050614779565b5085935050505092915050565b600060208201905081810360008301526147cd8184614755565b905092915050565b60006060820190506147ea6000830186614457565b6147f760208301856143fb565b61480460408301846143fb565b949350505050565b6000806000806080858703121561482657614825614353565b5b600061483487828801614379565b945050602061484587828801614379565b935050604061485687828801614379565b925050606061486787828801614379565b91505092959194509250565b600060c0820190506148886000830189614457565b61489560208301886143fb565b6148a260408301876143fb565b6148af60608301866143fb565b6148bc60808301856143fb565b6148c960a08301846144f9565b979650505050505050565b6000602082840312156148ea576148e9614353565b5b60006148f884828501614498565b91505092915050565b600082825260208201905092915050565b7f4f6666657220616d6f756e74206d75737420626520677265617465722074686160008201527f6e207a65726f0000000000000000000000000000000000000000000000000000602082015250565b600061496e602683614901565b915061497982614912565b604082019050919050565b6000602082019050818103600083015261499d81614961565b9050919050565b7f45787069726174696f6e206d75737420626520696e2074686520667574757265600082015250565b60006149da602083614901565b91506149e5826149a4565b602082019050919050565b60006020820190508181036000830152614a09816149cd565b9050919050565b7f596f7520616c7265616479206861766520616e20616374697665206f66666572600082015250565b6000614a46602083614901565b9150614a5182614a10565b602082019050919050565b60006020820190508181036000830152614a7581614a39565b9050919050565b6000604082019050614a9160008301856143fb565b614a9e60208301846143fb565b9392505050565b7f4e6f2066756e647320746f207769746864726177000000000000000000000000600082015250565b6000614adb601483614901565b9150614ae682614aa5565b602082019050919050565b60006020820190508181036000830152614b0a81614ace565b9050919050565b6000604082019050614b266000830185614457565b614b3360208301846143fb565b9392505050565b7f41756374696f6e206e6f74206163746976650000000000000000000000000000600082015250565b6000614b70601283614901565b9150614b7b82614b3a565b602082019050919050565b60006020820190508181036000830152614b9f81614b63565b9050919050565b7f4e487b7100000000000000000000000000000000000000000000000000000000600052601160045260246000fd5b6000614be082614358565b9150614beb83614358565b9250828203905081811115614c0357614c02614ba6565b5b92915050565b6000614c1482614358565b9150614c1f83614358565b9250828202614c2d81614358565b91508282048414831517614c4457614c43614ba6565b5b5092915050565b7f4e487b7100000000000000000000000000000000000000000000000000000000600052601260045260246000fd5b6000614c8582614358565b9150614c9083614358565b925082614ca057614c9f614c4b565b5b828204905092915050565b7f4e4654206973206e6f74206c697374656420666f722073616c65000000000000600082015250565b6000614ce1601a83614901565b9150614cec82614cab565b602082019050919050565b60006020820190508181036000830152614d1081614cd4565b9050919050565b7f496e73756666696369656e742066756e64730000000000000000000000000000600082015250565b6000614d4d601283614901565b9150614d5882614d17565b602082019050919050565b60006020820190508181036000830152614d7c81614d40565b9050919050565b7f4c697374696e6720686173206578706972656400000000000000000000000000600082015250565b6000614db9601383614901565b9150614dc482614d83565b602082019050919050565b60006020820190508181036000830152614de881614dac565b9050919050565b6000606082019050614e046000830186614457565b614e116020830185614457565b614e1e60408301846143fb565b949350505050565b600081519050614e3581614481565b92915050565b600060208284031215614e5157614e50614353565b5b6000614e5f84828501614e26565b91505092915050565b7f4e6f7420746f6b656e206f776e65720000000000000000000000000000000000600082015250565b6000614e9e600f83614901565b9150614ea982614e68565b602082019050919050565b60006020820190508181036000830152614ecd81614e91565b9050919050565b7f4e6f2076616c6964206f66666572000000000000000000000000000000000000600082015250565b6000614f0a600e83614901565b9150614f1582614ed4565b602082019050919050565b60006020820190508181036000830152614f3981614efd565b9050919050565b7f4f66666572206578706972656400000000000000000000000000000000000000600082015250565b6000614f76600d83614901565b9150614f8182614f40565b602082019050919050565b60006020820190508181036000830152614fa581614f69565b9050919050565b6000604082019050614fc16000830185614457565b614fce6020830184614457565b9392505050565b614fde816144ed565b8114614fe957600080fd5b50565b600081519050614ffb81614fd5565b92915050565b60006020828403121561501757615016614353565b5b600061502584828501614fec565b91505092915050565b7f4d61726b6574706c616365206e6f7420617070726f76656420746f206d616e6160008201527f67652074686973204e4654000000000000000000000000000000000000000000602082015250565b600061508a602b83614901565b91506150958261502e565b604082019050919050565b600060208201905081810360008301526150b98161507d565b9050919050565b7f43616e6e6f742073746172742061756374696f6e3a204e4654206973206c697360008201527f746564206f7220696e2044757463682061756374696f6e000000000000000000602082015250565b600061511c603783614901565b9150615127826150c0565b604082019050919050565b6000602082019050818103600083015261514b8161510f565b9050919050565b7f41756374696f6e206973206e6f74206163746976650000000000000000000000600082015250565b6000615188601583614901565b915061519382615152565b602082019050919050565b600060208201905081810360008301526151b78161517b565b9050919050565b7f41756374696f6e2068617320656e646564000000000000000000000000000000600082015250565b60006151f4601183614901565b91506151ff826151be565b602082019050919050565b60006020820190508181036000830152615223816151e7565b9050919050565b7f426964206d75737420626520686967686572206f7220657175616c207468616e60008201527f2063757272656e74206869676865737400000000000000000000000000000000602082015250565b6000615286603083614901565b91506152918261522a565b604082019050919050565b600060208201905081810360008301526152b581615279565b9050919050565b7f426964206d75737420626520686967686572207468616e2063757272656e742060008201527f6869676865737400000000000000000000000000000000000000000000000000602082015250565b6000615318602783614901565b9150615323826152bc565b604082019050919050565b600060208201905081810360008301526153478161530b565b9050919050565b600061535982614358565b915061536483614358565b925082820190508082111561537c5761537b614ba6565b5b92915050565b7f43616e6e6f74206c69737420647572696e6720616e206163746976652061756360008201527f74696f6e00000000000000000000000000000000000000000000000000000000602082015250565b60006153de602483614901565b91506153e982615382565b604082019050919050565b6000602082019050818103600083015261540d816153d1565b9050919050565b7f44757463682061756374696f6e206e6f74206163746976650000000000000000600082015250565b600061544a601883614901565b915061545582615414565b602082019050919050565b600060208201905081810360008301526154798161543d565b9050919050565b7f41756374696f6e20657870697265640000000000000000000000000000000000600082015250565b60006154b6600f83614901565b91506154c182615480565b602082019050919050565b600060208201905081810360008301526154e5816154a9565b9050919050565b7f4e487b7100000000000000000000000000000000000000000000000000000000600052604160045260246000fd5b7f4e487b7100000000000000000000000000000000000000000000000000000000600052603260045260246000fd5b7f41756374696f6e206973207374696c6c206f6e676f696e670000000000000000600082015250565b6000615580601883614901565b915061558b8261554a565b602082019050919050565b600060208201905081810360008301526155af81615573565b9050919050565b7f4e6f206269647320706c61636564000000000000000000000000000000000000600082015250565b60006155ec600e83614901565b91506155f7826155b6565b602082019050919050565b6000602082019050818103600083015261561b816155df565b9050919050565b7f5374617274207072696365206d7573742062652067726561746572207468616e60008201527f20656e6420707269636500000000000000000000000000000000000000000000602082015250565b600061567e602a83614901565b915061568982615622565b604082019050919050565b600060208201905081810360008301526156ad81615671565b9050919050565b7f4475726174696f6e206d7573742062652067726561746572207468616e207a6560008201527f726f000000000000000000000000000000000000000000000000000000000000602082015250565b6000615710602283614901565b915061571b826156b4565b604082019050919050565b6000602082019050818103600083015261573f81615703565b9050919050565b7f43616e6e6f742073746172742044757463682061756374696f6e3a204e46542060008201527f6973206c6973746564206f7220696e20726567756c61722061756374696f6e00602082015250565b60006157a2603f83614901565b91506157ad82615746565b604082019050919050565b600060208201905081810360008301526157d181615795565b9050919050565b60006080820190506157ed6000830187614457565b6157fa60208301866143fb565b61580760408301856143fb565b61581460608301846143fb565b95945050505050565b7f4e6f206f6666657220746f2063616e63656c0000000000000000000000000000600082015250565b6000615853601283614901565b915061585e8261581d565b602082019050919050565b6000602082019050818103600083015261588281615846565b9050919050565b7f4e487b7100000000000000000000000000000000000000000000000000000000600052603160045260246000fdfea26469706673582212200f4387f7746f679aa592c94167941d8da0ab275d61801d4ebd7f0c1f89fffe4964736f6c634300081c0033",
  "linkReferences": {},
  "deployedLinkReferences": {}
}