{
  "_format": "hh-sol-artifact-1",
  "contractName": "TradingContract",
  "sourceName": "contracts/TradingContract.sol",
  "abi": [
    {
      "inputs": [
        {
          "internalType": "address",
          "name": "_nftContract",
          "type": "address"
        }
      ],
      "stateMutability": "nonpayable",
      "type": "constructor"
    },
    {
      "inputs": [],
      "name": "EnforcedPause",
      "type": "error"
    },
    {
      "inputs": [],
      "name": "ExpectedPause",
      "type": "error"
    },
    {
      "inputs": [
        {
          "internalType": "address",
          "name": "owner",
          "type": "address"
        }
      ],
      "name": "OwnableInvalidOwner",
      "type": "error"
    },
    {
      "inputs": [
        {
          "internalType": "address",
          "name": "account",
          "type": "address"
        }
      ],
      "name": "OwnableUnauthorizedAccount",
      "type": "error"
    },
    {
      "inputs": [],
      "name": "ReentrancyGuardReentrantCall",
      "type": "error"
    },
    {
      "anonymous": false,
      "inputs": [
        {
          "indexed": true,
          "internalType": "uint256",
          "name": "tokenId",
          "type": "uint256"
        },
        {
          "indexed": false,
          "internalType": "address",
          "name": "winner",
          "type": "address"
        },
        {
          "indexed": false,
          "internalType": "uint256",
          "name": "amount",
          "type": "uint256"
        }
      ],
      "name": "AuctionEnded",
      "type": "event"
    },
    {
      "anonymous": false,
      "inputs": [
        {
          "indexed": true,
          "internalType": "uint256",
          "name": "tokenId",
          "type": "uint256"
        },
        {
          "indexed": false,
          "internalType": "address",
          "name": "seller",
          "type": "address"
        },
        {
          "indexed": false,
          "internalType": "uint256",
          "name": "startingPrice",
          "type": "uint256"
        },
        {
          "indexed": false,
          "internalType": "uint256",
          "name": "endTime",
          "type": "uint256"
        }
      ],
      "name": "AuctionStarted",
      "type": "event"
    },
    {
      "anonymous": false,
      "inputs": [
        {
          "indexed": true,
          "internalType": "uint256",
          "name": "tokenId",
          "type": "uint256"
        },
        {
          "indexed": false,
          "internalType": "address",
          "name": "bidder",
          "type": "address"
        },
        {
          "indexed": false,
          "internalType": "uint256",
          "name": "amount",
          "type": "uint256"
        }
      ],
      "name": "BidWithdrawn",
      "type": "event"
    },
    {
      "anonymous": false,
      "inputs": [
        {
          "indexed": true,
          "internalType": "uint256",
          "name": "tokenId",
          "type": "uint256"
        },
        {
          "indexed": false,
          "internalType": "address",
          "name": "buyer",
          "type": "address"
        },
        {
          "indexed": false,
          "internalType": "uint256",
          "name": "amount",
          "type": "uint256"
        }
      ],
      "name": "DutchAuctionEnded",
      "type": "event"
    },
    {
      "anonymous": false,
      "inputs": [
        {
          "indexed": true,
          "internalType": "uint256",
          "name": "tokenId",
          "type": "uint256"
        },
        {
          "indexed": false,
          "internalType": "address",
          "name": "seller",
          "type": "address"
        },
        {
          "indexed": false,
          "internalType": "uint256",
          "name": "startPrice",
          "type": "uint256"
        },
        {
          "indexed": false,
          "internalType": "uint256",
          "name": "endPrice",
          "type": "uint256"
        },
        {
          "indexed": false,
          "internalType": "uint256",
          "name": "endTime",
          "type": "uint256"
        }
      ],
      "name": "DutchAuctionStarted",
      "type": "event"
    },
    {
      "anonymous": false,
      "inputs": [
        {
          "indexed": true,
          "internalType": "uint256",
          "name": "tokenId",
          "type": "uint256"
        },
        {
          "indexed": false,
          "internalType": "address",
          "name": "seller",
          "type": "address"
        }
      ],
      "name": "NFTDelisted",
      "type": "event"
    },
    {
      "anonymous": false,
      "inputs": [
        {
          "indexed": true,
          "internalType": "uint256",
          "name": "tokenId",
          "type": "uint256"
        },
        {
          "indexed": false,
          "internalType": "address",
          "name": "seller",
          "type": "address"
        },
        {
          "indexed": false,
          "internalType": "uint256",
          "name": "price",
          "type": "uint256"
        }
      ],
      "name": "NFTListed",
      "type": "event"
    },
    {
      "anonymous": false,
      "inputs": [
        {
          "indexed": true,
          "internalType": "uint256",
          "name": "tokenId",
          "type": "uint256"
        },
        {
          "indexed": false,
          "internalType": "address",
          "name": "seller",
          "type": "address"
        },
        {
          "indexed": false,
          "internalType": "address",
          "name": "buyer",
          "type": "address"
        },
        {
          "indexed": false,
          "internalType": "uint256",
          "name": "price",
          "type": "uint256"
        }
      ],
      "name": "NFTSold",
      "type": "event"
    },
    {
      "anonymous": false,
      "inputs": [
        {
          "indexed": true,
          "internalType": "uint256",
          "name": "tokenId",
          "type": "uint256"
        },
        {
          "indexed": false,
          "internalType": "address",
          "name": "bidder",
          "type": "address"
        },
        {
          "indexed": false,
          "internalType": "uint256",
          "name": "amount",
          "type": "uint256"
        }
      ],
      "name": "NewBid",
      "type": "event"
    },
    {
      "anonymous": false,
      "inputs": [
        {
          "indexed": true,
          "internalType": "uint256",
          "name": "tokenId",
          "type": "uint256"
        },
        {
          "indexed": true,
          "internalType": "address",
          "name": "offerer",
          "type": "address"
        },
        {
          "indexed": false,
          "internalType": "uint256",
          "name": "amount",
          "type": "uint256"
        }
      ],
      "name": "OfferAccepted",
      "type": "event"
    },
    {
      "anonymous": false,
      "inputs": [
        {
          "indexed": true,
          "internalType": "uint256",
          "name": "tokenId",
          "type": "uint256"
        },
        {
          "indexed": true,
          "internalType": "address",
          "name": "offerer",
          "type": "address"
        }
      ],
      "name": "OfferCancelled",
      "type": "event"
    },
    {
      "anonymous": false,
      "inputs": [
        {
          "indexed": true,
          "internalType": "uint256",
          "name": "tokenId",
          "type": "uint256"
        },
        {
          "indexed": true,
          "internalType": "address",
          "name": "offerer",
          "type": "address"
        },
        {
          "indexed": false,
          "internalType": "uint256",
          "name": "amount",
          "type": "uint256"
        },
        {
          "indexed": false,
          "internalType": "uint256",
          "name": "expiration",
          "type": "uint256"
        }
      ],
      "name": "OfferMade",
      "type": "event"
    },
    {
      "anonymous": false,
      "inputs": [
        {
          "indexed": true,
          "internalType": "address",
          "name": "previousOwner",
          "type": "address"
        },
        {
          "indexed": true,
          "internalType": "address",
          "name": "newOwner",
          "type": "address"
        }
      ],
      "name": "OwnershipTransferred",
      "type": "event"
    },
    {
      "anonymous": false,
      "inputs": [
        {
          "indexed": false,
          "internalType": "address",
          "name": "account",
          "type": "address"
        }
      ],
      "name": "Paused",
      "type": "event"
    },
    {
      "anonymous": false,
      "inputs": [
        {
          "indexed": false,
          "internalType": "address",
          "name": "account",
          "type": "address"
        }
      ],
      "name": "Unpaused",
      "type": "event"
    },
    {
      "inputs": [
        {
          "internalType": "uint256",
          "name": "tokenId",
          "type": "uint256"
        },
        {
          "internalType": "address",
          "name": "offerer",
          "type": "address"
        }
      ],
      "name": "acceptOffer",
      "outputs": [],
      "stateMutability": "nonpayable",
      "type": "function"
    },
    {
      "inputs": [
        {
          "internalType": "uint256",
          "name": "",
          "type": "uint256"
        }
      ],
      "name": "auctions",
      "outputs": [
        {
          "internalType": "address",
          "name": "seller",
          "type": "address"
        },
        {
          "internalType": "uint256",
          "name": "startingPrice",
          "type": "uint256"
        },
        {
          "internalType": "uint256",
          "name": "highestBid",
          "type": "uint256"
        },
        {
          "internalType": "address",
          "name": "highestBidder",
          "type": "address"
        },
        {
          "internalType": "uint256",
          "name": "startTimestamp",
          "type": "uint256"
        },
        {
          "internalType": "uint256",
          "name": "endTimestamp",
          "type": "uint256"
        },
        {
          "internalType": "bool",
          "name": "isActive",
          "type": "bool"
        }
      ],
      "stateMutability": "view",
      "type": "function"
    },
    {
      "inputs": [
        {
          "internalType": "uint256",
          "name": "tokenId",
          "type": "uint256"
        }
      ],
      "name": "buyFromDutchAuction",
      "outputs": [],
      "stateMutability": "payable",
      "type": "function"
    },
    {
      "inputs": [
        {
          "internalType": "uint256",
          "name": "tokenId",
          "type": "uint256"
        }
      ],
      "name": "buyNFT",
      "outputs": [],
      "stateMutability": "payable",
      "type": "function"
    },
    {
      "inputs": [
        {
          "internalType": "uint256",
          "name": "tokenId",
          "type": "uint256"
        }
      ],
      "name": "cancelAuction",
      "outputs": [],
      "stateMutability": "nonpayable",
      "type": "function"
    },
    {
      "inputs": [
        {
          "internalType": "uint256",
          "name": "tokenId",
          "type": "uint256"
        }
      ],
      "name": "cancelDutchAuction",
      "outputs": [],
      "stateMutability": "nonpayable",
      "type": "function"
    },
    {
      "inputs": [
        {
          "internalType": "uint256",
          "name": "tokenId",
          "type": "uint256"
        }
      ],
      "name": "cancelOffer",
      "outputs": [],
      "stateMutability": "nonpayable",
      "type": "function"
    },
    {
      "inputs": [
        {
          "internalType": "uint256",
          "name": "tokenId",
          "type": "uint256"
        }
      ],
      "name": "delistNFT",
      "outputs": [],
      "stateMutability": "nonpayable",
      "type": "function"
    },
    {
      "inputs": [
        {
          "internalType": "uint256",
          "name": "",
          "type": "uint256"
        }
      ],
      "name": "dutchAuctions",
      "outputs": [
        {
          "internalType": "address",
          "name": "seller",
          "type": "address"
        },
        {
          "internalType": "uint256",
          "name": "startPrice",
          "type": "uint256"
        },
        {
          "internalType": "uint256",
          "name": "endPrice",
          "type": "uint256"
        },
        {
          "internalType": "uint256",
          "name": "startTimestamp",
          "type": "uint256"
        },
        {
          "internalType": "uint256",
          "name": "endTimestamp",
          "type": "uint256"
        },
        {
          "internalType": "bool",
          "name": "isActive",
          "type": "bool"
        }
      ],
      "stateMutability": "view",
      "type": "function"
    },
    {
      "inputs": [
        {
          "internalType": "uint256",
          "name": "tokenId",
          "type": "uint256"
        }
      ],
      "name": "finalizeAuction",
      "outputs": [],
      "stateMutability": "nonpayable",
      "type": "function"
    },
    {
      "inputs": [
        {
          "internalType": "uint256",
          "name": "tokenId",
          "type": "uint256"
        }
      ],
      "name": "getCurrentDutchPrice",
      "outputs": [
        {
          "internalType": "uint256",
          "name": "",
          "type": "uint256"
        }
      ],
      "stateMutability": "view",
      "type": "function"
    },
    {
      "inputs": [
        {
          "internalType": "uint256",
          "name": "tokenId",
          "type": "uint256"
        }
      ],
      "name": "getOffers",
      "outputs": [
        {
          "components": [
            {
              "internalType": "address",
              "name": "offerer",
              "type": "address"
            },
            {
              "internalType": "uint256",
              "name": "amount",
              "type": "uint256"
            },
            {
              "internalType": "uint256",
              "name": "expiration",
              "type": "uint256"
            }
          ],
          "internalType": "struct TradingContract.Offer[]",
          "name": "",
          "type": "tuple[]"
        }
      ],
      "stateMutability": "view",
      "type": "function"
    },
    {
      "inputs": [
        {
          "internalType": "uint256",
          "name": "tokenId",
          "type": "uint256"
        },
        {
          "internalType": "address",
          "name": "user",
          "type": "address"
        }
      ],
      "name": "hasPendingReturns",
      "outputs": [
        {
          "internalType": "bool",
          "name": "",
          "type": "bool"
        }
      ],
      "stateMutability": "view",
      "type": "function"
    },
    {
      "inputs": [
        {
          "internalType": "uint256",
          "name": "tokenId",
          "type": "uint256"
        },
        {
          "internalType": "uint256",
          "name": "price",
          "type": "uint256"
        },
        {
          "internalType": "uint256",
          "name": "expiration",
          "type": "uint256"
        }
      ],
      "name": "listNFT",
      "outputs": [],
      "stateMutability": "nonpayable",
      "type": "function"
    },
    {
      "inputs": [
        {
          "internalType": "uint256",
          "name": "",
          "type": "uint256"
        }
      ],
      "name": "listings",
      "outputs": [
        {
          "internalType": "address",
          "name": "seller",
          "type": "address"
        },
        {
          "internalType": "uint256",
          "name": "price",
          "type": "uint256"
        },
        {
          "internalType": "uint256",
          "name": "expiration",
          "type": "uint256"
        },
        {
          "internalType": "bool",
          "name": "isActive",
          "type": "bool"
        }
      ],
      "stateMutability": "view",
      "type": "function"
    },
    {
      "inputs": [
        {
          "internalType": "uint256",
          "name": "tokenId",
          "type": "uint256"
        },
        {
          "internalType": "uint256",
          "name": "expiration",
          "type": "uint256"
        }
      ],
      "name": "makeOffer",
      "outputs": [],
      "stateMutability": "payable",
      "type": "function"
    },
    {
      "inputs": [],
      "name": "nftContract",
      "outputs": [
        {
          "internalType": "contract ERC721",
          "name": "",
          "type": "address"
        }
      ],
      "stateMutability": "view",
      "type": "function"
    },
    {
      "inputs": [
        {
          "internalType": "uint256",
          "name": "",
          "type": "uint256"
        },
        {
          "internalType": "uint256",
          "name": "",
          "type": "uint256"
        }
      ],
      "name": "offerers",
      "outputs": [
        {
          "internalType": "address",
          "name": "",
          "type": "address"
        }
      ],
      "stateMutability": "view",
      "type": "function"
    },
    {
      "inputs": [
        {
          "internalType": "uint256",
          "name": "",
          "type": "uint256"
        },
        {
          "internalType": "address",
          "name": "",
          "type": "address"
        }
      ],
      "name": "offers",
      "outputs": [
        {
          "internalType": "address",
          "name": "offerer",
          "type": "address"
        },
        {
          "internalType": "uint256",
          "name": "amount",
          "type": "uint256"
        },
        {
          "internalType": "uint256",
          "name": "expiration",
          "type": "uint256"
        }
      ],
      "stateMutability": "view",
      "type": "function"
    },
    {
      "inputs": [],
      "name": "owner",
      "outputs": [
        {
          "internalType": "address",
          "name": "",
          "type": "address"
        }
      ],
      "stateMutability": "view",
      "type": "function"
    },
    {
      "inputs": [],
      "name": "pause",
      "outputs": [],
      "stateMutability": "nonpayable",
      "type": "function"
    },
    {
      "inputs": [],
      "name": "paused",
      "outputs": [
        {
          "internalType": "bool",
          "name": "",
          "type": "bool"
        }
      ],
      "stateMutability": "view",
      "type": "function"
    },
    {
      "inputs": [
        {
          "internalType": "uint256",
          "name": "",
          "type": "uint256"
        },
        {
          "internalType": "address",
          "name": "",
          "type": "address"
        }
      ],
      "name": "pendingReturns",
      "outputs": [
        {
          "internalType": "uint256",
          "name": "",
          "type": "uint256"
        }
      ],
      "stateMutability": "view",
      "type": "function"
    },
    {
      "inputs": [
        {
          "internalType": "uint256",
          "name": "tokenId",
          "type": "uint256"
        }
      ],
      "name": "placeBid",
      "outputs": [],
      "stateMutability": "payable",
      "type": "function"
    },
    {
      "inputs": [],
      "name": "renounceOwnership",
      "outputs": [],
      "stateMutability": "nonpayable",
      "type": "function"
    },
    {
      "inputs": [
        {
          "internalType": "uint256",
          "name": "tokenId",
          "type": "uint256"
        },
        {
          "internalType": "uint256",
          "name": "startingPrice",
          "type": "uint256"
        },
        {
          "internalType": "uint256",
          "name": "endTimeStamp",
          "type": "uint256"
        }
      ],
      "name": "startAuction",
      "outputs": [],
      "stateMutability": "nonpayable",
      "type": "function"
    },
    {
      "inputs": [
        {
          "internalType": "uint256",
          "name": "tokenId",
          "type": "uint256"
        },
        {
          "internalType": "uint256",
          "name": "startPrice",
          "type": "uint256"
        },
        {
          "internalType": "uint256",
          "name": "endPrice",
          "type": "uint256"
        },
        {
          "internalType": "uint256",
          "name": "duration",
          "type": "uint256"
        }
      ],
      "name": "startDutchAuction",
      "outputs": [],
      "stateMutability": "nonpayable",
      "type": "function"
    },
    {
      "inputs": [
        {
          "internalType": "address",
          "name": "newOwner",
          "type": "address"
        }
      ],
      "name": "transferOwnership",
      "outputs": [],
      "stateMutability": "nonpayable",
      "type": "function"
    },
    {
      "inputs": [],
      "name": "unpause",
      "outputs": [],
      "stateMutability": "nonpayable",
      "type": "function"
    },
    {
      "inputs": [
        {
          "internalType": "uint256",
          "name": "tokenId",
          "type": "uint256"
        }
      ],
      "name": "withdrawBid",
      "outputs": [],
      "stateMutability": "nonpayable",
      "type": "function"
    }
  ],
  "bytecode": "0x608060405234801561001057600080fd5b50604051615a89380380615a898339818101604052810190610032919061022a565b336001600081905550600073ffffffffffffffffffffffffffffffffffffffff168173ffffffffffffffffffffffffffffffffffffffff16036100ad5760006040517f1e4fbdf70000000000000000000000000000000000000000000000000000000081526004016100a49190610266565b60405180910390fd5b6100bc8161010460201b60201c565b5080600260006101000a81548173ffffffffffffffffffffffffffffffffffffffff021916908373ffffffffffffffffffffffffffffffffffffffff16021790555050610281565b600060018054906101000a900473ffffffffffffffffffffffffffffffffffffffff169050816001806101000a81548173ffffffffffffffffffffffffffffffffffffffff021916908373ffffffffffffffffffffffffffffffffffffffff1602179055508173ffffffffffffffffffffffffffffffffffffffff168173ffffffffffffffffffffffffffffffffffffffff167f8be0079c531659141344cd1fd0a4f28419497f9722a3daafe3b4186f6b6457e060405160405180910390a35050565b600080fd5b600073ffffffffffffffffffffffffffffffffffffffff82169050919050565b60006101f7826101cc565b9050919050565b610207816101ec565b811461021257600080fd5b50565b600081519050610224816101fe565b92915050565b6000602082840312156102405761023f6101c7565b5b600061024e84828501610215565b91505092915050565b610260816101ec565b82525050565b600060208201905061027b6000830184610257565b92915050565b6157f9806102906000396000f3fe6080604052600436106101cd5760003560e01c806396b5a755116100f7578063de74e57b11610095578063ecfc12a311610064578063ecfc12a314610643578063ef706adf1461066c578063f2ab2fc014610695578063f2fde38b146106d7576101cd565b8063de74e57b1461055e578063dfa49e6f1461059e578063e8083863146105db578063ebdfbce514610604576101cd565b8063caabdd3d116100d1578063caabdd3d146104c5578063cb917b9c146104e1578063d56d229d1461050a578063ddee843314610535576101cd565b806396b5a755146104575780639979ef4514610480578063b0136c8d1461049c576101cd565b8063571a26a01161016f5780638da5cb5b1161013e5780638da5cb5b1461039d5780638ddac1ef146103c8578063918d407d1461040557806391e078bb1461042e576101cd565b8063571a26a0146103015780635c975abb14610344578063715018a61461036f5780638456cb5914610386576101cd565b80633079dccf116101ab5780633079dccf146102545780633f4ba83a1461029157806351ed8288146102a85780635629939a146102c4576101cd565b806305b7cdd3146101d25780630eaaf4c8146101ee5780632f44dee814610217575b600080fd5b6101ec60048036038101906101e79190614351565b610700565b005b3480156101fa57600080fd5b5061021560048036038101906102109190614391565b6109e1565b005b34801561022357600080fd5b5061023e60048036038101906102399190614391565b610b6c565b60405161024b91906143cd565b60405180910390f35b34801561026057600080fd5b5061027b60048036038101906102769190614351565b610cfa565b6040516102889190614429565b60405180910390f35b34801561029d57600080fd5b506102a6610d48565b005b6102c260048036038101906102bd9190614391565b610d5a565b005b3480156102d057600080fd5b506102eb60048036038101906102e69190614470565b61109a565b6040516102f891906144cb565b60405180910390f35b34801561030d57600080fd5b5061032860048036038101906103239190614391565b6110f7565b60405161033b97969594939291906144e6565b60405180910390f35b34801561035057600080fd5b50610359611186565b60405161036691906144cb565b60405180910390f35b34801561037b57600080fd5b50610384611195565b005b34801561039257600080fd5b5061039b6111a9565b005b3480156103a957600080fd5b506103b26111bb565b6040516103bf9190614429565b60405180910390f35b3480156103d457600080fd5b506103ef60048036038101906103ea9190614470565b6111e3565b6040516103fc91906143cd565b60405180910390f35b34801561041157600080fd5b5061042c60048036038101906104279190614470565b611208565b005b34801561043a57600080fd5b5061045560048036038101906104509190614555565b6116aa565b005b34801561046357600080fd5b5061047e60048036038101906104799190614391565b611b9d565b005b61049a60048036038101906104959190614391565b611e8d565b005b3480156104a857600080fd5b506104c360048036038101906104be9190614555565b6120f0565b005b6104df60048036038101906104da9190614391565b61259e565b005b3480156104ed57600080fd5b5061050860048036038101906105039190614391565b61289e565b005b34801561051657600080fd5b5061051f612ac2565b60405161052c9190614607565b60405180910390f35b34801561054157600080fd5b5061055c60048036038101906105579190614391565b612ae8565b005b34801561056a57600080fd5b5061058560048036038101906105809190614391565b612ccc565b6040516105959493929190614622565b60405180910390f35b3480156105aa57600080fd5b506105c560048036038101906105c09190614391565b612d29565b6040516105d29190614776565b60405180910390f35b3480156105e757600080fd5b5061060260048036038101906105fd9190614391565b612f46565b005b34801561061057600080fd5b5061062b60048036038101906106269190614470565b613383565b60405161063a93929190614798565b60405180910390f35b34801561064f57600080fd5b5061066a600480360381019061066591906147cf565b6133da565b005b34801561067857600080fd5b50610693600480360381019061068e9190614391565b613901565b005b3480156106a157600080fd5b506106bc60048036038101906106b79190614391565b613ce5565b6040516106ce96959493929190614836565b60405180910390f35b3480156106e357600080fd5b506106fe60048036038101906106f99190614897565b613d4e565b005b610708613dd4565b610710613e1a565b60003411610753576040517f08c379a000000000000000000000000000000000000000000000000000000000815260040161074a90614947565b60405180910390fd5b428111610795576040517f08c379a000000000000000000000000000000000000000000000000000000000815260040161078c906149b3565b60405180910390fd5b60006007600084815260200190815260200160002060003373ffffffffffffffffffffffffffffffffffffffff1673ffffffffffffffffffffffffffffffffffffffff16815260200190815260200160002090506000816001015414610830576040517f08c379a000000000000000000000000000000000000000000000000000000000815260040161082790614a1f565b60405180910390fd5b60405180606001604052803373ffffffffffffffffffffffffffffffffffffffff168152602001348152602001838152506007600085815260200190815260200160002060003373ffffffffffffffffffffffffffffffffffffffff1673ffffffffffffffffffffffffffffffffffffffff16815260200190815260200160002060008201518160000160006101000a81548173ffffffffffffffffffffffffffffffffffffffff021916908373ffffffffffffffffffffffffffffffffffffffff160217905550602082015181600101556040820151816002015590505060086000848152602001908152602001600020339080600181540180825580915050600190039060005260206000200160009091909190916101000a81548173ffffffffffffffffffffffffffffffffffffffff021916908373ffffffffffffffffffffffffffffffffffffffff1602179055503373ffffffffffffffffffffffffffffffffffffffff16837fd7df0c72641d362ea57ecc9cab99c77f936e36bb826f096258c3404196b26d6a34856040516109cc929190614a3f565b60405180910390a3506109dd613e5b565b5050565b6109e9613dd4565b6109f1613e1a565b60006006600083815260200190815260200160002060003373ffffffffffffffffffffffffffffffffffffffff1673ffffffffffffffffffffffffffffffffffffffff16815260200190815260200160002054905060008111610a89576040517f08c379a0000000000000000000000000000000000000000000000000000000008152600401610a8090614ab4565b60405180910390fd5b60006006600084815260200190815260200160002060003373ffffffffffffffffffffffffffffffffffffffff1673ffffffffffffffffffffffffffffffffffffffff168152602001908152602001600020819055503373ffffffffffffffffffffffffffffffffffffffff166108fc829081150290604051600060405180830381858888f19350505050158015610b25573d6000803e3d6000fd5b50817f8f8619524e8d462cead34604bd2247ede24175801481e4d0b8059ac8aa41c3013383604051610b58929190614ad4565b60405180910390a250610b69613e5b565b50565b600080600560008481526020019081526020016000206040518060c00160405290816000820160009054906101000a900473ffffffffffffffffffffffffffffffffffffffff1673ffffffffffffffffffffffffffffffffffffffff1673ffffffffffffffffffffffffffffffffffffffff168152602001600182015481526020016002820154815260200160038201548152602001600482015481526020016005820160009054906101000a900460ff16151515158152505090508060a00151610c6c576040517f08c379a0000000000000000000000000000000000000000000000000000000008152600401610c6390614b49565b60405180910390fd5b80608001514210610c84578060400151915050610cf5565b6000816060015142610c969190614b98565b9050600082606001518360800151610cae9190614b98565b9050600083604001518460200151610cc69190614b98565b9050818382610cd59190614bcc565b610cdf9190614c3d565b8460200151610cee9190614b98565b9450505050505b919050565b60086020528160005260406000208181548110610d1657600080fd5b906000526020600020016000915091509054906101000a900473ffffffffffffffffffffffffffffffffffffffff1681565b610d50613e65565b610d58613eec565b565b806003600082815260200190815260200160002060030160009054906101000a900460ff16610dbe576040517f08c379a0000000000000000000000000000000000000000000000000000000008152600401610db590614cba565b60405180910390fd5b610dc6613dd4565b610dce613e1a565b6000600360008481526020019081526020016000206040518060800160405290816000820160009054906101000a900473ffffffffffffffffffffffffffffffffffffffff1673ffffffffffffffffffffffffffffffffffffffff1673ffffffffffffffffffffffffffffffffffffffff16815260200160018201548152602001600282015481526020016003820160009054906101000a900460ff16151515158152505090508060200151341015610ebc576040517f08c379a0000000000000000000000000000000000000000000000000000000008152600401610eb390614d26565b60405180910390fd5b8060400151421115610f03576040517f08c379a0000000000000000000000000000000000000000000000000000000008152600401610efa90614d92565b60405180910390fd5b806000015173ffffffffffffffffffffffffffffffffffffffff166108fc349081150290604051600060405180830381858888f19350505050158015610f4d573d6000803e3d6000fd5b50600260009054906101000a900473ffffffffffffffffffffffffffffffffffffffff1673ffffffffffffffffffffffffffffffffffffffff166342842e0e826000015133866040518463ffffffff1660e01b8152600401610fb193929190614db2565b600060405180830381600087803b158015610fcb57600080fd5b505af1158015610fdf573d6000803e3d6000fd5b5050505060036000848152602001908152602001600020600080820160006101000a81549073ffffffffffffffffffffffffffffffffffffffff0219169055600182016000905560028201600090556003820160006101000a81549060ff0219169055505061104d83613f4f565b827f8562eb94748e30bb0071e932744ce902b460c683474fcb3bfd567ffa16b1afb28260000151333460405161108593929190614db2565b60405180910390a250611096613e5b565b5050565b6000806006600085815260200190815260200160002060008473ffffffffffffffffffffffffffffffffffffffff1673ffffffffffffffffffffffffffffffffffffffff1681526020019081526020016000205411905092915050565b60046020528060005260406000206000915090508060000160009054906101000a900473ffffffffffffffffffffffffffffffffffffffff16908060010154908060020154908060030160009054906101000a900473ffffffffffffffffffffffffffffffffffffffff16908060040154908060050154908060060160009054906101000a900460ff16905087565b600061119061411d565b905090565b61119d613e65565b6111a76000614134565b565b6111b1613e65565b6111b96141f7565b565b600060018054906101000a900473ffffffffffffffffffffffffffffffffffffffff16905090565b6006602052816000526040600020602052806000526040600020600091509150505481565b813373ffffffffffffffffffffffffffffffffffffffff16600260009054906101000a900473ffffffffffffffffffffffffffffffffffffffff1673ffffffffffffffffffffffffffffffffffffffff16636352211e836040518263ffffffff1660e01b815260040161127b91906143cd565b602060405180830381865afa158015611298573d6000803e3d6000fd5b505050506040513d601f19601f820116820180604052508101906112bc9190614dfe565b73ffffffffffffffffffffffffffffffffffffffff1614611312576040517f08c379a000000000000000000000000000000000000000000000000000000000815260040161130990614e77565b60405180910390fd5b61131a613dd4565b611322613e1a565b60006007600085815260200190815260200160002060008473ffffffffffffffffffffffffffffffffffffffff1673ffffffffffffffffffffffffffffffffffffffff1681526020019081526020016000206040518060600160405290816000820160009054906101000a900473ffffffffffffffffffffffffffffffffffffffff1673ffffffffffffffffffffffffffffffffffffffff1673ffffffffffffffffffffffffffffffffffffffff1681526020016001820154815260200160028201548152505090506000816020015111611432576040517f08c379a000000000000000000000000000000000000000000000000000000000815260040161142990614ee3565b60405180910390fd5b8060400151421115611479576040517f08c379a000000000000000000000000000000000000000000000000000000000815260040161147090614f4f565b60405180910390fd5b6007600085815260200190815260200160002060008473ffffffffffffffffffffffffffffffffffffffff1673ffffffffffffffffffffffffffffffffffffffff168152602001908152602001600020600080820160006101000a81549073ffffffffffffffffffffffffffffffffffffffff02191690556001820160009055600282016000905550503373ffffffffffffffffffffffffffffffffffffffff166108fc82602001519081150290604051600060405180830381858888f1935050505015801561154d573d6000803e3d6000fd5b50600260009054906101000a900473ffffffffffffffffffffffffffffffffffffffff1673ffffffffffffffffffffffffffffffffffffffff166342842e0e3385876040518463ffffffff1660e01b81526004016115ad93929190614db2565b600060405180830381600087803b1580156115c757600080fd5b505af11580156115db573d6000803e3d6000fd5b5050505060036000858152602001908152602001600020600080820160006101000a81549073ffffffffffffffffffffffffffffffffffffffff0219169055600182016000905560028201600090556003820160006101000a81549060ff0219169055505061164984613f4f565b8273ffffffffffffffffffffffffffffffffffffffff16847fea555ab99331ceac5051c58f17cc7b411b30241b0e28cb93a7d3a24c77a7a9a9836020015160405161169491906143cd565b60405180910390a3506116a5613e5b565b505050565b823373ffffffffffffffffffffffffffffffffffffffff16600260009054906101000a900473ffffffffffffffffffffffffffffffffffffffff1673ffffffffffffffffffffffffffffffffffffffff16636352211e836040518263ffffffff1660e01b815260040161171d91906143cd565b602060405180830381865afa15801561173a573d6000803e3d6000fd5b505050506040513d601f19601f8201168201806040525081019061175e9190614dfe565b73ffffffffffffffffffffffffffffffffffffffff16146117b4576040517f08c379a00000000000000000000000000000000000000000000000000000000081526004016117ab90614e77565b60405180910390fd5b6117bc613dd4565b6117c4613e1a565b3073ffffffffffffffffffffffffffffffffffffffff16600260009054906101000a900473ffffffffffffffffffffffffffffffffffffffff1673ffffffffffffffffffffffffffffffffffffffff1663081812fc866040518263ffffffff1660e01b815260040161183691906143cd565b602060405180830381865afa158015611853573d6000803e3d6000fd5b505050506040513d601f19601f820116820180604052508101906118779190614dfe565b73ffffffffffffffffffffffffffffffffffffffff1614806119335750600260009054906101000a900473ffffffffffffffffffffffffffffffffffffffff1673ffffffffffffffffffffffffffffffffffffffff1663e985e9c533306040518363ffffffff1660e01b81526004016118f1929190614f6f565b602060405180830381865afa15801561190e573d6000803e3d6000fd5b505050506040513d601f19601f820116820180604052508101906119329190614fc4565b5b611972576040517f08c379a000000000000000000000000000000000000000000000000000000000815260040161196990615063565b60405180910390fd5b6003600085815260200190815260200160002060030160009054906101000a900460ff161580156119c457506005600085815260200190815260200160002060050160009054906101000a900460ff16155b611a03576040517f08c379a00000000000000000000000000000000000000000000000000000000081526004016119fa906150f5565b60405180910390fd5b6040518060e001604052803373ffffffffffffffffffffffffffffffffffffffff16815260200184815260200160008152602001600073ffffffffffffffffffffffffffffffffffffffff168152602001428152602001838152602001600115158152506004600086815260200190815260200160002060008201518160000160006101000a81548173ffffffffffffffffffffffffffffffffffffffff021916908373ffffffffffffffffffffffffffffffffffffffff160217905550602082015181600101556040820151816002015560608201518160030160006101000a81548173ffffffffffffffffffffffffffffffffffffffff021916908373ffffffffffffffffffffffffffffffffffffffff1602179055506080820151816004015560a0820151816005015560c08201518160060160006101000a81548160ff021916908315150217905550905050837fbf6dc7bdf2f23af5a506fe03ee1221f47d023a2227fbc949c6b812ae44534e6d338585604051611b8793929190614798565b60405180910390a2611b97613e5b565b50505050565b803373ffffffffffffffffffffffffffffffffffffffff16600260009054906101000a900473ffffffffffffffffffffffffffffffffffffffff1673ffffffffffffffffffffffffffffffffffffffff16636352211e836040518263ffffffff1660e01b8152600401611c1091906143cd565b602060405180830381865afa158015611c2d573d6000803e3d6000fd5b505050506040513d601f19601f82011682018060405250810190611c519190614dfe565b73ffffffffffffffffffffffffffffffffffffffff1614611ca7576040517f08c379a0000000000000000000000000000000000000000000000000000000008152600401611c9e90614e77565b60405180910390fd5b816004600082815260200190815260200160002060060160009054906101000a900460ff16611d0b576040517f08c379a0000000000000000000000000000000000000000000000000000000008152600401611d0290615161565b60405180910390fd5b611d13613dd4565b611d1b613e1a565b6000600460008581526020019081526020016000209050600081600201541115611daf578060030160009054906101000a900473ffffffffffffffffffffffffffffffffffffffff1673ffffffffffffffffffffffffffffffffffffffff166108fc82600201549081150290604051600060405180830381858888f19350505050158015611dad573d6000803e3d6000fd5b505b60046000858152602001908152602001600020600080820160006101000a81549073ffffffffffffffffffffffffffffffffffffffff0219169055600182016000905560028201600090556003820160006101000a81549073ffffffffffffffffffffffffffffffffffffffff0219169055600482016000905560058201600090556006820160006101000a81549060ff02191690555050837fef1499b350e05776e60cd2ffcac001569a28e9d574e1f3adc1b3ab264f8ccffd33604051611e779190614429565b60405180910390a250611e88613e5b565b505050565b806004600082815260200190815260200160002060060160009054906101000a900460ff16611ef1576040517f08c379a0000000000000000000000000000000000000000000000000000000008152600401611ee890615161565b60405180910390fd5b600060046000848152602001908152602001600020905080600501544210611f4e576040517f08c379a0000000000000000000000000000000000000000000000000000000008152600401611f45906151cd565b60405180910390fd5b80600201543411611f94576040517f08c379a0000000000000000000000000000000000000000000000000000000008152600401611f8b90615239565b60405180910390fd5b6000816002015411156120315780600201546006600085815260200190815260200160002060008360030160009054906101000a900473ffffffffffffffffffffffffffffffffffffffff1673ffffffffffffffffffffffffffffffffffffffff1673ffffffffffffffffffffffffffffffffffffffff16815260200190815260200160002060008282546120299190615259565b925050819055505b348160020181905550338160030160006101000a81548173ffffffffffffffffffffffffffffffffffffffff021916908373ffffffffffffffffffffffffffffffffffffffff160217905550607842826005015461208f9190614b98565b116120b15760788160050160008282546120a99190615259565b925050819055505b827f558a0d5d5468d74b0db24c74eb348b42271c2ebb4c9e953ced38aaed95fa436133346040516120e3929190614ad4565b60405180910390a2505050565b823373ffffffffffffffffffffffffffffffffffffffff16600260009054906101000a900473ffffffffffffffffffffffffffffffffffffffff1673ffffffffffffffffffffffffffffffffffffffff16636352211e836040518263ffffffff1660e01b815260040161216391906143cd565b602060405180830381865afa158015612180573d6000803e3d6000fd5b505050506040513d601f19601f820116820180604052508101906121a49190614dfe565b73ffffffffffffffffffffffffffffffffffffffff16146121fa576040517f08c379a00000000000000000000000000000000000000000000000000000000081526004016121f190614e77565b60405180910390fd5b612202613dd4565b61220a613e1a565b3073ffffffffffffffffffffffffffffffffffffffff16600260009054906101000a900473ffffffffffffffffffffffffffffffffffffffff1673ffffffffffffffffffffffffffffffffffffffff1663081812fc866040518263ffffffff1660e01b815260040161227c91906143cd565b602060405180830381865afa158015612299573d6000803e3d6000fd5b505050506040513d601f19601f820116820180604052508101906122bd9190614dfe565b73ffffffffffffffffffffffffffffffffffffffff1614806123795750600260009054906101000a900473ffffffffffffffffffffffffffffffffffffffff1673ffffffffffffffffffffffffffffffffffffffff1663e985e9c533306040518363ffffffff1660e01b8152600401612337929190614f6f565b602060405180830381865afa158015612354573d6000803e3d6000fd5b505050506040513d601f19601f820116820180604052508101906123789190614fc4565b5b6123b8576040517f08c379a00000000000000000000000000000000000000000000000000000000081526004016123af90615063565b60405180910390fd5b4282116123fa576040517f08c379a00000000000000000000000000000000000000000000000000000000081526004016123f1906149b3565b60405180910390fd5b6004600085815260200190815260200160002060060160009054906101000a900460ff1615801561244c57506005600085815260200190815260200160002060050160009054906101000a900460ff16155b61248b576040517f08c379a0000000000000000000000000000000000000000000000000000000008152600401612482906152ff565b60405180910390fd5b60405180608001604052803373ffffffffffffffffffffffffffffffffffffffff168152602001848152602001838152602001600115158152506003600086815260200190815260200160002060008201518160000160006101000a81548173ffffffffffffffffffffffffffffffffffffffff021916908373ffffffffffffffffffffffffffffffffffffffff160217905550602082015181600101556040820151816002015560608201518160030160006101000a81548160ff021916908315150217905550905050837f5f9c03de076f5063cd3ebcfe8ef7aa8af378e4b35a83c77ba9777e97083879a23385604051612588929190614ad4565b60405180910390a2612598613e5b565b50505050565b6125a6613dd4565b6125ae613e1a565b60006005600083815260200190815260200160002090508060050160009054906101000a900460ff16612616576040517f08c379a000000000000000000000000000000000000000000000000000000000815260040161260d9061536b565b60405180910390fd5b806004015442111561265d576040517f08c379a0000000000000000000000000000000000000000000000000000000008152600401612654906153d7565b60405180910390fd5b600081600301544261266f9190614b98565b90506000826003015483600401546126879190614b98565b905060008360020154846001015461269f9190614b98565b905060008284836126b09190614bcc565b6126ba9190614c3d565b85600101546126c99190614b98565b90508034101561270e576040517f08c379a000000000000000000000000000000000000000000000000000000000815260040161270590614d26565b60405180910390fd5b60008560050160006101000a81548160ff021916908315150217905550600260009054906101000a900473ffffffffffffffffffffffffffffffffffffffff1673ffffffffffffffffffffffffffffffffffffffff166342842e0e8660000160009054906101000a900473ffffffffffffffffffffffffffffffffffffffff1633896040518463ffffffff1660e01b81526004016127ae93929190614db2565b600060405180830381600087803b1580156127c857600080fd5b505af11580156127dc573d6000803e3d6000fd5b505050508460000160009054906101000a900473ffffffffffffffffffffffffffffffffffffffff1673ffffffffffffffffffffffffffffffffffffffff166108fc349081150290604051600060405180830381858888f1935050505015801561284a573d6000803e3d6000fd5b5061285486613f4f565b857f3a9978b6624f6cb440b3a1e29c588ca8aab0251c3b4d7f9202a1c1fb01ab2c4e3334604051612886929190614ad4565b60405180910390a2505050505061289b613e5b565b50565b803373ffffffffffffffffffffffffffffffffffffffff16600260009054906101000a900473ffffffffffffffffffffffffffffffffffffffff1673ffffffffffffffffffffffffffffffffffffffff16636352211e836040518263ffffffff1660e01b815260040161291191906143cd565b602060405180830381865afa15801561292e573d6000803e3d6000fd5b505050506040513d601f19601f820116820180604052508101906129529190614dfe565b73ffffffffffffffffffffffffffffffffffffffff16146129a8576040517f08c379a000000000000000000000000000000000000000000000000000000000815260040161299f90614e77565b60405180910390fd5b816003600082815260200190815260200160002060030160009054906101000a900460ff16612a0c576040517f08c379a0000000000000000000000000000000000000000000000000000000008152600401612a0390614cba565b60405180910390fd5b612a14613dd4565b612a1c613e1a565b60036000848152602001908152602001600020600080820160006101000a81549073ffffffffffffffffffffffffffffffffffffffff0219169055600182016000905560028201600090556003820160006101000a81549060ff02191690555050827fef1499b350e05776e60cd2ffcac001569a28e9d574e1f3adc1b3ab264f8ccffd33604051612aad9190614429565b60405180910390a2612abd613e5b565b505050565b600260009054906101000a900473ffffffffffffffffffffffffffffffffffffffff1681565b803373ffffffffffffffffffffffffffffffffffffffff16600260009054906101000a900473ffffffffffffffffffffffffffffffffffffffff1673ffffffffffffffffffffffffffffffffffffffff16636352211e836040518263ffffffff1660e01b8152600401612b5b91906143cd565b602060405180830381865afa158015612b78573d6000803e3d6000fd5b505050506040513d601f19601f82011682018060405250810190612b9c9190614dfe565b73ffffffffffffffffffffffffffffffffffffffff1614612bf2576040517f08c379a0000000000000000000000000000000000000000000000000000000008152600401612be990614e77565b60405180910390fd5b612bfa613dd4565b612c02613e1a565b60006005600084815260200190815260200160002090508060050160009054906101000a900460ff16612c6a576040517f08c379a0000000000000000000000000000000000000000000000000000000008152600401612c619061536b565b60405180910390fd5b60008160050160006101000a81548160ff021916908315150217905550827fef1499b350e05776e60cd2ffcac001569a28e9d574e1f3adc1b3ab264f8ccffd33604051612cb79190614429565b60405180910390a250612cc8613e5b565b5050565b60036020528060005260406000206000915090508060000160009054906101000a900473ffffffffffffffffffffffffffffffffffffffff16908060010154908060020154908060030160009054906101000a900460ff16905084565b6060600060086000848152602001908152602001600020805480602002602001604051908101604052809291908181526020018280548015612dc057602002820191906000526020600020905b8160009054906101000a900473ffffffffffffffffffffffffffffffffffffffff1673ffffffffffffffffffffffffffffffffffffffff1681526020019060010190808311612d76575b5050505050905060008151905060008167ffffffffffffffff811115612de957612de86153f7565b5b604051908082528060200260200182016040528015612e2257816020015b612e0f6142a1565b815260200190600190039081612e075790505b50905060005b82811015612f3a57600760008781526020019081526020016000206000858381518110612e5857612e57615426565b5b602002602001015173ffffffffffffffffffffffffffffffffffffffff1673ffffffffffffffffffffffffffffffffffffffff1681526020019081526020016000206040518060600160405290816000820160009054906101000a900473ffffffffffffffffffffffffffffffffffffffff1673ffffffffffffffffffffffffffffffffffffffff1673ffffffffffffffffffffffffffffffffffffffff16815260200160018201548152602001600282015481525050828281518110612f2257612f21615426565b5b60200260200101819052508080600101915050612e28565b50809350505050919050565b806004600082815260200190815260200160002060060160009054906101000a900460ff16612faa576040517f08c379a0000000000000000000000000000000000000000000000000000000008152600401612fa190615161565b60405180910390fd5b6004600082815260200190815260200160002060050154421015613003576040517f08c379a0000000000000000000000000000000000000000000000000000000008152600401612ffa906154a1565b60405180910390fd5b61300b613dd4565b613013613e1a565b6000600460008481526020019081526020016000209050600073ffffffffffffffffffffffffffffffffffffffff168160030160009054906101000a900473ffffffffffffffffffffffffffffffffffffffff1673ffffffffffffffffffffffffffffffffffffffff16036130bd576040517f08c379a00000000000000000000000000000000000000000000000000000000081526004016130b49061550d565b60405180910390fd5b6000606482600201546130d09190614c3d565b905060008183600201546130e49190614b98565b9050600260009054906101000a900473ffffffffffffffffffffffffffffffffffffffff1673ffffffffffffffffffffffffffffffffffffffff166342842e0e8460000160009054906101000a900473ffffffffffffffffffffffffffffffffffffffff168560030160009054906101000a900473ffffffffffffffffffffffffffffffffffffffff16886040518463ffffffff1660e01b815260040161318d93929190614db2565b600060405180830381600087803b1580156131a757600080fd5b505af11580156131bb573d6000803e3d6000fd5b505050508260000160009054906101000a900473ffffffffffffffffffffffffffffffffffffffff1673ffffffffffffffffffffffffffffffffffffffff166108fc829081150290604051600060405180830381858888f19350505050158015613229573d6000803e3d6000fd5b503373ffffffffffffffffffffffffffffffffffffffff166108fc839081150290604051600060405180830381858888f19350505050158015613270573d6000803e3d6000fd5b5061327a85613f4f565b847fd2aa34a4fdbbc6dff6a3e56f46e0f3ae2a31d7785ff3487aa5c95c642acea5018460030160009054906101000a900473ffffffffffffffffffffffffffffffffffffffff1685600201546040516132d4929190614ad4565b60405180910390a260046000868152602001908152602001600020600080820160006101000a81549073ffffffffffffffffffffffffffffffffffffffff0219169055600182016000905560028201600090556003820160006101000a81549073ffffffffffffffffffffffffffffffffffffffff0219169055600482016000905560058201600090556006820160006101000a81549060ff0219169055505050505061337f613e5b565b5050565b6007602052816000526040600020602052806000526040600020600091509150508060000160009054906101000a900473ffffffffffffffffffffffffffffffffffffffff16908060010154908060020154905083565b833373ffffffffffffffffffffffffffffffffffffffff16600260009054906101000a900473ffffffffffffffffffffffffffffffffffffffff1673ffffffffffffffffffffffffffffffffffffffff16636352211e836040518263ffffffff1660e01b815260040161344d91906143cd565b602060405180830381865afa15801561346a573d6000803e3d6000fd5b505050506040513d601f19601f8201168201806040525081019061348e9190614dfe565b73ffffffffffffffffffffffffffffffffffffffff16146134e4576040517f08c379a00000000000000000000000000000000000000000000000000000000081526004016134db90614e77565b60405180910390fd5b6134ec613dd4565b6134f4613e1a565b3073ffffffffffffffffffffffffffffffffffffffff16600260009054906101000a900473ffffffffffffffffffffffffffffffffffffffff1673ffffffffffffffffffffffffffffffffffffffff1663081812fc876040518263ffffffff1660e01b815260040161356691906143cd565b602060405180830381865afa158015613583573d6000803e3d6000fd5b505050506040513d601f19601f820116820180604052508101906135a79190614dfe565b73ffffffffffffffffffffffffffffffffffffffff1614806136635750600260009054906101000a900473ffffffffffffffffffffffffffffffffffffffff1673ffffffffffffffffffffffffffffffffffffffff1663e985e9c533306040518363ffffffff1660e01b8152600401613621929190614f6f565b602060405180830381865afa15801561363e573d6000803e3d6000fd5b505050506040513d601f19601f820116820180604052508101906136629190614fc4565b5b6136a2576040517f08c379a000000000000000000000000000000000000000000000000000000000815260040161369990615063565b60405180910390fd5b8284116136e4576040517f08c379a00000000000000000000000000000000000000000000000000000000081526004016136db9061559f565b60405180910390fd5b60008211613727576040517f08c379a000000000000000000000000000000000000000000000000000000000815260040161371e90615631565b60405180910390fd5b6003600086815260200190815260200160002060030160009054906101000a900460ff1615801561377957506004600086815260200190815260200160002060060160009054906101000a900460ff16155b6137b8576040517f08c379a00000000000000000000000000000000000000000000000000000000081526004016137af906156c3565b60405180910390fd5b600082426137c69190615259565b90506040518060c001604052803373ffffffffffffffffffffffffffffffffffffffff168152602001868152602001858152602001428152602001828152602001600115158152506005600088815260200190815260200160002060008201518160000160006101000a81548173ffffffffffffffffffffffffffffffffffffffff021916908373ffffffffffffffffffffffffffffffffffffffff1602179055506020820151816001015560408201518160020155606082015181600301556080820151816004015560a08201518160050160006101000a81548160ff021916908315150217905550905050857f268ac48f716356a00742974050591a9f3d88ed4669568f578935c957cdb5d520338787856040516138e994939291906156e3565b60405180910390a2506138fa613e5b565b5050505050565b613909613dd4565b613911613e1a565b60006007600083815260200190815260200160002060003373ffffffffffffffffffffffffffffffffffffffff1673ffffffffffffffffffffffffffffffffffffffff1681526020019081526020016000206040518060600160405290816000820160009054906101000a900473ffffffffffffffffffffffffffffffffffffffff1673ffffffffffffffffffffffffffffffffffffffff1673ffffffffffffffffffffffffffffffffffffffff1681526020016001820154815260200160028201548152505090506000816020015111613a21576040517f08c379a0000000000000000000000000000000000000000000000000000000008152600401613a1890615774565b60405180910390fd5b6000816020015190506007600084815260200190815260200160002060003373ffffffffffffffffffffffffffffffffffffffff1673ffffffffffffffffffffffffffffffffffffffff168152602001908152602001600020600080820160006101000a81549073ffffffffffffffffffffffffffffffffffffffff0219169055600182016000905560028201600090555050600060086000858152602001908152602001600020905060005b8180549050811015613c4b573373ffffffffffffffffffffffffffffffffffffffff16828281548110613b0457613b03615426565b5b9060005260206000200160009054906101000a900473ffffffffffffffffffffffffffffffffffffffff1673ffffffffffffffffffffffffffffffffffffffff1603613c3e578160018380549050613b5c9190614b98565b81548110613b6d57613b6c615426565b5b9060005260206000200160009054906101000a900473ffffffffffffffffffffffffffffffffffffffff16828281548110613bab57613baa615426565b5b9060005260206000200160006101000a81548173ffffffffffffffffffffffffffffffffffffffff021916908373ffffffffffffffffffffffffffffffffffffffff16021790555081805480613c0457613c03615794565b5b6001900381819060005260206000200160006101000a81549073ffffffffffffffffffffffffffffffffffffffff02191690559055613c4b565b8080600101915050613ace565b503373ffffffffffffffffffffffffffffffffffffffff166108fc839081150290604051600060405180830381858888f19350505050158015613c92573d6000803e3d6000fd5b503373ffffffffffffffffffffffffffffffffffffffff16847f1f51377b3e685a0e2419f9bb4ba7c07ec54936353ba3d0fb3c6538dab676622260405160405180910390a3505050613ce2613e5b565b50565b60056020528060005260406000206000915090508060000160009054906101000a900473ffffffffffffffffffffffffffffffffffffffff16908060010154908060020154908060030154908060040154908060050160009054906101000a900460ff16905086565b613d56613e65565b600073ffffffffffffffffffffffffffffffffffffffff168173ffffffffffffffffffffffffffffffffffffffff1603613dc85760006040517f1e4fbdf7000000000000000000000000000000000000000000000000000000008152600401613dbf9190614429565b60405180910390fd5b613dd181614134565b50565b600260005403613e10576040517f3ee5aeb500000000000000000000000000000000000000000000000000000000815260040160405180910390fd5b6002600081905550565b613e22611186565b15613e59576040517fd93c066500000000000000000000000000000000000000000000000000000000815260040160405180910390fd5b565b6001600081905550565b613e6d614259565b73ffffffffffffffffffffffffffffffffffffffff16613e8b6111bb565b73ffffffffffffffffffffffffffffffffffffffff1614613eea57613eae614259565b6040517f118cdaa7000000000000000000000000000000000000000000000000000000008152600401613ee19190614429565b60405180910390fd5b565b613ef4614261565b6000600160006101000a81548160ff0219169083151502179055507f5db9ee0a495bf2e6ff9c91a7834c1ba4fdd244a5e8aa4e537bd38aeae4b073aa613f38614259565b604051613f459190614429565b60405180910390a1565b600060086000838152602001908152602001600020905060005b81805490508110156140f9576000828281548110613f8a57613f89615426565b5b9060005260206000200160009054906101000a900473ffffffffffffffffffffffffffffffffffffffff16905060006007600086815260200190815260200160002060008373ffffffffffffffffffffffffffffffffffffffff1673ffffffffffffffffffffffffffffffffffffffff16815260200190815260200160002060010154905060008111156140ea576007600086815260200190815260200160002060008373ffffffffffffffffffffffffffffffffffffffff1673ffffffffffffffffffffffffffffffffffffffff168152602001908152602001600020600080820160006101000a81549073ffffffffffffffffffffffffffffffffffffffff02191690556001820160009055600282016000905550508173ffffffffffffffffffffffffffffffffffffffff166108fc829081150290604051600060405180830381858888f193505050501580156140e8573d6000803e3d6000fd5b505b50508080600101915050613f69565b5060086000838152602001908152602001600020600061411991906142d8565b5050565b6000600160009054906101000a900460ff16905090565b600060018054906101000a900473ffffffffffffffffffffffffffffffffffffffff169050816001806101000a81548173ffffffffffffffffffffffffffffffffffffffff021916908373ffffffffffffffffffffffffffffffffffffffff1602179055508173ffffffffffffffffffffffffffffffffffffffff168173ffffffffffffffffffffffffffffffffffffffff167f8be0079c531659141344cd1fd0a4f28419497f9722a3daafe3b4186f6b6457e060405160405180910390a35050565b6141ff613e1a565b60018060006101000a81548160ff0219169083151502179055507f62e78cea01bee320cd4e420270b5ea74000d11b0c9f74754ebdbfc544b05a258614242614259565b60405161424f9190614429565b60405180910390a1565b600033905090565b614269611186565b61429f576040517f8dfc202b00000000000000000000000000000000000000000000000000000000815260040160405180910390fd5b565b6040518060600160405280600073ffffffffffffffffffffffffffffffffffffffff16815260200160008152602001600081525090565b50805460008255906000526020600020908101906142f691906142f9565b50565b5b808211156143125760008160009055506001016142fa565b5090565b600080fd5b6000819050919050565b61432e8161431b565b811461433957600080fd5b50565b60008135905061434b81614325565b92915050565b6000806040838503121561436857614367614316565b5b60006143768582860161433c565b92505060206143878582860161433c565b9150509250929050565b6000602082840312156143a7576143a6614316565b5b60006143b58482850161433c565b91505092915050565b6143c78161431b565b82525050565b60006020820190506143e260008301846143be565b92915050565b600073ffffffffffffffffffffffffffffffffffffffff82169050919050565b6000614413826143e8565b9050919050565b61442381614408565b82525050565b600060208201905061443e600083018461441a565b92915050565b61444d81614408565b811461445857600080fd5b50565b60008135905061446a81614444565b92915050565b6000806040838503121561448757614486614316565b5b60006144958582860161433c565b92505060206144a68582860161445b565b9150509250929050565b60008115159050919050565b6144c5816144b0565b82525050565b60006020820190506144e060008301846144bc565b92915050565b600060e0820190506144fb600083018a61441a565b61450860208301896143be565b61451560408301886143be565b614522606083018761441a565b61452f60808301866143be565b61453c60a08301856143be565b61454960c08301846144bc565b98975050505050505050565b60008060006060848603121561456e5761456d614316565b5b600061457c8682870161433c565b935050602061458d8682870161433c565b925050604061459e8682870161433c565b9150509250925092565b6000819050919050565b60006145cd6145c86145c3846143e8565b6145a8565b6143e8565b9050919050565b60006145df826145b2565b9050919050565b60006145f1826145d4565b9050919050565b614601816145e6565b82525050565b600060208201905061461c60008301846145f8565b92915050565b6000608082019050614637600083018761441a565b61464460208301866143be565b61465160408301856143be565b61465e60608301846144bc565b95945050505050565b600081519050919050565b600082825260208201905092915050565b6000819050602082019050919050565b61469c81614408565b82525050565b6146ab8161431b565b82525050565b6060820160008201516146c76000850182614693565b5060208201516146da60208501826146a2565b5060408201516146ed60408501826146a2565b50505050565b60006146ff83836146b1565b60608301905092915050565b6000602082019050919050565b600061472382614667565b61472d8185614672565b935061473883614683565b8060005b8381101561476957815161475088826146f3565b975061475b8361470b565b92505060018101905061473c565b5085935050505092915050565b600060208201905081810360008301526147908184614718565b905092915050565b60006060820190506147ad600083018661441a565b6147ba60208301856143be565b6147c760408301846143be565b949350505050565b600080600080608085870312156147e9576147e8614316565b5b60006147f78782880161433c565b94505060206148088782880161433c565b93505060406148198782880161433c565b925050606061482a8782880161433c565b91505092959194509250565b600060c08201905061484b600083018961441a565b61485860208301886143be565b61486560408301876143be565b61487260608301866143be565b61487f60808301856143be565b61488c60a08301846144bc565b979650505050505050565b6000602082840312156148ad576148ac614316565b5b60006148bb8482850161445b565b91505092915050565b600082825260208201905092915050565b7f4f6666657220616d6f756e74206d75737420626520677265617465722074686160008201527f6e207a65726f0000000000000000000000000000000000000000000000000000602082015250565b60006149316026836148c4565b915061493c826148d5565b604082019050919050565b6000602082019050818103600083015261496081614924565b9050919050565b7f45787069726174696f6e206d75737420626520696e2074686520667574757265600082015250565b600061499d6020836148c4565b91506149a882614967565b602082019050919050565b600060208201905081810360008301526149cc81614990565b9050919050565b7f596f7520616c7265616479206861766520616e20616374697665206f66666572600082015250565b6000614a096020836148c4565b9150614a14826149d3565b602082019050919050565b60006020820190508181036000830152614a38816149fc565b9050919050565b6000604082019050614a5460008301856143be565b614a6160208301846143be565b9392505050565b7f4e6f2066756e647320746f207769746864726177000000000000000000000000600082015250565b6000614a9e6014836148c4565b9150614aa982614a68565b602082019050919050565b60006020820190508181036000830152614acd81614a91565b9050919050565b6000604082019050614ae9600083018561441a565b614af660208301846143be565b9392505050565b7f41756374696f6e206e6f74206163746976650000000000000000000000000000600082015250565b6000614b336012836148c4565b9150614b3e82614afd565b602082019050919050565b60006020820190508181036000830152614b6281614b26565b9050919050565b7f4e487b7100000000000000000000000000000000000000000000000000000000600052601160045260246000fd5b6000614ba38261431b565b9150614bae8361431b565b9250828203905081811115614bc657614bc5614b69565b5b92915050565b6000614bd78261431b565b9150614be28361431b565b9250828202614bf08161431b565b91508282048414831517614c0757614c06614b69565b5b5092915050565b7f4e487b7100000000000000000000000000000000000000000000000000000000600052601260045260246000fd5b6000614c488261431b565b9150614c538361431b565b925082614c6357614c62614c0e565b5b828204905092915050565b7f4e4654206973206e6f74206c697374656420666f722073616c65000000000000600082015250565b6000614ca4601a836148c4565b9150614caf82614c6e565b602082019050919050565b60006020820190508181036000830152614cd381614c97565b9050919050565b7f496e73756666696369656e742066756e64730000000000000000000000000000600082015250565b6000614d106012836148c4565b9150614d1b82614cda565b602082019050919050565b60006020820190508181036000830152614d3f81614d03565b9050919050565b7f4c697374696e6720686173206578706972656400000000000000000000000000600082015250565b6000614d7c6013836148c4565b9150614d8782614d46565b602082019050919050565b60006020820190508181036000830152614dab81614d6f565b9050919050565b6000606082019050614dc7600083018661441a565b614dd4602083018561441a565b614de160408301846143be565b949350505050565b600081519050614df881614444565b92915050565b600060208284031215614e1457614e13614316565b5b6000614e2284828501614de9565b91505092915050565b7f4e6f7420746f6b656e206f776e65720000000000000000000000000000000000600082015250565b6000614e61600f836148c4565b9150614e6c82614e2b565b602082019050919050565b60006020820190508181036000830152614e9081614e54565b9050919050565b7f4e6f2076616c6964206f66666572000000000000000000000000000000000000600082015250565b6000614ecd600e836148c4565b9150614ed882614e97565b602082019050919050565b60006020820190508181036000830152614efc81614ec0565b9050919050565b7f4f66666572206578706972656400000000000000000000000000000000000000600082015250565b6000614f39600d836148c4565b9150614f4482614f03565b602082019050919050565b60006020820190508181036000830152614f6881614f2c565b9050919050565b6000604082019050614f84600083018561441a565b614f91602083018461441a565b9392505050565b614fa1816144b0565b8114614fac57600080fd5b50565b600081519050614fbe81614f98565b92915050565b600060208284031215614fda57614fd9614316565b5b6000614fe884828501614faf565b91505092915050565b7f4d61726b6574706c616365206e6f7420617070726f76656420746f206d616e6160008201527f67652074686973204e4654000000000000000000000000000000000000000000602082015250565b600061504d602b836148c4565b915061505882614ff1565b604082019050919050565b6000602082019050818103600083015261507c81615040565b9050919050565b7f43616e6e6f742073746172742061756374696f6e3a204e4654206973206c697360008201527f746564206f7220696e2044757463682061756374696f6e000000000000000000602082015250565b60006150df6037836148c4565b91506150ea82615083565b604082019050919050565b6000602082019050818103600083015261510e816150d2565b9050919050565b7f41756374696f6e206973206e6f74206163746976650000000000000000000000600082015250565b600061514b6015836148c4565b915061515682615115565b602082019050919050565b6000602082019050818103600083015261517a8161513e565b9050919050565b7f41756374696f6e20656e64656400000000000000000000000000000000000000600082015250565b60006151b7600d836148c4565b91506151c282615181565b602082019050919050565b600060208201905081810360008301526151e6816151aa565b9050919050565b7f42696420746f6f206c6f77000000000000000000000000000000000000000000600082015250565b6000615223600b836148c4565b915061522e826151ed565b602082019050919050565b6000602082019050818103600083015261525281615216565b9050919050565b60006152648261431b565b915061526f8361431b565b925082820190508082111561528757615286614b69565b5b92915050565b7f43616e6e6f74206c69737420647572696e6720616e206163746976652061756360008201527f74696f6e00000000000000000000000000000000000000000000000000000000602082015250565b60006152e96024836148c4565b91506152f48261528d565b604082019050919050565b60006020820190508181036000830152615318816152dc565b9050919050565b7f44757463682061756374696f6e206e6f74206163746976650000000000000000600082015250565b60006153556018836148c4565b91506153608261531f565b602082019050919050565b6000602082019050818103600083015261538481615348565b9050919050565b7f41756374696f6e20657870697265640000000000000000000000000000000000600082015250565b60006153c1600f836148c4565b91506153cc8261538b565b602082019050919050565b600060208201905081810360008301526153f0816153b4565b9050919050565b7f4e487b7100000000000000000000000000000000000000000000000000000000600052604160045260246000fd5b7f4e487b7100000000000000000000000000000000000000000000000000000000600052603260045260246000fd5b7f41756374696f6e206973207374696c6c206f6e676f696e670000000000000000600082015250565b600061548b6018836148c4565b915061549682615455565b602082019050919050565b600060208201905081810360008301526154ba8161547e565b9050919050565b7f4e6f206269647320706c61636564000000000000000000000000000000000000600082015250565b60006154f7600e836148c4565b9150615502826154c1565b602082019050919050565b60006020820190508181036000830152615526816154ea565b9050919050565b7f5374617274207072696365206d7573742062652067726561746572207468616e60008201527f20656e6420707269636500000000000000000000000000000000000000000000602082015250565b6000615589602a836148c4565b91506155948261552d565b604082019050919050565b600060208201905081810360008301526155b88161557c565b9050919050565b7f4475726174696f6e206d7573742062652067726561746572207468616e207a6560008201527f726f000000000000000000000000000000000000000000000000000000000000602082015250565b600061561b6022836148c4565b9150615626826155bf565b604082019050919050565b6000602082019050818103600083015261564a8161560e565b9050919050565b7f43616e6e6f742073746172742044757463682061756374696f6e3a204e46542060008201527f6973206c6973746564206f7220696e20726567756c61722061756374696f6e00602082015250565b60006156ad603f836148c4565b91506156b882615651565b604082019050919050565b600060208201905081810360008301526156dc816156a0565b9050919050565b60006080820190506156f8600083018761441a565b61570560208301866143be565b61571260408301856143be565b61571f60608301846143be565b95945050505050565b7f4e6f206f6666657220746f2063616e63656c0000000000000000000000000000600082015250565b600061575e6012836148c4565b915061576982615728565b602082019050919050565b6000602082019050818103600083015261578d81615751565b9050919050565b7f4e487b7100000000000000000000000000000000000000000000000000000000600052603160045260246000fdfea26469706673582212200d3039107f87ac8eeaaa7f73c2762b1eeb4aa260723c29ee5314e2e92ca153ea64736f6c634300081c0033",
  "linkReferences": {},
  "deployedLinkReferences": {}
}