{
  "_format": "hh-sol-artifact-1",
  "contractName": "AuctionMarketplace",
  "sourceName": "contracts/AuctionMarketplace.sol",
  "abi": [
    {
      "inputs": [
        {
          "internalType": "address",
          "name": "_nftContract",
          "type": "address"
        }
      ],
      "stateMutability": "nonpayable",
      "type": "constructor"
    },
    {
      "anonymous": false,
      "inputs": [
        {
          "indexed": true,
          "internalType": "uint256",
          "name": "tokenId",
          "type": "uint256"
        },
        {
          "indexed": false,
          "internalType": "address",
          "name": "winner",
          "type": "address"
        },
        {
          "indexed": false,
          "internalType": "uint256",
          "name": "amount",
          "type": "uint256"
        }
      ],
      "name": "AuctionEnded",
      "type": "event"
    },
    {
      "anonymous": false,
      "inputs": [
        {
          "indexed": true,
          "internalType": "uint256",
          "name": "tokenId",
          "type": "uint256"
        },
        {
          "indexed": false,
          "internalType": "address",
          "name": "seller",
          "type": "address"
        },
        {
          "indexed": false,
          "internalType": "uint256",
          "name": "startingPrice",
          "type": "uint256"
        },
        {
          "indexed": false,
          "internalType": "uint256",
          "name": "endTime",
          "type": "uint256"
        }
      ],
      "name": "AuctionStarted",
      "type": "event"
    },
    {
      "anonymous": false,
      "inputs": [
        {
          "indexed": true,
          "internalType": "uint256",
          "name": "tokenId",
          "type": "uint256"
        },
        {
          "indexed": false,
          "internalType": "address",
          "name": "bidder",
          "type": "address"
        },
        {
          "indexed": false,
          "internalType": "uint256",
          "name": "amount",
          "type": "uint256"
        }
      ],
      "name": "BidWithdrawn",
      "type": "event"
    },
    {
      "anonymous": false,
      "inputs": [
        {
          "indexed": true,
          "internalType": "uint256",
          "name": "tokenId",
          "type": "uint256"
        },
        {
          "indexed": false,
          "internalType": "address",
          "name": "bidder",
          "type": "address"
        },
        {
          "indexed": false,
          "internalType": "uint256",
          "name": "amount",
          "type": "uint256"
        }
      ],
      "name": "NewBid",
      "type": "event"
    },
    {
      "inputs": [
        {
          "internalType": "uint256",
          "name": "",
          "type": "uint256"
        }
      ],
      "name": "auctions",
      "outputs": [
        {
          "internalType": "address",
          "name": "seller",
          "type": "address"
        },
        {
          "internalType": "uint256",
          "name": "startingPrice",
          "type": "uint256"
        },
        {
          "internalType": "uint256",
          "name": "highestBid",
          "type": "uint256"
        },
        {
          "internalType": "address",
          "name": "highestBidder",
          "type": "address"
        },
        {
          "internalType": "uint256",
          "name": "endTimestamp",
          "type": "uint256"
        },
        {
          "internalType": "uint256",
          "name": "startTimestamp",
          "type": "uint256"
        },
        {
          "internalType": "bool",
          "name": "isActive",
          "type": "bool"
        }
      ],
      "stateMutability": "view",
      "type": "function"
    },
    {
      "inputs": [
        {
          "internalType": "uint256",
          "name": "tokenId",
          "type": "uint256"
        }
      ],
      "name": "cancelAuction",
      "outputs": [],
      "stateMutability": "nonpayable",
      "type": "function"
    },
    {
      "inputs": [
        {
          "internalType": "uint256",
          "name": "tokenId",
          "type": "uint256"
        }
      ],
      "name": "finalizeAuction",
      "outputs": [],
      "stateMutability": "nonpayable",
      "type": "function"
    },
    {
      "inputs": [
        {
          "internalType": "uint256",
          "name": "tokenId",
          "type": "uint256"
        },
        {
          "internalType": "address",
          "name": "user",
          "type": "address"
        }
      ],
      "name": "hasPendingReturns",
      "outputs": [
        {
          "internalType": "bool",
          "name": "",
          "type": "bool"
        }
      ],
      "stateMutability": "view",
      "type": "function"
    },
    {
      "inputs": [],
      "name": "nftContract",
      "outputs": [
        {
          "internalType": "contract ERC721",
          "name": "",
          "type": "address"
        }
      ],
      "stateMutability": "view",
      "type": "function"
    },
    {
      "inputs": [
        {
          "internalType": "uint256",
          "name": "",
          "type": "uint256"
        },
        {
          "internalType": "address",
          "name": "",
          "type": "address"
        }
      ],
      "name": "pendingReturns",
      "outputs": [
        {
          "internalType": "uint256",
          "name": "",
          "type": "uint256"
        }
      ],
      "stateMutability": "view",
      "type": "function"
    },
    {
      "inputs": [
        {
          "internalType": "uint256",
          "name": "tokenId",
          "type": "uint256"
        }
      ],
      "name": "placeBid",
      "outputs": [],
      "stateMutability": "payable",
      "type": "function"
    },
    {
      "inputs": [
        {
          "internalType": "uint256",
          "name": "tokenId",
          "type": "uint256"
        },
        {
          "internalType": "uint256",
          "name": "startingPrice",
          "type": "uint256"
        },
        {
          "internalType": "uint256",
          "name": "endTimeStamp",
          "type": "uint256"
        }
      ],
      "name": "startAuction",
      "outputs": [],
      "stateMutability": "nonpayable",
      "type": "function"
    },
    {
      "inputs": [
        {
          "internalType": "uint256",
          "name": "tokenId",
          "type": "uint256"
        }
      ],
      "name": "withdrawBid",
      "outputs": [],
      "stateMutability": "nonpayable",
      "type": "function"
    }
  ],
  "bytecode": "0x608060405234801561001057600080fd5b50604051611fac380380611fac833981810160405281019061003291906100db565b806000806101000a81548173ffffffffffffffffffffffffffffffffffffffff021916908373ffffffffffffffffffffffffffffffffffffffff16021790555050610108565b600080fd5b600073ffffffffffffffffffffffffffffffffffffffff82169050919050565b60006100a88261007d565b9050919050565b6100b88161009d565b81146100c357600080fd5b50565b6000815190506100d5816100af565b92915050565b6000602082840312156100f1576100f0610078565b5b60006100ff848285016100c6565b91505092915050565b611e95806101176000396000f3fe6080604052600436106100865760003560e01c806391e078bb1161005957806391e078bb1461017157806396b5a7551461019a5780639979ef45146101c3578063d56d229d146101df578063e80838631461020a57610086565b80630eaaf4c81461008b5780635629939a146100b4578063571a26a0146100f15780638ddac1ef14610134575b600080fd5b34801561009757600080fd5b506100b260048036038101906100ad91906113e1565b610233565b005b3480156100c057600080fd5b506100db60048036038101906100d6919061146c565b61040c565b6040516100e891906114c7565b60405180910390f35b3480156100fd57600080fd5b50610118600480360381019061011391906113e1565b610469565b60405161012b9796959493929190611500565b60405180910390f35b34801561014057600080fd5b5061015b6004803603810190610156919061146c565b6104f8565b604051610168919061156f565b60405180910390f35b34801561017d57600080fd5b506101986004803603810190610193919061158a565b61051d565b005b3480156101a657600080fd5b506101c160048036038101906101bc91906113e1565b610935565b005b6101dd60048036038101906101d891906113e1565b610c39565b005b3480156101eb57600080fd5b506101f4610e9c565b604051610201919061163c565b60405180910390f35b34801561021657600080fd5b50610231600480360381019061022c91906113e1565b610ec0565b005b60006002600083815260200190815260200160002060003373ffffffffffffffffffffffffffffffffffffffff1673ffffffffffffffffffffffffffffffffffffffff168152602001908152602001600020549050600081116102cb576040517f08c379a00000000000000000000000000000000000000000000000000000000081526004016102c2906116b4565b60405180910390fd5b60006002600084815260200190815260200160002060003373ffffffffffffffffffffffffffffffffffffffff1673ffffffffffffffffffffffffffffffffffffffff1681526020019081526020016000208190555060003373ffffffffffffffffffffffffffffffffffffffff168260405161034790611705565b60006040518083038185875af1925050503d8060008114610384576040519150601f19603f3d011682016040523d82523d6000602084013e610389565b606091505b50509050806103cd576040517f08c379a00000000000000000000000000000000000000000000000000000000081526004016103c490611766565b60405180910390fd5b827f8f8619524e8d462cead34604bd2247ede24175801481e4d0b8059ac8aa41c30133846040516103ff929190611786565b60405180910390a2505050565b6000806002600085815260200190815260200160002060008473ffffffffffffffffffffffffffffffffffffffff1673ffffffffffffffffffffffffffffffffffffffff1681526020019081526020016000205411905092915050565b60016020528060005260406000206000915090508060000160009054906101000a900473ffffffffffffffffffffffffffffffffffffffff16908060010154908060020154908060030160009054906101000a900473ffffffffffffffffffffffffffffffffffffffff16908060040154908060050154908060060160009054906101000a900460ff16905087565b6002602052816000526040600020602052806000526040600020600091509150505481565b823373ffffffffffffffffffffffffffffffffffffffff1660008054906101000a900473ffffffffffffffffffffffffffffffffffffffff1673ffffffffffffffffffffffffffffffffffffffff16636352211e836040518263ffffffff1660e01b815260040161058e919061156f565b602060405180830381865afa1580156105ab573d6000803e3d6000fd5b505050506040513d601f19601f820116820180604052508101906105cf91906117c4565b73ffffffffffffffffffffffffffffffffffffffff1614610625576040517f08c379a000000000000000000000000000000000000000000000000000000000815260040161061c9061183d565b60405180910390fd5b60008054906101000a900473ffffffffffffffffffffffffffffffffffffffff1673ffffffffffffffffffffffffffffffffffffffff16630920984c85306040518363ffffffff1660e01b815260040161068092919061185d565b602060405180830381865afa15801561069d573d6000803e3d6000fd5b505050506040513d601f19601f820116820180604052508101906106c191906118b2565b80610764575060008054906101000a900473ffffffffffffffffffffffffffffffffffffffff1673ffffffffffffffffffffffffffffffffffffffff1663e985e9c533306040518363ffffffff1660e01b81526004016107229291906118df565b602060405180830381865afa15801561073f573d6000803e3d6000fd5b505050506040513d601f19601f8201168201806040525081019061076391906118b2565b5b6107a3576040517f08c379a000000000000000000000000000000000000000000000000000000000815260040161079a9061197a565b60405180910390fd5b6040518060e001604052803373ffffffffffffffffffffffffffffffffffffffff16815260200184815260200160008152602001600073ffffffffffffffffffffffffffffffffffffffff168152602001838152602001428152602001600115158152506001600086815260200190815260200160002060008201518160000160006101000a81548173ffffffffffffffffffffffffffffffffffffffff021916908373ffffffffffffffffffffffffffffffffffffffff160217905550602082015181600101556040820151816002015560608201518160030160006101000a81548173ffffffffffffffffffffffffffffffffffffffff021916908373ffffffffffffffffffffffffffffffffffffffff1602179055506080820151816004015560a0820151816005015560c08201518160060160006101000a81548160ff021916908315150217905550905050837fbf6dc7bdf2f23af5a506fe03ee1221f47d023a2227fbc949c6b812ae44534e6d3385856040516109279392919061199a565b60405180910390a250505050565b803373ffffffffffffffffffffffffffffffffffffffff1660008054906101000a900473ffffffffffffffffffffffffffffffffffffffff1673ffffffffffffffffffffffffffffffffffffffff16636352211e836040518263ffffffff1660e01b81526004016109a6919061156f565b602060405180830381865afa1580156109c3573d6000803e3d6000fd5b505050506040513d601f19601f820116820180604052508101906109e791906117c4565b73ffffffffffffffffffffffffffffffffffffffff1614610a3d576040517f08c379a0000000000000000000000000000000000000000000000000000000008152600401610a349061183d565b60405180910390fd5b816001600082815260200190815260200160002060060160009054906101000a900460ff16610aa1576040517f08c379a0000000000000000000000000000000000000000000000000000000008152600401610a9890611a1d565b60405180910390fd5b6000600160008581526020019081526020016000209050600081600201541115610b9b5760008160030160009054906101000a900473ffffffffffffffffffffffffffffffffffffffff1673ffffffffffffffffffffffffffffffffffffffff168260020154604051610b1390611705565b60006040518083038185875af1925050503d8060008114610b50576040519150601f19603f3d011682016040523d82523d6000602084013e610b55565b606091505b5050905080610b99576040517f08c379a0000000000000000000000000000000000000000000000000000000008152600401610b9090611a89565b60405180910390fd5b505b60016000858152602001908152602001600020600080820160006101000a81549073ffffffffffffffffffffffffffffffffffffffff0219169055600182016000905560028201600090556003820160006101000a81549073ffffffffffffffffffffffffffffffffffffffff0219169055600482016000905560058201600090556006820160006101000a81549060ff0219169055505050505050565b806001600082815260200190815260200160002060060160009054906101000a900460ff16610c9d576040517f08c379a0000000000000000000000000000000000000000000000000000000008152600401610c9490611a1d565b60405180910390fd5b600060016000848152602001908152602001600020905080600401544210610cfa576040517f08c379a0000000000000000000000000000000000000000000000000000000008152600401610cf190611af5565b60405180910390fd5b80600201543411610d40576040517f08c379a0000000000000000000000000000000000000000000000000000000008152600401610d3790611b61565b60405180910390fd5b600081600201541115610ddd5780600201546002600085815260200190815260200160002060008360030160009054906101000a900473ffffffffffffffffffffffffffffffffffffffff1673ffffffffffffffffffffffffffffffffffffffff1673ffffffffffffffffffffffffffffffffffffffff1681526020019081526020016000206000828254610dd59190611bb0565b925050819055505b348160020181905550338160030160006101000a81548173ffffffffffffffffffffffffffffffffffffffff021916908373ffffffffffffffffffffffffffffffffffffffff1602179055506078428260040154610e3b9190611be4565b11610e5d576078816004016000828254610e559190611bb0565b925050819055505b827f558a0d5d5468d74b0db24c74eb348b42271c2ebb4c9e953ced38aaed95fa43613334604051610e8f929190611786565b60405180910390a2505050565b60008054906101000a900473ffffffffffffffffffffffffffffffffffffffff1681565b806001600082815260200190815260200160002060060160009054906101000a900460ff16610f24576040517f08c379a0000000000000000000000000000000000000000000000000000000008152600401610f1b90611a1d565b60405180910390fd5b6001600082815260200190815260200160002060040154421015610f7d576040517f08c379a0000000000000000000000000000000000000000000000000000000008152600401610f7490611c64565b60405180910390fd5b6000600160008481526020019081526020016000209050600073ffffffffffffffffffffffffffffffffffffffff168160030160009054906101000a900473ffffffffffffffffffffffffffffffffffffffff1673ffffffffffffffffffffffffffffffffffffffff1603611027576040517f08c379a000000000000000000000000000000000000000000000000000000000815260040161101e90611cd0565b60405180910390fd5b60006064826002015461103a9190611d1f565b9050600081836002015461104e9190611be4565b905060008054906101000a900473ffffffffffffffffffffffffffffffffffffffff1673ffffffffffffffffffffffffffffffffffffffff166342842e0e8460000160009054906101000a900473ffffffffffffffffffffffffffffffffffffffff168560030160009054906101000a900473ffffffffffffffffffffffffffffffffffffffff16886040518463ffffffff1660e01b81526004016110f593929190611d50565b600060405180830381600087803b15801561110f57600080fd5b505af1158015611123573d6000803e3d6000fd5b5050505060008360000160009054906101000a900473ffffffffffffffffffffffffffffffffffffffff1673ffffffffffffffffffffffffffffffffffffffff168260405161117190611705565b60006040518083038185875af1925050503d80600081146111ae576040519150601f19603f3d011682016040523d82523d6000602084013e6111b3565b606091505b50509050806111f7576040517f08c379a00000000000000000000000000000000000000000000000000000000081526004016111ee90611dd3565b60405180910390fd5b60003373ffffffffffffffffffffffffffffffffffffffff168460405161121d90611705565b60006040518083038185875af1925050503d806000811461125a576040519150601f19603f3d011682016040523d82523d6000602084013e61125f565b606091505b50509050806112a3576040517f08c379a000000000000000000000000000000000000000000000000000000000815260040161129a90611e3f565b60405180910390fd5b867fd2aa34a4fdbbc6dff6a3e56f46e0f3ae2a31d7785ff3487aa5c95c642acea5018660030160009054906101000a900473ffffffffffffffffffffffffffffffffffffffff1687600201546040516112fd929190611786565b60405180910390a260016000888152602001908152602001600020600080820160006101000a81549073ffffffffffffffffffffffffffffffffffffffff0219169055600182016000905560028201600090556003820160006101000a81549073ffffffffffffffffffffffffffffffffffffffff0219169055600482016000905560058201600090556006820160006101000a81549060ff0219169055505050505050505050565b600080fd5b6000819050919050565b6113be816113ab565b81146113c957600080fd5b50565b6000813590506113db816113b5565b92915050565b6000602082840312156113f7576113f66113a6565b5b6000611405848285016113cc565b91505092915050565b600073ffffffffffffffffffffffffffffffffffffffff82169050919050565b60006114398261140e565b9050919050565b6114498161142e565b811461145457600080fd5b50565b60008135905061146681611440565b92915050565b60008060408385031215611483576114826113a6565b5b6000611491858286016113cc565b92505060206114a285828601611457565b9150509250929050565b60008115159050919050565b6114c1816114ac565b82525050565b60006020820190506114dc60008301846114b8565b92915050565b6114eb8161142e565b82525050565b6114fa816113ab565b82525050565b600060e082019050611515600083018a6114e2565b61152260208301896114f1565b61152f60408301886114f1565b61153c60608301876114e2565b61154960808301866114f1565b61155660a08301856114f1565b61156360c08301846114b8565b98975050505050505050565b600060208201905061158460008301846114f1565b92915050565b6000806000606084860312156115a3576115a26113a6565b5b60006115b1868287016113cc565b93505060206115c2868287016113cc565b92505060406115d3868287016113cc565b9150509250925092565b6000819050919050565b60006116026115fd6115f88461140e565b6115dd565b61140e565b9050919050565b6000611614826115e7565b9050919050565b600061162682611609565b9050919050565b6116368161161b565b82525050565b6000602082019050611651600083018461162d565b92915050565b600082825260208201905092915050565b7f4e6f2066756e647320746f207769746864726177000000000000000000000000600082015250565b600061169e601483611657565b91506116a982611668565b602082019050919050565b600060208201905081810360008301526116cd81611691565b9050919050565b600081905092915050565b50565b60006116ef6000836116d4565b91506116fa826116df565b600082019050919050565b6000611710826116e2565b9150819050919050565b7f5769746864726177206661696c65640000000000000000000000000000000000600082015250565b6000611750600f83611657565b915061175b8261171a565b602082019050919050565b6000602082019050818103600083015261177f81611743565b9050919050565b600060408201905061179b60008301856114e2565b6117a860208301846114f1565b9392505050565b6000815190506117be81611440565b92915050565b6000602082840312156117da576117d96113a6565b5b60006117e8848285016117af565b91505092915050565b7f4e6f7420746f6b656e206f776e65720000000000000000000000000000000000600082015250565b6000611827600f83611657565b9150611832826117f1565b602082019050919050565b600060208201905081810360008301526118568161181a565b9050919050565b600060408201905061187260008301856114f1565b61187f60208301846114e2565b9392505050565b61188f816114ac565b811461189a57600080fd5b50565b6000815190506118ac81611886565b92915050565b6000602082840312156118c8576118c76113a6565b5b60006118d68482850161189d565b91505092915050565b60006040820190506118f460008301856114e2565b61190160208301846114e2565b9392505050565b7f4d61726b6574706c616365206e6f7420617070726f76656420746f206d616e6160008201527f67652074686973204e4654000000000000000000000000000000000000000000602082015250565b6000611964602b83611657565b915061196f82611908565b604082019050919050565b6000602082019050818103600083015261199381611957565b9050919050565b60006060820190506119af60008301866114e2565b6119bc60208301856114f1565b6119c960408301846114f1565b949350505050565b7f41756374696f6e206973206e6f74206163746976650000000000000000000000600082015250565b6000611a07601583611657565b9150611a12826119d1565b602082019050919050565b60006020820190508181036000830152611a36816119fa565b9050919050565b7f526566756e64206661696c656400000000000000000000000000000000000000600082015250565b6000611a73600d83611657565b9150611a7e82611a3d565b602082019050919050565b60006020820190508181036000830152611aa281611a66565b9050919050565b7f41756374696f6e20656e64656400000000000000000000000000000000000000600082015250565b6000611adf600d83611657565b9150611aea82611aa9565b602082019050919050565b60006020820190508181036000830152611b0e81611ad2565b9050919050565b7f42696420746f6f206c6f77000000000000000000000000000000000000000000600082015250565b6000611b4b600b83611657565b9150611b5682611b15565b602082019050919050565b60006020820190508181036000830152611b7a81611b3e565b9050919050565b7f4e487b7100000000000000000000000000000000000000000000000000000000600052601160045260246000fd5b6000611bbb826113ab565b9150611bc6836113ab565b9250828201905080821115611bde57611bdd611b81565b5b92915050565b6000611bef826113ab565b9150611bfa836113ab565b9250828203905081811115611c1257611c11611b81565b5b92915050565b7f41756374696f6e206973207374696c6c206f6e676f696e670000000000000000600082015250565b6000611c4e601883611657565b9150611c5982611c18565b602082019050919050565b60006020820190508181036000830152611c7d81611c41565b9050919050565b7f4e6f206269647320706c61636564000000000000000000000000000000000000600082015250565b6000611cba600e83611657565b9150611cc582611c84565b602082019050919050565b60006020820190508181036000830152611ce981611cad565b9050919050565b7f4e487b7100000000000000000000000000000000000000000000000000000000600052601260045260246000fd5b6000611d2a826113ab565b9150611d35836113ab565b925082611d4557611d44611cf0565b5b828204905092915050565b6000606082019050611d6560008301866114e2565b611d7260208301856114e2565b611d7f60408301846114f1565b949350505050565b7f53656c6c6572207061796d656e74206661696c65640000000000000000000000600082015250565b6000611dbd601583611657565b9150611dc882611d87565b602082019050919050565b60006020820190508181036000830152611dec81611db0565b9050919050565b7f46696e616c697a657220726577617264206661696c6564000000000000000000600082015250565b6000611e29601783611657565b9150611e3482611df3565b602082019050919050565b60006020820190508181036000830152611e5881611e1c565b905091905056fea26469706673582212203ab9bed0b210d379108d1757a63f8858c52fc824ae1877d44a142cb6041c32d764736f6c634300081c0033",
  "linkReferences": {},
  "deployedLinkReferences": {}
}