{
  "_format": "hh-sol-artifact-1",
  "contractName": "ERC721",
  "sourceName": "contracts/ERC721.sol",
  "abi": [
    {
      "inputs": [
        {
          "internalType": "string",
          "name": "_name",
          "type": "string"
        },
        {
          "internalType": "string",
          "name": "_symbol",
          "type": "string"
        }
      ],
      "stateMutability": "nonpayable",
      "type": "constructor"
    },
    {
      "anonymous": false,
      "inputs": [
        {
          "indexed": true,
          "internalType": "address",
          "name": "_owner",
          "type": "address"
        },
        {
          "indexed": true,
          "internalType": "address",
          "name": "_approved",
          "type": "address"
        },
        {
          "indexed": true,
          "internalType": "uint256",
          "name": "_tokenId",
          "type": "uint256"
        }
      ],
      "name": "Approval",
      "type": "event"
    },
    {
      "anonymous": false,
      "inputs": [
        {
          "indexed": true,
          "internalType": "address",
          "name": "_owner",
          "type": "address"
        },
        {
          "indexed": true,
          "internalType": "address",
          "name": "_operator",
          "type": "address"
        },
        {
          "indexed": false,
          "internalType": "bool",
          "name": "_approved",
          "type": "bool"
        }
      ],
      "name": "ApprovalForAll",
      "type": "event"
    },
    {
      "anonymous": false,
      "inputs": [
        {
          "indexed": true,
          "internalType": "address",
          "name": "_from",
          "type": "address"
        },
        {
          "indexed": true,
          "internalType": "address",
          "name": "_to",
          "type": "address"
        },
        {
          "indexed": true,
          "internalType": "uint256",
          "name": "_tokenId",
          "type": "uint256"
        }
      ],
      "name": "Transfer",
      "type": "event"
    },
    {
      "inputs": [
        {
          "internalType": "address",
          "name": "_approved",
          "type": "address"
        },
        {
          "internalType": "uint256",
          "name": "_tokenId",
          "type": "uint256"
        }
      ],
      "name": "approve",
      "outputs": [],
      "stateMutability": "payable",
      "type": "function"
    },
    {
      "inputs": [
        {
          "internalType": "address",
          "name": "_owner",
          "type": "address"
        }
      ],
      "name": "balanceOf",
      "outputs": [
        {
          "internalType": "uint256",
          "name": "",
          "type": "uint256"
        }
      ],
      "stateMutability": "view",
      "type": "function"
    },
    {
      "inputs": [
        {
          "internalType": "address",
          "name": "_to",
          "type": "address"
        },
        {
          "internalType": "string[]",
          "name": "_uris",
          "type": "string[]"
        }
      ],
      "name": "batchMint",
      "outputs": [],
      "stateMutability": "nonpayable",
      "type": "function"
    },
    {
      "inputs": [],
      "name": "contractOwner",
      "outputs": [
        {
          "internalType": "address",
          "name": "",
          "type": "address"
        }
      ],
      "stateMutability": "view",
      "type": "function"
    },
    {
      "inputs": [
        {
          "internalType": "uint256",
          "name": "_tokenId",
          "type": "uint256"
        }
      ],
      "name": "getApproved",
      "outputs": [
        {
          "internalType": "address",
          "name": "",
          "type": "address"
        }
      ],
      "stateMutability": "view",
      "type": "function"
    },
    {
      "inputs": [
        {
          "internalType": "address",
          "name": "_owner",
          "type": "address"
        },
        {
          "internalType": "address",
          "name": "_operator",
          "type": "address"
        }
      ],
      "name": "isApprovedForAll",
      "outputs": [
        {
          "internalType": "bool",
          "name": "",
          "type": "bool"
        }
      ],
      "stateMutability": "view",
      "type": "function"
    },
    {
      "inputs": [
        {
          "internalType": "address",
          "name": "_to",
          "type": "address"
        },
        {
          "internalType": "string",
          "name": "_uri",
          "type": "string"
        }
      ],
      "name": "mintTo",
      "outputs": [],
      "stateMutability": "nonpayable",
      "type": "function"
    },
    {
      "inputs": [],
      "name": "name",
      "outputs": [
        {
          "internalType": "string",
          "name": "",
          "type": "string"
        }
      ],
      "stateMutability": "view",
      "type": "function"
    },
    {
      "inputs": [],
      "name": "nextTokenIdToMint",
      "outputs": [
        {
          "internalType": "uint256",
          "name": "",
          "type": "uint256"
        }
      ],
      "stateMutability": "view",
      "type": "function"
    },
    {
      "inputs": [
        {
          "internalType": "uint256",
          "name": "_tokenId",
          "type": "uint256"
        }
      ],
      "name": "ownerOf",
      "outputs": [
        {
          "internalType": "address",
          "name": "",
          "type": "address"
        }
      ],
      "stateMutability": "view",
      "type": "function"
    },
    {
      "inputs": [
        {
          "internalType": "address",
          "name": "_from",
          "type": "address"
        },
        {
          "internalType": "address",
          "name": "_to",
          "type": "address"
        },
        {
          "internalType": "uint256",
          "name": "_tokenId",
          "type": "uint256"
        }
      ],
      "name": "safeTransferFrom",
      "outputs": [],
      "stateMutability": "payable",
      "type": "function"
    },
    {
      "inputs": [
        {
          "internalType": "address",
          "name": "_from",
          "type": "address"
        },
        {
          "internalType": "address",
          "name": "_to",
          "type": "address"
        },
        {
          "internalType": "uint256",
          "name": "_tokenId",
          "type": "uint256"
        },
        {
          "internalType": "bytes",
          "name": "_data",
          "type": "bytes"
        }
      ],
      "name": "safeTransferFrom",
      "outputs": [],
      "stateMutability": "payable",
      "type": "function"
    },
    {
      "inputs": [
        {
          "internalType": "address",
          "name": "_operator",
          "type": "address"
        },
        {
          "internalType": "bool",
          "name": "_approved",
          "type": "bool"
        }
      ],
      "name": "setApprovalForAll",
      "outputs": [],
      "stateMutability": "nonpayable",
      "type": "function"
    },
    {
      "inputs": [],
      "name": "symbol",
      "outputs": [
        {
          "internalType": "string",
          "name": "",
          "type": "string"
        }
      ],
      "stateMutability": "view",
      "type": "function"
    },
    {
      "inputs": [
        {
          "internalType": "uint256",
          "name": "_tokenId",
          "type": "uint256"
        }
      ],
      "name": "tokenURI",
      "outputs": [
        {
          "internalType": "string",
          "name": "",
          "type": "string"
        }
      ],
      "stateMutability": "view",
      "type": "function"
    },
    {
      "inputs": [],
      "name": "totalSupply",
      "outputs": [
        {
          "internalType": "uint256",
          "name": "",
          "type": "uint256"
        }
      ],
      "stateMutability": "view",
      "type": "function"
    },
    {
      "inputs": [
        {
          "internalType": "address",
          "name": "_from",
          "type": "address"
        },
        {
          "internalType": "address",
          "name": "_to",
          "type": "address"
        },
        {
          "internalType": "uint256",
          "name": "_tokenId",
          "type": "uint256"
        }
      ],
      "name": "transferFrom",
      "outputs": [],
      "stateMutability": "payable",
      "type": "function"
    }
  ],
  "bytecode": "0x608060405234801561001057600080fd5b50604051612d1b380380612d1b83398181016040528101906100329190610217565b816000908161004191906104b0565b50806001908161005191906104b0565b50600060028190555033600360006101000a81548173ffffffffffffffffffffffffffffffffffffffff021916908373ffffffffffffffffffffffffffffffffffffffff1602179055505050610582565b6000604051905090565b600080fd5b600080fd5b600080fd5b600080fd5b6000601f19601f8301169050919050565b7f4e487b7100000000000000000000000000000000000000000000000000000000600052604160045260246000fd5b610109826100c0565b810181811067ffffffffffffffff82111715610128576101276100d1565b5b80604052505050565b600061013b6100a2565b90506101478282610100565b919050565b600067ffffffffffffffff821115610167576101666100d1565b5b610170826100c0565b9050602081019050919050565b60005b8381101561019b578082015181840152602081019050610180565b60008484015250505050565b60006101ba6101b58461014c565b610131565b9050828152602081018484840111156101d6576101d56100bb565b5b6101e184828561017d565b509392505050565b600082601f8301126101fe576101fd6100b6565b5b815161020e8482602086016101a7565b91505092915050565b6000806040838503121561022e5761022d6100ac565b5b600083015167ffffffffffffffff81111561024c5761024b6100b1565b5b610258858286016101e9565b925050602083015167ffffffffffffffff811115610279576102786100b1565b5b610285858286016101e9565b9150509250929050565b600081519050919050565b7f4e487b7100000000000000000000000000000000000000000000000000000000600052602260045260246000fd5b600060028204905060018216806102e157607f821691505b6020821081036102f4576102f361029a565b5b50919050565b60008190508160005260206000209050919050565b60006020601f8301049050919050565b600082821b905092915050565b60006008830261035c7fffffffffffffffffffffffffffffffffffffffffffffffffffffffffffffffff8261031f565b610366868361031f565b95508019841693508086168417925050509392505050565b6000819050919050565b6000819050919050565b60006103ad6103a86103a38461037e565b610388565b61037e565b9050919050565b6000819050919050565b6103c783610392565b6103db6103d3826103b4565b84845461032c565b825550505050565b600090565b6103f06103e3565b6103fb8184846103be565b505050565b5b8181101561041f576104146000826103e8565b600181019050610401565b5050565b601f82111561046457610435816102fa565b61043e8461030f565b8101602085101561044d578190505b6104616104598561030f565b830182610400565b50505b505050565b600082821c905092915050565b600061048760001984600802610469565b1980831691505092915050565b60006104a08383610476565b9150826002028217905092915050565b6104b98261028f565b67ffffffffffffffff8111156104d2576104d16100d1565b5b6104dc82546102c9565b6104e7828285610423565b600060209050601f83116001811461051a5760008415610508578287015190505b6105128582610494565b86555061057a565b601f198416610528866102fa565b60005b828110156105505784890151825560018201915060208501945060208101905061052b565b8683101561056d5784890151610569601f891682610476565b8355505b6001600288020188555050505b505050505050565b61278a806105916000396000f3fe6080604052600436106100fd5760003560e01c80636352211e11610095578063b88d4fde11610064578063b88d4fde1461030b578063c87b56dd14610327578063ce606ee014610364578063e985e9c51461038f578063f2f18baa146103cc576100fd565b80636352211e1461023d57806370a082311461027a57806395d89b41146102b7578063a22cb465146102e2576100fd565b806318160ddd116100d157806318160ddd146101af57806323b872dd146101da5780633b1475a7146101f657806342842e0e14610221576100fd565b806275a3171461010257806306fdde031461012b578063081812fc14610156578063095ea7b314610193575b600080fd5b34801561010e57600080fd5b506101296004803603810190610124919061198e565b6103f5565b005b34801561013757600080fd5b50610140610640565b60405161014d9190611a69565b60405180910390f35b34801561016257600080fd5b5061017d60048036038101906101789190611ac1565b6106ce565b60405161018a9190611afd565b60405180910390f35b6101ad60048036038101906101a89190611b18565b61070b565b005b3480156101bb57600080fd5b506101c461083c565b6040516101d19190611b67565b60405180910390f35b6101f460048036038101906101ef9190611b82565b610846565b005b34801561020257600080fd5b5061020b6109ce565b6040516102189190611b67565b60405180910390f35b61023b60048036038101906102369190611b82565b6109d4565b005b34801561024957600080fd5b50610264600480360381019061025f9190611ac1565b6109f4565b6040516102719190611afd565b60405180910390f35b34801561028657600080fd5b506102a1600480360381019061029c9190611bd5565b610ad5565b6040516102ae9190611b67565b60405180910390f35b3480156102c357600080fd5b506102cc610b8f565b6040516102d99190611a69565b60405180910390f35b3480156102ee57600080fd5b5061030960048036038101906103049190611c3a565b610c1d565b005b61032560048036038101906103209190611d1b565b610d1a565b005b34801561033357600080fd5b5061034e60048036038101906103499190611ac1565b610eee565b60405161035b9190611a69565b60405180910390f35b34801561037057600080fd5b50610379611037565b6040516103869190611afd565b60405180910390f35b34801561039b57600080fd5b506103b660048036038101906103b19190611d9e565b61105d565b6040516103c39190611ded565b60405180910390f35b3480156103d857600080fd5b506103f360048036038101906103ee9190611eee565b6110f1565b005b600360009054906101000a900473ffffffffffffffffffffffffffffffffffffffff1673ffffffffffffffffffffffffffffffffffffffff163373ffffffffffffffffffffffffffffffffffffffff1614610485576040517f08c379a000000000000000000000000000000000000000000000000000000000815260040161047c90611f96565b60405180910390fd5b81600073ffffffffffffffffffffffffffffffffffffffff168173ffffffffffffffffffffffffffffffffffffffff16036104f5576040517f08c379a00000000000000000000000000000000000000000000000000000000081526004016104ec90612002565b60405180910390fd5b8260046000600254815260200190815260200160002060006101000a81548173ffffffffffffffffffffffffffffffffffffffff021916908373ffffffffffffffffffffffffffffffffffffffff1602179055506001600560008573ffffffffffffffffffffffffffffffffffffffff1673ffffffffffffffffffffffffffffffffffffffff16815260200190815260200160002060008282546105999190612051565b925050819055508160086000600254815260200190815260200160002090816105c29190612291565b506002548373ffffffffffffffffffffffffffffffffffffffff16600073ffffffffffffffffffffffffffffffffffffffff167fddf252ad1be2c89b69c2b068fc378daa952ba7f163c4a11628f55a4df523b3ef60405160405180910390a46001600260008282546106349190612051565b92505081905550505050565b6000805461064d906120b4565b80601f0160208091040260200160405190810160405280929190818152602001828054610679906120b4565b80156106c65780601f1061069b576101008083540402835291602001916106c6565b820191906000526020600020905b8154815290600101906020018083116106a957829003601f168201915b505050505081565b60006006600083815260200190815260200160002060009054906101000a900473ffffffffffffffffffffffffffffffffffffffff169050919050565b803373ffffffffffffffffffffffffffffffffffffffff1661072c826109f4565b73ffffffffffffffffffffffffffffffffffffffff1614610782576040517f08c379a0000000000000000000000000000000000000000000000000000000008152600401610779906123af565b60405180910390fd5b826006600084815260200190815260200160002060006101000a81548173ffffffffffffffffffffffffffffffffffffffff021916908373ffffffffffffffffffffffffffffffffffffffff160217905550818373ffffffffffffffffffffffffffffffffffffffff166107f5846109f4565b73ffffffffffffffffffffffffffffffffffffffff167f8c5be1e5ebec7d5bd14f71427d1e84f3dd0314c0f7b2291e5b200ac8c7c3b92560405160405180910390a4505050565b6000600254905090565b3373ffffffffffffffffffffffffffffffffffffffff16610866826109f4565b73ffffffffffffffffffffffffffffffffffffffff1614806108e657503373ffffffffffffffffffffffffffffffffffffffff166006600083815260200190815260200160002060009054906101000a900473ffffffffffffffffffffffffffffffffffffffff1673ffffffffffffffffffffffffffffffffffffffff16145b8061097f5750600760006108f9836109f4565b73ffffffffffffffffffffffffffffffffffffffff1673ffffffffffffffffffffffffffffffffffffffff16815260200190815260200160002060003373ffffffffffffffffffffffffffffffffffffffff1673ffffffffffffffffffffffffffffffffffffffff16815260200190815260200160002060009054906101000a900460ff165b6109be576040517f08c379a00000000000000000000000000000000000000000000000000000000081526004016109b5906123af565b60405180910390fd5b6109c98383836113db565b505050565b60025481565b6109ef83838360405180602001604052806000815250610d1a565b505050565b600081600073ffffffffffffffffffffffffffffffffffffffff166004600083815260200190815260200160002060009054906101000a900473ffffffffffffffffffffffffffffffffffffffff1673ffffffffffffffffffffffffffffffffffffffff1603610a99576040517f08c379a0000000000000000000000000000000000000000000000000000000008152600401610a909061241b565b60405180910390fd5b6004600084815260200190815260200160002060009054906101000a900473ffffffffffffffffffffffffffffffffffffffff16915050919050565b600081600073ffffffffffffffffffffffffffffffffffffffff168173ffffffffffffffffffffffffffffffffffffffff1603610b47576040517f08c379a0000000000000000000000000000000000000000000000000000000008152600401610b3e90612002565b60405180910390fd5b600560008473ffffffffffffffffffffffffffffffffffffffff1673ffffffffffffffffffffffffffffffffffffffff16815260200190815260200160002054915050919050565b60018054610b9c906120b4565b80601f0160208091040260200160405190810160405280929190818152602001828054610bc8906120b4565b8015610c155780601f10610bea57610100808354040283529160200191610c15565b820191906000526020600020905b815481529060010190602001808311610bf857829003601f168201915b505050505081565b80600760003373ffffffffffffffffffffffffffffffffffffffff1673ffffffffffffffffffffffffffffffffffffffff16815260200190815260200160002060008473ffffffffffffffffffffffffffffffffffffffff1673ffffffffffffffffffffffffffffffffffffffff16815260200190815260200160002060006101000a81548160ff0219169083151502179055508173ffffffffffffffffffffffffffffffffffffffff163373ffffffffffffffffffffffffffffffffffffffff167f17307eab39ab6107e8899845ad3d59bd9653f200f220920489ca2b5937696c3183604051610d0e9190611ded565b60405180910390a35050565b3373ffffffffffffffffffffffffffffffffffffffff16610d3a836109f4565b73ffffffffffffffffffffffffffffffffffffffff161480610dba57503373ffffffffffffffffffffffffffffffffffffffff166006600084815260200190815260200160002060009054906101000a900473ffffffffffffffffffffffffffffffffffffffff1673ffffffffffffffffffffffffffffffffffffffff16145b80610e53575060076000610dcd846109f4565b73ffffffffffffffffffffffffffffffffffffffff1673ffffffffffffffffffffffffffffffffffffffff16815260200190815260200160002060003373ffffffffffffffffffffffffffffffffffffffff1673ffffffffffffffffffffffffffffffffffffffff16815260200190815260200160002060009054906101000a900460ff165b610e92576040517f08c379a0000000000000000000000000000000000000000000000000000000008152600401610e89906123af565b60405180910390fd5b610e9d8484846113db565b610ea98484848461165b565b610ee8576040517f08c379a0000000000000000000000000000000000000000000000000000000008152600401610edf90612487565b60405180910390fd5b50505050565b606081600073ffffffffffffffffffffffffffffffffffffffff166004600083815260200190815260200160002060009054906101000a900473ffffffffffffffffffffffffffffffffffffffff1673ffffffffffffffffffffffffffffffffffffffff1603610f93576040517f08c379a0000000000000000000000000000000000000000000000000000000008152600401610f8a9061241b565b60405180910390fd5b600860008481526020019081526020016000208054610fb1906120b4565b80601f0160208091040260200160405190810160405280929190818152602001828054610fdd906120b4565b801561102a5780601f10610fff5761010080835404028352916020019161102a565b820191906000526020600020905b81548152906001019060200180831161100d57829003601f168201915b5050505050915050919050565b600360009054906101000a900473ffffffffffffffffffffffffffffffffffffffff1681565b6000600760008473ffffffffffffffffffffffffffffffffffffffff1673ffffffffffffffffffffffffffffffffffffffff16815260200190815260200160002060008373ffffffffffffffffffffffffffffffffffffffff1673ffffffffffffffffffffffffffffffffffffffff16815260200190815260200160002060009054906101000a900460ff16905092915050565b600360009054906101000a900473ffffffffffffffffffffffffffffffffffffffff1673ffffffffffffffffffffffffffffffffffffffff163373ffffffffffffffffffffffffffffffffffffffff1614611181576040517f08c379a000000000000000000000000000000000000000000000000000000000815260040161117890611f96565b60405180910390fd5b81600073ffffffffffffffffffffffffffffffffffffffff168173ffffffffffffffffffffffffffffffffffffffff16036111f1576040517f08c379a00000000000000000000000000000000000000000000000000000000081526004016111e890612002565b60405180910390fd5b6000825111611235576040517f08c379a000000000000000000000000000000000000000000000000000000000815260040161122c90612519565b60405180910390fd5b6000600254905060008351905060005b81811015611364578560046000838661125e9190612051565b815260200190815260200160002060006101000a81548173ffffffffffffffffffffffffffffffffffffffff021916908373ffffffffffffffffffffffffffffffffffffffff1602179055508481815181106112bd576112bc612539565b5b60200260200101516008600083866112d59190612051565b815260200190815260200160002090816112ef9190612291565b5080836112fc9190612051565b8673ffffffffffffffffffffffffffffffffffffffff16600073ffffffffffffffffffffffffffffffffffffffff167fddf252ad1be2c89b69c2b068fc378daa952ba7f163c4a11628f55a4df523b3ef60405160405180910390a48080600101915050611245565b5080600560008773ffffffffffffffffffffffffffffffffffffffff1673ffffffffffffffffffffffffffffffffffffffff16815260200190815260200160002060008282546113b49190612051565b9250508190555080600260008282546113cd9190612051565b925050819055505050505050565b81600073ffffffffffffffffffffffffffffffffffffffff168173ffffffffffffffffffffffffffffffffffffffff160361144b576040517f08c379a000000000000000000000000000000000000000000000000000000000815260040161144290612002565b60405180910390fd5b60006006600084815260200190815260200160002060006101000a81548173ffffffffffffffffffffffffffffffffffffffff021916908373ffffffffffffffffffffffffffffffffffffffff1602179055506001600560008673ffffffffffffffffffffffffffffffffffffffff1673ffffffffffffffffffffffffffffffffffffffff16815260200190815260200160002060008282546114ee9190612568565b925050819055506001600560008573ffffffffffffffffffffffffffffffffffffffff1673ffffffffffffffffffffffffffffffffffffffff16815260200190815260200160002060008282546115459190612051565b92505081905550826004600084815260200190815260200160002060006101000a81548173ffffffffffffffffffffffffffffffffffffffff021916908373ffffffffffffffffffffffffffffffffffffffff160217905550818373ffffffffffffffffffffffffffffffffffffffff168573ffffffffffffffffffffffffffffffffffffffff167fddf252ad1be2c89b69c2b068fc378daa952ba7f163c4a11628f55a4df523b3ef60405160405180910390a481600073ffffffffffffffffffffffffffffffffffffffff168573ffffffffffffffffffffffffffffffffffffffff167f8c5be1e5ebec7d5bd14f71427d1e84f3dd0314c0f7b2291e5b200ac8c7c3b92560405160405180910390a450505050565b6000808473ffffffffffffffffffffffffffffffffffffffff163b11156117c9578373ffffffffffffffffffffffffffffffffffffffff1663150b7a02338786866040518563ffffffff1660e01b81526004016116bb94939291906125f1565b6020604051808303816000875af19250505080156116f757506040513d601f19601f820116820180604052508101906116f49190612695565b60015b611779573d8060008114611727576040519150601f19603f3d011682016040523d82523d6000602084013e61172c565b606091505b506000815103611771576040517f08c379a000000000000000000000000000000000000000000000000000000000815260040161176890612734565b60405180910390fd5b805181602001fd5b63150b7a0260e01b7bffffffffffffffffffffffffffffffffffffffffffffffffffffffff1916817bffffffffffffffffffffffffffffffffffffffffffffffffffffffff1916149150506117ce565b600190505b949350505050565b6000604051905090565b600080fd5b600080fd5b600073ffffffffffffffffffffffffffffffffffffffff82169050919050565b6000611815826117ea565b9050919050565b6118258161180a565b811461183057600080fd5b50565b6000813590506118428161181c565b92915050565b600080fd5b600080fd5b6000601f19601f8301169050919050565b7f4e487b7100000000000000000000000000000000000000000000000000000000600052604160045260246000fd5b61189b82611852565b810181811067ffffffffffffffff821117156118ba576118b9611863565b5b80604052505050565b60006118cd6117d6565b90506118d98282611892565b919050565b600067ffffffffffffffff8211156118f9576118f8611863565b5b61190282611852565b9050602081019050919050565b82818337600083830152505050565b600061193161192c846118de565b6118c3565b90508281526020810184848401111561194d5761194c61184d565b5b61195884828561190f565b509392505050565b600082601f83011261197557611974611848565b5b813561198584826020860161191e565b91505092915050565b600080604083850312156119a5576119a46117e0565b5b60006119b385828601611833565b925050602083013567ffffffffffffffff8111156119d4576119d36117e5565b5b6119e085828601611960565b9150509250929050565b600081519050919050565b600082825260208201905092915050565b60005b83811015611a24578082015181840152602081019050611a09565b60008484015250505050565b6000611a3b826119ea565b611a4581856119f5565b9350611a55818560208601611a06565b611a5e81611852565b840191505092915050565b60006020820190508181036000830152611a838184611a30565b905092915050565b6000819050919050565b611a9e81611a8b565b8114611aa957600080fd5b50565b600081359050611abb81611a95565b92915050565b600060208284031215611ad757611ad66117e0565b5b6000611ae584828501611aac565b91505092915050565b611af78161180a565b82525050565b6000602082019050611b126000830184611aee565b92915050565b60008060408385031215611b2f57611b2e6117e0565b5b6000611b3d85828601611833565b9250506020611b4e85828601611aac565b9150509250929050565b611b6181611a8b565b82525050565b6000602082019050611b7c6000830184611b58565b92915050565b600080600060608486031215611b9b57611b9a6117e0565b5b6000611ba986828701611833565b9350506020611bba86828701611833565b9250506040611bcb86828701611aac565b9150509250925092565b600060208284031215611beb57611bea6117e0565b5b6000611bf984828501611833565b91505092915050565b60008115159050919050565b611c1781611c02565b8114611c2257600080fd5b50565b600081359050611c3481611c0e565b92915050565b60008060408385031215611c5157611c506117e0565b5b6000611c5f85828601611833565b9250506020611c7085828601611c25565b9150509250929050565b600067ffffffffffffffff821115611c9557611c94611863565b5b611c9e82611852565b9050602081019050919050565b6000611cbe611cb984611c7a565b6118c3565b905082815260208101848484011115611cda57611cd961184d565b5b611ce584828561190f565b509392505050565b600082601f830112611d0257611d01611848565b5b8135611d12848260208601611cab565b91505092915050565b60008060008060808587031215611d3557611d346117e0565b5b6000611d4387828801611833565b9450506020611d5487828801611833565b9350506040611d6587828801611aac565b925050606085013567ffffffffffffffff811115611d8657611d856117e5565b5b611d9287828801611ced565b91505092959194509250565b60008060408385031215611db557611db46117e0565b5b6000611dc385828601611833565b9250506020611dd485828601611833565b9150509250929050565b611de781611c02565b82525050565b6000602082019050611e026000830184611dde565b92915050565b600067ffffffffffffffff821115611e2357611e22611863565b5b602082029050602081019050919050565b600080fd5b6000611e4c611e4784611e08565b6118c3565b90508083825260208201905060208402830185811115611e6f57611e6e611e34565b5b835b81811015611eb657803567ffffffffffffffff811115611e9457611e93611848565b5b808601611ea18982611960565b85526020850194505050602081019050611e71565b5050509392505050565b600082601f830112611ed557611ed4611848565b5b8135611ee5848260208601611e39565b91505092915050565b60008060408385031215611f0557611f046117e0565b5b6000611f1385828601611833565b925050602083013567ffffffffffffffff811115611f3457611f336117e5565b5b611f4085828601611ec0565b9150509250929050565b7f4552433732313a204f6e6c7920636f6e7472616374206f776e65720000000000600082015250565b6000611f80601b836119f5565b9150611f8b82611f4a565b602082019050919050565b60006020820190508181036000830152611faf81611f73565b9050919050565b7f4552433732313a20496e76616c69642061646472657373000000000000000000600082015250565b6000611fec6017836119f5565b9150611ff782611fb6565b602082019050919050565b6000602082019050818103600083015261201b81611fdf565b9050919050565b7f4e487b7100000000000000000000000000000000000000000000000000000000600052601160045260246000fd5b600061205c82611a8b565b915061206783611a8b565b925082820190508082111561207f5761207e612022565b5b92915050565b7f4e487b7100000000000000000000000000000000000000000000000000000000600052602260045260246000fd5b600060028204905060018216806120cc57607f821691505b6020821081036120df576120de612085565b5b50919050565b60008190508160005260206000209050919050565b60006020601f8301049050919050565b600082821b905092915050565b6000600883026121477fffffffffffffffffffffffffffffffffffffffffffffffffffffffffffffffff8261210a565b612151868361210a565b95508019841693508086168417925050509392505050565b6000819050919050565b600061218e61218961218484611a8b565b612169565b611a8b565b9050919050565b6000819050919050565b6121a883612173565b6121bc6121b482612195565b848454612117565b825550505050565b600090565b6121d16121c4565b6121dc81848461219f565b505050565b5b81811015612200576121f56000826121c9565b6001810190506121e2565b5050565b601f82111561224557612216816120e5565b61221f846120fa565b8101602085101561222e578190505b61224261223a856120fa565b8301826121e1565b50505b505050565b600082821c905092915050565b60006122686000198460080261224a565b1980831691505092915050565b60006122818383612257565b9150826002028217905092915050565b61229a826119ea565b67ffffffffffffffff8111156122b3576122b2611863565b5b6122bd82546120b4565b6122c8828285612204565b600060209050601f8311600181146122fb57600084156122e9578287015190505b6122f38582612275565b86555061235b565b601f198416612309866120e5565b60005b828110156123315784890151825560018201915060208501945060208101905061230c565b8683101561234e578489015161234a601f891682612257565b8355505b6001600288020188555050505b505050505050565b7f4552433732313a20696e76616c696420746f6b656e2049440000000000000000600082015250565b60006123996018836119f5565b91506123a482612363565b602082019050919050565b600060208201905081810360008301526123c88161238c565b9050919050565b7f4552433732313a20546f6b656e20646f6573206e6f7420657869737400000000600082015250565b6000612405601c836119f5565b9150612410826123cf565b602082019050919050565b60006020820190508181036000830152612434816123f8565b9050919050565b7f21455243373231496d706c656d656e7465720000000000000000000000000000600082015250565b60006124716012836119f5565b915061247c8261243b565b602082019050919050565b600060208201905081810360008301526124a081612464565b9050919050565b7f4552433732313a204d7573742070726f76696465206174206c65617374206f6e60008201527f6520555249000000000000000000000000000000000000000000000000000000602082015250565b60006125036025836119f5565b915061250e826124a7565b604082019050919050565b60006020820190508181036000830152612532816124f6565b9050919050565b7f4e487b7100000000000000000000000000000000000000000000000000000000600052603260045260246000fd5b600061257382611a8b565b915061257e83611a8b565b925082820390508181111561259657612595612022565b5b92915050565b600081519050919050565b600082825260208201905092915050565b60006125c38261259c565b6125cd81856125a7565b93506125dd818560208601611a06565b6125e681611852565b840191505092915050565b60006080820190506126066000830187611aee565b6126136020830186611aee565b6126206040830185611b58565b818103606083015261263281846125b8565b905095945050505050565b60007fffffffff0000000000000000000000000000000000000000000000000000000082169050919050565b6126728161263d565b811461267d57600080fd5b50565b60008151905061268f81612669565b92915050565b6000602082840312156126ab576126aa6117e0565b5b60006126b984828501612680565b91505092915050565b7f4552433732313a207472616e7366657220746f206e6f6e20455243373231526560008201527f63656976657220696d706c656d656e7465720000000000000000000000000000602082015250565b600061271e6032836119f5565b9150612729826126c2565b604082019050919050565b6000602082019050818103600083015261274d81612711565b905091905056fea264697066735822122086bd9ca56931d6a4eda8f66468b1caacb0506c2c2cd775e9c2f9a98a107c0df164736f6c634300081c0033",
  "linkReferences": {},
  "deployedLinkReferences": {}
}