{
  "_format": "hh-sol-artifact-1",
  "contractName": "ERC721",
  "sourceName": "contracts/ERC721.sol",
  "abi": [
    {
      "inputs": [
        {
          "internalType": "string",
          "name": "_name",
          "type": "string"
        },
        {
          "internalType": "string",
          "name": "_symbol",
          "type": "string"
        }
      ],
      "stateMutability": "nonpayable",
      "type": "constructor"
    },
    {
      "anonymous": false,
      "inputs": [
        {
          "indexed": true,
          "internalType": "address",
          "name": "_owner",
          "type": "address"
        },
        {
          "indexed": true,
          "internalType": "address",
          "name": "_approved",
          "type": "address"
        },
        {
          "indexed": true,
          "internalType": "uint256",
          "name": "_tokenId",
          "type": "uint256"
        }
      ],
      "name": "Approval",
      "type": "event"
    },
    {
      "anonymous": false,
      "inputs": [
        {
          "indexed": true,
          "internalType": "address",
          "name": "_owner",
          "type": "address"
        },
        {
          "indexed": true,
          "internalType": "address",
          "name": "_operator",
          "type": "address"
        },
        {
          "indexed": false,
          "internalType": "bool",
          "name": "_approved",
          "type": "bool"
        }
      ],
      "name": "ApprovalForAll",
      "type": "event"
    },
    {
      "anonymous": false,
      "inputs": [
        {
          "indexed": true,
          "internalType": "address",
          "name": "owner",
          "type": "address"
        },
        {
          "indexed": true,
          "internalType": "address",
          "name": "approved",
          "type": "address"
        },
        {
          "indexed": true,
          "internalType": "uint256",
          "name": "tokenId",
          "type": "uint256"
        },
        {
          "indexed": false,
          "internalType": "bool",
          "name": "approvedStatus",
          "type": "bool"
        }
      ],
      "name": "MultiApproval",
      "type": "event"
    },
    {
      "anonymous": false,
      "inputs": [
        {
          "indexed": true,
          "internalType": "address",
          "name": "_from",
          "type": "address"
        },
        {
          "indexed": true,
          "internalType": "address",
          "name": "_to",
          "type": "address"
        },
        {
          "indexed": true,
          "internalType": "uint256",
          "name": "_tokenId",
          "type": "uint256"
        }
      ],
      "name": "Transfer",
      "type": "event"
    },
    {
      "inputs": [
        {
          "internalType": "address[]",
          "name": "_approved",
          "type": "address[]"
        },
        {
          "internalType": "uint256",
          "name": "_tokenId",
          "type": "uint256"
        }
      ],
      "name": "approve",
      "outputs": [],
      "stateMutability": "payable",
      "type": "function"
    },
    {
      "inputs": [
        {
          "internalType": "address",
          "name": "_owner",
          "type": "address"
        }
      ],
      "name": "balanceOf",
      "outputs": [
        {
          "internalType": "uint256",
          "name": "",
          "type": "uint256"
        }
      ],
      "stateMutability": "view",
      "type": "function"
    },
    {
      "inputs": [
        {
          "internalType": "address",
          "name": "_to",
          "type": "address"
        },
        {
          "internalType": "string[]",
          "name": "_uris",
          "type": "string[]"
        }
      ],
      "name": "batchMint",
      "outputs": [],
      "stateMutability": "nonpayable",
      "type": "function"
    },
    {
      "inputs": [],
      "name": "contractOwner",
      "outputs": [
        {
          "internalType": "address",
          "name": "",
          "type": "address"
        }
      ],
      "stateMutability": "view",
      "type": "function"
    },
    {
      "inputs": [
        {
          "internalType": "address",
          "name": "_owner",
          "type": "address"
        },
        {
          "internalType": "address",
          "name": "_operator",
          "type": "address"
        }
      ],
      "name": "isApprovedForAll",
      "outputs": [
        {
          "internalType": "bool",
          "name": "",
          "type": "bool"
        }
      ],
      "stateMutability": "view",
      "type": "function"
    },
    {
      "inputs": [
        {
          "internalType": "uint256",
          "name": "_tokenId",
          "type": "uint256"
        },
        {
          "internalType": "address",
          "name": "_operator",
          "type": "address"
        }
      ],
      "name": "isApprovedForToken",
      "outputs": [
        {
          "internalType": "bool",
          "name": "",
          "type": "bool"
        }
      ],
      "stateMutability": "view",
      "type": "function"
    },
    {
      "inputs": [
        {
          "internalType": "address",
          "name": "_to",
          "type": "address"
        },
        {
          "internalType": "string",
          "name": "_uri",
          "type": "string"
        }
      ],
      "name": "mintTo",
      "outputs": [],
      "stateMutability": "nonpayable",
      "type": "function"
    },
    {
      "inputs": [],
      "name": "name",
      "outputs": [
        {
          "internalType": "string",
          "name": "",
          "type": "string"
        }
      ],
      "stateMutability": "view",
      "type": "function"
    },
    {
      "inputs": [],
      "name": "nextTokenIdToMint",
      "outputs": [
        {
          "internalType": "uint256",
          "name": "",
          "type": "uint256"
        }
      ],
      "stateMutability": "view",
      "type": "function"
    },
    {
      "inputs": [
        {
          "internalType": "uint256",
          "name": "_tokenId",
          "type": "uint256"
        }
      ],
      "name": "ownerOf",
      "outputs": [
        {
          "internalType": "address",
          "name": "",
          "type": "address"
        }
      ],
      "stateMutability": "view",
      "type": "function"
    },
    {
      "inputs": [
        {
          "internalType": "address[]",
          "name": "_revoked",
          "type": "address[]"
        },
        {
          "internalType": "uint256",
          "name": "_tokenId",
          "type": "uint256"
        }
      ],
      "name": "revokeApproval",
      "outputs": [],
      "stateMutability": "nonpayable",
      "type": "function"
    },
    {
      "inputs": [
        {
          "internalType": "address",
          "name": "_from",
          "type": "address"
        },
        {
          "internalType": "address",
          "name": "_to",
          "type": "address"
        },
        {
          "internalType": "uint256",
          "name": "_tokenId",
          "type": "uint256"
        }
      ],
      "name": "safeTransferFrom",
      "outputs": [],
      "stateMutability": "payable",
      "type": "function"
    },
    {
      "inputs": [
        {
          "internalType": "address",
          "name": "_from",
          "type": "address"
        },
        {
          "internalType": "address",
          "name": "_to",
          "type": "address"
        },
        {
          "internalType": "uint256",
          "name": "_tokenId",
          "type": "uint256"
        },
        {
          "internalType": "bytes",
          "name": "_data",
          "type": "bytes"
        }
      ],
      "name": "safeTransferFrom",
      "outputs": [],
      "stateMutability": "payable",
      "type": "function"
    },
    {
      "inputs": [
        {
          "internalType": "address[]",
          "name": "_operators",
          "type": "address[]"
        },
        {
          "internalType": "bool",
          "name": "_approved",
          "type": "bool"
        }
      ],
      "name": "setApprovalForAll",
      "outputs": [],
      "stateMutability": "nonpayable",
      "type": "function"
    },
    {
      "inputs": [],
      "name": "symbol",
      "outputs": [
        {
          "internalType": "string",
          "name": "",
          "type": "string"
        }
      ],
      "stateMutability": "view",
      "type": "function"
    },
    {
      "inputs": [
        {
          "internalType": "uint256",
          "name": "_tokenId",
          "type": "uint256"
        }
      ],
      "name": "tokenURI",
      "outputs": [
        {
          "internalType": "string",
          "name": "",
          "type": "string"
        }
      ],
      "stateMutability": "view",
      "type": "function"
    },
    {
      "inputs": [],
      "name": "totalSupply",
      "outputs": [
        {
          "internalType": "uint256",
          "name": "",
          "type": "uint256"
        }
      ],
      "stateMutability": "view",
      "type": "function"
    },
    {
      "inputs": [
        {
          "internalType": "address",
          "name": "_from",
          "type": "address"
        },
        {
          "internalType": "address",
          "name": "_to",
          "type": "address"
        },
        {
          "internalType": "uint256",
          "name": "_tokenId",
          "type": "uint256"
        }
      ],
      "name": "transferFrom",
      "outputs": [],
      "stateMutability": "payable",
      "type": "function"
    }
  ],
  "bytecode": "0x608060405234801561001057600080fd5b506040516130cb3803806130cb83398181016040528101906100329190610217565b816000908161004191906104b0565b50806001908161005191906104b0565b50600060028190555033600360006101000a81548173ffffffffffffffffffffffffffffffffffffffff021916908373ffffffffffffffffffffffffffffffffffffffff1602179055505050610582565b6000604051905090565b600080fd5b600080fd5b600080fd5b600080fd5b6000601f19601f8301169050919050565b7f4e487b7100000000000000000000000000000000000000000000000000000000600052604160045260246000fd5b610109826100c0565b810181811067ffffffffffffffff82111715610128576101276100d1565b5b80604052505050565b600061013b6100a2565b90506101478282610100565b919050565b600067ffffffffffffffff821115610167576101666100d1565b5b610170826100c0565b9050602081019050919050565b60005b8381101561019b578082015181840152602081019050610180565b60008484015250505050565b60006101ba6101b58461014c565b610131565b9050828152602081018484840111156101d6576101d56100bb565b5b6101e184828561017d565b509392505050565b600082601f8301126101fe576101fd6100b6565b5b815161020e8482602086016101a7565b91505092915050565b6000806040838503121561022e5761022d6100ac565b5b600083015167ffffffffffffffff81111561024c5761024b6100b1565b5b610258858286016101e9565b925050602083015167ffffffffffffffff811115610279576102786100b1565b5b610285858286016101e9565b9150509250929050565b600081519050919050565b7f4e487b7100000000000000000000000000000000000000000000000000000000600052602260045260246000fd5b600060028204905060018216806102e157607f821691505b6020821081036102f4576102f361029a565b5b50919050565b60008190508160005260206000209050919050565b60006020601f8301049050919050565b600082821b905092915050565b60006008830261035c7fffffffffffffffffffffffffffffffffffffffffffffffffffffffffffffffff8261031f565b610366868361031f565b95508019841693508086168417925050509392505050565b6000819050919050565b6000819050919050565b60006103ad6103a86103a38461037e565b610388565b61037e565b9050919050565b6000819050919050565b6103c783610392565b6103db6103d3826103b4565b84845461032c565b825550505050565b600090565b6103f06103e3565b6103fb8184846103be565b505050565b5b8181101561041f576104146000826103e8565b600181019050610401565b5050565b601f82111561046457610435816102fa565b61043e8461030f565b8101602085101561044d578190505b6104616104598561030f565b830182610400565b50505b505050565b600082821c905092915050565b600061048760001984600802610469565b1980831691505092915050565b60006104a08383610476565b9150826002028217905092915050565b6104b98261028f565b67ffffffffffffffff8111156104d2576104d16100d1565b5b6104dc82546102c9565b6104e7828285610423565b600060209050601f83116001811461051a5760008415610508578287015190505b6105128582610494565b86555061057a565b601f198416610528866102fa565b60005b828110156105505784890151825560018201915060208501945060208101905061052b565b8683101561056d5784890151610569601f891682610476565b8355505b6001600288020188555050505b505050505050565b612b3a806105916000396000f3fe6080604052600436106101085760003560e01c80636352211e11610095578063b88d4fde11610064578063b88d4fde1461033f578063c87b56dd1461035b578063ce606ee014610398578063e985e9c5146103c3578063f2f18baa1461040057610108565b80636352211e1461027157806370a08231146102ae57806395d89b41146102eb578063a3a2e01e1461031657610108565b806323b872dd116100dc57806323b872dd146101c95780633b1475a7146101e55780633c04696014610210578063404c11321461022c57806342842e0e1461025557610108565b806275a3171461010d57806306fdde03146101365780630920984c1461016157806318160ddd1461019e575b600080fd5b34801561011957600080fd5b50610134600480360381019061012f9190611b97565b610429565b005b34801561014257600080fd5b5061014b610674565b6040516101589190611c72565b60405180910390f35b34801561016d57600080fd5b5061018860048036038101906101839190611cca565b610702565b6040516101959190611d25565b60405180910390f35b3480156101aa57600080fd5b506101b361076a565b6040516101c09190611d4f565b60405180910390f35b6101e360048036038101906101de9190611d6a565b610774565b005b3480156101f157600080fd5b506101fa6108f8565b6040516102079190611d4f565b60405180910390f35b61022a60048036038101906102259190611e85565b6108fe565b005b34801561023857600080fd5b50610253600480360381019061024e9190611f0d565b610aa0565b005b61026f600480360381019061026a9190611d6a565b610beb565b005b34801561027d57600080fd5b5061029860048036038101906102939190611f69565b610c0b565b6040516102a59190611fa5565b60405180910390f35b3480156102ba57600080fd5b506102d560048036038101906102d09190611fc0565b610cec565b6040516102e29190611d4f565b60405180910390f35b3480156102f757600080fd5b50610300610da6565b60405161030d9190611c72565b60405180910390f35b34801561032257600080fd5b5061033d60048036038101906103389190611e85565b610e34565b005b6103596004803603810190610354919061208e565b610fd6565b005b34801561036757600080fd5b50610382600480360381019061037d9190611f69565b6111a6565b60405161038f9190611c72565b60405180910390f35b3480156103a457600080fd5b506103ad6112ef565b6040516103ba9190611fa5565b60405180910390f35b3480156103cf57600080fd5b506103ea60048036038101906103e59190612111565b611315565b6040516103f79190611d25565b60405180910390f35b34801561040c57600080fd5b5061042760048036038101906104229190612232565b6113a9565b005b600360009054906101000a900473ffffffffffffffffffffffffffffffffffffffff1673ffffffffffffffffffffffffffffffffffffffff163373ffffffffffffffffffffffffffffffffffffffff16146104b9576040517f08c379a00000000000000000000000000000000000000000000000000000000081526004016104b0906122da565b60405180910390fd5b81600073ffffffffffffffffffffffffffffffffffffffff168173ffffffffffffffffffffffffffffffffffffffff1603610529576040517f08c379a000000000000000000000000000000000000000000000000000000000815260040161052090612346565b60405180910390fd5b8260046000600254815260200190815260200160002060006101000a81548173ffffffffffffffffffffffffffffffffffffffff021916908373ffffffffffffffffffffffffffffffffffffffff1602179055506001600560008573ffffffffffffffffffffffffffffffffffffffff1673ffffffffffffffffffffffffffffffffffffffff16815260200190815260200160002060008282546105cd9190612395565b925050819055508160086000600254815260200190815260200160002090816105f691906125d5565b506002548373ffffffffffffffffffffffffffffffffffffffff16600073ffffffffffffffffffffffffffffffffffffffff167fddf252ad1be2c89b69c2b068fc378daa952ba7f163c4a11628f55a4df523b3ef60405160405180910390a46001600260008282546106689190612395565b92505081905550505050565b60008054610681906123f8565b80601f01602080910402602001604051908101604052809291908181526020018280546106ad906123f8565b80156106fa5780601f106106cf576101008083540402835291602001916106fa565b820191906000526020600020905b8154815290600101906020018083116106dd57829003601f168201915b505050505081565b60006007600084815260200190815260200160002060008373ffffffffffffffffffffffffffffffffffffffff1673ffffffffffffffffffffffffffffffffffffffff16815260200190815260200160002060009054906101000a900460ff16905092915050565b6000600254905090565b3373ffffffffffffffffffffffffffffffffffffffff1661079482610c0b565b73ffffffffffffffffffffffffffffffffffffffff1614806108445750600660006107be83610c0b565b73ffffffffffffffffffffffffffffffffffffffff1673ffffffffffffffffffffffffffffffffffffffff16815260200190815260200160002060003373ffffffffffffffffffffffffffffffffffffffff1673ffffffffffffffffffffffffffffffffffffffff16815260200190815260200160002060009054906101000a900460ff165b806108a957506007600082815260200190815260200160002060003373ffffffffffffffffffffffffffffffffffffffff1673ffffffffffffffffffffffffffffffffffffffff16815260200190815260200160002060009054906101000a900460ff165b6108e8576040517f08c379a00000000000000000000000000000000000000000000000000000000081526004016108df906126f3565b60405180910390fd5b6108f3838383611693565b505050565b60025481565b803373ffffffffffffffffffffffffffffffffffffffff1661091f82610c0b565b73ffffffffffffffffffffffffffffffffffffffff1614610975576040517f08c379a000000000000000000000000000000000000000000000000000000000815260040161096c9061275f565b60405180910390fd5b60005b8351811015610a9a5760016007600085815260200190815260200160002060008684815181106109ab576109aa61277f565b5b602002602001015173ffffffffffffffffffffffffffffffffffffffff1673ffffffffffffffffffffffffffffffffffffffff16815260200190815260200160002060006101000a81548160ff02191690831515021790555082848281518110610a1857610a1761277f565b5b602002602001015173ffffffffffffffffffffffffffffffffffffffff16610a3f85610c0b565b73ffffffffffffffffffffffffffffffffffffffff167f0949582f2ba7e21619661ccaff2a64d15f5405827182dc78491307119fc8cea96001604051610a859190611d25565b60405180910390a48080600101915050610978565b50505050565b60005b8251811015610be65781600660003373ffffffffffffffffffffffffffffffffffffffff1673ffffffffffffffffffffffffffffffffffffffff1681526020019081526020016000206000858481518110610b0157610b0061277f565b5b602002602001015173ffffffffffffffffffffffffffffffffffffffff1673ffffffffffffffffffffffffffffffffffffffff16815260200190815260200160002060006101000a81548160ff021916908315150217905550828181518110610b6d57610b6c61277f565b5b602002602001015173ffffffffffffffffffffffffffffffffffffffff163373ffffffffffffffffffffffffffffffffffffffff167f17307eab39ab6107e8899845ad3d59bd9653f200f220920489ca2b5937696c3184604051610bd19190611d25565b60405180910390a38080600101915050610aa3565b505050565b610c0683838360405180602001604052806000815250610fd6565b505050565b600081600073ffffffffffffffffffffffffffffffffffffffff166004600083815260200190815260200160002060009054906101000a900473ffffffffffffffffffffffffffffffffffffffff1673ffffffffffffffffffffffffffffffffffffffff1603610cb0576040517f08c379a0000000000000000000000000000000000000000000000000000000008152600401610ca7906127fa565b60405180910390fd5b6004600084815260200190815260200160002060009054906101000a900473ffffffffffffffffffffffffffffffffffffffff16915050919050565b600081600073ffffffffffffffffffffffffffffffffffffffff168173ffffffffffffffffffffffffffffffffffffffff1603610d5e576040517f08c379a0000000000000000000000000000000000000000000000000000000008152600401610d5590612346565b60405180910390fd5b600560008473ffffffffffffffffffffffffffffffffffffffff1673ffffffffffffffffffffffffffffffffffffffff16815260200190815260200160002054915050919050565b60018054610db3906123f8565b80601f0160208091040260200160405190810160405280929190818152602001828054610ddf906123f8565b8015610e2c5780601f10610e0157610100808354040283529160200191610e2c565b820191906000526020600020905b815481529060010190602001808311610e0f57829003601f168201915b505050505081565b803373ffffffffffffffffffffffffffffffffffffffff16610e5582610c0b565b73ffffffffffffffffffffffffffffffffffffffff1614610eab576040517f08c379a0000000000000000000000000000000000000000000000000000000008152600401610ea29061275f565b60405180910390fd5b60005b8351811015610fd0576000600760008581526020019081526020016000206000868481518110610ee157610ee061277f565b5b602002602001015173ffffffffffffffffffffffffffffffffffffffff1673ffffffffffffffffffffffffffffffffffffffff16815260200190815260200160002060006101000a81548160ff02191690831515021790555082848281518110610f4e57610f4d61277f565b5b602002602001015173ffffffffffffffffffffffffffffffffffffffff16610f7585610c0b565b73ffffffffffffffffffffffffffffffffffffffff167f0949582f2ba7e21619661ccaff2a64d15f5405827182dc78491307119fc8cea96000604051610fbb9190611d25565b60405180910390a48080600101915050610eae565b50505050565b3373ffffffffffffffffffffffffffffffffffffffff16610ff683610c0b565b73ffffffffffffffffffffffffffffffffffffffff1614806110a657506006600061102084610c0b565b73ffffffffffffffffffffffffffffffffffffffff1673ffffffffffffffffffffffffffffffffffffffff16815260200190815260200160002060003373ffffffffffffffffffffffffffffffffffffffff1673ffffffffffffffffffffffffffffffffffffffff16815260200190815260200160002060009054906101000a900460ff165b8061110b57506007600083815260200190815260200160002060003373ffffffffffffffffffffffffffffffffffffffff1673ffffffffffffffffffffffffffffffffffffffff16815260200190815260200160002060009054906101000a900460ff165b61114a576040517f08c379a0000000000000000000000000000000000000000000000000000000008152600401611141906126f3565b60405180910390fd5b611155848484611693565b61116184848484611864565b6111a0576040517f08c379a000000000000000000000000000000000000000000000000000000000815260040161119790612866565b60405180910390fd5b50505050565b606081600073ffffffffffffffffffffffffffffffffffffffff166004600083815260200190815260200160002060009054906101000a900473ffffffffffffffffffffffffffffffffffffffff1673ffffffffffffffffffffffffffffffffffffffff160361124b576040517f08c379a0000000000000000000000000000000000000000000000000000000008152600401611242906127fa565b60405180910390fd5b600860008481526020019081526020016000208054611269906123f8565b80601f0160208091040260200160405190810160405280929190818152602001828054611295906123f8565b80156112e25780601f106112b7576101008083540402835291602001916112e2565b820191906000526020600020905b8154815290600101906020018083116112c557829003601f168201915b5050505050915050919050565b600360009054906101000a900473ffffffffffffffffffffffffffffffffffffffff1681565b6000600660008473ffffffffffffffffffffffffffffffffffffffff1673ffffffffffffffffffffffffffffffffffffffff16815260200190815260200160002060008373ffffffffffffffffffffffffffffffffffffffff1673ffffffffffffffffffffffffffffffffffffffff16815260200190815260200160002060009054906101000a900460ff16905092915050565b600360009054906101000a900473ffffffffffffffffffffffffffffffffffffffff1673ffffffffffffffffffffffffffffffffffffffff163373ffffffffffffffffffffffffffffffffffffffff1614611439576040517f08c379a0000000000000000000000000000000000000000000000000000000008152600401611430906122da565b60405180910390fd5b81600073ffffffffffffffffffffffffffffffffffffffff168173ffffffffffffffffffffffffffffffffffffffff16036114a9576040517f08c379a00000000000000000000000000000000000000000000000000000000081526004016114a090612346565b60405180910390fd5b60008251116114ed576040517f08c379a00000000000000000000000000000000000000000000000000000000081526004016114e4906128f8565b60405180910390fd5b6000600254905060008351905060005b8181101561161c57856004600083866115169190612395565b815260200190815260200160002060006101000a81548173ffffffffffffffffffffffffffffffffffffffff021916908373ffffffffffffffffffffffffffffffffffffffff1602179055508481815181106115755761157461277f565b5b602002602001015160086000838661158d9190612395565b815260200190815260200160002090816115a791906125d5565b5080836115b49190612395565b8673ffffffffffffffffffffffffffffffffffffffff16600073ffffffffffffffffffffffffffffffffffffffff167fddf252ad1be2c89b69c2b068fc378daa952ba7f163c4a11628f55a4df523b3ef60405160405180910390a480806001019150506114fd565b5080600560008773ffffffffffffffffffffffffffffffffffffffff1673ffffffffffffffffffffffffffffffffffffffff168152602001908152602001600020600082825461166c9190612395565b9250508190555080600260008282546116859190612395565b925050819055505050505050565b81600073ffffffffffffffffffffffffffffffffffffffff168173ffffffffffffffffffffffffffffffffffffffff1603611703576040517f08c379a00000000000000000000000000000000000000000000000000000000081526004016116fa90612346565b60405180910390fd5b6001600560008673ffffffffffffffffffffffffffffffffffffffff1673ffffffffffffffffffffffffffffffffffffffff16815260200190815260200160002060008282546117539190612918565b925050819055506001600560008573ffffffffffffffffffffffffffffffffffffffff1673ffffffffffffffffffffffffffffffffffffffff16815260200190815260200160002060008282546117aa9190612395565b92505081905550826004600084815260200190815260200160002060006101000a81548173ffffffffffffffffffffffffffffffffffffffff021916908373ffffffffffffffffffffffffffffffffffffffff160217905550818373ffffffffffffffffffffffffffffffffffffffff168573ffffffffffffffffffffffffffffffffffffffff167fddf252ad1be2c89b69c2b068fc378daa952ba7f163c4a11628f55a4df523b3ef60405160405180910390a450505050565b6000808473ffffffffffffffffffffffffffffffffffffffff163b11156119d2578373ffffffffffffffffffffffffffffffffffffffff1663150b7a02338786866040518563ffffffff1660e01b81526004016118c494939291906129a1565b6020604051808303816000875af192505050801561190057506040513d601f19601f820116820180604052508101906118fd9190612a45565b60015b611982573d8060008114611930576040519150601f19603f3d011682016040523d82523d6000602084013e611935565b606091505b50600081510361197a576040517f08c379a000000000000000000000000000000000000000000000000000000000815260040161197190612ae4565b60405180910390fd5b805181602001fd5b63150b7a0260e01b7bffffffffffffffffffffffffffffffffffffffffffffffffffffffff1916817bffffffffffffffffffffffffffffffffffffffffffffffffffffffff1916149150506119d7565b600190505b949350505050565b6000604051905090565b600080fd5b600080fd5b600073ffffffffffffffffffffffffffffffffffffffff82169050919050565b6000611a1e826119f3565b9050919050565b611a2e81611a13565b8114611a3957600080fd5b50565b600081359050611a4b81611a25565b92915050565b600080fd5b600080fd5b6000601f19601f8301169050919050565b7f4e487b7100000000000000000000000000000000000000000000000000000000600052604160045260246000fd5b611aa482611a5b565b810181811067ffffffffffffffff82111715611ac357611ac2611a6c565b5b80604052505050565b6000611ad66119df565b9050611ae28282611a9b565b919050565b600067ffffffffffffffff821115611b0257611b01611a6c565b5b611b0b82611a5b565b9050602081019050919050565b82818337600083830152505050565b6000611b3a611b3584611ae7565b611acc565b905082815260208101848484011115611b5657611b55611a56565b5b611b61848285611b18565b509392505050565b600082601f830112611b7e57611b7d611a51565b5b8135611b8e848260208601611b27565b91505092915050565b60008060408385031215611bae57611bad6119e9565b5b6000611bbc85828601611a3c565b925050602083013567ffffffffffffffff811115611bdd57611bdc6119ee565b5b611be985828601611b69565b9150509250929050565b600081519050919050565b600082825260208201905092915050565b60005b83811015611c2d578082015181840152602081019050611c12565b60008484015250505050565b6000611c4482611bf3565b611c4e8185611bfe565b9350611c5e818560208601611c0f565b611c6781611a5b565b840191505092915050565b60006020820190508181036000830152611c8c8184611c39565b905092915050565b6000819050919050565b611ca781611c94565b8114611cb257600080fd5b50565b600081359050611cc481611c9e565b92915050565b60008060408385031215611ce157611ce06119e9565b5b6000611cef85828601611cb5565b9250506020611d0085828601611a3c565b9150509250929050565b60008115159050919050565b611d1f81611d0a565b82525050565b6000602082019050611d3a6000830184611d16565b92915050565b611d4981611c94565b82525050565b6000602082019050611d646000830184611d40565b92915050565b600080600060608486031215611d8357611d826119e9565b5b6000611d9186828701611a3c565b9350506020611da286828701611a3c565b9250506040611db386828701611cb5565b9150509250925092565b600067ffffffffffffffff821115611dd857611dd7611a6c565b5b602082029050602081019050919050565b600080fd5b6000611e01611dfc84611dbd565b611acc565b90508083825260208201905060208402830185811115611e2457611e23611de9565b5b835b81811015611e4d5780611e398882611a3c565b845260208401935050602081019050611e26565b5050509392505050565b600082601f830112611e6c57611e6b611a51565b5b8135611e7c848260208601611dee565b91505092915050565b60008060408385031215611e9c57611e9b6119e9565b5b600083013567ffffffffffffffff811115611eba57611eb96119ee565b5b611ec685828601611e57565b9250506020611ed785828601611cb5565b9150509250929050565b611eea81611d0a565b8114611ef557600080fd5b50565b600081359050611f0781611ee1565b92915050565b60008060408385031215611f2457611f236119e9565b5b600083013567ffffffffffffffff811115611f4257611f416119ee565b5b611f4e85828601611e57565b9250506020611f5f85828601611ef8565b9150509250929050565b600060208284031215611f7f57611f7e6119e9565b5b6000611f8d84828501611cb5565b91505092915050565b611f9f81611a13565b82525050565b6000602082019050611fba6000830184611f96565b92915050565b600060208284031215611fd657611fd56119e9565b5b6000611fe484828501611a3c565b91505092915050565b600067ffffffffffffffff82111561200857612007611a6c565b5b61201182611a5b565b9050602081019050919050565b600061203161202c84611fed565b611acc565b90508281526020810184848401111561204d5761204c611a56565b5b612058848285611b18565b509392505050565b600082601f83011261207557612074611a51565b5b813561208584826020860161201e565b91505092915050565b600080600080608085870312156120a8576120a76119e9565b5b60006120b687828801611a3c565b94505060206120c787828801611a3c565b93505060406120d887828801611cb5565b925050606085013567ffffffffffffffff8111156120f9576120f86119ee565b5b61210587828801612060565b91505092959194509250565b60008060408385031215612128576121276119e9565b5b600061213685828601611a3c565b925050602061214785828601611a3c565b9150509250929050565b600067ffffffffffffffff82111561216c5761216b611a6c565b5b602082029050602081019050919050565b600061219061218b84612151565b611acc565b905080838252602082019050602084028301858111156121b3576121b2611de9565b5b835b818110156121fa57803567ffffffffffffffff8111156121d8576121d7611a51565b5b8086016121e58982611b69565b855260208501945050506020810190506121b5565b5050509392505050565b600082601f83011261221957612218611a51565b5b813561222984826020860161217d565b91505092915050565b60008060408385031215612249576122486119e9565b5b600061225785828601611a3c565b925050602083013567ffffffffffffffff811115612278576122776119ee565b5b61228485828601612204565b9150509250929050565b7f4552433732313a204f6e6c7920636f6e7472616374206f776e65720000000000600082015250565b60006122c4601b83611bfe565b91506122cf8261228e565b602082019050919050565b600060208201905081810360008301526122f3816122b7565b9050919050565b7f4552433732313a20496e76616c69642061646472657373000000000000000000600082015250565b6000612330601783611bfe565b915061233b826122fa565b602082019050919050565b6000602082019050818103600083015261235f81612323565b9050919050565b7f4e487b7100000000000000000000000000000000000000000000000000000000600052601160045260246000fd5b60006123a082611c94565b91506123ab83611c94565b92508282019050808211156123c3576123c2612366565b5b92915050565b7f4e487b7100000000000000000000000000000000000000000000000000000000600052602260045260246000fd5b6000600282049050600182168061241057607f821691505b602082108103612423576124226123c9565b5b50919050565b60008190508160005260206000209050919050565b60006020601f8301049050919050565b600082821b905092915050565b60006008830261248b7fffffffffffffffffffffffffffffffffffffffffffffffffffffffffffffffff8261244e565b612495868361244e565b95508019841693508086168417925050509392505050565b6000819050919050565b60006124d26124cd6124c884611c94565b6124ad565b611c94565b9050919050565b6000819050919050565b6124ec836124b7565b6125006124f8826124d9565b84845461245b565b825550505050565b600090565b612515612508565b6125208184846124e3565b505050565b5b818110156125445761253960008261250d565b600181019050612526565b5050565b601f8211156125895761255a81612429565b6125638461243e565b81016020851015612572578190505b61258661257e8561243e565b830182612525565b50505b505050565b600082821c905092915050565b60006125ac6000198460080261258e565b1980831691505092915050565b60006125c5838361259b565b9150826002028217905092915050565b6125de82611bf3565b67ffffffffffffffff8111156125f7576125f6611a6c565b5b61260182546123f8565b61260c828285612548565b600060209050601f83116001811461263f576000841561262d578287015190505b61263785826125b9565b86555061269f565b601f19841661264d86612429565b60005b8281101561267557848901518255600182019150602085019450602081019050612650565b86831015612692578489015161268e601f89168261259b565b8355505b6001600288020188555050505b505050505050565b7f4552433732313a206e6f7420617574686f72697a656400000000000000000000600082015250565b60006126dd601683611bfe565b91506126e8826126a7565b602082019050919050565b6000602082019050818103600083015261270c816126d0565b9050919050565b7f4552433732313a20696e76616c696420746f6b656e2049440000000000000000600082015250565b6000612749601883611bfe565b915061275482612713565b602082019050919050565b600060208201905081810360008301526127788161273c565b9050919050565b7f4e487b7100000000000000000000000000000000000000000000000000000000600052603260045260246000fd5b7f4552433732313a20546f6b656e20646f6573206e6f7420657869737400000000600082015250565b60006127e4601c83611bfe565b91506127ef826127ae565b602082019050919050565b60006020820190508181036000830152612813816127d7565b9050919050565b7f21455243373231496d706c656d656e7465720000000000000000000000000000600082015250565b6000612850601283611bfe565b915061285b8261281a565b602082019050919050565b6000602082019050818103600083015261287f81612843565b9050919050565b7f4552433732313a204d7573742070726f76696465206174206c65617374206f6e60008201527f6520555249000000000000000000000000000000000000000000000000000000602082015250565b60006128e2602583611bfe565b91506128ed82612886565b604082019050919050565b60006020820190508181036000830152612911816128d5565b9050919050565b600061292382611c94565b915061292e83611c94565b925082820390508181111561294657612945612366565b5b92915050565b600081519050919050565b600082825260208201905092915050565b60006129738261294c565b61297d8185612957565b935061298d818560208601611c0f565b61299681611a5b565b840191505092915050565b60006080820190506129b66000830187611f96565b6129c36020830186611f96565b6129d06040830185611d40565b81810360608301526129e28184612968565b905095945050505050565b60007fffffffff0000000000000000000000000000000000000000000000000000000082169050919050565b612a22816129ed565b8114612a2d57600080fd5b50565b600081519050612a3f81612a19565b92915050565b600060208284031215612a5b57612a5a6119e9565b5b6000612a6984828501612a30565b91505092915050565b7f4552433732313a207472616e7366657220746f206e6f6e20455243373231526560008201527f63656976657220696d706c656d656e7465720000000000000000000000000000602082015250565b6000612ace603283611bfe565b9150612ad982612a72565b604082019050919050565b60006020820190508181036000830152612afd81612ac1565b905091905056fea26469706673582212206138be30b9373893a29a480b6b41efc3b447a9850dcc6331e2d8b4a99581341564736f6c634300081c0033",
  "linkReferences": {},
  "deployedLinkReferences": {}
}