{
  "_format": "hh-sol-artifact-1",
  "contractName": "ERC721",
  "sourceName": "contracts/ERC721.sol",
  "abi": [
    {
      "inputs": [
        {
          "internalType": "string",
          "name": "_name",
          "type": "string"
        },
        {
          "internalType": "string",
          "name": "_symbol",
          "type": "string"
        }
      ],
      "stateMutability": "nonpayable",
      "type": "constructor"
    },
    {
      "inputs": [],
      "name": "ReentrancyGuardReentrantCall",
      "type": "error"
    },
    {
      "anonymous": false,
      "inputs": [
        {
          "indexed": true,
          "internalType": "address",
          "name": "owner",
          "type": "address"
        },
        {
          "indexed": true,
          "internalType": "address",
          "name": "approved",
          "type": "address"
        },
        {
          "indexed": true,
          "internalType": "uint256",
          "name": "tokenId",
          "type": "uint256"
        }
      ],
      "name": "Approval",
      "type": "event"
    },
    {
      "anonymous": false,
      "inputs": [
        {
          "indexed": true,
          "internalType": "address",
          "name": "owner",
          "type": "address"
        },
        {
          "indexed": true,
          "internalType": "address",
          "name": "operator",
          "type": "address"
        },
        {
          "indexed": false,
          "internalType": "bool",
          "name": "approved",
          "type": "bool"
        }
      ],
      "name": "ApprovalForAll",
      "type": "event"
    },
    {
      "anonymous": false,
      "inputs": [
        {
          "indexed": true,
          "internalType": "address",
          "name": "from",
          "type": "address"
        },
        {
          "indexed": true,
          "internalType": "address",
          "name": "to",
          "type": "address"
        },
        {
          "indexed": true,
          "internalType": "uint256",
          "name": "tokenId",
          "type": "uint256"
        }
      ],
      "name": "Transfer",
      "type": "event"
    },
    {
      "inputs": [
        {
          "internalType": "uint256",
          "name": "",
          "type": "uint256"
        }
      ],
      "name": "_tokenUris",
      "outputs": [
        {
          "internalType": "string",
          "name": "",
          "type": "string"
        }
      ],
      "stateMutability": "view",
      "type": "function"
    },
    {
      "inputs": [
        {
          "internalType": "address",
          "name": "_approved",
          "type": "address"
        },
        {
          "internalType": "uint256",
          "name": "_tokenId",
          "type": "uint256"
        }
      ],
      "name": "approve",
      "outputs": [],
      "stateMutability": "nonpayable",
      "type": "function"
    },
    {
      "inputs": [
        {
          "internalType": "address",
          "name": "_owner",
          "type": "address"
        }
      ],
      "name": "balanceOf",
      "outputs": [
        {
          "internalType": "uint256",
          "name": "",
          "type": "uint256"
        }
      ],
      "stateMutability": "view",
      "type": "function"
    },
    {
      "inputs": [
        {
          "internalType": "address",
          "name": "_to",
          "type": "address"
        },
        {
          "internalType": "string[]",
          "name": "_uris",
          "type": "string[]"
        }
      ],
      "name": "batchMint",
      "outputs": [],
      "stateMutability": "nonpayable",
      "type": "function"
    },
    {
      "inputs": [],
      "name": "contractOwner",
      "outputs": [
        {
          "internalType": "address",
          "name": "",
          "type": "address"
        }
      ],
      "stateMutability": "view",
      "type": "function"
    },
    {
      "inputs": [
        {
          "internalType": "uint256",
          "name": "_tokenId",
          "type": "uint256"
        }
      ],
      "name": "getApproved",
      "outputs": [
        {
          "internalType": "address",
          "name": "",
          "type": "address"
        }
      ],
      "stateMutability": "view",
      "type": "function"
    },
    {
      "inputs": [
        {
          "internalType": "address",
          "name": "_owner",
          "type": "address"
        },
        {
          "internalType": "address",
          "name": "_operator",
          "type": "address"
        }
      ],
      "name": "isApprovedForAll",
      "outputs": [
        {
          "internalType": "bool",
          "name": "",
          "type": "bool"
        }
      ],
      "stateMutability": "view",
      "type": "function"
    },
    {
      "inputs": [
        {
          "internalType": "address",
          "name": "_to",
          "type": "address"
        },
        {
          "internalType": "string",
          "name": "_uri",
          "type": "string"
        }
      ],
      "name": "mintTo",
      "outputs": [],
      "stateMutability": "nonpayable",
      "type": "function"
    },
    {
      "inputs": [],
      "name": "name",
      "outputs": [
        {
          "internalType": "string",
          "name": "",
          "type": "string"
        }
      ],
      "stateMutability": "view",
      "type": "function"
    },
    {
      "inputs": [],
      "name": "nextTokenIdToMint",
      "outputs": [
        {
          "internalType": "uint256",
          "name": "",
          "type": "uint256"
        }
      ],
      "stateMutability": "view",
      "type": "function"
    },
    {
      "inputs": [
        {
          "internalType": "uint256",
          "name": "_tokenId",
          "type": "uint256"
        }
      ],
      "name": "ownerOf",
      "outputs": [
        {
          "internalType": "address",
          "name": "",
          "type": "address"
        }
      ],
      "stateMutability": "view",
      "type": "function"
    },
    {
      "inputs": [
        {
          "internalType": "address",
          "name": "_from",
          "type": "address"
        },
        {
          "internalType": "address",
          "name": "_to",
          "type": "address"
        },
        {
          "internalType": "uint256",
          "name": "_tokenId",
          "type": "uint256"
        }
      ],
      "name": "safeTransferFrom",
      "outputs": [],
      "stateMutability": "nonpayable",
      "type": "function"
    },
    {
      "inputs": [
        {
          "internalType": "address",
          "name": "_from",
          "type": "address"
        },
        {
          "internalType": "address",
          "name": "_to",
          "type": "address"
        },
        {
          "internalType": "uint256",
          "name": "_tokenId",
          "type": "uint256"
        },
        {
          "internalType": "bytes",
          "name": "_data",
          "type": "bytes"
        }
      ],
      "name": "safeTransferFrom",
      "outputs": [],
      "stateMutability": "nonpayable",
      "type": "function"
    },
    {
      "inputs": [
        {
          "internalType": "address",
          "name": "_operator",
          "type": "address"
        },
        {
          "internalType": "bool",
          "name": "_approved",
          "type": "bool"
        }
      ],
      "name": "setApprovalForAll",
      "outputs": [],
      "stateMutability": "nonpayable",
      "type": "function"
    },
    {
      "inputs": [
        {
          "internalType": "bytes4",
          "name": "interfaceId",
          "type": "bytes4"
        }
      ],
      "name": "supportsInterface",
      "outputs": [
        {
          "internalType": "bool",
          "name": "",
          "type": "bool"
        }
      ],
      "stateMutability": "pure",
      "type": "function"
    },
    {
      "inputs": [],
      "name": "symbol",
      "outputs": [
        {
          "internalType": "string",
          "name": "",
          "type": "string"
        }
      ],
      "stateMutability": "view",
      "type": "function"
    },
    {
      "inputs": [
        {
          "internalType": "uint256",
          "name": "_tokenId",
          "type": "uint256"
        }
      ],
      "name": "tokenURI",
      "outputs": [
        {
          "internalType": "string",
          "name": "",
          "type": "string"
        }
      ],
      "stateMutability": "view",
      "type": "function"
    },
    {
      "inputs": [],
      "name": "totalSupply",
      "outputs": [
        {
          "internalType": "uint256",
          "name": "",
          "type": "uint256"
        }
      ],
      "stateMutability": "view",
      "type": "function"
    },
    {
      "inputs": [
        {
          "internalType": "address",
          "name": "_from",
          "type": "address"
        },
        {
          "internalType": "address",
          "name": "_to",
          "type": "address"
        },
        {
          "internalType": "uint256",
          "name": "_tokenId",
          "type": "uint256"
        }
      ],
      "name": "transferFrom",
      "outputs": [],
      "stateMutability": "nonpayable",
      "type": "function"
    }
  ],
  "bytecode": "0x608060405234801561001057600080fd5b50604051612f36380380612f3683398181016040528101906100329190610270565b60016000819055506000825111801561004c575060008151115b61008b576040517f08c379a000000000000000000000000000000000000000000000000000000000815260040161008290610345565b60405180910390fd5b816001908161009a9190610586565b5080600290816100aa9190610586565b50600060038190555033600460006101000a81548173ffffffffffffffffffffffffffffffffffffffff021916908373ffffffffffffffffffffffffffffffffffffffff1602179055505050610658565b6000604051905090565b600080fd5b600080fd5b600080fd5b600080fd5b6000601f19601f8301169050919050565b7f4e487b7100000000000000000000000000000000000000000000000000000000600052604160045260246000fd5b61016282610119565b810181811067ffffffffffffffff821117156101815761018061012a565b5b80604052505050565b60006101946100fb565b90506101a08282610159565b919050565b600067ffffffffffffffff8211156101c0576101bf61012a565b5b6101c982610119565b9050602081019050919050565b60005b838110156101f45780820151818401526020810190506101d9565b60008484015250505050565b600061021361020e846101a5565b61018a565b90508281526020810184848401111561022f5761022e610114565b5b61023a8482856101d6565b509392505050565b600082601f8301126102575761025661010f565b5b8151610267848260208601610200565b91505092915050565b6000806040838503121561028757610286610105565b5b600083015167ffffffffffffffff8111156102a5576102a461010a565b5b6102b185828601610242565b925050602083015167ffffffffffffffff8111156102d2576102d161010a565b5b6102de85828601610242565b9150509250929050565b600082825260208201905092915050565b7f4552433732313a206e616d6520616e642073796d626f6c207265717569726564600082015250565b600061032f6020836102e8565b915061033a826102f9565b602082019050919050565b6000602082019050818103600083015261035e81610322565b9050919050565b600081519050919050565b7f4e487b7100000000000000000000000000000000000000000000000000000000600052602260045260246000fd5b600060028204905060018216806103b757607f821691505b6020821081036103ca576103c9610370565b5b50919050565b60008190508160005260206000209050919050565b60006020601f8301049050919050565b600082821b905092915050565b6000600883026104327fffffffffffffffffffffffffffffffffffffffffffffffffffffffffffffffff826103f5565b61043c86836103f5565b95508019841693508086168417925050509392505050565b6000819050919050565b6000819050919050565b600061048361047e61047984610454565b61045e565b610454565b9050919050565b6000819050919050565b61049d83610468565b6104b16104a98261048a565b848454610402565b825550505050565b600090565b6104c66104b9565b6104d1818484610494565b505050565b5b818110156104f5576104ea6000826104be565b6001810190506104d7565b5050565b601f82111561053a5761050b816103d0565b610514846103e5565b81016020851015610523578190505b61053761052f856103e5565b8301826104d6565b50505b505050565b600082821c905092915050565b600061055d6000198460080261053f565b1980831691505092915050565b6000610576838361054c565b9150826002028217905092915050565b61058f82610365565b67ffffffffffffffff8111156105a8576105a761012a565b5b6105b2825461039f565b6105bd8282856104f9565b600060209050601f8311600181146105f057600084156105de578287015190505b6105e8858261056a565b865550610650565b601f1984166105fe866103d0565b60005b8281101561062657848901518255600182019150602085019450602081019050610601565b86831015610643578489015161063f601f89168261054c565b8355505b6001600288020188555050505b505050505050565b6128cf806106676000396000f3fe608060405234801561001057600080fd5b50600436106101205760003560e01c806342842e0e116100ad578063b88d4fde11610071578063b88d4fde14610319578063c87b56dd14610335578063ce606ee014610365578063e985e9c514610383578063f2f18baa146103b357610120565b806342842e0e146102635780636352211e1461027f57806370a08231146102af57806395d89b41146102df578063a22cb465146102fd57610120565b8063095ea7b3116100f4578063095ea7b3146101bf57806318160ddd146101db5780631ee58f97146101f957806323b872dd146102295780633b1475a71461024557610120565b806275a3171461012557806301ffc9a71461014157806306fdde0314610171578063081812fc1461018f575b600080fd5b61013f600480360381019061013a9190611993565b6103cf565b005b61015b60048036038101906101569190611a47565b61062a565b6040516101689190611a8f565b60405180910390f35b6101796106fc565b6040516101869190611b29565b60405180910390f35b6101a960048036038101906101a49190611b81565b61078a565b6040516101b69190611bbd565b60405180910390f35b6101d960048036038101906101d49190611bd8565b6107c7565b005b6101e3610966565b6040516101f09190611c27565b60405180910390f35b610213600480360381019061020e9190611b81565b610970565b6040516102209190611b29565b60405180910390f35b610243600480360381019061023e9190611c42565b610a10565b005b61024d610a69565b60405161025a9190611c27565b60405180910390f35b61027d60048036038101906102789190611c42565b610a6f565b005b61029960048036038101906102949190611b81565b610a8f565b6040516102a69190611bbd565b60405180910390f35b6102c960048036038101906102c49190611c95565b610b70565b6040516102d69190611c27565b60405180910390f35b6102e7610c2a565b6040516102f49190611b29565b60405180910390f35b61031760048036038101906103129190611cee565b610cb8565b005b610333600480360381019061032e9190611dcf565b610db5565b005b61034f600480360381019061034a9190611b81565b610e5a565b60405161035c9190611b29565b60405180910390f35b61036d610fa3565b60405161037a9190611bbd565b60405180910390f35b61039d60048036038101906103989190611e52565b610fc9565b6040516103aa9190611a8f565b60405180910390f35b6103cd60048036038101906103c89190611f78565b61105d565b005b600460009054906101000a900473ffffffffffffffffffffffffffffffffffffffff1673ffffffffffffffffffffffffffffffffffffffff163373ffffffffffffffffffffffffffffffffffffffff161461045f576040517f08c379a000000000000000000000000000000000000000000000000000000000815260040161045690612020565b60405180910390fd5b81600073ffffffffffffffffffffffffffffffffffffffff168173ffffffffffffffffffffffffffffffffffffffff16036104cf576040517f08c379a00000000000000000000000000000000000000000000000000000000081526004016104c69061208c565b60405180910390fd5b6104d7611357565b8260056000600354815260200190815260200160002060006101000a81548173ffffffffffffffffffffffffffffffffffffffff021916908373ffffffffffffffffffffffffffffffffffffffff1602179055506001600660008573ffffffffffffffffffffffffffffffffffffffff1673ffffffffffffffffffffffffffffffffffffffff168152602001908152602001600020600082825461057b91906120db565b925050819055508160096000600354815260200190815260200160002090816105a4919061231b565b506003548373ffffffffffffffffffffffffffffffffffffffff16600073ffffffffffffffffffffffffffffffffffffffff167fddf252ad1be2c89b69c2b068fc378daa952ba7f163c4a11628f55a4df523b3ef60405160405180910390a460016003600082825461061691906120db565b9250508190555061062561139d565b505050565b60007f80ac58cd000000000000000000000000000000000000000000000000000000007bffffffffffffffffffffffffffffffffffffffffffffffffffffffff1916827bffffffffffffffffffffffffffffffffffffffffffffffffffffffff191614806106f557507f5b5e139f000000000000000000000000000000000000000000000000000000007bffffffffffffffffffffffffffffffffffffffffffffffffffffffff1916827bffffffffffffffffffffffffffffffffffffffffffffffffffffffff1916145b9050919050565b600180546107099061213e565b80601f01602080910402602001604051908101604052809291908181526020018280546107359061213e565b80156107825780601f1061075757610100808354040283529160200191610782565b820191906000526020600020905b81548152906001019060200180831161076557829003601f168201915b505050505081565b60006007600083815260200190815260200160002060009054906101000a900473ffffffffffffffffffffffffffffffffffffffff169050919050565b803373ffffffffffffffffffffffffffffffffffffffff166107e882610a8f565b73ffffffffffffffffffffffffffffffffffffffff161461083e576040517f08c379a000000000000000000000000000000000000000000000000000000000815260040161083590612439565b60405180910390fd5b3373ffffffffffffffffffffffffffffffffffffffff168373ffffffffffffffffffffffffffffffffffffffff16036108ac576040517f08c379a00000000000000000000000000000000000000000000000000000000081526004016108a3906124a5565b60405180910390fd5b826007600084815260200190815260200160002060006101000a81548173ffffffffffffffffffffffffffffffffffffffff021916908373ffffffffffffffffffffffffffffffffffffffff160217905550818373ffffffffffffffffffffffffffffffffffffffff1661091f84610a8f565b73ffffffffffffffffffffffffffffffffffffffff167f8c5be1e5ebec7d5bd14f71427d1e84f3dd0314c0f7b2291e5b200ac8c7c3b92560405160405180910390a4505050565b6000600354905090565b6009602052806000526040600020600091509050805461098f9061213e565b80601f01602080910402602001604051908101604052809291908181526020018280546109bb9061213e565b8015610a085780601f106109dd57610100808354040283529160200191610a08565b820191906000526020600020905b8154815290600101906020018083116109eb57829003601f168201915b505050505081565b610a1a33826113a7565b610a59576040517f08c379a0000000000000000000000000000000000000000000000000000000008152600401610a5090612537565b60405180910390fd5b610a6483838361143c565b505050565b60035481565b610a8a83838360405180602001604052806000815250610db5565b505050565b600081600073ffffffffffffffffffffffffffffffffffffffff166005600083815260200190815260200160002060009054906101000a900473ffffffffffffffffffffffffffffffffffffffff1673ffffffffffffffffffffffffffffffffffffffff1603610b34576040517f08c379a0000000000000000000000000000000000000000000000000000000008152600401610b2b906125a3565b60405180910390fd5b6005600084815260200190815260200160002060009054906101000a900473ffffffffffffffffffffffffffffffffffffffff16915050919050565b600081600073ffffffffffffffffffffffffffffffffffffffff168173ffffffffffffffffffffffffffffffffffffffff1603610be2576040517f08c379a0000000000000000000000000000000000000000000000000000000008152600401610bd99061208c565b60405180910390fd5b600660008473ffffffffffffffffffffffffffffffffffffffff1673ffffffffffffffffffffffffffffffffffffffff16815260200190815260200160002054915050919050565b60028054610c379061213e565b80601f0160208091040260200160405190810160405280929190818152602001828054610c639061213e565b8015610cb05780601f10610c8557610100808354040283529160200191610cb0565b820191906000526020600020905b815481529060010190602001808311610c9357829003601f168201915b505050505081565b80600860003373ffffffffffffffffffffffffffffffffffffffff1673ffffffffffffffffffffffffffffffffffffffff16815260200190815260200160002060008473ffffffffffffffffffffffffffffffffffffffff1673ffffffffffffffffffffffffffffffffffffffff16815260200190815260200160002060006101000a81548160ff0219169083151502179055508173ffffffffffffffffffffffffffffffffffffffff163373ffffffffffffffffffffffffffffffffffffffff167f17307eab39ab6107e8899845ad3d59bd9653f200f220920489ca2b5937696c3183604051610da99190611a8f565b60405180910390a35050565b610dbf33836113a7565b610dfe576040517f08c379a0000000000000000000000000000000000000000000000000000000008152600401610df590612537565b60405180910390fd5b610e0984848461143c565b610e1584848484611660565b610e54576040517f08c379a0000000000000000000000000000000000000000000000000000000008152600401610e4b9061260f565b60405180910390fd5b50505050565b606081600073ffffffffffffffffffffffffffffffffffffffff166005600083815260200190815260200160002060009054906101000a900473ffffffffffffffffffffffffffffffffffffffff1673ffffffffffffffffffffffffffffffffffffffff1603610eff576040517f08c379a0000000000000000000000000000000000000000000000000000000008152600401610ef6906125a3565b60405180910390fd5b600960008481526020019081526020016000208054610f1d9061213e565b80601f0160208091040260200160405190810160405280929190818152602001828054610f499061213e565b8015610f965780601f10610f6b57610100808354040283529160200191610f96565b820191906000526020600020905b815481529060010190602001808311610f7957829003601f168201915b5050505050915050919050565b600460009054906101000a900473ffffffffffffffffffffffffffffffffffffffff1681565b6000600860008473ffffffffffffffffffffffffffffffffffffffff1673ffffffffffffffffffffffffffffffffffffffff16815260200190815260200160002060008373ffffffffffffffffffffffffffffffffffffffff1673ffffffffffffffffffffffffffffffffffffffff16815260200190815260200160002060009054906101000a900460ff16905092915050565b600460009054906101000a900473ffffffffffffffffffffffffffffffffffffffff1673ffffffffffffffffffffffffffffffffffffffff163373ffffffffffffffffffffffffffffffffffffffff16146110ed576040517f08c379a00000000000000000000000000000000000000000000000000000000081526004016110e490612020565b60405180910390fd5b81600073ffffffffffffffffffffffffffffffffffffffff168173ffffffffffffffffffffffffffffffffffffffff160361115d576040517f08c379a00000000000000000000000000000000000000000000000000000000081526004016111549061208c565b60405180910390fd5b611165611357565b60008251116111a9576040517f08c379a00000000000000000000000000000000000000000000000000000000081526004016111a0906126a1565b60405180910390fd5b6000600354905060008351905060005b818110156112d857856005600083866111d291906120db565b815260200190815260200160002060006101000a81548173ffffffffffffffffffffffffffffffffffffffff021916908373ffffffffffffffffffffffffffffffffffffffff160217905550848181518110611231576112306126c1565b5b602002602001015160096000838661124991906120db565b81526020019081526020016000209081611263919061231b565b50808361127091906120db565b8673ffffffffffffffffffffffffffffffffffffffff16600073ffffffffffffffffffffffffffffffffffffffff167fddf252ad1be2c89b69c2b068fc378daa952ba7f163c4a11628f55a4df523b3ef60405160405180910390a480806001019150506111b9565b5080600660008773ffffffffffffffffffffffffffffffffffffffff1673ffffffffffffffffffffffffffffffffffffffff168152602001908152602001600020600082825461132891906120db565b92505081905550806003600082825461134191906120db565b92505081905550505061135261139d565b505050565b600260005403611393576040517f3ee5aeb500000000000000000000000000000000000000000000000000000000815260040160405180910390fd5b6002600081905550565b6001600081905550565b6000806113b383610a8f565b90508073ffffffffffffffffffffffffffffffffffffffff168473ffffffffffffffffffffffffffffffffffffffff16148061142257508373ffffffffffffffffffffffffffffffffffffffff1661140a8461078a565b73ffffffffffffffffffffffffffffffffffffffff16145b8061143357506114328185610fc9565b5b91505092915050565b81600073ffffffffffffffffffffffffffffffffffffffff168173ffffffffffffffffffffffffffffffffffffffff16036114ac576040517f08c379a00000000000000000000000000000000000000000000000000000000081526004016114a39061208c565b60405180910390fd5b60006007600084815260200190815260200160002060006101000a81548173ffffffffffffffffffffffffffffffffffffffff021916908373ffffffffffffffffffffffffffffffffffffffff1602179055506001600660008673ffffffffffffffffffffffffffffffffffffffff1673ffffffffffffffffffffffffffffffffffffffff168152602001908152602001600020600082825461154f91906126f0565b925050819055506001600660008573ffffffffffffffffffffffffffffffffffffffff1673ffffffffffffffffffffffffffffffffffffffff16815260200190815260200160002060008282546115a691906120db565b92505081905550826005600084815260200190815260200160002060006101000a81548173ffffffffffffffffffffffffffffffffffffffff021916908373ffffffffffffffffffffffffffffffffffffffff160217905550818373ffffffffffffffffffffffffffffffffffffffff168573ffffffffffffffffffffffffffffffffffffffff167fddf252ad1be2c89b69c2b068fc378daa952ba7f163c4a11628f55a4df523b3ef60405160405180910390a450505050565b6000808473ffffffffffffffffffffffffffffffffffffffff163b11156117ce578373ffffffffffffffffffffffffffffffffffffffff1663150b7a02338786866040518563ffffffff1660e01b81526004016116c09493929190612779565b6020604051808303816000875af19250505080156116fc57506040513d601f19601f820116820180604052508101906116f991906127da565b60015b61177e573d806000811461172c576040519150601f19603f3d011682016040523d82523d6000602084013e611731565b606091505b506000815103611776576040517f08c379a000000000000000000000000000000000000000000000000000000000815260040161176d90612879565b60405180910390fd5b805181602001fd5b63150b7a0260e01b7bffffffffffffffffffffffffffffffffffffffffffffffffffffffff1916817bffffffffffffffffffffffffffffffffffffffffffffffffffffffff1916149150506117d3565b600190505b949350505050565b6000604051905090565b600080fd5b600080fd5b600073ffffffffffffffffffffffffffffffffffffffff82169050919050565b600061181a826117ef565b9050919050565b61182a8161180f565b811461183557600080fd5b50565b60008135905061184781611821565b92915050565b600080fd5b600080fd5b6000601f19601f8301169050919050565b7f4e487b7100000000000000000000000000000000000000000000000000000000600052604160045260246000fd5b6118a082611857565b810181811067ffffffffffffffff821117156118bf576118be611868565b5b80604052505050565b60006118d26117db565b90506118de8282611897565b919050565b600067ffffffffffffffff8211156118fe576118fd611868565b5b61190782611857565b9050602081019050919050565b82818337600083830152505050565b6000611936611931846118e3565b6118c8565b90508281526020810184848401111561195257611951611852565b5b61195d848285611914565b509392505050565b600082601f83011261197a5761197961184d565b5b813561198a848260208601611923565b91505092915050565b600080604083850312156119aa576119a96117e5565b5b60006119b885828601611838565b925050602083013567ffffffffffffffff8111156119d9576119d86117ea565b5b6119e585828601611965565b9150509250929050565b60007fffffffff0000000000000000000000000000000000000000000000000000000082169050919050565b611a24816119ef565b8114611a2f57600080fd5b50565b600081359050611a4181611a1b565b92915050565b600060208284031215611a5d57611a5c6117e5565b5b6000611a6b84828501611a32565b91505092915050565b60008115159050919050565b611a8981611a74565b82525050565b6000602082019050611aa46000830184611a80565b92915050565b600081519050919050565b600082825260208201905092915050565b60005b83811015611ae4578082015181840152602081019050611ac9565b60008484015250505050565b6000611afb82611aaa565b611b058185611ab5565b9350611b15818560208601611ac6565b611b1e81611857565b840191505092915050565b60006020820190508181036000830152611b438184611af0565b905092915050565b6000819050919050565b611b5e81611b4b565b8114611b6957600080fd5b50565b600081359050611b7b81611b55565b92915050565b600060208284031215611b9757611b966117e5565b5b6000611ba584828501611b6c565b91505092915050565b611bb78161180f565b82525050565b6000602082019050611bd26000830184611bae565b92915050565b60008060408385031215611bef57611bee6117e5565b5b6000611bfd85828601611838565b9250506020611c0e85828601611b6c565b9150509250929050565b611c2181611b4b565b82525050565b6000602082019050611c3c6000830184611c18565b92915050565b600080600060608486031215611c5b57611c5a6117e5565b5b6000611c6986828701611838565b9350506020611c7a86828701611838565b9250506040611c8b86828701611b6c565b9150509250925092565b600060208284031215611cab57611caa6117e5565b5b6000611cb984828501611838565b91505092915050565b611ccb81611a74565b8114611cd657600080fd5b50565b600081359050611ce881611cc2565b92915050565b60008060408385031215611d0557611d046117e5565b5b6000611d1385828601611838565b9250506020611d2485828601611cd9565b9150509250929050565b600067ffffffffffffffff821115611d4957611d48611868565b5b611d5282611857565b9050602081019050919050565b6000611d72611d6d84611d2e565b6118c8565b905082815260208101848484011115611d8e57611d8d611852565b5b611d99848285611914565b509392505050565b600082601f830112611db657611db561184d565b5b8135611dc6848260208601611d5f565b91505092915050565b60008060008060808587031215611de957611de86117e5565b5b6000611df787828801611838565b9450506020611e0887828801611838565b9350506040611e1987828801611b6c565b925050606085013567ffffffffffffffff811115611e3a57611e396117ea565b5b611e4687828801611da1565b91505092959194509250565b60008060408385031215611e6957611e686117e5565b5b6000611e7785828601611838565b9250506020611e8885828601611838565b9150509250929050565b600067ffffffffffffffff821115611ead57611eac611868565b5b602082029050602081019050919050565b600080fd5b6000611ed6611ed184611e92565b6118c8565b90508083825260208201905060208402830185811115611ef957611ef8611ebe565b5b835b81811015611f4057803567ffffffffffffffff811115611f1e57611f1d61184d565b5b808601611f2b8982611965565b85526020850194505050602081019050611efb565b5050509392505050565b600082601f830112611f5f57611f5e61184d565b5b8135611f6f848260208601611ec3565b91505092915050565b60008060408385031215611f8f57611f8e6117e5565b5b6000611f9d85828601611838565b925050602083013567ffffffffffffffff811115611fbe57611fbd6117ea565b5b611fca85828601611f4a565b9150509250929050565b7f4552433732313a204f6e6c7920636f6e7472616374206f776e65720000000000600082015250565b600061200a601b83611ab5565b915061201582611fd4565b602082019050919050565b6000602082019050818103600083015261203981611ffd565b9050919050565b7f4552433732313a20496e76616c69642061646472657373000000000000000000600082015250565b6000612076601783611ab5565b915061208182612040565b602082019050919050565b600060208201905081810360008301526120a581612069565b9050919050565b7f4e487b7100000000000000000000000000000000000000000000000000000000600052601160045260246000fd5b60006120e682611b4b565b91506120f183611b4b565b9250828201905080821115612109576121086120ac565b5b92915050565b7f4e487b7100000000000000000000000000000000000000000000000000000000600052602260045260246000fd5b6000600282049050600182168061215657607f821691505b6020821081036121695761216861210f565b5b50919050565b60008190508160005260206000209050919050565b60006020601f8301049050919050565b600082821b905092915050565b6000600883026121d17fffffffffffffffffffffffffffffffffffffffffffffffffffffffffffffffff82612194565b6121db8683612194565b95508019841693508086168417925050509392505050565b6000819050919050565b600061221861221361220e84611b4b565b6121f3565b611b4b565b9050919050565b6000819050919050565b612232836121fd565b61224661223e8261221f565b8484546121a1565b825550505050565b600090565b61225b61224e565b612266818484612229565b505050565b5b8181101561228a5761227f600082612253565b60018101905061226c565b5050565b601f8211156122cf576122a08161216f565b6122a984612184565b810160208510156122b8578190505b6122cc6122c485612184565b83018261226b565b50505b505050565b600082821c905092915050565b60006122f2600019846008026122d4565b1980831691505092915050565b600061230b83836122e1565b9150826002028217905092915050565b61232482611aaa565b67ffffffffffffffff81111561233d5761233c611868565b5b612347825461213e565b61235282828561228e565b600060209050601f8311600181146123855760008415612373578287015190505b61237d85826122ff565b8655506123e5565b601f1984166123938661216f565b60005b828110156123bb57848901518255600182019150602085019450602081019050612396565b868310156123d857848901516123d4601f8916826122e1565b8355505b6001600288020188555050505b505050505050565b7f4552433732313a20696e76616c696420746f6b656e2049440000000000000000600082015250565b6000612423601883611ab5565b915061242e826123ed565b602082019050919050565b6000602082019050818103600083015261245281612416565b9050919050565b7f4552433732313a2063616e6e6f7420617070726f76652073656c660000000000600082015250565b600061248f601b83611ab5565b915061249a82612459565b602082019050919050565b600060208201905081810360008301526124be81612482565b9050919050565b7f4552433732313a2063616c6c6572206973206e6f74206f776e6572206e6f722060008201527f617070726f766564000000000000000000000000000000000000000000000000602082015250565b6000612521602883611ab5565b915061252c826124c5565b604082019050919050565b6000602082019050818103600083015261255081612514565b9050919050565b7f4552433732313a20546f6b656e20646f6573206e6f7420657869737400000000600082015250565b600061258d601c83611ab5565b915061259882612557565b602082019050919050565b600060208201905081810360008301526125bc81612580565b9050919050565b7f21455243373231496d706c656d656e7465720000000000000000000000000000600082015250565b60006125f9601283611ab5565b9150612604826125c3565b602082019050919050565b60006020820190508181036000830152612628816125ec565b9050919050565b7f4552433732313a204d7573742070726f76696465206174206c65617374206f6e60008201527f6520555249000000000000000000000000000000000000000000000000000000602082015250565b600061268b602583611ab5565b91506126968261262f565b604082019050919050565b600060208201905081810360008301526126ba8161267e565b9050919050565b7f4e487b7100000000000000000000000000000000000000000000000000000000600052603260045260246000fd5b60006126fb82611b4b565b915061270683611b4b565b925082820390508181111561271e5761271d6120ac565b5b92915050565b600081519050919050565b600082825260208201905092915050565b600061274b82612724565b612755818561272f565b9350612765818560208601611ac6565b61276e81611857565b840191505092915050565b600060808201905061278e6000830187611bae565b61279b6020830186611bae565b6127a86040830185611c18565b81810360608301526127ba8184612740565b905095945050505050565b6000815190506127d481611a1b565b92915050565b6000602082840312156127f0576127ef6117e5565b5b60006127fe848285016127c5565b91505092915050565b7f4552433732313a207472616e7366657220746f206e6f6e20455243373231526560008201527f63656976657220696d706c656d656e7465720000000000000000000000000000602082015250565b6000612863603283611ab5565b915061286e82612807565b604082019050919050565b6000602082019050818103600083015261289281612856565b905091905056fea26469706673582212204bfe7caa4409c5451f3110e44b3f44ba0dc4ab94108a06dadf73ffbf2769997b64736f6c634300081c0033",
  "linkReferences": {},
  "deployedLinkReferences": {}
}