{
  "_format": "hh-sol-artifact-1",
  "contractName": "SealedBidAuctionMarketplace",
  "sourceName": "contracts/SealedBidAuctionMarketplace.sol",
  "abi": [
    {
      "inputs": [
        {
          "internalType": "address",
          "name": "_nftContract",
          "type": "address"
        }
      ],
      "stateMutability": "nonpayable",
      "type": "constructor"
    },
    {
      "anonymous": false,
      "inputs": [
        {
          "indexed": true,
          "internalType": "uint256",
          "name": "tokenId",
          "type": "uint256"
        },
        {
          "indexed": false,
          "internalType": "address",
          "name": "winner",
          "type": "address"
        },
        {
          "indexed": false,
          "internalType": "uint256",
          "name": "amount",
          "type": "uint256"
        }
      ],
      "name": "AuctionEnded",
      "type": "event"
    },
    {
      "anonymous": false,
      "inputs": [
        {
          "indexed": true,
          "internalType": "uint256",
          "name": "tokenId",
          "type": "uint256"
        },
        {
          "indexed": false,
          "internalType": "address",
          "name": "seller",
          "type": "address"
        },
        {
          "indexed": false,
          "internalType": "uint256",
          "name": "startingPrice",
          "type": "uint256"
        },
        {
          "indexed": false,
          "internalType": "uint256",
          "name": "endTime",
          "type": "uint256"
        }
      ],
      "name": "AuctionStarted",
      "type": "event"
    },
    {
      "anonymous": false,
      "inputs": [
        {
          "indexed": true,
          "internalType": "uint256",
          "name": "tokenId",
          "type": "uint256"
        },
        {
          "indexed": false,
          "internalType": "address",
          "name": "bidder",
          "type": "address"
        },
        {
          "indexed": false,
          "internalType": "uint256",
          "name": "amount",
          "type": "uint256"
        }
      ],
      "name": "BidWithdrawn",
      "type": "event"
    },
    {
      "anonymous": false,
      "inputs": [
        {
          "indexed": true,
          "internalType": "uint256",
          "name": "tokenId",
          "type": "uint256"
        },
        {
          "indexed": false,
          "internalType": "address",
          "name": "bidder",
          "type": "address"
        },
        {
          "indexed": false,
          "internalType": "uint256",
          "name": "amount",
          "type": "uint256"
        }
      ],
      "name": "NewBid",
      "type": "event"
    },
    {
      "inputs": [
        {
          "internalType": "uint256",
          "name": "",
          "type": "uint256"
        }
      ],
      "name": "auctions",
      "outputs": [
        {
          "internalType": "address",
          "name": "seller",
          "type": "address"
        },
        {
          "internalType": "uint256",
          "name": "startingPrice",
          "type": "uint256"
        },
        {
          "internalType": "uint256",
          "name": "highestBid",
          "type": "uint256"
        },
        {
          "internalType": "address",
          "name": "highestBidder",
          "type": "address"
        },
        {
          "internalType": "uint256",
          "name": "startTimestamp",
          "type": "uint256"
        },
        {
          "internalType": "uint256",
          "name": "endTimestamp",
          "type": "uint256"
        },
        {
          "internalType": "uint256",
          "name": "endRevealTimestamp",
          "type": "uint256"
        },
        {
          "internalType": "bool",
          "name": "isActive",
          "type": "bool"
        }
      ],
      "stateMutability": "view",
      "type": "function"
    },
    {
      "inputs": [
        {
          "internalType": "uint256",
          "name": "",
          "type": "uint256"
        },
        {
          "internalType": "address",
          "name": "",
          "type": "address"
        }
      ],
      "name": "bidCommits",
      "outputs": [
        {
          "internalType": "bytes32",
          "name": "",
          "type": "bytes32"
        }
      ],
      "stateMutability": "view",
      "type": "function"
    },
    {
      "inputs": [
        {
          "internalType": "uint256",
          "name": "tokenId",
          "type": "uint256"
        }
      ],
      "name": "cancelAuction",
      "outputs": [],
      "stateMutability": "nonpayable",
      "type": "function"
    },
    {
      "inputs": [
        {
          "internalType": "uint256",
          "name": "tokenId",
          "type": "uint256"
        },
        {
          "internalType": "bytes32",
          "name": "bidHash",
          "type": "bytes32"
        }
      ],
      "name": "commitBid",
      "outputs": [],
      "stateMutability": "nonpayable",
      "type": "function"
    },
    {
      "inputs": [
        {
          "internalType": "uint256",
          "name": "tokenId",
          "type": "uint256"
        }
      ],
      "name": "finalizeAuction",
      "outputs": [],
      "stateMutability": "nonpayable",
      "type": "function"
    },
    {
      "inputs": [
        {
          "internalType": "uint256",
          "name": "tokenId",
          "type": "uint256"
        },
        {
          "internalType": "address",
          "name": "user",
          "type": "address"
        }
      ],
      "name": "hasPendingReturns",
      "outputs": [
        {
          "internalType": "bool",
          "name": "",
          "type": "bool"
        }
      ],
      "stateMutability": "view",
      "type": "function"
    },
    {
      "inputs": [],
      "name": "nftContract",
      "outputs": [
        {
          "internalType": "contract ERC721",
          "name": "",
          "type": "address"
        }
      ],
      "stateMutability": "view",
      "type": "function"
    },
    {
      "inputs": [
        {
          "internalType": "uint256",
          "name": "",
          "type": "uint256"
        },
        {
          "internalType": "address",
          "name": "",
          "type": "address"
        }
      ],
      "name": "pendingReturns",
      "outputs": [
        {
          "internalType": "uint256",
          "name": "",
          "type": "uint256"
        }
      ],
      "stateMutability": "view",
      "type": "function"
    },
    {
      "inputs": [
        {
          "internalType": "uint256",
          "name": "tokenId",
          "type": "uint256"
        },
        {
          "internalType": "uint256",
          "name": "bidAmount",
          "type": "uint256"
        },
        {
          "internalType": "string",
          "name": "secret",
          "type": "string"
        }
      ],
      "name": "revealBid",
      "outputs": [],
      "stateMutability": "payable",
      "type": "function"
    },
    {
      "inputs": [
        {
          "internalType": "uint256",
          "name": "",
          "type": "uint256"
        },
        {
          "internalType": "address",
          "name": "",
          "type": "address"
        }
      ],
      "name": "revealedBids",
      "outputs": [
        {
          "internalType": "uint256",
          "name": "",
          "type": "uint256"
        }
      ],
      "stateMutability": "view",
      "type": "function"
    },
    {
      "inputs": [
        {
          "internalType": "uint256",
          "name": "tokenId",
          "type": "uint256"
        },
        {
          "internalType": "uint256",
          "name": "startingPrice",
          "type": "uint256"
        },
        {
          "internalType": "uint256",
          "name": "endTimestamp",
          "type": "uint256"
        }
      ],
      "name": "startAuction",
      "outputs": [],
      "stateMutability": "nonpayable",
      "type": "function"
    },
    {
      "inputs": [
        {
          "internalType": "uint256",
          "name": "tokenId",
          "type": "uint256"
        }
      ],
      "name": "withdrawBid",
      "outputs": [],
      "stateMutability": "nonpayable",
      "type": "function"
    }
  ],
  "bytecode": "0x608060405234801561001057600080fd5b506040516125c93803806125c9833981810160405281019061003291906100db565b806000806101000a81548173ffffffffffffffffffffffffffffffffffffffff021916908373ffffffffffffffffffffffffffffffffffffffff16021790555050610108565b600080fd5b600073ffffffffffffffffffffffffffffffffffffffff82169050919050565b60006100a88261007d565b9050919050565b6100b88161009d565b81146100c357600080fd5b50565b6000815190506100d5816100af565b92915050565b6000602082840312156100f1576100f0610078565b5b60006100ff848285016100c6565b91505092915050565b6124b2806101176000396000f3fe6080604052600436106100a75760003560e01c806396b5a7551161006457806396b5a755146101e5578063a0cbf31b1461020e578063a489d5d71461024b578063cca8465414610267578063d56d229d146102a4578063e8083863146102cf576100a7565b80630eaaf4c8146100ac5780635629939a146100d5578063571a26a0146101125780638ddac1ef1461015657806391e078bb146101935780639468cb61146101bc575b600080fd5b3480156100b857600080fd5b506100d360048036038101906100ce9190611706565b6102f8565b005b3480156100e157600080fd5b506100fc60048036038101906100f79190611791565b6104d1565b60405161010991906117ec565b60405180910390f35b34801561011e57600080fd5b5061013960048036038101906101349190611706565b61052e565b60405161014d989796959493929190611825565b60405180910390f35b34801561016257600080fd5b5061017d60048036038101906101789190611791565b6105c3565b60405161018a91906118a3565b60405180910390f35b34801561019f57600080fd5b506101ba60048036038101906101b591906118be565b6105e8565b005b3480156101c857600080fd5b506101e360048036038101906101de9190611947565b610903565b005b3480156101f157600080fd5b5061020c60048036038101906102079190611706565b610a19565b005b34801561021a57600080fd5b5061023560048036038101906102309190611791565b610d7d565b6040516102429190611996565b60405180910390f35b61026560048036038101906102609190611a16565b610da2565b005b34801561027357600080fd5b5061028e60048036038101906102899190611791565b6112aa565b60405161029b91906118a3565b60405180910390f35b3480156102b057600080fd5b506102b96112cf565b6040516102c69190611ae9565b60405180910390f35b3480156102db57600080fd5b506102f660048036038101906102f19190611706565b6112f3565b005b60006004600083815260200190815260200160002060003373ffffffffffffffffffffffffffffffffffffffff1673ffffffffffffffffffffffffffffffffffffffff16815260200190815260200160002054905060008111610390576040517f08c379a000000000000000000000000000000000000000000000000000000000815260040161038790611b61565b60405180910390fd5b60006004600084815260200190815260200160002060003373ffffffffffffffffffffffffffffffffffffffff1673ffffffffffffffffffffffffffffffffffffffff1681526020019081526020016000208190555060003373ffffffffffffffffffffffffffffffffffffffff168260405161040c90611bb2565b60006040518083038185875af1925050503d8060008114610449576040519150601f19603f3d011682016040523d82523d6000602084013e61044e565b606091505b5050905080610492576040517f08c379a000000000000000000000000000000000000000000000000000000000815260040161048990611c13565b60405180910390fd5b827f8f8619524e8d462cead34604bd2247ede24175801481e4d0b8059ac8aa41c30133846040516104c4929190611c33565b60405180910390a2505050565b6000806004600085815260200190815260200160002060008473ffffffffffffffffffffffffffffffffffffffff1673ffffffffffffffffffffffffffffffffffffffff1681526020019081526020016000205411905092915050565b60016020528060005260406000206000915090508060000160009054906101000a900473ffffffffffffffffffffffffffffffffffffffff16908060010154908060020154908060030160009054906101000a900473ffffffffffffffffffffffffffffffffffffffff16908060040154908060050154908060060154908060070160009054906101000a900460ff16905088565b6004602052816000526040600020602052806000526040600020600091509150505481565b823373ffffffffffffffffffffffffffffffffffffffff1660008054906101000a900473ffffffffffffffffffffffffffffffffffffffff1673ffffffffffffffffffffffffffffffffffffffff16636352211e836040518263ffffffff1660e01b815260040161065991906118a3565b602060405180830381865afa158015610676573d6000803e3d6000fd5b505050506040513d601f19601f8201168201806040525081019061069a9190611c71565b73ffffffffffffffffffffffffffffffffffffffff16146106f0576040517f08c379a00000000000000000000000000000000000000000000000000000000081526004016106e790611cea565b60405180910390fd5b6001600085815260200190815260200160002060070160009054906101000a900460ff1615610754576040517f08c379a000000000000000000000000000000000000000000000000000000000815260040161074b90611d56565b60405180910390fd5b6040518061010001604052803373ffffffffffffffffffffffffffffffffffffffff16815260200184815260200160008152602001600073ffffffffffffffffffffffffffffffffffffffff16815260200142815260200183815260200160b4846107bf9190611da5565b8152602001600115158152506001600086815260200190815260200160002060008201518160000160006101000a81548173ffffffffffffffffffffffffffffffffffffffff021916908373ffffffffffffffffffffffffffffffffffffffff160217905550602082015181600101556040820151816002015560608201518160030160006101000a81548173ffffffffffffffffffffffffffffffffffffffff021916908373ffffffffffffffffffffffffffffffffffffffff1602179055506080820151816004015560a0820151816005015560c0820151816006015560e08201518160070160006101000a81548160ff021916908315150217905550905050837fbf6dc7bdf2f23af5a506fe03ee1221f47d023a2227fbc949c6b812ae44534e6d3385856040516108f593929190611dd9565b60405180910390a250505050565b816001600082815260200190815260200160002060070160009054906101000a900460ff16610967576040517f08c379a000000000000000000000000000000000000000000000000000000000815260040161095e90611e5c565b60405180910390fd5b600160008481526020019081526020016000206005015442106109bf576040517f08c379a00000000000000000000000000000000000000000000000000000000081526004016109b690611ec8565b60405180910390fd5b816002600085815260200190815260200160002060003373ffffffffffffffffffffffffffffffffffffffff1673ffffffffffffffffffffffffffffffffffffffff16815260200190815260200160002081905550505050565b803373ffffffffffffffffffffffffffffffffffffffff1660008054906101000a900473ffffffffffffffffffffffffffffffffffffffff1673ffffffffffffffffffffffffffffffffffffffff16636352211e836040518263ffffffff1660e01b8152600401610a8a91906118a3565b602060405180830381865afa158015610aa7573d6000803e3d6000fd5b505050506040513d601f19601f82011682018060405250810190610acb9190611c71565b73ffffffffffffffffffffffffffffffffffffffff1614610b21576040517f08c379a0000000000000000000000000000000000000000000000000000000008152600401610b1890611cea565b60405180910390fd5b816001600082815260200190815260200160002060070160009054906101000a900460ff16610b85576040517f08c379a0000000000000000000000000000000000000000000000000000000008152600401610b7c90611e5c565b60405180910390fd5b600060016000858152602001908152602001600020905080600501544210610be2576040517f08c379a0000000000000000000000000000000000000000000000000000000008152600401610bd990611f5a565b60405180910390fd5b600081600201541115610c7f5780600201546004600086815260200190815260200160002060008360030160009054906101000a900473ffffffffffffffffffffffffffffffffffffffff1673ffffffffffffffffffffffffffffffffffffffff1673ffffffffffffffffffffffffffffffffffffffff1681526020019081526020016000206000828254610c779190611da5565b925050819055505b60008160070160006101000a81548160ff02191690831515021790555060016000858152602001908152602001600020600080820160006101000a81549073ffffffffffffffffffffffffffffffffffffffff0219169055600182016000905560028201600090556003820160006101000a81549073ffffffffffffffffffffffffffffffffffffffff02191690556004820160009055600582016000905560068201600090556007820160006101000a81549060ff02191690555050837fd2aa34a4fdbbc6dff6a3e56f46e0f3ae2a31d7785ff3487aa5c95c642acea501600080604051610d6f929190611fb5565b60405180910390a250505050565b6002602052816000526040600020602052806000526040600020600091509150505481565b836001600082815260200190815260200160002060070160009054906101000a900460ff16610e06576040517f08c379a0000000000000000000000000000000000000000000000000000000008152600401610dfd90611e5c565b60405180910390fd5b6001600086815260200190815260200160002060050154421015610e5f576040517f08c379a0000000000000000000000000000000000000000000000000000000008152600401610e569061202a565b60405180910390fd5b6001600086815260200190815260200160002060060154421115610eb8576040517f08c379a0000000000000000000000000000000000000000000000000000000008152600401610eaf90612096565b60405180910390fd5b6000801b6002600087815260200190815260200160002060003373ffffffffffffffffffffffffffffffffffffffff1673ffffffffffffffffffffffffffffffffffffffff1681526020019081526020016000205403610f4d576040517f08c379a0000000000000000000000000000000000000000000000000000000008152600401610f4490612102565b60405180910390fd5b833414610f8f576040517f08c379a0000000000000000000000000000000000000000000000000000000008152600401610f869061216e565b60405180910390fd5b600084848488604051602001610fa894939291906121ee565b6040516020818303038152906040528051906020012090506002600087815260200190815260200160002060003373ffffffffffffffffffffffffffffffffffffffff1673ffffffffffffffffffffffffffffffffffffffff168152602001908152602001600020548114611052576040517f08c379a000000000000000000000000000000000000000000000000000000000815260040161104990612275565b60405180910390fd5b846003600088815260200190815260200160002060003373ffffffffffffffffffffffffffffffffffffffff1673ffffffffffffffffffffffffffffffffffffffff1681526020019081526020016000208190555060006001600088815260200190815260200160002090508060010154861015611105576040517f08c379a00000000000000000000000000000000000000000000000000000000081526004016110fc906122e1565b60405180910390fd5b8060020154861115611239576000816002015411156111ae5780600201546004600089815260200190815260200160002060008360030160009054906101000a900473ffffffffffffffffffffffffffffffffffffffff1673ffffffffffffffffffffffffffffffffffffffff1673ffffffffffffffffffffffffffffffffffffffff16815260200190815260200160002060008282546111a69190611da5565b925050819055505b858160020181905550338160030160006101000a81548173ffffffffffffffffffffffffffffffffffffffff021916908373ffffffffffffffffffffffffffffffffffffffff160217905550867f558a0d5d5468d74b0db24c74eb348b42271c2ebb4c9e953ced38aaed95fa4361338860405161122c929190611c33565b60405180910390a26112a1565b856004600089815260200190815260200160002060003373ffffffffffffffffffffffffffffffffffffffff1673ffffffffffffffffffffffffffffffffffffffff16815260200190815260200160002060008282546112999190611da5565b925050819055505b50505050505050565b6003602052816000526040600020602052806000526040600020600091509150505481565b60008054906101000a900473ffffffffffffffffffffffffffffffffffffffff1681565b806001600082815260200190815260200160002060060154421161134c576040517f08c379a00000000000000000000000000000000000000000000000000000000081526004016113439061234d565b60405180910390fd5b6000600160008481526020019081526020016000209050600073ffffffffffffffffffffffffffffffffffffffff168160030160009054906101000a900473ffffffffffffffffffffffffffffffffffffffff1673ffffffffffffffffffffffffffffffffffffffff16036113f6576040517f08c379a00000000000000000000000000000000000000000000000000000000081526004016113ed906123b9565b60405180910390fd5b60008160070160006101000a81548160ff02191690831515021790555060008054906101000a900473ffffffffffffffffffffffffffffffffffffffff1673ffffffffffffffffffffffffffffffffffffffff166342842e0e8260000160009054906101000a900473ffffffffffffffffffffffffffffffffffffffff168360030160009054906101000a900473ffffffffffffffffffffffffffffffffffffffff16866040518463ffffffff1660e01b81526004016114b8939291906123d9565b600060405180830381600087803b1580156114d257600080fd5b505af11580156114e6573d6000803e3d6000fd5b5050505060008160000160009054906101000a900473ffffffffffffffffffffffffffffffffffffffff1673ffffffffffffffffffffffffffffffffffffffff16826002015460405161153890611bb2565b60006040518083038185875af1925050503d8060008114611575576040519150601f19603f3d011682016040523d82523d6000602084013e61157a565b606091505b50509050806115be576040517f08c379a00000000000000000000000000000000000000000000000000000000081526004016115b59061245c565b60405180910390fd5b60016000858152602001908152602001600020600080820160006101000a81549073ffffffffffffffffffffffffffffffffffffffff0219169055600182016000905560028201600090556003820160006101000a81549073ffffffffffffffffffffffffffffffffffffffff02191690556004820160009055600582016000905560068201600090556007820160006101000a81549060ff02191690555050837fd2aa34a4fdbbc6dff6a3e56f46e0f3ae2a31d7785ff3487aa5c95c642acea5018360030160009054906101000a900473ffffffffffffffffffffffffffffffffffffffff1684600201546040516116b8929190611c33565b60405180910390a250505050565b600080fd5b600080fd5b6000819050919050565b6116e3816116d0565b81146116ee57600080fd5b50565b600081359050611700816116da565b92915050565b60006020828403121561171c5761171b6116c6565b5b600061172a848285016116f1565b91505092915050565b600073ffffffffffffffffffffffffffffffffffffffff82169050919050565b600061175e82611733565b9050919050565b61176e81611753565b811461177957600080fd5b50565b60008135905061178b81611765565b92915050565b600080604083850312156117a8576117a76116c6565b5b60006117b6858286016116f1565b92505060206117c78582860161177c565b9150509250929050565b60008115159050919050565b6117e6816117d1565b82525050565b600060208201905061180160008301846117dd565b92915050565b61181081611753565b82525050565b61181f816116d0565b82525050565b60006101008201905061183b600083018b611807565b611848602083018a611816565b6118556040830189611816565b6118626060830188611807565b61186f6080830187611816565b61187c60a0830186611816565b61188960c0830185611816565b61189660e08301846117dd565b9998505050505050505050565b60006020820190506118b86000830184611816565b92915050565b6000806000606084860312156118d7576118d66116c6565b5b60006118e5868287016116f1565b93505060206118f6868287016116f1565b9250506040611907868287016116f1565b9150509250925092565b6000819050919050565b61192481611911565b811461192f57600080fd5b50565b6000813590506119418161191b565b92915050565b6000806040838503121561195e5761195d6116c6565b5b600061196c858286016116f1565b925050602061197d85828601611932565b9150509250929050565b61199081611911565b82525050565b60006020820190506119ab6000830184611987565b92915050565b600080fd5b600080fd5b600080fd5b60008083601f8401126119d6576119d56119b1565b5b8235905067ffffffffffffffff8111156119f3576119f26119b6565b5b602083019150836001820283011115611a0f57611a0e6119bb565b5b9250929050565b60008060008060608587031215611a3057611a2f6116c6565b5b6000611a3e878288016116f1565b9450506020611a4f878288016116f1565b935050604085013567ffffffffffffffff811115611a7057611a6f6116cb565b5b611a7c878288016119c0565b925092505092959194509250565b6000819050919050565b6000611aaf611aaa611aa584611733565b611a8a565b611733565b9050919050565b6000611ac182611a94565b9050919050565b6000611ad382611ab6565b9050919050565b611ae381611ac8565b82525050565b6000602082019050611afe6000830184611ada565b92915050565b600082825260208201905092915050565b7f4e6f7468696e6720746f20776974686472617700000000000000000000000000600082015250565b6000611b4b601383611b04565b9150611b5682611b15565b602082019050919050565b60006020820190508181036000830152611b7a81611b3e565b9050919050565b600081905092915050565b50565b6000611b9c600083611b81565b9150611ba782611b8c565b600082019050919050565b6000611bbd82611b8f565b9150819050919050565b7f5769746864726177206661696c65640000000000000000000000000000000000600082015250565b6000611bfd600f83611b04565b9150611c0882611bc7565b602082019050919050565b60006020820190508181036000830152611c2c81611bf0565b9050919050565b6000604082019050611c486000830185611807565b611c556020830184611816565b9392505050565b600081519050611c6b81611765565b92915050565b600060208284031215611c8757611c866116c6565b5b6000611c9584828501611c5c565b91505092915050565b7f4e6f7420746f6b656e206f776e65720000000000000000000000000000000000600082015250565b6000611cd4600f83611b04565b9150611cdf82611c9e565b602082019050919050565b60006020820190508181036000830152611d0381611cc7565b9050919050565b7f41756374696f6e20616c72656164792061637469766500000000000000000000600082015250565b6000611d40601683611b04565b9150611d4b82611d0a565b602082019050919050565b60006020820190508181036000830152611d6f81611d33565b9050919050565b7f4e487b7100000000000000000000000000000000000000000000000000000000600052601160045260246000fd5b6000611db0826116d0565b9150611dbb836116d0565b9250828201905080821115611dd357611dd2611d76565b5b92915050565b6000606082019050611dee6000830186611807565b611dfb6020830185611816565b611e086040830184611816565b949350505050565b7f41756374696f6e206e6f74206163746976650000000000000000000000000000600082015250565b6000611e46601283611b04565b9150611e5182611e10565b602082019050919050565b60006020820190508181036000830152611e7581611e39565b9050919050565b7f436f6d6d697420706861736520656e6465640000000000000000000000000000600082015250565b6000611eb2601283611b04565b9150611ebd82611e7c565b602082019050919050565b60006020820190508181036000830152611ee181611ea5565b9050919050565b7f43616e6e6f742063616e63656c2061667465722062696464696e67206861732060008201527f656e646564000000000000000000000000000000000000000000000000000000602082015250565b6000611f44602583611b04565b9150611f4f82611ee8565b604082019050919050565b60006020820190508181036000830152611f7381611f37565b9050919050565b6000819050919050565b6000611f9f611f9a611f9584611f7a565b611a8a565b6116d0565b9050919050565b611faf81611f84565b82525050565b6000604082019050611fca6000830185611807565b611fd76020830184611fa6565b9392505050565b7f52657665616c207068617365206e6f7420737461727465640000000000000000600082015250565b6000612014601883611b04565b915061201f82611fde565b602082019050919050565b6000602082019050818103600083015261204381612007565b9050919050565b7f52657665616c20706861736520656e6465640000000000000000000000000000600082015250565b6000612080601283611b04565b915061208b8261204a565b602082019050919050565b600060208201905081810360008301526120af81612073565b9050919050565b7f4e6f2062696420636f6d6d697474656400000000000000000000000000000000600082015250565b60006120ec601083611b04565b91506120f7826120b6565b602082019050919050565b6000602082019050818103600083015261211b816120df565b9050919050565b7f4554482073656e74206d69736d61746368207769746820626964000000000000600082015250565b6000612158601a83611b04565b915061216382612122565b602082019050919050565b600060208201905081810360008301526121878161214b565b9050919050565b6000819050919050565b6121a96121a4826116d0565b61218e565b82525050565b600081905092915050565b82818337600083830152505050565b60006121d583856121af565b93506121e28385846121ba565b82840190509392505050565b60006121fa8287612198565b60208201915061220b8285876121c9565b91506122178284612198565b60208201915081905095945050505050565b7f496e76616c69642072657665616c000000000000000000000000000000000000600082015250565b600061225f600e83611b04565b915061226a82612229565b602082019050919050565b6000602082019050818103600083015261228e81612252565b9050919050565b7f426964206d757374206265203e3d207374617274696e67207072696365000000600082015250565b60006122cb601d83611b04565b91506122d682612295565b602082019050919050565b600060208201905081810360008301526122fa816122be565b9050919050565b7f52657665616c207068617365206e6f74206f7665722079657400000000000000600082015250565b6000612337601983611b04565b915061234282612301565b602082019050919050565b600060208201905081810360008301526123668161232a565b9050919050565b7f4e6f206269647320706c61636564000000000000000000000000000000000000600082015250565b60006123a3600e83611b04565b91506123ae8261236d565b602082019050919050565b600060208201905081810360008301526123d281612396565b9050919050565b60006060820190506123ee6000830186611807565b6123fb6020830185611807565b6124086040830184611816565b949350505050565b7f5061796d656e74206661696c6564000000000000000000000000000000000000600082015250565b6000612446600e83611b04565b915061245182612410565b602082019050919050565b6000602082019050818103600083015261247581612439565b905091905056fea2646970667358221220db2bf5744a15e2eb754524c17183a578d42666760128360d686844206950038f64736f6c634300081c0033",
  "linkReferences": {},
  "deployedLinkReferences": {}
}