{
  "_format": "hh-sol-artifact-1",
  "contractName": "DutchAuctionMarketplace",
  "sourceName": "contracts/DutchAuctionMarketplace.sol",
  "abi": [
    {
      "inputs": [
        {
          "internalType": "address",
          "name": "_nftContract",
          "type": "address"
        }
      ],
      "stateMutability": "nonpayable",
      "type": "constructor"
    },
    {
      "anonymous": false,
      "inputs": [
        {
          "indexed": true,
          "internalType": "uint256",
          "name": "tokenId",
          "type": "uint256"
        },
        {
          "indexed": false,
          "internalType": "address",
          "name": "buyer",
          "type": "address"
        },
        {
          "indexed": false,
          "internalType": "uint256",
          "name": "amount",
          "type": "uint256"
        }
      ],
      "name": "DutchAuctionEnded",
      "type": "event"
    },
    {
      "anonymous": false,
      "inputs": [
        {
          "indexed": true,
          "internalType": "uint256",
          "name": "tokenId",
          "type": "uint256"
        },
        {
          "indexed": false,
          "internalType": "address",
          "name": "seller",
          "type": "address"
        },
        {
          "indexed": false,
          "internalType": "uint256",
          "name": "startPrice",
          "type": "uint256"
        },
        {
          "indexed": false,
          "internalType": "uint256",
          "name": "endPrice",
          "type": "uint256"
        },
        {
          "indexed": false,
          "internalType": "uint256",
          "name": "endTime",
          "type": "uint256"
        }
      ],
      "name": "DutchAuctionStarted",
      "type": "event"
    },
    {
      "inputs": [
        {
          "internalType": "uint256",
          "name": "tokenId",
          "type": "uint256"
        },
        {
          "internalType": "uint256",
          "name": "clientTimestamp",
          "type": "uint256"
        }
      ],
      "name": "buyFromDutchAuction",
      "outputs": [],
      "stateMutability": "payable",
      "type": "function"
    },
    {
      "inputs": [
        {
          "internalType": "uint256",
          "name": "tokenId",
          "type": "uint256"
        }
      ],
      "name": "cancelDutchAuction",
      "outputs": [],
      "stateMutability": "nonpayable",
      "type": "function"
    },
    {
      "inputs": [
        {
          "internalType": "uint256",
          "name": "",
          "type": "uint256"
        }
      ],
      "name": "dutchAuctions",
      "outputs": [
        {
          "internalType": "address",
          "name": "seller",
          "type": "address"
        },
        {
          "internalType": "uint256",
          "name": "startPrice",
          "type": "uint256"
        },
        {
          "internalType": "uint256",
          "name": "endPrice",
          "type": "uint256"
        },
        {
          "internalType": "uint256",
          "name": "startTimestamp",
          "type": "uint256"
        },
        {
          "internalType": "uint256",
          "name": "endTimestamp",
          "type": "uint256"
        },
        {
          "internalType": "bool",
          "name": "isActive",
          "type": "bool"
        }
      ],
      "stateMutability": "view",
      "type": "function"
    },
    {
      "inputs": [
        {
          "internalType": "uint256",
          "name": "tokenId",
          "type": "uint256"
        }
      ],
      "name": "getCurrentDutchPrice",
      "outputs": [
        {
          "internalType": "uint256",
          "name": "",
          "type": "uint256"
        }
      ],
      "stateMutability": "view",
      "type": "function"
    },
    {
      "inputs": [],
      "name": "nftContract",
      "outputs": [
        {
          "internalType": "contract ERC721",
          "name": "",
          "type": "address"
        }
      ],
      "stateMutability": "view",
      "type": "function"
    },
    {
      "inputs": [
        {
          "internalType": "uint256",
          "name": "tokenId",
          "type": "uint256"
        },
        {
          "internalType": "uint256",
          "name": "startPrice",
          "type": "uint256"
        },
        {
          "internalType": "uint256",
          "name": "endPrice",
          "type": "uint256"
        },
        {
          "internalType": "uint256",
          "name": "duration",
          "type": "uint256"
        }
      ],
      "name": "startDutchAuction",
      "outputs": [],
      "stateMutability": "nonpayable",
      "type": "function"
    }
  ],
  "bytecode": "0x608060405234801561001057600080fd5b506040516118b13803806118b1833981810160405281019061003291906100db565b806000806101000a81548173ffffffffffffffffffffffffffffffffffffffff021916908373ffffffffffffffffffffffffffffffffffffffff16021790555050610108565b600080fd5b600073ffffffffffffffffffffffffffffffffffffffff82169050919050565b60006100a88261007d565b9050919050565b6100b88161009d565b81146100c357600080fd5b50565b6000815190506100d5816100af565b92915050565b6000602082840312156100f1576100f0610078565b5b60006100ff848285016100c6565b91505092915050565b61179a806101176000396000f3fe6080604052600436106100555760003560e01c80632f44dee81461005a578063d56d229d14610097578063ddee8433146100c2578063ecfc12a3146100eb578063f2ab2fc014610114578063fbf2da8014610156575b600080fd5b34801561006657600080fd5b50610081600480360381019061007c9190610d4c565b610172565b60405161008e9190610d88565b60405180910390f35b3480156100a357600080fd5b506100ac610300565b6040516100b99190610e22565b60405180910390f35b3480156100ce57600080fd5b506100e960048036038101906100e49190610d4c565b610324565b005b3480156100f757600080fd5b50610112600480360381019061010d9190610e3d565b6104b6565b005b34801561012057600080fd5b5061013b60048036038101906101369190610d4c565b610902565b60405161014d96959493929190610ee0565b60405180910390f35b610170600480360381019061016b9190610f41565b61096b565b005b600080600160008481526020019081526020016000206040518060c00160405290816000820160009054906101000a900473ffffffffffffffffffffffffffffffffffffffff1673ffffffffffffffffffffffffffffffffffffffff1673ffffffffffffffffffffffffffffffffffffffff168152602001600182015481526020016002820154815260200160038201548152602001600482015481526020016005820160009054906101000a900460ff16151515158152505090508060a00151610272576040517f08c379a000000000000000000000000000000000000000000000000000000000815260040161026990610fde565b60405180910390fd5b8060800151421061028a5780604001519150506102fb565b600081606001514261029c919061102d565b90506000826060015183608001516102b4919061102d565b90506000836040015184602001516102cc919061102d565b90508183826102db9190611061565b6102e591906110d2565b84602001516102f4919061102d565b9450505050505b919050565b60008054906101000a900473ffffffffffffffffffffffffffffffffffffffff1681565b803373ffffffffffffffffffffffffffffffffffffffff1660008054906101000a900473ffffffffffffffffffffffffffffffffffffffff1673ffffffffffffffffffffffffffffffffffffffff16636352211e836040518263ffffffff1660e01b81526004016103959190610d88565b602060405180830381865afa1580156103b2573d6000803e3d6000fd5b505050506040513d601f19601f820116820180604052508101906103d6919061112f565b73ffffffffffffffffffffffffffffffffffffffff161461042c576040517f08c379a0000000000000000000000000000000000000000000000000000000008152600401610423906111a8565b60405180910390fd5b60006001600084815260200190815260200160002090508060050160009054906101000a900460ff16610494576040517f08c379a000000000000000000000000000000000000000000000000000000000815260040161048b90611214565b60405180910390fd5b60008160050160006101000a81548160ff021916908315150217905550505050565b833373ffffffffffffffffffffffffffffffffffffffff1660008054906101000a900473ffffffffffffffffffffffffffffffffffffffff1673ffffffffffffffffffffffffffffffffffffffff16636352211e836040518263ffffffff1660e01b81526004016105279190610d88565b602060405180830381865afa158015610544573d6000803e3d6000fd5b505050506040513d601f19601f82011682018060405250810190610568919061112f565b73ffffffffffffffffffffffffffffffffffffffff16146105be576040517f08c379a00000000000000000000000000000000000000000000000000000000081526004016105b5906111a8565b60405180910390fd5b60008054906101000a900473ffffffffffffffffffffffffffffffffffffffff1673ffffffffffffffffffffffffffffffffffffffff16630920984c86306040518363ffffffff1660e01b8152600401610619929190611234565b602060405180830381865afa158015610636573d6000803e3d6000fd5b505050506040513d601f19601f8201168201806040525081019061065a9190611289565b806106fd575060008054906101000a900473ffffffffffffffffffffffffffffffffffffffff1673ffffffffffffffffffffffffffffffffffffffff1663e985e9c533306040518363ffffffff1660e01b81526004016106bb9291906112b6565b602060405180830381865afa1580156106d8573d6000803e3d6000fd5b505050506040513d601f19601f820116820180604052508101906106fc9190611289565b5b61073c576040517f08c379a000000000000000000000000000000000000000000000000000000000815260040161073390611351565b60405180910390fd5b82841161077e576040517f08c379a0000000000000000000000000000000000000000000000000000000008152600401610775906113e3565b60405180910390fd5b600082116107c1576040517f08c379a00000000000000000000000000000000000000000000000000000000081526004016107b890611475565b60405180910390fd5b600082426107cf9190611495565b90506040518060c001604052803373ffffffffffffffffffffffffffffffffffffffff168152602001868152602001858152602001428152602001828152602001600115158152506001600088815260200190815260200160002060008201518160000160006101000a81548173ffffffffffffffffffffffffffffffffffffffff021916908373ffffffffffffffffffffffffffffffffffffffff1602179055506020820151816001015560408201518160020155606082015181600301556080820151816004015560a08201518160050160006101000a81548160ff021916908315150217905550905050857f268ac48f716356a00742974050591a9f3d88ed4669568f578935c957cdb5d520338787856040516108f294939291906114c9565b60405180910390a2505050505050565b60016020528060005260406000206000915090508060000160009054906101000a900473ffffffffffffffffffffffffffffffffffffffff16908060010154908060020154908060030154908060040154908060050160009054906101000a900460ff16905086565b60006001600084815260200190815260200160002090508060050160009054906101000a900460ff166109d3576040517f08c379a00000000000000000000000000000000000000000000000000000000081526004016109ca90611214565b60405180910390fd5b603c426109e09190611495565b821115610a22576040517f08c379a0000000000000000000000000000000000000000000000000000000008152600401610a199061155a565b60405180910390fd5b8060040154821115610a69576040517f08c379a0000000000000000000000000000000000000000000000000000000008152600401610a60906115c6565b60405180910390fd5b6000816003015483610a7b919061102d565b9050600082600301548360040154610a93919061102d565b9050600083600201548460010154610aab919061102d565b90506000828483610abc9190611061565b610ac691906110d2565b8560010154610ad5919061102d565b905084600401548610610aea57846002015490505b80341015610b2d576040517f08c379a0000000000000000000000000000000000000000000000000000000008152600401610b2490611632565b60405180910390fd5b60008560050160006101000a81548160ff02191690831515021790555060008054906101000a900473ffffffffffffffffffffffffffffffffffffffff1673ffffffffffffffffffffffffffffffffffffffff166342842e0e8660000160009054906101000a900473ffffffffffffffffffffffffffffffffffffffff16338a6040518463ffffffff1660e01b8152600401610bcb93929190611652565b600060405180830381600087803b158015610be557600080fd5b505af1158015610bf9573d6000803e3d6000fd5b5050505060008560000160009054906101000a900473ffffffffffffffffffffffffffffffffffffffff1673ffffffffffffffffffffffffffffffffffffffff1634604051610c47906116ba565b60006040518083038185875af1925050503d8060008114610c84576040519150601f19603f3d011682016040523d82523d6000602084013e610c89565b606091505b5050905080610ccd576040517f08c379a0000000000000000000000000000000000000000000000000000000008152600401610cc49061171b565b60405180910390fd5b877f3a9978b6624f6cb440b3a1e29c588ca8aab0251c3b4d7f9202a1c1fb01ab2c4e3334604051610cff92919061173b565b60405180910390a25050505050505050565b600080fd5b6000819050919050565b610d2981610d16565b8114610d3457600080fd5b50565b600081359050610d4681610d20565b92915050565b600060208284031215610d6257610d61610d11565b5b6000610d7084828501610d37565b91505092915050565b610d8281610d16565b82525050565b6000602082019050610d9d6000830184610d79565b92915050565b600073ffffffffffffffffffffffffffffffffffffffff82169050919050565b6000819050919050565b6000610de8610de3610dde84610da3565b610dc3565b610da3565b9050919050565b6000610dfa82610dcd565b9050919050565b6000610e0c82610def565b9050919050565b610e1c81610e01565b82525050565b6000602082019050610e376000830184610e13565b92915050565b60008060008060808587031215610e5757610e56610d11565b5b6000610e6587828801610d37565b9450506020610e7687828801610d37565b9350506040610e8787828801610d37565b9250506060610e9887828801610d37565b91505092959194509250565b6000610eaf82610da3565b9050919050565b610ebf81610ea4565b82525050565b60008115159050919050565b610eda81610ec5565b82525050565b600060c082019050610ef56000830189610eb6565b610f026020830188610d79565b610f0f6040830187610d79565b610f1c6060830186610d79565b610f296080830185610d79565b610f3660a0830184610ed1565b979650505050505050565b60008060408385031215610f5857610f57610d11565b5b6000610f6685828601610d37565b9250506020610f7785828601610d37565b9150509250929050565b600082825260208201905092915050565b7f41756374696f6e206e6f74206163746976650000000000000000000000000000600082015250565b6000610fc8601283610f81565b9150610fd382610f92565b602082019050919050565b60006020820190508181036000830152610ff781610fbb565b9050919050565b7f4e487b7100000000000000000000000000000000000000000000000000000000600052601160045260246000fd5b600061103882610d16565b915061104383610d16565b925082820390508181111561105b5761105a610ffe565b5b92915050565b600061106c82610d16565b915061107783610d16565b925082820261108581610d16565b9150828204841483151761109c5761109b610ffe565b5b5092915050565b7f4e487b7100000000000000000000000000000000000000000000000000000000600052601260045260246000fd5b60006110dd82610d16565b91506110e883610d16565b9250826110f8576110f76110a3565b5b828204905092915050565b61110c81610ea4565b811461111757600080fd5b50565b60008151905061112981611103565b92915050565b60006020828403121561114557611144610d11565b5b60006111538482850161111a565b91505092915050565b7f4e6f7420746f6b656e206f776e65720000000000000000000000000000000000600082015250565b6000611192600f83610f81565b915061119d8261115c565b602082019050919050565b600060208201905081810360008301526111c181611185565b9050919050565b7f44757463682061756374696f6e206e6f74206163746976650000000000000000600082015250565b60006111fe601883610f81565b9150611209826111c8565b602082019050919050565b6000602082019050818103600083015261122d816111f1565b9050919050565b60006040820190506112496000830185610d79565b6112566020830184610eb6565b9392505050565b61126681610ec5565b811461127157600080fd5b50565b6000815190506112838161125d565b92915050565b60006020828403121561129f5761129e610d11565b5b60006112ad84828501611274565b91505092915050565b60006040820190506112cb6000830185610eb6565b6112d86020830184610eb6565b9392505050565b7f4d61726b6574706c616365206e6f7420617070726f76656420746f206d616e6160008201527f67652074686973204e4654000000000000000000000000000000000000000000602082015250565b600061133b602b83610f81565b9150611346826112df565b604082019050919050565b6000602082019050818103600083015261136a8161132e565b9050919050565b7f5374617274207072696365206d7573742062652067726561746572207468616e60008201527f20656e6420707269636500000000000000000000000000000000000000000000602082015250565b60006113cd602a83610f81565b91506113d882611371565b604082019050919050565b600060208201905081810360008301526113fc816113c0565b9050919050565b7f4475726174696f6e206d7573742062652067726561746572207468616e207a6560008201527f726f000000000000000000000000000000000000000000000000000000000000602082015250565b600061145f602283610f81565b915061146a82611403565b604082019050919050565b6000602082019050818103600083015261148e81611452565b9050919050565b60006114a082610d16565b91506114ab83610d16565b92508282019050808211156114c3576114c2610ffe565b5b92915050565b60006080820190506114de6000830187610eb6565b6114eb6020830186610d79565b6114f86040830185610d79565b6115056060830184610d79565b95945050505050565b7f54696d657374616d7020746f6f2066617220696e207468652066757475726500600082015250565b6000611544601f83610f81565b915061154f8261150e565b602082019050919050565b6000602082019050818103600083015261157381611537565b9050919050565b7f41756374696f6e20657870697265640000000000000000000000000000000000600082015250565b60006115b0600f83610f81565b91506115bb8261157a565b602082019050919050565b600060208201905081810360008301526115df816115a3565b9050919050565b7f496e73756666696369656e742066756e64730000000000000000000000000000600082015250565b600061161c601283610f81565b9150611627826115e6565b602082019050919050565b6000602082019050818103600083015261164b8161160f565b9050919050565b60006060820190506116676000830186610eb6565b6116746020830185610eb6565b6116816040830184610d79565b949350505050565b600081905092915050565b50565b60006116a4600083611689565b91506116af82611694565b600082019050919050565b60006116c582611697565b9150819050919050565b7f5061796d656e74206661696c6564000000000000000000000000000000000000600082015250565b6000611705600e83610f81565b9150611710826116cf565b602082019050919050565b60006020820190508181036000830152611734816116f8565b9050919050565b60006040820190506117506000830185610eb6565b61175d6020830184610d79565b939250505056fea2646970667358221220329ad8b2f46c21fadb3397e80daa7d0a6579cb5c55ff26bfb506e637f9803afe64736f6c634300081c0033",
  "linkReferences": {},
  "deployedLinkReferences": {}
}