{
  "_format": "hh-sol-artifact-1",
  "contractName": "DutchAuctionMarketplace",
  "sourceName": "contracts/DutchAuctionMarketplace.sol",
  "abi": [
    {
      "inputs": [
        {
          "internalType": "address",
          "name": "_nftContract",
          "type": "address"
        }
      ],
      "stateMutability": "nonpayable",
      "type": "constructor"
    },
    {
      "anonymous": false,
      "inputs": [
        {
          "indexed": true,
          "internalType": "uint256",
          "name": "tokenId",
          "type": "uint256"
        },
        {
          "indexed": false,
          "internalType": "address",
          "name": "buyer",
          "type": "address"
        },
        {
          "indexed": false,
          "internalType": "uint256",
          "name": "amount",
          "type": "uint256"
        }
      ],
      "name": "DutchAuctionEnded",
      "type": "event"
    },
    {
      "anonymous": false,
      "inputs": [
        {
          "indexed": true,
          "internalType": "uint256",
          "name": "tokenId",
          "type": "uint256"
        },
        {
          "indexed": false,
          "internalType": "address",
          "name": "seller",
          "type": "address"
        },
        {
          "indexed": false,
          "internalType": "uint256",
          "name": "startPrice",
          "type": "uint256"
        },
        {
          "indexed": false,
          "internalType": "uint256",
          "name": "endPrice",
          "type": "uint256"
        },
        {
          "indexed": false,
          "internalType": "uint256",
          "name": "endTime",
          "type": "uint256"
        }
      ],
      "name": "DutchAuctionStarted",
      "type": "event"
    },
    {
      "inputs": [
        {
          "internalType": "uint256",
          "name": "tokenId",
          "type": "uint256"
        }
      ],
      "name": "buyFromDutchAuction",
      "outputs": [],
      "stateMutability": "payable",
      "type": "function"
    },
    {
      "inputs": [
        {
          "internalType": "uint256",
          "name": "tokenId",
          "type": "uint256"
        }
      ],
      "name": "cancelDutchAuction",
      "outputs": [],
      "stateMutability": "nonpayable",
      "type": "function"
    },
    {
      "inputs": [
        {
          "internalType": "uint256",
          "name": "",
          "type": "uint256"
        }
      ],
      "name": "dutchAuctions",
      "outputs": [
        {
          "internalType": "address",
          "name": "seller",
          "type": "address"
        },
        {
          "internalType": "uint256",
          "name": "startPrice",
          "type": "uint256"
        },
        {
          "internalType": "uint256",
          "name": "endPrice",
          "type": "uint256"
        },
        {
          "internalType": "uint256",
          "name": "startTimestamp",
          "type": "uint256"
        },
        {
          "internalType": "uint256",
          "name": "endTimestamp",
          "type": "uint256"
        },
        {
          "internalType": "bool",
          "name": "isActive",
          "type": "bool"
        }
      ],
      "stateMutability": "view",
      "type": "function"
    },
    {
      "inputs": [
        {
          "internalType": "uint256",
          "name": "tokenId",
          "type": "uint256"
        }
      ],
      "name": "getCurrentDutchPrice",
      "outputs": [
        {
          "internalType": "uint256",
          "name": "",
          "type": "uint256"
        }
      ],
      "stateMutability": "view",
      "type": "function"
    },
    {
      "inputs": [],
      "name": "nftContract",
      "outputs": [
        {
          "internalType": "contract ERC721",
          "name": "",
          "type": "address"
        }
      ],
      "stateMutability": "view",
      "type": "function"
    },
    {
      "inputs": [
        {
          "internalType": "uint256",
          "name": "tokenId",
          "type": "uint256"
        },
        {
          "internalType": "uint256",
          "name": "startPrice",
          "type": "uint256"
        },
        {
          "internalType": "uint256",
          "name": "endPrice",
          "type": "uint256"
        },
        {
          "internalType": "uint256",
          "name": "duration",
          "type": "uint256"
        }
      ],
      "name": "startDutchAuction",
      "outputs": [],
      "stateMutability": "nonpayable",
      "type": "function"
    }
  ],
  "bytecode": "0x608060405234801561001057600080fd5b506040516117b53803806117b5833981810160405281019061003291906100db565b806000806101000a81548173ffffffffffffffffffffffffffffffffffffffff021916908373ffffffffffffffffffffffffffffffffffffffff16021790555050610108565b600080fd5b600073ffffffffffffffffffffffffffffffffffffffff82169050919050565b60006100a88261007d565b9050919050565b6100b88161009d565b81146100c357600080fd5b50565b6000815190506100d5816100af565b92915050565b6000602082840312156100f1576100f0610078565b5b60006100ff848285016100c6565b91505092915050565b61169e806101176000396000f3fe6080604052600436106100555760003560e01c80632f44dee81461005a578063caabdd3d14610097578063d56d229d146100b3578063ddee8433146100de578063ecfc12a314610107578063f2ab2fc014610130575b600080fd5b34801561006657600080fd5b50610081600480360381019061007c9190610cfc565b610172565b60405161008e9190610d38565b60405180910390f35b6100b160048036038101906100ac9190610cfc565b610300565b005b3480156100bf57600080fd5b506100c8610656565b6040516100d59190610dd2565b60405180910390f35b3480156100ea57600080fd5b5061010560048036038101906101009190610cfc565b61067a565b005b34801561011357600080fd5b5061012e60048036038101906101299190610ded565b61080c565b005b34801561013c57600080fd5b5061015760048036038101906101529190610cfc565b610c58565b60405161016996959493929190610e90565b60405180910390f35b600080600160008481526020019081526020016000206040518060c00160405290816000820160009054906101000a900473ffffffffffffffffffffffffffffffffffffffff1673ffffffffffffffffffffffffffffffffffffffff1673ffffffffffffffffffffffffffffffffffffffff168152602001600182015481526020016002820154815260200160038201548152602001600482015481526020016005820160009054906101000a900460ff16151515158152505090508060a00151610272576040517f08c379a000000000000000000000000000000000000000000000000000000000815260040161026990610f4e565b60405180910390fd5b8060800151421061028a5780604001519150506102fb565b600081606001514261029c9190610f9d565b90506000826060015183608001516102b49190610f9d565b90506000836040015184602001516102cc9190610f9d565b90508183826102db9190610fd1565b6102e59190611042565b84602001516102f49190610f9d565b9450505050505b919050565b60006001600083815260200190815260200160002090508060050160009054906101000a900460ff16610368576040517f08c379a000000000000000000000000000000000000000000000000000000000815260040161035f906110bf565b60405180910390fd5b80600401544211156103af576040517f08c379a00000000000000000000000000000000000000000000000000000000081526004016103a69061112b565b60405180910390fd5b60008160030154426103c19190610f9d565b90506000826003015483600401546103d99190610f9d565b90506000836002015484600101546103f19190610f9d565b905060008284836104029190610fd1565b61040c9190611042565b856001015461041b9190610f9d565b90508460040154421061043057846002015490505b80341015610473576040517f08c379a000000000000000000000000000000000000000000000000000000000815260040161046a90611197565b60405180910390fd5b60008560050160006101000a81548160ff02191690831515021790555060008054906101000a900473ffffffffffffffffffffffffffffffffffffffff1673ffffffffffffffffffffffffffffffffffffffff166342842e0e8660000160009054906101000a900473ffffffffffffffffffffffffffffffffffffffff1633896040518463ffffffff1660e01b8152600401610511939291906111b7565b600060405180830381600087803b15801561052b57600080fd5b505af115801561053f573d6000803e3d6000fd5b5050505060008560000160009054906101000a900473ffffffffffffffffffffffffffffffffffffffff1673ffffffffffffffffffffffffffffffffffffffff163460405161058d9061121f565b60006040518083038185875af1925050503d80600081146105ca576040519150601f19603f3d011682016040523d82523d6000602084013e6105cf565b606091505b5050905080610613576040517f08c379a000000000000000000000000000000000000000000000000000000000815260040161060a90611280565b60405180910390fd5b867f3a9978b6624f6cb440b3a1e29c588ca8aab0251c3b4d7f9202a1c1fb01ab2c4e33346040516106459291906112a0565b60405180910390a250505050505050565b60008054906101000a900473ffffffffffffffffffffffffffffffffffffffff1681565b803373ffffffffffffffffffffffffffffffffffffffff1660008054906101000a900473ffffffffffffffffffffffffffffffffffffffff1673ffffffffffffffffffffffffffffffffffffffff16636352211e836040518263ffffffff1660e01b81526004016106eb9190610d38565b602060405180830381865afa158015610708573d6000803e3d6000fd5b505050506040513d601f19601f8201168201806040525081019061072c91906112f5565b73ffffffffffffffffffffffffffffffffffffffff1614610782576040517f08c379a00000000000000000000000000000000000000000000000000000000081526004016107799061136e565b60405180910390fd5b60006001600084815260200190815260200160002090508060050160009054906101000a900460ff166107ea576040517f08c379a00000000000000000000000000000000000000000000000000000000081526004016107e1906110bf565b60405180910390fd5b60008160050160006101000a81548160ff021916908315150217905550505050565b833373ffffffffffffffffffffffffffffffffffffffff1660008054906101000a900473ffffffffffffffffffffffffffffffffffffffff1673ffffffffffffffffffffffffffffffffffffffff16636352211e836040518263ffffffff1660e01b815260040161087d9190610d38565b602060405180830381865afa15801561089a573d6000803e3d6000fd5b505050506040513d601f19601f820116820180604052508101906108be91906112f5565b73ffffffffffffffffffffffffffffffffffffffff1614610914576040517f08c379a000000000000000000000000000000000000000000000000000000000815260040161090b9061136e565b60405180910390fd5b60008054906101000a900473ffffffffffffffffffffffffffffffffffffffff1673ffffffffffffffffffffffffffffffffffffffff16630920984c86306040518363ffffffff1660e01b815260040161096f92919061138e565b602060405180830381865afa15801561098c573d6000803e3d6000fd5b505050506040513d601f19601f820116820180604052508101906109b091906113e3565b80610a53575060008054906101000a900473ffffffffffffffffffffffffffffffffffffffff1673ffffffffffffffffffffffffffffffffffffffff1663e985e9c533306040518363ffffffff1660e01b8152600401610a11929190611410565b602060405180830381865afa158015610a2e573d6000803e3d6000fd5b505050506040513d601f19601f82011682018060405250810190610a5291906113e3565b5b610a92576040517f08c379a0000000000000000000000000000000000000000000000000000000008152600401610a89906114ab565b60405180910390fd5b828411610ad4576040517f08c379a0000000000000000000000000000000000000000000000000000000008152600401610acb9061153d565b60405180910390fd5b60008211610b17576040517f08c379a0000000000000000000000000000000000000000000000000000000008152600401610b0e906115cf565b60405180910390fd5b60008242610b2591906115ef565b90506040518060c001604052803373ffffffffffffffffffffffffffffffffffffffff168152602001868152602001858152602001428152602001828152602001600115158152506001600088815260200190815260200160002060008201518160000160006101000a81548173ffffffffffffffffffffffffffffffffffffffff021916908373ffffffffffffffffffffffffffffffffffffffff1602179055506020820151816001015560408201518160020155606082015181600301556080820151816004015560a08201518160050160006101000a81548160ff021916908315150217905550905050857f268ac48f716356a00742974050591a9f3d88ed4669568f578935c957cdb5d52033878785604051610c489493929190611623565b60405180910390a2505050505050565b60016020528060005260406000206000915090508060000160009054906101000a900473ffffffffffffffffffffffffffffffffffffffff16908060010154908060020154908060030154908060040154908060050160009054906101000a900460ff16905086565b600080fd5b6000819050919050565b610cd981610cc6565b8114610ce457600080fd5b50565b600081359050610cf681610cd0565b92915050565b600060208284031215610d1257610d11610cc1565b5b6000610d2084828501610ce7565b91505092915050565b610d3281610cc6565b82525050565b6000602082019050610d4d6000830184610d29565b92915050565b600073ffffffffffffffffffffffffffffffffffffffff82169050919050565b6000819050919050565b6000610d98610d93610d8e84610d53565b610d73565b610d53565b9050919050565b6000610daa82610d7d565b9050919050565b6000610dbc82610d9f565b9050919050565b610dcc81610db1565b82525050565b6000602082019050610de76000830184610dc3565b92915050565b60008060008060808587031215610e0757610e06610cc1565b5b6000610e1587828801610ce7565b9450506020610e2687828801610ce7565b9350506040610e3787828801610ce7565b9250506060610e4887828801610ce7565b91505092959194509250565b6000610e5f82610d53565b9050919050565b610e6f81610e54565b82525050565b60008115159050919050565b610e8a81610e75565b82525050565b600060c082019050610ea56000830189610e66565b610eb26020830188610d29565b610ebf6040830187610d29565b610ecc6060830186610d29565b610ed96080830185610d29565b610ee660a0830184610e81565b979650505050505050565b600082825260208201905092915050565b7f41756374696f6e206e6f74206163746976650000000000000000000000000000600082015250565b6000610f38601283610ef1565b9150610f4382610f02565b602082019050919050565b60006020820190508181036000830152610f6781610f2b565b9050919050565b7f4e487b7100000000000000000000000000000000000000000000000000000000600052601160045260246000fd5b6000610fa882610cc6565b9150610fb383610cc6565b9250828203905081811115610fcb57610fca610f6e565b5b92915050565b6000610fdc82610cc6565b9150610fe783610cc6565b9250828202610ff581610cc6565b9150828204841483151761100c5761100b610f6e565b5b5092915050565b7f4e487b7100000000000000000000000000000000000000000000000000000000600052601260045260246000fd5b600061104d82610cc6565b915061105883610cc6565b92508261106857611067611013565b5b828204905092915050565b7f44757463682061756374696f6e206e6f74206163746976650000000000000000600082015250565b60006110a9601883610ef1565b91506110b482611073565b602082019050919050565b600060208201905081810360008301526110d88161109c565b9050919050565b7f41756374696f6e20657870697265640000000000000000000000000000000000600082015250565b6000611115600f83610ef1565b9150611120826110df565b602082019050919050565b6000602082019050818103600083015261114481611108565b9050919050565b7f496e73756666696369656e742066756e64730000000000000000000000000000600082015250565b6000611181601283610ef1565b915061118c8261114b565b602082019050919050565b600060208201905081810360008301526111b081611174565b9050919050565b60006060820190506111cc6000830186610e66565b6111d96020830185610e66565b6111e66040830184610d29565b949350505050565b600081905092915050565b50565b60006112096000836111ee565b9150611214826111f9565b600082019050919050565b600061122a826111fc565b9150819050919050565b7f5061796d656e74206661696c6564000000000000000000000000000000000000600082015250565b600061126a600e83610ef1565b915061127582611234565b602082019050919050565b600060208201905081810360008301526112998161125d565b9050919050565b60006040820190506112b56000830185610e66565b6112c26020830184610d29565b9392505050565b6112d281610e54565b81146112dd57600080fd5b50565b6000815190506112ef816112c9565b92915050565b60006020828403121561130b5761130a610cc1565b5b6000611319848285016112e0565b91505092915050565b7f4e6f7420746f6b656e206f776e65720000000000000000000000000000000000600082015250565b6000611358600f83610ef1565b915061136382611322565b602082019050919050565b600060208201905081810360008301526113878161134b565b9050919050565b60006040820190506113a36000830185610d29565b6113b06020830184610e66565b9392505050565b6113c081610e75565b81146113cb57600080fd5b50565b6000815190506113dd816113b7565b92915050565b6000602082840312156113f9576113f8610cc1565b5b6000611407848285016113ce565b91505092915050565b60006040820190506114256000830185610e66565b6114326020830184610e66565b9392505050565b7f4d61726b6574706c616365206e6f7420617070726f76656420746f206d616e6160008201527f67652074686973204e4654000000000000000000000000000000000000000000602082015250565b6000611495602b83610ef1565b91506114a082611439565b604082019050919050565b600060208201905081810360008301526114c481611488565b9050919050565b7f5374617274207072696365206d7573742062652067726561746572207468616e60008201527f20656e6420707269636500000000000000000000000000000000000000000000602082015250565b6000611527602a83610ef1565b9150611532826114cb565b604082019050919050565b600060208201905081810360008301526115568161151a565b9050919050565b7f4475726174696f6e206d7573742062652067726561746572207468616e207a6560008201527f726f000000000000000000000000000000000000000000000000000000000000602082015250565b60006115b9602283610ef1565b91506115c48261155d565b604082019050919050565b600060208201905081810360008301526115e8816115ac565b9050919050565b60006115fa82610cc6565b915061160583610cc6565b925082820190508082111561161d5761161c610f6e565b5b92915050565b60006080820190506116386000830187610e66565b6116456020830186610d29565b6116526040830185610d29565b61165f6060830184610d29565b9594505050505056fea2646970667358221220cfa3e5fe77c6cc0f5608ed389d75dd5b240316cc6d43745cf459a81f5cc9be9964736f6c634300081c0033",
  "linkReferences": {},
  "deployedLinkReferences": {}
}